{
	"contracts/match.sol": {
		"TournamentDistributor": {
			"abi": [
				{
					"inputs": [
						{
							"internalType": "address",
							"name": "initialOwner",
							"type": "address"
						}
					],
					"stateMutability": "nonpayable",
					"type": "constructor"
				},
				{
					"inputs": [
						{
							"internalType": "address",
							"name": "owner",
							"type": "address"
						}
					],
					"name": "OwnableInvalidOwner",
					"type": "error"
				},
				{
					"inputs": [
						{
							"internalType": "address",
							"name": "account",
							"type": "address"
						}
					],
					"name": "OwnableUnauthorizedAccount",
					"type": "error"
				},
				{
					"inputs": [
						{
							"internalType": "address",
							"name": "token",
							"type": "address"
						}
					],
					"name": "SafeERC20FailedOperation",
					"type": "error"
				},
				{
					"anonymous": false,
					"inputs": [
						{
							"indexed": true,
							"internalType": "uint256",
							"name": "matchId",
							"type": "uint256"
						},
						{
							"indexed": true,
							"internalType": "address",
							"name": "player",
							"type": "address"
						},
						{
							"indexed": false,
							"internalType": "uint256",
							"name": "rank",
							"type": "uint256"
						},
						{
							"indexed": false,
							"internalType": "uint256",
							"name": "amount",
							"type": "uint256"
						}
					],
					"name": "Claimed",
					"type": "event"
				},
				{
					"anonymous": false,
					"inputs": [
						{
							"indexed": true,
							"internalType": "uint256",
							"name": "matchId",
							"type": "uint256"
						},
						{
							"indexed": false,
							"internalType": "uint256",
							"name": "fixedPool",
							"type": "uint256"
						},
						{
							"indexed": false,
							"internalType": "bytes32",
							"name": "merkleRoot",
							"type": "bytes32"
						}
					],
					"name": "Finalized",
					"type": "event"
				},
				{
					"anonymous": false,
					"inputs": [
						{
							"indexed": true,
							"internalType": "uint256",
							"name": "matchId",
							"type": "uint256"
						},
						{
							"indexed": false,
							"internalType": "address",
							"name": "token",
							"type": "address"
						},
						{
							"indexed": false,
							"internalType": "uint96",
							"name": "entryFee",
							"type": "uint96"
						},
						{
							"indexed": false,
							"internalType": "uint64",
							"name": "registerDeadline",
							"type": "uint64"
						}
					],
					"name": "MatchCreated",
					"type": "event"
				},
				{
					"anonymous": false,
					"inputs": [
						{
							"indexed": true,
							"internalType": "address",
							"name": "previousOwner",
							"type": "address"
						},
						{
							"indexed": true,
							"internalType": "address",
							"name": "newOwner",
							"type": "address"
						}
					],
					"name": "OwnershipTransferred",
					"type": "event"
				},
				{
					"anonymous": false,
					"inputs": [
						{
							"indexed": true,
							"internalType": "uint256",
							"name": "matchId",
							"type": "uint256"
						},
						{
							"indexed": true,
							"internalType": "address",
							"name": "player",
							"type": "address"
						},
						{
							"indexed": false,
							"internalType": "uint256",
							"name": "fee",
							"type": "uint256"
						}
					],
					"name": "Registered",
					"type": "event"
				},
				{
					"anonymous": false,
					"inputs": [
						{
							"indexed": true,
							"internalType": "uint256",
							"name": "matchId",
							"type": "uint256"
						},
						{
							"indexed": true,
							"internalType": "address",
							"name": "to",
							"type": "address"
						},
						{
							"indexed": false,
							"internalType": "uint256",
							"name": "amount",
							"type": "uint256"
						}
					],
					"name": "Skimmed",
					"type": "event"
				},
				{
					"anonymous": false,
					"inputs": [
						{
							"indexed": true,
							"internalType": "uint256",
							"name": "matchId",
							"type": "uint256"
						},
						{
							"indexed": true,
							"internalType": "address",
							"name": "from",
							"type": "address"
						},
						{
							"indexed": false,
							"internalType": "uint256",
							"name": "amount",
							"type": "uint256"
						}
					],
					"name": "Sponsored",
					"type": "event"
				},
				{
					"inputs": [
						{
							"internalType": "uint256",
							"name": "matchId",
							"type": "uint256"
						},
						{
							"internalType": "uint256",
							"name": "rank",
							"type": "uint256"
						},
						{
							"internalType": "bytes32[]",
							"name": "proof",
							"type": "bytes32[]"
						}
					],
					"name": "claim",
					"outputs": [],
					"stateMutability": "nonpayable",
					"type": "function"
				},
				{
					"inputs": [
						{
							"internalType": "uint256",
							"name": "",
							"type": "uint256"
						},
						{
							"internalType": "address",
							"name": "",
							"type": "address"
						}
					],
					"name": "claimed",
					"outputs": [
						{
							"internalType": "bool",
							"name": "",
							"type": "bool"
						}
					],
					"stateMutability": "view",
					"type": "function"
				},
				{
					"inputs": [
						{
							"internalType": "uint256",
							"name": "matchId",
							"type": "uint256"
						},
						{
							"internalType": "address",
							"name": "token",
							"type": "address"
						},
						{
							"internalType": "uint96",
							"name": "entryFee",
							"type": "uint96"
						},
						{
							"internalType": "uint64",
							"name": "registerDeadline",
							"type": "uint64"
						}
					],
					"name": "createMatch",
					"outputs": [],
					"stateMutability": "nonpayable",
					"type": "function"
				},
				{
					"inputs": [
						{
							"internalType": "uint256",
							"name": "matchId",
							"type": "uint256"
						},
						{
							"internalType": "uint32[]",
							"name": "shares",
							"type": "uint32[]"
						},
						{
							"internalType": "uint32",
							"name": "sharesSum",
							"type": "uint32"
						},
						{
							"internalType": "bytes32",
							"name": "merkleRoot",
							"type": "bytes32"
						},
						{
							"internalType": "uint256",
							"name": "fixedPoolInput",
							"type": "uint256"
						}
					],
					"name": "finalize",
					"outputs": [],
					"stateMutability": "nonpayable",
					"type": "function"
				},
				{
					"inputs": [
						{
							"internalType": "uint256",
							"name": "matchId",
							"type": "uint256"
						}
					],
					"name": "getMatchInfo",
					"outputs": [
						{
							"internalType": "address",
							"name": "token",
							"type": "address"
						},
						{
							"internalType": "uint96",
							"name": "entryFee",
							"type": "uint96"
						},
						{
							"internalType": "uint64",
							"name": "registerDeadline",
							"type": "uint64"
						},
						{
							"internalType": "uint256",
							"name": "fixedPool",
							"type": "uint256"
						},
						{
							"internalType": "uint256",
							"name": "currentPool",
							"type": "uint256"
						},
						{
							"internalType": "bytes32",
							"name": "merkleRoot",
							"type": "bytes32"
						},
						{
							"internalType": "uint32",
							"name": "sharesSum",
							"type": "uint32"
						},
						{
							"internalType": "bool",
							"name": "finalized",
							"type": "bool"
						}
					],
					"stateMutability": "view",
					"type": "function"
				},
				{
					"inputs": [
						{
							"internalType": "uint256",
							"name": "",
							"type": "uint256"
						}
					],
					"name": "matches",
					"outputs": [
						{
							"internalType": "address",
							"name": "token",
							"type": "address"
						},
						{
							"internalType": "uint256",
							"name": "fixedPool",
							"type": "uint256"
						},
						{
							"internalType": "bytes32",
							"name": "merkleRoot",
							"type": "bytes32"
						},
						{
							"internalType": "uint32",
							"name": "sharesSum",
							"type": "uint32"
						},
						{
							"internalType": "uint96",
							"name": "entryFee",
							"type": "uint96"
						},
						{
							"internalType": "uint64",
							"name": "registerDeadline",
							"type": "uint64"
						},
						{
							"internalType": "bool",
							"name": "finalized",
							"type": "bool"
						}
					],
					"stateMutability": "view",
					"type": "function"
				},
				{
					"inputs": [],
					"name": "owner",
					"outputs": [
						{
							"internalType": "address",
							"name": "",
							"type": "address"
						}
					],
					"stateMutability": "view",
					"type": "function"
				},
				{
					"inputs": [
						{
							"internalType": "uint256",
							"name": "",
							"type": "uint256"
						}
					],
					"name": "poolBalance",
					"outputs": [
						{
							"internalType": "uint256",
							"name": "",
							"type": "uint256"
						}
					],
					"stateMutability": "view",
					"type": "function"
				},
				{
					"inputs": [
						{
							"internalType": "uint256",
							"name": "matchId",
							"type": "uint256"
						},
						{
							"internalType": "uint256",
							"name": "rank",
							"type": "uint256"
						}
					],
					"name": "quotePayoutByRank",
					"outputs": [
						{
							"internalType": "uint32",
							"name": "share",
							"type": "uint32"
						},
						{
							"internalType": "uint256",
							"name": "amount",
							"type": "uint256"
						}
					],
					"stateMutability": "view",
					"type": "function"
				},
				{
					"inputs": [
						{
							"internalType": "uint256",
							"name": "",
							"type": "uint256"
						},
						{
							"internalType": "uint256",
							"name": "",
							"type": "uint256"
						}
					],
					"name": "rankShare",
					"outputs": [
						{
							"internalType": "uint32",
							"name": "",
							"type": "uint32"
						}
					],
					"stateMutability": "view",
					"type": "function"
				},
				{
					"inputs": [
						{
							"internalType": "uint256",
							"name": "matchId",
							"type": "uint256"
						}
					],
					"name": "register",
					"outputs": [],
					"stateMutability": "nonpayable",
					"type": "function"
				},
				{
					"inputs": [
						{
							"internalType": "uint256",
							"name": "",
							"type": "uint256"
						},
						{
							"internalType": "address",
							"name": "",
							"type": "address"
						}
					],
					"name": "registered",
					"outputs": [
						{
							"internalType": "bool",
							"name": "",
							"type": "bool"
						}
					],
					"stateMutability": "view",
					"type": "function"
				},
				{
					"inputs": [],
					"name": "renounceOwnership",
					"outputs": [],
					"stateMutability": "nonpayable",
					"type": "function"
				},
				{
					"inputs": [
						{
							"internalType": "uint256",
							"name": "matchId",
							"type": "uint256"
						},
						{
							"internalType": "address",
							"name": "to",
							"type": "address"
						},
						{
							"internalType": "uint256",
							"name": "amount",
							"type": "uint256"
						}
					],
					"name": "skim",
					"outputs": [],
					"stateMutability": "nonpayable",
					"type": "function"
				},
				{
					"inputs": [
						{
							"internalType": "uint256",
							"name": "matchId",
							"type": "uint256"
						},
						{
							"internalType": "uint256",
							"name": "amount",
							"type": "uint256"
						}
					],
					"name": "sponsor",
					"outputs": [],
					"stateMutability": "nonpayable",
					"type": "function"
				},
				{
					"inputs": [
						{
							"internalType": "uint256",
							"name": "matchId",
							"type": "uint256"
						},
						{
							"internalType": "address",
							"name": "player",
							"type": "address"
						}
					],
					"name": "status",
					"outputs": [
						{
							"internalType": "bool",
							"name": "isRegistered",
							"type": "bool"
						},
						{
							"internalType": "bool",
							"name": "isClaimed",
							"type": "bool"
						}
					],
					"stateMutability": "view",
					"type": "function"
				},
				{
					"inputs": [
						{
							"internalType": "address",
							"name": "newOwner",
							"type": "address"
						}
					],
					"name": "transferOwnership",
					"outputs": [],
					"stateMutability": "nonpayable",
					"type": "function"
				}
			],
			"devdoc": {
				"errors": {
					"OwnableInvalidOwner(address)": [
						{
							"details": "The owner is not a valid owner account. (eg. `address(0)`)"
						}
					],
					"OwnableUnauthorizedAccount(address)": [
						{
							"details": "The caller account is not authorized to perform an operation."
						}
					],
					"SafeERC20FailedOperation(address)": [
						{
							"details": "An operation with an ERC-20 token failed."
						}
					]
				},
				"kind": "dev",
				"methods": {
					"owner()": {
						"details": "Returns the address of the current owner."
					},
					"renounceOwnership()": {
						"details": "Leaves the contract without owner. It will not be possible to call `onlyOwner` functions. Can only be called by the current owner. NOTE: Renouncing ownership will leave the contract without an owner, thereby disabling any functionality that is only available to the owner."
					},
					"transferOwnership(address)": {
						"details": "Transfers ownership of the contract to a new account (`newOwner`). Can only be called by the current owner."
					}
				},
				"version": 1
			},
			"evm": {
				"assembly": "    /* \"contracts/match.sol\":627:13077  contract TournamentDistributor is Ownable {... */\n  mstore(0x40, 0x80)\n    /* \"contracts/match.sol\":3075:3133  constructor(address initialOwner) Ownable(initialOwner) {} */\n  callvalue\n  dup1\n  iszero\n  tag_1\n  jumpi\n  revert(0x00, 0x00)\ntag_1:\n  pop\n  mload(0x40)\n  sub(codesize, bytecodeSize)\n  dup1\n  bytecodeSize\n  dup4\n  codecopy\n  dup2\n  dup2\n  add\n  0x40\n  mstore\n  dup2\n  add\n  swap1\n  tag_2\n  swap2\n  swap1\n  tag_3\n  jump\t// in\ntag_2:\n    /* \"contracts/match.sol\":3117:3129  initialOwner */\n  dup1\n    /* \"@openzeppelin/contracts/access/Ownable.sol\":1297:1298  0 */\n  0x00\n    /* \"@openzeppelin/contracts/access/Ownable.sol\":1273:1299  initialOwner == address(0) */\n  0xffffffffffffffffffffffffffffffffffffffff\n  and\n    /* \"@openzeppelin/contracts/access/Ownable.sol\":1273:1285  initialOwner */\n  dup2\n    /* \"@openzeppelin/contracts/access/Ownable.sol\":1273:1299  initialOwner == address(0) */\n  0xffffffffffffffffffffffffffffffffffffffff\n  and\n  sub\n    /* \"@openzeppelin/contracts/access/Ownable.sol\":1269:1364  if (initialOwner == address(0)) {... */\n  tag_7\n  jumpi\n    /* \"@openzeppelin/contracts/access/Ownable.sol\":1350:1351  0 */\n  0x00\n    /* \"@openzeppelin/contracts/access/Ownable.sol\":1322:1353  OwnableInvalidOwner(address(0)) */\n  mload(0x40)\n  0x1e4fbdf700000000000000000000000000000000000000000000000000000000\n  dup2\n  mstore\n  0x04\n  add\n  tag_8\n  swap2\n  swap1\n  tag_9\n  jump\t// in\ntag_8:\n  mload(0x40)\n  dup1\n  swap2\n  sub\n  swap1\n  revert\n    /* \"@openzeppelin/contracts/access/Ownable.sol\":1269:1364  if (initialOwner == address(0)) {... */\ntag_7:\n    /* \"@openzeppelin/contracts/access/Ownable.sol\":1373:1405  _transferOwnership(initialOwner) */\n  tag_10\n    /* \"@openzeppelin/contracts/access/Ownable.sol\":1392:1404  initialOwner */\n  dup2\n    /* \"@openzeppelin/contracts/access/Ownable.sol\":1373:1391  _transferOwnership */\n  shl(0x20, tag_11)\n    /* \"@openzeppelin/contracts/access/Ownable.sol\":1373:1405  _transferOwnership(initialOwner) */\n  0x20\n  shr\n  jump\t// in\ntag_10:\n    /* \"@openzeppelin/contracts/access/Ownable.sol\":1225:1412  constructor(address initialOwner) {... */\n  pop\n    /* \"contracts/match.sol\":3075:3133  constructor(address initialOwner) Ownable(initialOwner) {} */\n  pop\n    /* \"contracts/match.sol\":627:13077  contract TournamentDistributor is Ownable {... */\n  jump(tag_13)\n    /* \"@openzeppelin/contracts/access/Ownable.sol\":2912:3099  function _transferOwnership(address newOwner) internal virtual {... */\ntag_11:\n    /* \"@openzeppelin/contracts/access/Ownable.sol\":2985:3001  address oldOwner */\n  0x00\n    /* \"@openzeppelin/contracts/access/Ownable.sol\":3004:3010  _owner */\n  0x00\n  0x00\n  swap1\n  sload\n  swap1\n  0x0100\n  exp\n  swap1\n  div\n  0xffffffffffffffffffffffffffffffffffffffff\n  and\n    /* \"@openzeppelin/contracts/access/Ownable.sol\":2985:3010  address oldOwner = _owner */\n  swap1\n  pop\n    /* \"@openzeppelin/contracts/access/Ownable.sol\":3029:3037  newOwner */\n  dup2\n    /* \"@openzeppelin/contracts/access/Ownable.sol\":3020:3026  _owner */\n  0x00\n  0x00\n    /* \"@openzeppelin/contracts/access/Ownable.sol\":3020:3037  _owner = newOwner */\n  0x0100\n  exp\n  dup2\n  sload\n  dup2\n  0xffffffffffffffffffffffffffffffffffffffff\n  mul\n  not\n  and\n  swap1\n  dup4\n  0xffffffffffffffffffffffffffffffffffffffff\n  and\n  mul\n  or\n  swap1\n  sstore\n  pop\n    /* \"@openzeppelin/contracts/access/Ownable.sol\":3083:3091  newOwner */\n  dup2\n    /* \"@openzeppelin/contracts/access/Ownable.sol\":3052:3092  OwnershipTransferred(oldOwner, newOwner) */\n  0xffffffffffffffffffffffffffffffffffffffff\n  and\n    /* \"@openzeppelin/contracts/access/Ownable.sol\":3073:3081  oldOwner */\n  dup2\n    /* \"@openzeppelin/contracts/access/Ownable.sol\":3052:3092  OwnershipTransferred(oldOwner, newOwner) */\n  0xffffffffffffffffffffffffffffffffffffffff\n  and\n  0x8be0079c531659141344cd1fd0a4f28419497f9722a3daafe3b4186f6b6457e0\n  mload(0x40)\n  mload(0x40)\n  dup1\n  swap2\n  sub\n  swap1\n  log3\n    /* \"@openzeppelin/contracts/access/Ownable.sol\":2975:3099  {... */\n  pop\n    /* \"@openzeppelin/contracts/access/Ownable.sol\":2912:3099  function _transferOwnership(address newOwner) internal virtual {... */\n  pop\n  jump\t// out\n    /* \"#utility.yul\":88:205   */\ntag_16:\n    /* \"#utility.yul\":197:198   */\n  0x00\n    /* \"#utility.yul\":194:195   */\n  0x00\n    /* \"#utility.yul\":187:199   */\n  revert\n    /* \"#utility.yul\":334:460   */\ntag_18:\n    /* \"#utility.yul\":371:378   */\n  0x00\n    /* \"#utility.yul\":411:453   */\n  0xffffffffffffffffffffffffffffffffffffffff\n    /* \"#utility.yul\":404:409   */\n  dup3\n    /* \"#utility.yul\":400:454   */\n  and\n    /* \"#utility.yul\":389:454   */\n  swap1\n  pop\n    /* \"#utility.yul\":334:460   */\n  swap2\n  swap1\n  pop\n  jump\t// out\n    /* \"#utility.yul\":466:562   */\ntag_19:\n    /* \"#utility.yul\":503:510   */\n  0x00\n    /* \"#utility.yul\":532:556   */\n  tag_29\n    /* \"#utility.yul\":550:555   */\n  dup3\n    /* \"#utility.yul\":532:556   */\n  tag_18\n  jump\t// in\ntag_29:\n    /* \"#utility.yul\":521:556   */\n  swap1\n  pop\n    /* \"#utility.yul\":466:562   */\n  swap2\n  swap1\n  pop\n  jump\t// out\n    /* \"#utility.yul\":568:690   */\ntag_20:\n    /* \"#utility.yul\":641:665   */\n  tag_31\n    /* \"#utility.yul\":659:664   */\n  dup2\n    /* \"#utility.yul\":641:665   */\n  tag_19\n  jump\t// in\ntag_31:\n    /* \"#utility.yul\":634:639   */\n  dup2\n    /* \"#utility.yul\":631:666   */\n  eq\n    /* \"#utility.yul\":621:684   */\n  tag_32\n  jumpi\n    /* \"#utility.yul\":680:681   */\n  0x00\n    /* \"#utility.yul\":677:678   */\n  0x00\n    /* \"#utility.yul\":670:682   */\n  revert\n    /* \"#utility.yul\":621:684   */\ntag_32:\n    /* \"#utility.yul\":568:690   */\n  pop\n  jump\t// out\n    /* \"#utility.yul\":696:839   */\ntag_21:\n    /* \"#utility.yul\":753:758   */\n  0x00\n    /* \"#utility.yul\":784:790   */\n  dup2\n    /* \"#utility.yul\":778:791   */\n  mload\n    /* \"#utility.yul\":769:791   */\n  swap1\n  pop\n    /* \"#utility.yul\":800:833   */\n  tag_34\n    /* \"#utility.yul\":827:832   */\n  dup2\n    /* \"#utility.yul\":800:833   */\n  tag_20\n  jump\t// in\ntag_34:\n    /* \"#utility.yul\":696:839   */\n  swap3\n  swap2\n  pop\n  pop\n  jump\t// out\n    /* \"#utility.yul\":845:1196   */\ntag_3:\n    /* \"#utility.yul\":915:921   */\n  0x00\n    /* \"#utility.yul\":964:966   */\n  0x20\n    /* \"#utility.yul\":952:961   */\n  dup3\n    /* \"#utility.yul\":943:950   */\n  dup5\n    /* \"#utility.yul\":939:962   */\n  sub\n    /* \"#utility.yul\":935:967   */\n  slt\n    /* \"#utility.yul\":932:1051   */\n  iszero\n  tag_36\n  jumpi\n    /* \"#utility.yul\":970:1049   */\n  tag_37\n  tag_16\n  jump\t// in\ntag_37:\n    /* \"#utility.yul\":932:1051   */\ntag_36:\n    /* \"#utility.yul\":1090:1091   */\n  0x00\n    /* \"#utility.yul\":1115:1179   */\n  tag_38\n    /* \"#utility.yul\":1171:1178   */\n  dup5\n    /* \"#utility.yul\":1162:1168   */\n  dup3\n    /* \"#utility.yul\":1151:1160   */\n  dup6\n    /* \"#utility.yul\":1147:1169   */\n  add\n    /* \"#utility.yul\":1115:1179   */\n  tag_21\n  jump\t// in\ntag_38:\n    /* \"#utility.yul\":1105:1179   */\n  swap2\n  pop\n    /* \"#utility.yul\":1061:1189   */\n  pop\n    /* \"#utility.yul\":845:1196   */\n  swap3\n  swap2\n  pop\n  pop\n  jump\t// out\n    /* \"#utility.yul\":1202:1320   */\ntag_22:\n    /* \"#utility.yul\":1289:1313   */\n  tag_40\n    /* \"#utility.yul\":1307:1312   */\n  dup2\n    /* \"#utility.yul\":1289:1313   */\n  tag_19\n  jump\t// in\ntag_40:\n    /* \"#utility.yul\":1284:1287   */\n  dup3\n    /* \"#utility.yul\":1277:1314   */\n  mstore\n    /* \"#utility.yul\":1202:1320   */\n  pop\n  pop\n  jump\t// out\n    /* \"#utility.yul\":1326:1548   */\ntag_9:\n    /* \"#utility.yul\":1419:1423   */\n  0x00\n    /* \"#utility.yul\":1457:1459   */\n  0x20\n    /* \"#utility.yul\":1446:1455   */\n  dup3\n    /* \"#utility.yul\":1442:1460   */\n  add\n    /* \"#utility.yul\":1434:1460   */\n  swap1\n  pop\n    /* \"#utility.yul\":1470:1541   */\n  tag_42\n    /* \"#utility.yul\":1538:1539   */\n  0x00\n    /* \"#utility.yul\":1527:1536   */\n  dup4\n    /* \"#utility.yul\":1523:1540   */\n  add\n    /* \"#utility.yul\":1514:1520   */\n  dup5\n    /* \"#utility.yul\":1470:1541   */\n  tag_22\n  jump\t// in\ntag_42:\n    /* \"#utility.yul\":1326:1548   */\n  swap3\n  swap2\n  pop\n  pop\n  jump\t// out\n    /* \"contracts/match.sol\":627:13077  contract TournamentDistributor is Ownable {... */\ntag_13:\n  dataSize(sub_0)\n  dup1\n  dataOffset(sub_0)\n  0x00\n  codecopy\n  0x00\n  return\nstop\n\nsub_0: assembly {\n        /* \"contracts/match.sol\":627:13077  contract TournamentDistributor is Ownable {... */\n      mstore(0x40, 0x80)\n      callvalue\n      dup1\n      iszero\n      tag_1\n      jumpi\n      revert(0x00, 0x00)\n    tag_1:\n      pop\n      jumpi(tag_2, lt(calldatasize, 0x04))\n      shr(0xe0, calldataload(0x00))\n      dup1\n      0x947fdb8b\n      gt\n      tag_20\n      jumpi\n      dup1\n      0xdb1698b2\n      gt\n      tag_21\n      jumpi\n      dup1\n      0xdb1698b2\n      eq\n      tag_15\n      jumpi\n      dup1\n      0xe23e4cab\n      eq\n      tag_16\n      jumpi\n      dup1\n      0xf207564e\n      eq\n      tag_17\n      jumpi\n      dup1\n      0xf2fde38b\n      eq\n      tag_18\n      jumpi\n      dup1\n      0xf8d4a975\n      eq\n      tag_19\n      jumpi\n      jump(tag_2)\n    tag_21:\n      dup1\n      0x947fdb8b\n      eq\n      tag_11\n      jumpi\n      dup1\n      0xae0b51df\n      eq\n      tag_12\n      jumpi\n      dup1\n      0xb4921afd\n      eq\n      tag_13\n      jumpi\n      dup1\n      0xb756a459\n      eq\n      tag_14\n      jumpi\n      jump(tag_2)\n    tag_20:\n      dup1\n      0x6a6d964e\n      gt\n      tag_22\n      jumpi\n      dup1\n      0x6a6d964e\n      eq\n      tag_7\n      jumpi\n      dup1\n      0x715018a6\n      eq\n      tag_8\n      jumpi\n      dup1\n      0x8c817b6e\n      eq\n      tag_9\n      jumpi\n      dup1\n      0x8da5cb5b\n      eq\n      tag_10\n      jumpi\n      jump(tag_2)\n    tag_22:\n      dup1\n      0x0d0a80b0\n      eq\n      tag_3\n      jumpi\n      dup1\n      0x120aa877\n      eq\n      tag_4\n      jumpi\n      dup1\n      0x4768d4ef\n      eq\n      tag_5\n      jumpi\n      dup1\n      0x4b561a16\n      eq\n      tag_6\n      jumpi\n    tag_2:\n      revert(0x00, 0x00)\n        /* \"contracts/match.sol\":11403:11840  function quotePayoutByRank(uint256 matchId, uint256 rank) external view returns (uint32 share, uint256 amount) {... */\n    tag_3:\n      tag_23\n      0x04\n      dup1\n      calldatasize\n      sub\n      dup2\n      add\n      swap1\n      tag_24\n      swap2\n      swap1\n      tag_25\n      jump\t// in\n    tag_24:\n      tag_26\n      jump\t// in\n    tag_23:\n      mload(0x40)\n      tag_27\n      swap3\n      swap2\n      swap1\n      tag_28\n      jump\t// in\n    tag_27:\n      mload(0x40)\n      dup1\n      swap2\n      sub\n      swap1\n      return\n        /* \"contracts/match.sol\":2351:2410  mapping(uint256 => mapping(address => bool)) public claimed */\n    tag_4:\n      tag_29\n      0x04\n      dup1\n      calldatasize\n      sub\n      dup2\n      add\n      swap1\n      tag_30\n      swap2\n      swap1\n      tag_31\n      jump\t// in\n    tag_30:\n      tag_32\n      jump\t// in\n    tag_29:\n      mload(0x40)\n      tag_33\n      swap2\n      swap1\n      tag_34\n      jump\t// in\n    tag_33:\n      mload(0x40)\n      dup1\n      swap2\n      sub\n      swap1\n      return\n        /* \"contracts/match.sol\":1720:1764  mapping(uint256 => MatchInfo) public matches */\n    tag_5:\n      tag_35\n      0x04\n      dup1\n      calldatasize\n      sub\n      dup2\n      add\n      swap1\n      tag_36\n      swap2\n      swap1\n      tag_37\n      jump\t// in\n    tag_36:\n      tag_38\n      jump\t// in\n    tag_35:\n      mload(0x40)\n      tag_39\n      swap8\n      swap7\n      swap6\n      swap5\n      swap4\n      swap3\n      swap2\n      swap1\n      tag_40\n      jump\t// in\n    tag_39:\n      mload(0x40)\n      dup1\n      swap2\n      sub\n      swap1\n      return\n        /* \"contracts/match.sol\":10477:11308  function getMatchInfo(uint256 matchId)... */\n    tag_6:\n      tag_41\n      0x04\n      dup1\n      calldatasize\n      sub\n      dup2\n      add\n      swap1\n      tag_42\n      swap2\n      swap1\n      tag_37\n      jump\t// in\n    tag_42:\n      tag_43\n      jump\t// in\n    tag_41:\n      mload(0x40)\n      tag_44\n      swap9\n      swap8\n      swap7\n      swap6\n      swap5\n      swap4\n      swap3\n      swap2\n      swap1\n      tag_45\n      jump\t// in\n    tag_44:\n      mload(0x40)\n      dup1\n      swap2\n      sub\n      swap1\n      return\n        /* \"contracts/match.sol\":2096:2142  mapping(uint256 => uint256) public poolBalance */\n    tag_7:\n      tag_46\n      0x04\n      dup1\n      calldatasize\n      sub\n      dup2\n      add\n      swap1\n      tag_47\n      swap2\n      swap1\n      tag_37\n      jump\t// in\n    tag_47:\n      tag_48\n      jump\t// in\n    tag_46:\n      mload(0x40)\n      tag_49\n      swap2\n      swap1\n      tag_50\n      jump\t// in\n    tag_49:\n      mload(0x40)\n      dup1\n      swap2\n      sub\n      swap1\n      return\n        /* \"@openzeppelin/contracts/access/Ownable.sol\":2293:2394  function renounceOwnership() public virtual onlyOwner {... */\n    tag_8:\n      tag_51\n      tag_52\n      jump\t// in\n    tag_51:\n      stop\n        /* \"contracts/match.sol\":2217:2279  mapping(uint256 => mapping(address => bool)) public registered */\n    tag_9:\n      tag_53\n      0x04\n      dup1\n      calldatasize\n      sub\n      dup2\n      add\n      swap1\n      tag_54\n      swap2\n      swap1\n      tag_31\n      jump\t// in\n    tag_54:\n      tag_55\n      jump\t// in\n    tag_53:\n      mload(0x40)\n      tag_56\n      swap2\n      swap1\n      tag_34\n      jump\t// in\n    tag_56:\n      mload(0x40)\n      dup1\n      swap2\n      sub\n      swap1\n      return\n        /* \"@openzeppelin/contracts/access/Ownable.sol\":1638:1723  function owner() public view virtual returns (address) {... */\n    tag_10:\n      tag_57\n      tag_58\n      jump\t// in\n    tag_57:\n      mload(0x40)\n      tag_59\n      swap2\n      swap1\n      tag_60\n      jump\t// in\n    tag_59:\n      mload(0x40)\n      dup1\n      swap2\n      sub\n      swap1\n      return\n        /* \"contracts/match.sol\":4225:4758  function sponsor(uint256 matchId, uint256 amount) external onlyOwner {... */\n    tag_11:\n      tag_61\n      0x04\n      dup1\n      calldatasize\n      sub\n      dup2\n      add\n      swap1\n      tag_62\n      swap2\n      swap1\n      tag_25\n      jump\t// in\n    tag_62:\n      tag_63\n      jump\t// in\n    tag_61:\n      stop\n        /* \"contracts/match.sol\":8239:9803  function claim(uint256 matchId, uint256 rank, bytes32[] calldata proof) external {... */\n    tag_12:\n      tag_64\n      0x04\n      dup1\n      calldatasize\n      sub\n      dup2\n      add\n      swap1\n      tag_65\n      swap2\n      swap1\n      tag_66\n      jump\t// in\n    tag_65:\n      tag_67\n      jump\t// in\n    tag_64:\n      stop\n        /* \"contracts/match.sol\":6249:8152  function finalize(... */\n    tag_13:\n      tag_68\n      0x04\n      dup1\n      calldatasize\n      sub\n      dup2\n      add\n      swap1\n      tag_69\n      swap2\n      swap1\n      tag_70\n      jump\t// in\n    tag_69:\n      tag_71\n      jump\t// in\n    tag_68:\n      stop\n        /* \"contracts/match.sol\":9907:10370  function skim(uint256 matchId, address to, uint256 amount) external onlyOwner {... */\n    tag_14:\n      tag_72\n      0x04\n      dup1\n      calldatasize\n      sub\n      dup2\n      add\n      swap1\n      tag_73\n      swap2\n      swap1\n      tag_74\n      jump\t// in\n    tag_73:\n      tag_75\n      jump\t// in\n    tag_72:\n      stop\n        /* \"contracts/match.sol\":11908:12172  function status(uint256 matchId, address player) external view returns (bool isRegistered, bool isClaimed) {... */\n    tag_15:\n      tag_76\n      0x04\n      dup1\n      calldatasize\n      sub\n      dup2\n      add\n      swap1\n      tag_77\n      swap2\n      swap1\n      tag_31\n      jump\t// in\n    tag_77:\n      tag_78\n      jump\t// in\n    tag_76:\n      mload(0x40)\n      tag_79\n      swap3\n      swap2\n      swap1\n      tag_80\n      jump\t// in\n    tag_79:\n      mload(0x40)\n      dup1\n      swap2\n      sub\n      swap1\n      return\n        /* \"contracts/match.sol\":1840:1903  mapping(uint256 => mapping(uint256 => uint32)) public rankShare */\n    tag_16:\n      tag_81\n      0x04\n      dup1\n      calldatasize\n      sub\n      dup2\n      add\n      swap1\n      tag_82\n      swap2\n      swap1\n      tag_25\n      jump\t// in\n    tag_82:\n      tag_83\n      jump\t// in\n    tag_81:\n      mload(0x40)\n      tag_84\n      swap2\n      swap1\n      tag_85\n      jump\t// in\n    tag_84:\n      mload(0x40)\n      dup1\n      swap2\n      sub\n      swap1\n      return\n        /* \"contracts/match.sol\":4856:5911  function register(uint256 matchId) external {... */\n    tag_17:\n      tag_86\n      0x04\n      dup1\n      calldatasize\n      sub\n      dup2\n      add\n      swap1\n      tag_87\n      swap2\n      swap1\n      tag_37\n      jump\t// in\n    tag_87:\n      tag_88\n      jump\t// in\n    tag_86:\n      stop\n        /* \"@openzeppelin/contracts/access/Ownable.sol\":2543:2758  function transferOwnership(address newOwner) public virtual onlyOwner {... */\n    tag_18:\n      tag_89\n      0x04\n      dup1\n      calldatasize\n      sub\n      dup2\n      add\n      swap1\n      tag_90\n      swap2\n      swap1\n      tag_91\n      jump\t// in\n    tag_90:\n      tag_92\n      jump\t// in\n    tag_89:\n      stop\n        /* \"contracts/match.sol\":3229:4107  function createMatch(... */\n    tag_19:\n      tag_93\n      0x04\n      dup1\n      calldatasize\n      sub\n      dup2\n      add\n      swap1\n      tag_94\n      swap2\n      swap1\n      tag_95\n      jump\t// in\n    tag_94:\n      tag_96\n      jump\t// in\n    tag_93:\n      stop\n        /* \"contracts/match.sol\":11403:11840  function quotePayoutByRank(uint256 matchId, uint256 rank) external view returns (uint32 share, uint256 amount) {... */\n    tag_26:\n        /* \"contracts/match.sol\":11484:11496  uint32 share */\n      0x00\n        /* \"contracts/match.sol\":11498:11512  uint256 amount */\n      0x00\n        /* \"contracts/match.sol\":11524:11542  MatchInfo memory m */\n      0x00\n        /* \"contracts/match.sol\":11545:11552  matches */\n      0x01\n        /* \"contracts/match.sol\":11545:11561  matches[matchId] */\n      0x00\n        /* \"contracts/match.sol\":11553:11560  matchId */\n      dup7\n        /* \"contracts/match.sol\":11545:11561  matches[matchId] */\n      dup2\n      mstore\n      0x20\n      add\n      swap1\n      dup2\n      mstore\n      0x20\n      add\n      0x00\n      keccak256\n        /* \"contracts/match.sol\":11524:11561  MatchInfo memory m = matches[matchId] */\n      mload(0x40)\n      dup1\n      0xe0\n      add\n      0x40\n      mstore\n      swap1\n      dup2\n      0x00\n      dup3\n      add\n      0x00\n      swap1\n      sload\n      swap1\n      0x0100\n      exp\n      swap1\n      div\n      0xffffffffffffffffffffffffffffffffffffffff\n      and\n      0xffffffffffffffffffffffffffffffffffffffff\n      and\n      0xffffffffffffffffffffffffffffffffffffffff\n      and\n      dup2\n      mstore\n      0x20\n      add\n      0x01\n      dup3\n      add\n      sload\n      dup2\n      mstore\n      0x20\n      add\n      0x02\n      dup3\n      add\n      sload\n      dup2\n      mstore\n      0x20\n      add\n      0x03\n      dup3\n      add\n      0x00\n      swap1\n      sload\n      swap1\n      0x0100\n      exp\n      swap1\n      div\n      0xffffffff\n      and\n      0xffffffff\n      and\n      0xffffffff\n      and\n      dup2\n      mstore\n      0x20\n      add\n      0x03\n      dup3\n      add\n      0x04\n      swap1\n      sload\n      swap1\n      0x0100\n      exp\n      swap1\n      div\n      0xffffffffffffffffffffffff\n      and\n      0xffffffffffffffffffffffff\n      and\n      0xffffffffffffffffffffffff\n      and\n      dup2\n      mstore\n      0x20\n      add\n      0x03\n      dup3\n      add\n      0x10\n      swap1\n      sload\n      swap1\n      0x0100\n      exp\n      swap1\n      div\n      0xffffffffffffffff\n      and\n      0xffffffffffffffff\n      and\n      0xffffffffffffffff\n      and\n      dup2\n      mstore\n      0x20\n      add\n      0x03\n      dup3\n      add\n      0x18\n      swap1\n      sload\n      swap1\n      0x0100\n      exp\n      swap1\n      div\n      0xff\n      and\n      iszero\n      iszero\n      iszero\n      iszero\n      dup2\n      mstore\n      pop\n      pop\n      swap1\n      pop\n        /* \"contracts/match.sol\":11579:11588  rankShare */\n      0x02\n        /* \"contracts/match.sol\":11579:11597  rankShare[matchId] */\n      0x00\n        /* \"contracts/match.sol\":11589:11596  matchId */\n      dup7\n        /* \"contracts/match.sol\":11579:11597  rankShare[matchId] */\n      dup2\n      mstore\n      0x20\n      add\n      swap1\n      dup2\n      mstore\n      0x20\n      add\n      0x00\n      keccak256\n        /* \"contracts/match.sol\":11579:11603  rankShare[matchId][rank] */\n      0x00\n        /* \"contracts/match.sol\":11598:11602  rank */\n      dup6\n        /* \"contracts/match.sol\":11579:11603  rankShare[matchId][rank] */\n      dup2\n      mstore\n      0x20\n      add\n      swap1\n      dup2\n      mstore\n      0x20\n      add\n      0x00\n      keccak256\n      0x00\n      swap1\n      sload\n      swap1\n      0x0100\n      exp\n      swap1\n      div\n      0xffffffff\n      and\n        /* \"contracts/match.sol\":11571:11603  share = rankShare[matchId][rank] */\n      swap3\n      pop\n        /* \"contracts/match.sol\":11668:11669  0 */\n      0x00\n        /* \"contracts/match.sol\":11659:11664  share */\n      dup4\n        /* \"contracts/match.sol\":11659:11669  share == 0 */\n      0xffffffff\n      and\n      eq\n        /* \"contracts/match.sol\":11659:11689  share == 0 || m.sharesSum == 0 */\n      dup1\n      tag_98\n      jumpi\n      pop\n        /* \"contracts/match.sol\":11688:11689  0 */\n      0x00\n        /* \"contracts/match.sol\":11673:11674  m */\n      dup2\n        /* \"contracts/match.sol\":11673:11684  m.sharesSum */\n      0x60\n      add\n      mload\n        /* \"contracts/match.sol\":11673:11689  m.sharesSum == 0 */\n      0xffffffff\n      and\n      eq\n        /* \"contracts/match.sol\":11659:11689  share == 0 || m.sharesSum == 0 */\n    tag_98:\n        /* \"contracts/match.sol\":11655:11708  if (share == 0 || m.sharesSum == 0) return (share, 0) */\n      iszero\n      tag_99\n      jumpi\n        /* \"contracts/match.sol\":11699:11704  share */\n      dup3\n        /* \"contracts/match.sol\":11706:11707  0 */\n      0x00\n        /* \"contracts/match.sol\":11691:11708  return (share, 0) */\n      swap3\n      pop\n      swap3\n      pop\n      pop\n      jump(tag_97)\n        /* \"contracts/match.sol\":11655:11708  if (share == 0 || m.sharesSum == 0) return (share, 0) */\n    tag_99:\n        /* \"contracts/match.sol\":11795:11796  m */\n      dup1\n        /* \"contracts/match.sol\":11795:11806  m.sharesSum */\n      0x60\n      add\n      mload\n        /* \"contracts/match.sol\":11771:11806  (m.fixedPool * share) / m.sharesSum */\n      0xffffffff\n      and\n        /* \"contracts/match.sol\":11786:11791  share */\n      dup4\n        /* \"contracts/match.sol\":11772:11791  m.fixedPool * share */\n      0xffffffff\n      and\n        /* \"contracts/match.sol\":11772:11773  m */\n      dup3\n        /* \"contracts/match.sol\":11772:11783  m.fixedPool */\n      0x20\n      add\n      mload\n        /* \"contracts/match.sol\":11772:11791  m.fixedPool * share */\n      tag_100\n      swap2\n      swap1\n      tag_101\n      jump\t// in\n    tag_100:\n        /* \"contracts/match.sol\":11771:11806  (m.fixedPool * share) / m.sharesSum */\n      tag_102\n      swap2\n      swap1\n      tag_103\n      jump\t// in\n    tag_102:\n        /* \"contracts/match.sol\":11762:11806  amount = (m.fixedPool * share) / m.sharesSum */\n      swap2\n      pop\n        /* \"contracts/match.sol\":11514:11840  {... */\n      pop\n        /* \"contracts/match.sol\":11403:11840  function quotePayoutByRank(uint256 matchId, uint256 rank) external view returns (uint32 share, uint256 amount) {... */\n    tag_97:\n      swap3\n      pop\n      swap3\n      swap1\n      pop\n      jump\t// out\n        /* \"contracts/match.sol\":2351:2410  mapping(uint256 => mapping(address => bool)) public claimed */\n    tag_32:\n      mstore(0x20, 0x05)\n      dup2\n      0x00\n      mstore\n      mstore(0x20, keccak256(0x00, 0x40))\n      dup1\n      0x00\n      mstore\n      keccak256(0x00, 0x40)\n      0x00\n      swap2\n      pop\n      swap2\n      pop\n      swap1\n      sload\n      swap1\n      0x0100\n      exp\n      swap1\n      div\n      0xff\n      and\n      dup2\n      jump\t// out\n        /* \"contracts/match.sol\":1720:1764  mapping(uint256 => MatchInfo) public matches */\n    tag_38:\n      mstore(0x20, 0x01)\n      dup1\n      0x00\n      mstore\n      keccak256(0x00, 0x40)\n      0x00\n      swap2\n      pop\n      swap1\n      pop\n      dup1\n      0x00\n      add\n      0x00\n      swap1\n      sload\n      swap1\n      0x0100\n      exp\n      swap1\n      div\n      0xffffffffffffffffffffffffffffffffffffffff\n      and\n      swap1\n      dup1\n      0x01\n      add\n      sload\n      swap1\n      dup1\n      0x02\n      add\n      sload\n      swap1\n      dup1\n      0x03\n      add\n      0x00\n      swap1\n      sload\n      swap1\n      0x0100\n      exp\n      swap1\n      div\n      0xffffffff\n      and\n      swap1\n      dup1\n      0x03\n      add\n      0x04\n      swap1\n      sload\n      swap1\n      0x0100\n      exp\n      swap1\n      div\n      0xffffffffffffffffffffffff\n      and\n      swap1\n      dup1\n      0x03\n      add\n      0x10\n      swap1\n      sload\n      swap1\n      0x0100\n      exp\n      swap1\n      div\n      0xffffffffffffffff\n      and\n      swap1\n      dup1\n      0x03\n      add\n      0x18\n      swap1\n      sload\n      swap1\n      0x0100\n      exp\n      swap1\n      div\n      0xff\n      and\n      swap1\n      pop\n      dup8\n      jump\t// out\n        /* \"contracts/match.sol\":10477:11308  function getMatchInfo(uint256 matchId)... */\n    tag_43:\n        /* \"contracts/match.sol\":10576:10589  address token */\n      0x00\n        /* \"contracts/match.sol\":10629:10644  uint96 entryFee */\n      0x00\n        /* \"contracts/match.sol\":10679:10702  uint64 registerDeadline */\n      0x00\n        /* \"contracts/match.sol\":10732:10749  uint256 fixedPool */\n      0x00\n        /* \"contracts/match.sol\":10791:10810  uint256 currentPool */\n      0x00\n        /* \"contracts/match.sol\":10850:10868  bytes32 merkleRoot */\n      0x00\n        /* \"contracts/match.sol\":10901:10917  uint32 sharesSum */\n      0x00\n        /* \"contracts/match.sol\":10954:10968  bool finalized */\n      0x00\n        /* \"contracts/match.sol\":11025:11043  MatchInfo memory m */\n      0x00\n        /* \"contracts/match.sol\":11046:11053  matches */\n      0x01\n        /* \"contracts/match.sol\":11046:11062  matches[matchId] */\n      0x00\n        /* \"contracts/match.sol\":11054:11061  matchId */\n      dup12\n        /* \"contracts/match.sol\":11046:11062  matches[matchId] */\n      dup2\n      mstore\n      0x20\n      add\n      swap1\n      dup2\n      mstore\n      0x20\n      add\n      0x00\n      keccak256\n        /* \"contracts/match.sol\":11025:11062  MatchInfo memory m = matches[matchId] */\n      mload(0x40)\n      dup1\n      0xe0\n      add\n      0x40\n      mstore\n      swap1\n      dup2\n      0x00\n      dup3\n      add\n      0x00\n      swap1\n      sload\n      swap1\n      0x0100\n      exp\n      swap1\n      div\n      0xffffffffffffffffffffffffffffffffffffffff\n      and\n      0xffffffffffffffffffffffffffffffffffffffff\n      and\n      0xffffffffffffffffffffffffffffffffffffffff\n      and\n      dup2\n      mstore\n      0x20\n      add\n      0x01\n      dup3\n      add\n      sload\n      dup2\n      mstore\n      0x20\n      add\n      0x02\n      dup3\n      add\n      sload\n      dup2\n      mstore\n      0x20\n      add\n      0x03\n      dup3\n      add\n      0x00\n      swap1\n      sload\n      swap1\n      0x0100\n      exp\n      swap1\n      div\n      0xffffffff\n      and\n      0xffffffff\n      and\n      0xffffffff\n      and\n      dup2\n      mstore\n      0x20\n      add\n      0x03\n      dup3\n      add\n      0x04\n      swap1\n      sload\n      swap1\n      0x0100\n      exp\n      swap1\n      div\n      0xffffffffffffffffffffffff\n      and\n      0xffffffffffffffffffffffff\n      and\n      0xffffffffffffffffffffffff\n      and\n      dup2\n      mstore\n      0x20\n      add\n      0x03\n      dup3\n      add\n      0x10\n      swap1\n      sload\n      swap1\n      0x0100\n      exp\n      swap1\n      div\n      0xffffffffffffffff\n      and\n      0xffffffffffffffff\n      and\n      0xffffffffffffffff\n      and\n      dup2\n      mstore\n      0x20\n      add\n      0x03\n      dup3\n      add\n      0x18\n      swap1\n      sload\n      swap1\n      0x0100\n      exp\n      swap1\n      div\n      0xff\n      and\n      iszero\n      iszero\n      iszero\n      iszero\n      dup2\n      mstore\n      pop\n      pop\n      swap1\n      pop\n        /* \"contracts/match.sol\":11093:11094  m */\n      dup1\n        /* \"contracts/match.sol\":11093:11100  m.token */\n      0x00\n      add\n      mload\n        /* \"contracts/match.sol\":11114:11115  m */\n      dup2\n        /* \"contracts/match.sol\":11114:11124  m.entryFee */\n      0x80\n      add\n      mload\n        /* \"contracts/match.sol\":11138:11139  m */\n      dup3\n        /* \"contracts/match.sol\":11138:11156  m.registerDeadline */\n      0xa0\n      add\n      mload\n        /* \"contracts/match.sol\":11170:11171  m */\n      dup4\n        /* \"contracts/match.sol\":11170:11181  m.fixedPool */\n      0x20\n      add\n      mload\n        /* \"contracts/match.sol\":11195:11206  poolBalance */\n      0x03\n        /* \"contracts/match.sol\":11195:11215  poolBalance[matchId] */\n      0x00\n        /* \"contracts/match.sol\":11207:11214  matchId */\n      dup16\n        /* \"contracts/match.sol\":11195:11215  poolBalance[matchId] */\n      dup2\n      mstore\n      0x20\n      add\n      swap1\n      dup2\n      mstore\n      0x20\n      add\n      0x00\n      keccak256\n      sload\n        /* \"contracts/match.sol\":11229:11230  m */\n      dup6\n        /* \"contracts/match.sol\":11229:11241  m.merkleRoot */\n      0x40\n      add\n      mload\n        /* \"contracts/match.sol\":11255:11256  m */\n      dup7\n        /* \"contracts/match.sol\":11255:11266  m.sharesSum */\n      0x60\n      add\n      mload\n        /* \"contracts/match.sol\":11280:11281  m */\n      dup8\n        /* \"contracts/match.sol\":11280:11291  m.finalized */\n      0xc0\n      add\n      mload\n        /* \"contracts/match.sol\":11072:11301  return (... */\n      swap9\n      pop\n      swap9\n      pop\n      swap9\n      pop\n      swap9\n      pop\n      swap9\n      pop\n      swap9\n      pop\n      swap9\n      pop\n      swap9\n      pop\n      pop\n        /* \"contracts/match.sol\":10477:11308  function getMatchInfo(uint256 matchId)... */\n      swap2\n      swap4\n      swap6\n      swap8\n      pop\n      swap2\n      swap4\n      swap6\n      swap8\n      jump\t// out\n        /* \"contracts/match.sol\":2096:2142  mapping(uint256 => uint256) public poolBalance */\n    tag_48:\n      mstore(0x20, 0x03)\n      dup1\n      0x00\n      mstore\n      keccak256(0x00, 0x40)\n      0x00\n      swap2\n      pop\n      swap1\n      pop\n      sload\n      dup2\n      jump\t// out\n        /* \"@openzeppelin/contracts/access/Ownable.sol\":2293:2394  function renounceOwnership() public virtual onlyOwner {... */\n    tag_52:\n        /* \"@openzeppelin/contracts/access/Ownable.sol\":1531:1544  _checkOwner() */\n      tag_106\n        /* \"@openzeppelin/contracts/access/Ownable.sol\":1531:1542  _checkOwner */\n      tag_107\n        /* \"@openzeppelin/contracts/access/Ownable.sol\":1531:1544  _checkOwner() */\n      jump\t// in\n    tag_106:\n        /* \"@openzeppelin/contracts/access/Ownable.sol\":2357:2387  _transferOwnership(address(0)) */\n      tag_109\n        /* \"@openzeppelin/contracts/access/Ownable.sol\":2384:2385  0 */\n      0x00\n        /* \"@openzeppelin/contracts/access/Ownable.sol\":2357:2375  _transferOwnership */\n      tag_110\n        /* \"@openzeppelin/contracts/access/Ownable.sol\":2357:2387  _transferOwnership(address(0)) */\n      jump\t// in\n    tag_109:\n        /* \"@openzeppelin/contracts/access/Ownable.sol\":2293:2394  function renounceOwnership() public virtual onlyOwner {... */\n      jump\t// out\n        /* \"contracts/match.sol\":2217:2279  mapping(uint256 => mapping(address => bool)) public registered */\n    tag_55:\n      mstore(0x20, 0x04)\n      dup2\n      0x00\n      mstore\n      mstore(0x20, keccak256(0x00, 0x40))\n      dup1\n      0x00\n      mstore\n      keccak256(0x00, 0x40)\n      0x00\n      swap2\n      pop\n      swap2\n      pop\n      swap1\n      sload\n      swap1\n      0x0100\n      exp\n      swap1\n      div\n      0xff\n      and\n      dup2\n      jump\t// out\n        /* \"@openzeppelin/contracts/access/Ownable.sol\":1638:1723  function owner() public view virtual returns (address) {... */\n    tag_58:\n        /* \"@openzeppelin/contracts/access/Ownable.sol\":1684:1691  address */\n      0x00\n        /* \"@openzeppelin/contracts/access/Ownable.sol\":1710:1716  _owner */\n      0x00\n      0x00\n      swap1\n      sload\n      swap1\n      0x0100\n      exp\n      swap1\n      div\n      0xffffffffffffffffffffffffffffffffffffffff\n      and\n        /* \"@openzeppelin/contracts/access/Ownable.sol\":1703:1716  return _owner */\n      swap1\n      pop\n        /* \"@openzeppelin/contracts/access/Ownable.sol\":1638:1723  function owner() public view virtual returns (address) {... */\n      swap1\n      jump\t// out\n        /* \"contracts/match.sol\":4225:4758  function sponsor(uint256 matchId, uint256 amount) external onlyOwner {... */\n    tag_63:\n        /* \"@openzeppelin/contracts/access/Ownable.sol\":1531:1544  _checkOwner() */\n      tag_113\n        /* \"@openzeppelin/contracts/access/Ownable.sol\":1531:1542  _checkOwner */\n      tag_107\n        /* \"@openzeppelin/contracts/access/Ownable.sol\":1531:1544  _checkOwner() */\n      jump\t// in\n    tag_113:\n        /* \"contracts/match.sol\":4321:4322  0 */\n      0x00\n        /* \"contracts/match.sol\":4312:4318  amount */\n      dup2\n        /* \"contracts/match.sol\":4312:4322  amount > 0 */\n      gt\n        /* \"contracts/match.sol\":4304:4335  require(amount > 0, \"amount=0\") */\n      tag_115\n      jumpi\n      mload(0x40)\n      0x08c379a000000000000000000000000000000000000000000000000000000000\n      dup2\n      mstore\n      0x04\n      add\n      tag_116\n      swap1\n      tag_117\n      jump\t// in\n    tag_116:\n      mload(0x40)\n      dup1\n      swap2\n      sub\n      swap1\n      revert\n    tag_115:\n        /* \"contracts/match.sol\":4384:4403  MatchInfo storage m */\n      0x00\n        /* \"contracts/match.sol\":4406:4413  matches */\n      0x01\n        /* \"contracts/match.sol\":4406:4422  matches[matchId] */\n      0x00\n        /* \"contracts/match.sol\":4414:4421  matchId */\n      dup5\n        /* \"contracts/match.sol\":4406:4422  matches[matchId] */\n      dup2\n      mstore\n      0x20\n      add\n      swap1\n      dup2\n      mstore\n      0x20\n      add\n      0x00\n      keccak256\n        /* \"contracts/match.sol\":4384:4422  MatchInfo storage m = matches[matchId] */\n      swap1\n      pop\n        /* \"contracts/match.sol\":4459:4460  0 */\n      0x00\n        /* \"contracts/match.sol\":4440:4461  m.token != address(0) */\n      0xffffffffffffffffffffffffffffffffffffffff\n      and\n        /* \"contracts/match.sol\":4440:4441  m */\n      dup2\n        /* \"contracts/match.sol\":4440:4447  m.token */\n      0x00\n      add\n      0x00\n      swap1\n      sload\n      swap1\n      0x0100\n      exp\n      swap1\n      div\n      0xffffffffffffffffffffffffffffffffffffffff\n      and\n        /* \"contracts/match.sol\":4440:4461  m.token != address(0) */\n      0xffffffffffffffffffffffffffffffffffffffff\n      and\n      sub\n        /* \"contracts/match.sol\":4432:4479  require(m.token != address(0), \"match not set\") */\n      tag_118\n      jumpi\n      mload(0x40)\n      0x08c379a000000000000000000000000000000000000000000000000000000000\n      dup2\n      mstore\n      0x04\n      add\n      tag_119\n      swap1\n      tag_120\n      jump\t// in\n    tag_119:\n      mload(0x40)\n      dup1\n      swap2\n      sub\n      swap1\n      revert\n    tag_118:\n        /* \"contracts/match.sol\":4511:4578  IERC20(m.token).safeTransferFrom(msg.sender, address(this), amount) */\n      tag_121\n        /* \"contracts/match.sol\":4544:4554  msg.sender */\n      caller\n        /* \"contracts/match.sol\":4564:4568  this */\n      address\n        /* \"contracts/match.sol\":4571:4577  amount */\n      dup5\n        /* \"contracts/match.sol\":4518:4519  m */\n      dup5\n        /* \"contracts/match.sol\":4518:4525  m.token */\n      0x00\n      add\n      0x00\n      swap1\n      sload\n      swap1\n      0x0100\n      exp\n      swap1\n      div\n      0xffffffffffffffffffffffffffffffffffffffff\n      and\n        /* \"contracts/match.sol\":4511:4543  IERC20(m.token).safeTransferFrom */\n      0xffffffffffffffffffffffffffffffffffffffff\n      and\n      tag_122\n      swap1\n        /* \"contracts/match.sol\":4511:4578  IERC20(m.token).safeTransferFrom(msg.sender, address(this), amount) */\n      swap4\n      swap3\n      swap2\n      swap1\n      0xffffffff\n      and\n      jump\t// in\n    tag_121:\n        /* \"contracts/match.sol\":4638:4644  amount */\n      dup2\n        /* \"contracts/match.sol\":4614:4625  poolBalance */\n      0x03\n        /* \"contracts/match.sol\":4614:4634  poolBalance[matchId] */\n      0x00\n        /* \"contracts/match.sol\":4626:4633  matchId */\n      dup6\n        /* \"contracts/match.sol\":4614:4634  poolBalance[matchId] */\n      dup2\n      mstore\n      0x20\n      add\n      swap1\n      dup2\n      mstore\n      0x20\n      add\n      0x00\n      keccak256\n      0x00\n        /* \"contracts/match.sol\":4614:4644  poolBalance[matchId] += amount */\n      dup3\n      dup3\n      sload\n      tag_123\n      swap2\n      swap1\n      tag_124\n      jump\t// in\n    tag_123:\n      swap3\n      pop\n      pop\n      dup2\n      swap1\n      sstore\n      pop\n        /* \"contracts/match.sol\":4732:4742  msg.sender */\n      caller\n        /* \"contracts/match.sol\":4713:4751  Sponsored(matchId, msg.sender, amount) */\n      0xffffffffffffffffffffffffffffffffffffffff\n      and\n        /* \"contracts/match.sol\":4723:4730  matchId */\n      dup4\n        /* \"contracts/match.sol\":4713:4751  Sponsored(matchId, msg.sender, amount) */\n      0x29bf09e34c9d183e502eb847f68c23c0499d08486d51dd179e34e65cc0973b11\n        /* \"contracts/match.sol\":4744:4750  amount */\n      dup5\n        /* \"contracts/match.sol\":4713:4751  Sponsored(matchId, msg.sender, amount) */\n      mload(0x40)\n      tag_125\n      swap2\n      swap1\n      tag_50\n      jump\t// in\n    tag_125:\n      mload(0x40)\n      dup1\n      swap2\n      sub\n      swap1\n      log3\n        /* \"contracts/match.sol\":4294:4758  {... */\n      pop\n        /* \"contracts/match.sol\":4225:4758  function sponsor(uint256 matchId, uint256 amount) external onlyOwner {... */\n      pop\n      pop\n      jump\t// out\n        /* \"contracts/match.sol\":8239:9803  function claim(uint256 matchId, uint256 rank, bytes32[] calldata proof) external {... */\n    tag_67:\n        /* \"contracts/match.sol\":8330:8348  MatchInfo memory m */\n      0x00\n        /* \"contracts/match.sol\":8351:8358  matches */\n      0x01\n        /* \"contracts/match.sol\":8351:8367  matches[matchId] */\n      0x00\n        /* \"contracts/match.sol\":8359:8366  matchId */\n      dup7\n        /* \"contracts/match.sol\":8351:8367  matches[matchId] */\n      dup2\n      mstore\n      0x20\n      add\n      swap1\n      dup2\n      mstore\n      0x20\n      add\n      0x00\n      keccak256\n        /* \"contracts/match.sol\":8330:8367  MatchInfo memory m = matches[matchId] */\n      mload(0x40)\n      dup1\n      0xe0\n      add\n      0x40\n      mstore\n      swap1\n      dup2\n      0x00\n      dup3\n      add\n      0x00\n      swap1\n      sload\n      swap1\n      0x0100\n      exp\n      swap1\n      div\n      0xffffffffffffffffffffffffffffffffffffffff\n      and\n      0xffffffffffffffffffffffffffffffffffffffff\n      and\n      0xffffffffffffffffffffffffffffffffffffffff\n      and\n      dup2\n      mstore\n      0x20\n      add\n      0x01\n      dup3\n      add\n      sload\n      dup2\n      mstore\n      0x20\n      add\n      0x02\n      dup3\n      add\n      sload\n      dup2\n      mstore\n      0x20\n      add\n      0x03\n      dup3\n      add\n      0x00\n      swap1\n      sload\n      swap1\n      0x0100\n      exp\n      swap1\n      div\n      0xffffffff\n      and\n      0xffffffff\n      and\n      0xffffffff\n      and\n      dup2\n      mstore\n      0x20\n      add\n      0x03\n      dup3\n      add\n      0x04\n      swap1\n      sload\n      swap1\n      0x0100\n      exp\n      swap1\n      div\n      0xffffffffffffffffffffffff\n      and\n      0xffffffffffffffffffffffff\n      and\n      0xffffffffffffffffffffffff\n      and\n      dup2\n      mstore\n      0x20\n      add\n      0x03\n      dup3\n      add\n      0x10\n      swap1\n      sload\n      swap1\n      0x0100\n      exp\n      swap1\n      div\n      0xffffffffffffffff\n      and\n      0xffffffffffffffff\n      and\n      0xffffffffffffffff\n      and\n      dup2\n      mstore\n      0x20\n      add\n      0x03\n      dup3\n      add\n      0x18\n      swap1\n      sload\n      swap1\n      0x0100\n      exp\n      swap1\n      div\n      0xff\n      and\n      iszero\n      iszero\n      iszero\n      iszero\n      dup2\n      mstore\n      pop\n      pop\n      swap1\n      pop\n        /* \"contracts/match.sol\":8385:8386  m */\n      dup1\n        /* \"contracts/match.sol\":8385:8396  m.finalized */\n      0xc0\n      add\n      mload\n        /* \"contracts/match.sol\":8377:8414  require(m.finalized, \"not finalized\") */\n      tag_127\n      jumpi\n      mload(0x40)\n      0x08c379a000000000000000000000000000000000000000000000000000000000\n      dup2\n      mstore\n      0x04\n      add\n      tag_128\n      swap1\n      tag_129\n      jump\t// in\n    tag_128:\n      mload(0x40)\n      dup1\n      swap2\n      sub\n      swap1\n      revert\n    tag_127:\n        /* \"contracts/match.sol\":8480:8490  registered */\n      0x04\n        /* \"contracts/match.sol\":8480:8499  registered[matchId] */\n      0x00\n        /* \"contracts/match.sol\":8491:8498  matchId */\n      dup7\n        /* \"contracts/match.sol\":8480:8499  registered[matchId] */\n      dup2\n      mstore\n      0x20\n      add\n      swap1\n      dup2\n      mstore\n      0x20\n      add\n      0x00\n      keccak256\n        /* \"contracts/match.sol\":8480:8511  registered[matchId][msg.sender] */\n      0x00\n        /* \"contracts/match.sol\":8500:8510  msg.sender */\n      caller\n        /* \"contracts/match.sol\":8480:8511  registered[matchId][msg.sender] */\n      0xffffffffffffffffffffffffffffffffffffffff\n      and\n      0xffffffffffffffffffffffffffffffffffffffff\n      and\n      dup2\n      mstore\n      0x20\n      add\n      swap1\n      dup2\n      mstore\n      0x20\n      add\n      0x00\n      keccak256\n      0x00\n      swap1\n      sload\n      swap1\n      0x0100\n      exp\n      swap1\n      div\n      0xff\n      and\n        /* \"contracts/match.sol\":8472:8530  require(registered[matchId][msg.sender], \"not registered\") */\n      tag_130\n      jumpi\n      mload(0x40)\n      0x08c379a000000000000000000000000000000000000000000000000000000000\n      dup2\n      mstore\n      0x04\n      add\n      tag_131\n      swap1\n      tag_132\n      jump\t// in\n    tag_131:\n      mload(0x40)\n      dup1\n      swap2\n      sub\n      swap1\n      revert\n    tag_130:\n        /* \"contracts/match.sol\":8574:8581  claimed */\n      0x05\n        /* \"contracts/match.sol\":8574:8590  claimed[matchId] */\n      0x00\n        /* \"contracts/match.sol\":8582:8589  matchId */\n      dup7\n        /* \"contracts/match.sol\":8574:8590  claimed[matchId] */\n      dup2\n      mstore\n      0x20\n      add\n      swap1\n      dup2\n      mstore\n      0x20\n      add\n      0x00\n      keccak256\n        /* \"contracts/match.sol\":8574:8602  claimed[matchId][msg.sender] */\n      0x00\n        /* \"contracts/match.sol\":8591:8601  msg.sender */\n      caller\n        /* \"contracts/match.sol\":8574:8602  claimed[matchId][msg.sender] */\n      0xffffffffffffffffffffffffffffffffffffffff\n      and\n      0xffffffffffffffffffffffffffffffffffffffff\n      and\n      dup2\n      mstore\n      0x20\n      add\n      swap1\n      dup2\n      mstore\n      0x20\n      add\n      0x00\n      keccak256\n      0x00\n      swap1\n      sload\n      swap1\n      0x0100\n      exp\n      swap1\n      div\n      0xff\n      and\n        /* \"contracts/match.sol\":8573:8602  !claimed[matchId][msg.sender] */\n      iszero\n        /* \"contracts/match.sol\":8565:8614  require(!claimed[matchId][msg.sender], \"claimed\") */\n      tag_133\n      jumpi\n      mload(0x40)\n      0x08c379a000000000000000000000000000000000000000000000000000000000\n      dup2\n      mstore\n      0x04\n      add\n      tag_134\n      swap1\n      tag_135\n      jump\t// in\n    tag_134:\n      mload(0x40)\n      dup1\n      swap2\n      sub\n      swap1\n      revert\n    tag_133:\n        /* \"contracts/match.sol\":8722:8734  bytes32 leaf */\n      0x00\n        /* \"contracts/match.sol\":8764:8774  msg.sender */\n      caller\n        /* \"contracts/match.sol\":8776:8780  rank */\n      dup6\n        /* \"contracts/match.sol\":8747:8781  abi.encodePacked(msg.sender, rank) */\n      add(0x20, mload(0x40))\n      tag_136\n      swap3\n      swap2\n      swap1\n      tag_137\n      jump\t// in\n    tag_136:\n      mload(0x40)\n      0x20\n      dup2\n      dup4\n      sub\n      sub\n      dup2\n      mstore\n      swap1\n      0x40\n      mstore\n        /* \"contracts/match.sol\":8737:8782  keccak256(abi.encodePacked(msg.sender, rank)) */\n      dup1\n      mload\n      swap1\n      0x20\n      add\n      keccak256\n        /* \"contracts/match.sol\":8722:8782  bytes32 leaf = keccak256(abi.encodePacked(msg.sender, rank)) */\n      swap1\n      pop\n        /* \"contracts/match.sol\":8901:8952  _verifySortedMerkleProof(proof, m.merkleRoot, leaf) */\n      tag_138\n        /* \"contracts/match.sol\":8926:8931  proof */\n      dup5\n      dup5\n        /* \"contracts/match.sol\":8933:8934  m */\n      dup5\n        /* \"contracts/match.sol\":8933:8945  m.merkleRoot */\n      0x40\n      add\n      mload\n        /* \"contracts/match.sol\":8947:8951  leaf */\n      dup5\n        /* \"contracts/match.sol\":8901:8925  _verifySortedMerkleProof */\n      tag_139\n        /* \"contracts/match.sol\":8901:8952  _verifySortedMerkleProof(proof, m.merkleRoot, leaf) */\n      jump\t// in\n    tag_138:\n        /* \"contracts/match.sol\":8893:8966  require(_verifySortedMerkleProof(proof, m.merkleRoot, leaf), \"bad proof\") */\n      tag_140\n      jumpi\n      mload(0x40)\n      0x08c379a000000000000000000000000000000000000000000000000000000000\n      dup2\n      mstore\n      0x04\n      add\n      tag_141\n      swap1\n      tag_142\n      jump\t// in\n    tag_141:\n      mload(0x40)\n      dup1\n      swap2\n      sub\n      swap1\n      revert\n    tag_140:\n        /* \"contracts/match.sol\":9064:9076  uint32 share */\n      0x00\n        /* \"contracts/match.sol\":9079:9088  rankShare */\n      0x02\n        /* \"contracts/match.sol\":9079:9097  rankShare[matchId] */\n      0x00\n        /* \"contracts/match.sol\":9089:9096  matchId */\n      dup9\n        /* \"contracts/match.sol\":9079:9097  rankShare[matchId] */\n      dup2\n      mstore\n      0x20\n      add\n      swap1\n      dup2\n      mstore\n      0x20\n      add\n      0x00\n      keccak256\n        /* \"contracts/match.sol\":9079:9103  rankShare[matchId][rank] */\n      0x00\n        /* \"contracts/match.sol\":9098:9102  rank */\n      dup8\n        /* \"contracts/match.sol\":9079:9103  rankShare[matchId][rank] */\n      dup2\n      mstore\n      0x20\n      add\n      swap1\n      dup2\n      mstore\n      0x20\n      add\n      0x00\n      keccak256\n      0x00\n      swap1\n      sload\n      swap1\n      0x0100\n      exp\n      swap1\n      div\n      0xffffffff\n      and\n        /* \"contracts/match.sol\":9064:9103  uint32 share = rankShare[matchId][rank] */\n      swap1\n      pop\n        /* \"contracts/match.sol\":9129:9130  0 */\n      0x00\n        /* \"contracts/match.sol\":9121:9126  share */\n      dup2\n        /* \"contracts/match.sol\":9121:9130  share > 0 */\n      0xffffffff\n      and\n      gt\n        /* \"contracts/match.sol\":9113:9147  require(share > 0, \"invalid rank\") */\n      tag_143\n      jumpi\n      mload(0x40)\n      0x08c379a000000000000000000000000000000000000000000000000000000000\n      dup2\n      mstore\n      0x04\n      add\n      tag_144\n      swap1\n      tag_145\n      jump\t// in\n    tag_144:\n      mload(0x40)\n      dup1\n      swap2\n      sub\n      swap1\n      revert\n    tag_143:\n        /* \"contracts/match.sol\":9199:9213  uint256 amount */\n      0x00\n        /* \"contracts/match.sol\":9240:9241  m */\n      dup4\n        /* \"contracts/match.sol\":9240:9251  m.sharesSum */\n      0x60\n      add\n      mload\n        /* \"contracts/match.sol\":9216:9251  (m.fixedPool * share) / m.sharesSum */\n      0xffffffff\n      and\n        /* \"contracts/match.sol\":9231:9236  share */\n      dup3\n        /* \"contracts/match.sol\":9217:9236  m.fixedPool * share */\n      0xffffffff\n      and\n        /* \"contracts/match.sol\":9217:9218  m */\n      dup6\n        /* \"contracts/match.sol\":9217:9228  m.fixedPool */\n      0x20\n      add\n      mload\n        /* \"contracts/match.sol\":9217:9236  m.fixedPool * share */\n      tag_146\n      swap2\n      swap1\n      tag_101\n      jump\t// in\n    tag_146:\n        /* \"contracts/match.sol\":9216:9251  (m.fixedPool * share) / m.sharesSum */\n      tag_147\n      swap2\n      swap1\n      tag_103\n      jump\t// in\n    tag_147:\n        /* \"contracts/match.sol\":9199:9251  uint256 amount = (m.fixedPool * share) / m.sharesSum */\n      swap1\n      pop\n        /* \"contracts/match.sol\":9278:9279  0 */\n      0x00\n        /* \"contracts/match.sol\":9269:9275  amount */\n      dup2\n        /* \"contracts/match.sol\":9269:9279  amount > 0 */\n      gt\n        /* \"contracts/match.sol\":9261:9295  require(amount > 0, \"zero payout\") */\n      tag_148\n      jumpi\n      mload(0x40)\n      0x08c379a000000000000000000000000000000000000000000000000000000000\n      dup2\n      mstore\n      0x04\n      add\n      tag_149\n      swap1\n      tag_150\n      jump\t// in\n    tag_149:\n      mload(0x40)\n      dup1\n      swap2\n      sub\n      swap1\n      revert\n    tag_148:\n        /* \"contracts/match.sol\":9395:9401  amount */\n      dup1\n        /* \"contracts/match.sol\":9371:9382  poolBalance */\n      0x03\n        /* \"contracts/match.sol\":9371:9391  poolBalance[matchId] */\n      0x00\n        /* \"contracts/match.sol\":9383:9390  matchId */\n      dup11\n        /* \"contracts/match.sol\":9371:9391  poolBalance[matchId] */\n      dup2\n      mstore\n      0x20\n      add\n      swap1\n      dup2\n      mstore\n      0x20\n      add\n      0x00\n      keccak256\n      sload\n        /* \"contracts/match.sol\":9371:9401  poolBalance[matchId] >= amount */\n      lt\n      iszero\n        /* \"contracts/match.sol\":9363:9419  require(poolBalance[matchId] >= amount, \"pool shortage\") */\n      tag_151\n      jumpi\n      mload(0x40)\n      0x08c379a000000000000000000000000000000000000000000000000000000000\n      dup2\n      mstore\n      0x04\n      add\n      tag_152\n      swap1\n      tag_153\n      jump\t// in\n    tag_152:\n      mload(0x40)\n      dup1\n      swap2\n      sub\n      swap1\n      revert\n    tag_151:\n        /* \"contracts/match.sol\":9540:9544  true */\n      0x01\n        /* \"contracts/match.sol\":9509:9516  claimed */\n      0x05\n        /* \"contracts/match.sol\":9509:9525  claimed[matchId] */\n      0x00\n        /* \"contracts/match.sol\":9517:9524  matchId */\n      dup11\n        /* \"contracts/match.sol\":9509:9525  claimed[matchId] */\n      dup2\n      mstore\n      0x20\n      add\n      swap1\n      dup2\n      mstore\n      0x20\n      add\n      0x00\n      keccak256\n        /* \"contracts/match.sol\":9509:9537  claimed[matchId][msg.sender] */\n      0x00\n        /* \"contracts/match.sol\":9526:9536  msg.sender */\n      caller\n        /* \"contracts/match.sol\":9509:9537  claimed[matchId][msg.sender] */\n      0xffffffffffffffffffffffffffffffffffffffff\n      and\n      0xffffffffffffffffffffffffffffffffffffffff\n      and\n      dup2\n      mstore\n      0x20\n      add\n      swap1\n      dup2\n      mstore\n      0x20\n      add\n      0x00\n      keccak256\n      0x00\n        /* \"contracts/match.sol\":9509:9544  claimed[matchId][msg.sender] = true */\n      0x0100\n      exp\n      dup2\n      sload\n      dup2\n      0xff\n      mul\n      not\n      and\n      swap1\n      dup4\n      iszero\n      iszero\n      mul\n      or\n      swap1\n      sstore\n      pop\n        /* \"contracts/match.sol\":9608:9614  amount */\n      dup1\n        /* \"contracts/match.sol\":9584:9595  poolBalance */\n      0x03\n        /* \"contracts/match.sol\":9584:9604  poolBalance[matchId] */\n      0x00\n        /* \"contracts/match.sol\":9596:9603  matchId */\n      dup11\n        /* \"contracts/match.sol\":9584:9604  poolBalance[matchId] */\n      dup2\n      mstore\n      0x20\n      add\n      swap1\n      dup2\n      mstore\n      0x20\n      add\n      0x00\n      keccak256\n      0x00\n        /* \"contracts/match.sol\":9584:9614  poolBalance[matchId] -= amount */\n      dup3\n      dup3\n      sload\n      tag_154\n      swap2\n      swap1\n      tag_155\n      jump\t// in\n    tag_154:\n      swap3\n      pop\n      pop\n      dup2\n      swap1\n      sstore\n      pop\n        /* \"contracts/match.sol\":9668:9716  IERC20(m.token).safeTransfer(msg.sender, amount) */\n      tag_156\n        /* \"contracts/match.sol\":9697:9707  msg.sender */\n      caller\n        /* \"contracts/match.sol\":9709:9715  amount */\n      dup3\n        /* \"contracts/match.sol\":9675:9676  m */\n      dup7\n        /* \"contracts/match.sol\":9675:9682  m.token */\n      0x00\n      add\n      mload\n        /* \"contracts/match.sol\":9668:9696  IERC20(m.token).safeTransfer */\n      0xffffffffffffffffffffffffffffffffffffffff\n      and\n      tag_157\n      swap1\n        /* \"contracts/match.sol\":9668:9716  IERC20(m.token).safeTransfer(msg.sender, amount) */\n      swap3\n      swap2\n      swap1\n      0xffffffff\n      and\n      jump\t// in\n    tag_156:\n        /* \"contracts/match.sol\":9771:9781  msg.sender */\n      caller\n        /* \"contracts/match.sol\":9754:9796  Claimed(matchId, msg.sender, rank, amount) */\n      0xffffffffffffffffffffffffffffffffffffffff\n      and\n        /* \"contracts/match.sol\":9762:9769  matchId */\n      dup9\n        /* \"contracts/match.sol\":9754:9796  Claimed(matchId, msg.sender, rank, amount) */\n      0xd9cb1e2714d65a111c0f20f060176ad657496bd47a3de04ec7c3d4ca232112ac\n        /* \"contracts/match.sol\":9783:9787  rank */\n      dup10\n        /* \"contracts/match.sol\":9789:9795  amount */\n      dup5\n        /* \"contracts/match.sol\":9754:9796  Claimed(matchId, msg.sender, rank, amount) */\n      mload(0x40)\n      tag_158\n      swap3\n      swap2\n      swap1\n      tag_159\n      jump\t// in\n    tag_158:\n      mload(0x40)\n      dup1\n      swap2\n      sub\n      swap1\n      log3\n        /* \"contracts/match.sol\":8320:9803  {... */\n      pop\n      pop\n      pop\n      pop\n        /* \"contracts/match.sol\":8239:9803  function claim(uint256 matchId, uint256 rank, bytes32[] calldata proof) external {... */\n      pop\n      pop\n      pop\n      pop\n      jump\t// out\n        /* \"contracts/match.sol\":6249:8152  function finalize(... */\n    tag_71:\n        /* \"@openzeppelin/contracts/access/Ownable.sol\":1531:1544  _checkOwner() */\n      tag_161\n        /* \"@openzeppelin/contracts/access/Ownable.sol\":1531:1542  _checkOwner */\n      tag_107\n        /* \"@openzeppelin/contracts/access/Ownable.sol\":1531:1544  _checkOwner() */\n      jump\t// in\n    tag_161:\n        /* \"contracts/match.sol\":6734:6753  MatchInfo storage m */\n      0x00\n        /* \"contracts/match.sol\":6756:6763  matches */\n      0x01\n        /* \"contracts/match.sol\":6756:6772  matches[matchId] */\n      0x00\n        /* \"contracts/match.sol\":6764:6771  matchId */\n      dup9\n        /* \"contracts/match.sol\":6756:6772  matches[matchId] */\n      dup2\n      mstore\n      0x20\n      add\n      swap1\n      dup2\n      mstore\n      0x20\n      add\n      0x00\n      keccak256\n        /* \"contracts/match.sol\":6734:6772  MatchInfo storage m = matches[matchId] */\n      swap1\n      pop\n        /* \"contracts/match.sol\":6791:6792  m */\n      dup1\n        /* \"contracts/match.sol\":6791:6802  m.finalized */\n      0x03\n      add\n      0x18\n      swap1\n      sload\n      swap1\n      0x0100\n      exp\n      swap1\n      div\n      0xff\n      and\n        /* \"contracts/match.sol\":6790:6802  !m.finalized */\n      iszero\n        /* \"contracts/match.sol\":6782:6824  require(!m.finalized, \"already finalized\") */\n      tag_163\n      jumpi\n      mload(0x40)\n      0x08c379a000000000000000000000000000000000000000000000000000000000\n      dup2\n      mstore\n      0x04\n      add\n      tag_164\n      swap1\n      tag_165\n      jump\t// in\n    tag_164:\n      mload(0x40)\n      dup1\n      swap2\n      sub\n      swap1\n      revert\n    tag_163:\n        /* \"contracts/match.sol\":6891:6892  0 */\n      0x00\n        /* \"contracts/match.sol\":6872:6893  m.token != address(0) */\n      0xffffffffffffffffffffffffffffffffffffffff\n      and\n        /* \"contracts/match.sol\":6872:6873  m */\n      dup2\n        /* \"contracts/match.sol\":6872:6879  m.token */\n      0x00\n      add\n      0x00\n      swap1\n      sload\n      swap1\n      0x0100\n      exp\n      swap1\n      div\n      0xffffffffffffffffffffffffffffffffffffffff\n      and\n        /* \"contracts/match.sol\":6872:6893  m.token != address(0) */\n      0xffffffffffffffffffffffffffffffffffffffff\n      and\n      sub\n        /* \"contracts/match.sol\":6864:6911  require(m.token != address(0), \"match not set\") */\n      tag_166\n      jumpi\n      mload(0x40)\n      0x08c379a000000000000000000000000000000000000000000000000000000000\n      dup2\n      mstore\n      0x04\n      add\n      tag_167\n      swap1\n      tag_120\n      jump\t// in\n    tag_167:\n      mload(0x40)\n      dup1\n      swap2\n      sub\n      swap1\n      revert\n    tag_166:\n        /* \"contracts/match.sol\":6973:6974  0 */\n      0x00\n        /* \"contracts/match.sol\":6965:6975  bytes32(0) */\n      0x00\n      shl\n        /* \"contracts/match.sol\":6951:6961  merkleRoot */\n      dup4\n        /* \"contracts/match.sol\":6951:6975  merkleRoot != bytes32(0) */\n      sub\n        /* \"contracts/match.sol\":6943:6986  require(merkleRoot != bytes32(0), \"root=0\") */\n      tag_168\n      jumpi\n      mload(0x40)\n      0x08c379a000000000000000000000000000000000000000000000000000000000\n      dup2\n      mstore\n      0x04\n      add\n      tag_169\n      swap1\n      tag_170\n      jump\t// in\n    tag_169:\n      mload(0x40)\n      dup1\n      swap2\n      sub\n      swap1\n      revert\n    tag_168:\n        /* \"contracts/match.sol\":7049:7050  0 */\n      0x00\n        /* \"contracts/match.sol\":7033:7039  shares */\n      dup7\n      dup7\n        /* \"contracts/match.sol\":7033:7046  shares.length */\n      swap1\n      pop\n        /* \"contracts/match.sol\":7033:7050  shares.length > 0 */\n      gt\n        /* \"contracts/match.sol\":7033:7067  shares.length > 0 && sharesSum > 0 */\n      dup1\n      iszero\n      tag_171\n      jumpi\n      pop\n        /* \"contracts/match.sol\":7066:7067  0 */\n      0x00\n        /* \"contracts/match.sol\":7054:7063  sharesSum */\n      dup5\n        /* \"contracts/match.sol\":7054:7067  sharesSum > 0 */\n      0xffffffff\n      and\n      gt\n        /* \"contracts/match.sol\":7033:7067  shares.length > 0 && sharesSum > 0 */\n    tag_171:\n        /* \"contracts/match.sol\":7025:7082  require(shares.length > 0 && sharesSum > 0, \"bad shares\") */\n      tag_172\n      jumpi\n      mload(0x40)\n      0x08c379a000000000000000000000000000000000000000000000000000000000\n      dup2\n      mstore\n      0x04\n      add\n      tag_173\n      swap1\n      tag_174\n      jump\t// in\n    tag_173:\n      mload(0x40)\n      dup1\n      swap2\n      sub\n      swap1\n      revert\n    tag_172:\n        /* \"contracts/match.sol\":7183:7192  uint256 i */\n      0x00\n        /* \"contracts/match.sol\":7195:7196  0 */\n      0x00\n        /* \"contracts/match.sol\":7183:7196  uint256 i = 0 */\n      swap1\n      pop\n        /* \"contracts/match.sol\":7178:7373  for (uint256 i = 0; i < shares.length; i++) {... */\n    tag_175:\n        /* \"contracts/match.sol\":7202:7208  shares */\n      dup7\n      dup7\n        /* \"contracts/match.sol\":7202:7215  shares.length */\n      swap1\n      pop\n        /* \"contracts/match.sol\":7198:7199  i */\n      dup2\n        /* \"contracts/match.sol\":7198:7215  i < shares.length */\n      lt\n        /* \"contracts/match.sol\":7178:7373  for (uint256 i = 0; i < shares.length; i++) {... */\n      iszero\n      tag_176\n      jumpi\n        /* \"contracts/match.sol\":7256:7257  0 */\n      0x00\n        /* \"contracts/match.sol\":7244:7250  shares */\n      dup8\n      dup8\n        /* \"contracts/match.sol\":7251:7252  i */\n      dup4\n        /* \"contracts/match.sol\":7244:7253  shares[i] */\n      dup2\n      dup2\n      lt\n      tag_178\n      jumpi\n      tag_179\n      tag_180\n      jump\t// in\n    tag_179:\n    tag_178:\n      swap1\n      pop\n      0x20\n      mul\n      add\n      0x20\n      dup2\n      add\n      swap1\n      tag_181\n      swap2\n      swap1\n      tag_182\n      jump\t// in\n    tag_181:\n        /* \"contracts/match.sol\":7244:7257  shares[i] > 0 */\n      0xffffffff\n      and\n      gt\n        /* \"contracts/match.sol\":7236:7272  require(shares[i] > 0, \"zero share\") */\n      tag_183\n      jumpi\n      mload(0x40)\n      0x08c379a000000000000000000000000000000000000000000000000000000000\n      dup2\n      mstore\n      0x04\n      add\n      tag_184\n      swap1\n      tag_185\n      jump\t// in\n    tag_184:\n      mload(0x40)\n      dup1\n      swap2\n      sub\n      swap1\n      revert\n    tag_183:\n        /* \"contracts/match.sol\":7353:7359  shares */\n      dup7\n      dup7\n        /* \"contracts/match.sol\":7360:7361  i */\n      dup3\n        /* \"contracts/match.sol\":7353:7362  shares[i] */\n      dup2\n      dup2\n      lt\n      tag_186\n      jumpi\n      tag_187\n      tag_180\n      jump\t// in\n    tag_187:\n    tag_186:\n      swap1\n      pop\n      0x20\n      mul\n      add\n      0x20\n      dup2\n      add\n      swap1\n      tag_188\n      swap2\n      swap1\n      tag_182\n      jump\t// in\n    tag_188:\n        /* \"contracts/match.sol\":7325:7334  rankShare */\n      0x02\n        /* \"contracts/match.sol\":7325:7343  rankShare[matchId] */\n      0x00\n        /* \"contracts/match.sol\":7335:7342  matchId */\n      dup11\n        /* \"contracts/match.sol\":7325:7343  rankShare[matchId] */\n      dup2\n      mstore\n      0x20\n      add\n      swap1\n      dup2\n      mstore\n      0x20\n      add\n      0x00\n      keccak256\n        /* \"contracts/match.sol\":7325:7350  rankShare[matchId][i + 1] */\n      0x00\n        /* \"contracts/match.sol\":7348:7349  1 */\n      0x01\n        /* \"contracts/match.sol\":7344:7345  i */\n      dup5\n        /* \"contracts/match.sol\":7344:7349  i + 1 */\n      tag_189\n      swap2\n      swap1\n      tag_124\n      jump\t// in\n    tag_189:\n        /* \"contracts/match.sol\":7325:7350  rankShare[matchId][i + 1] */\n      dup2\n      mstore\n      0x20\n      add\n      swap1\n      dup2\n      mstore\n      0x20\n      add\n      0x00\n      keccak256\n      0x00\n        /* \"contracts/match.sol\":7325:7362  rankShare[matchId][i + 1] = shares[i] */\n      0x0100\n      exp\n      dup2\n      sload\n      dup2\n      0xffffffff\n      mul\n      not\n      and\n      swap1\n      dup4\n      0xffffffff\n      and\n      mul\n      or\n      swap1\n      sstore\n      pop\n        /* \"contracts/match.sol\":7217:7220  i++ */\n      dup1\n      dup1\n      0x01\n      add\n      swap2\n      pop\n      pop\n        /* \"contracts/match.sol\":7178:7373  for (uint256 i = 0; i < shares.length; i++) {... */\n      jump(tag_175)\n    tag_176:\n      pop\n        /* \"contracts/match.sol\":7396:7405  sharesSum */\n      dup4\n        /* \"contracts/match.sol\":7382:7383  m */\n      dup2\n        /* \"contracts/match.sol\":7382:7393  m.sharesSum */\n      0x03\n      add\n      0x00\n        /* \"contracts/match.sol\":7382:7405  m.sharesSum = sharesSum */\n      0x0100\n      exp\n      dup2\n      sload\n      dup2\n      0xffffffff\n      mul\n      not\n      and\n      swap1\n      dup4\n      0xffffffff\n      and\n      mul\n      or\n      swap1\n      sstore\n      pop\n        /* \"contracts/match.sol\":7476:7486  merkleRoot */\n      dup3\n        /* \"contracts/match.sol\":7461:7462  m */\n      dup2\n        /* \"contracts/match.sol\":7461:7473  m.merkleRoot */\n      0x02\n      add\n        /* \"contracts/match.sol\":7461:7486  m.merkleRoot = merkleRoot */\n      dup2\n      swap1\n      sstore\n      pop\n        /* \"contracts/match.sol\":7656:7671  uint256 poolNow */\n      0x00\n        /* \"contracts/match.sol\":7674:7685  poolBalance */\n      0x03\n        /* \"contracts/match.sol\":7674:7694  poolBalance[matchId] */\n      0x00\n        /* \"contracts/match.sol\":7686:7693  matchId */\n      dup10\n        /* \"contracts/match.sol\":7674:7694  poolBalance[matchId] */\n      dup2\n      mstore\n      0x20\n      add\n      swap1\n      dup2\n      mstore\n      0x20\n      add\n      0x00\n      keccak256\n      sload\n        /* \"contracts/match.sol\":7656:7694  uint256 poolNow = poolBalance[matchId] */\n      swap1\n      pop\n        /* \"contracts/match.sol\":7735:7752  uint256 fixedPool */\n      0x00\n        /* \"contracts/match.sol\":7773:7774  0 */\n      0x00\n        /* \"contracts/match.sol\":7755:7769  fixedPoolInput */\n      dup5\n        /* \"contracts/match.sol\":7755:7774  fixedPoolInput == 0 */\n      eq\n        /* \"contracts/match.sol\":7755:7801  fixedPoolInput == 0 ? poolNow : fixedPoolInput */\n      tag_190\n      jumpi\n        /* \"contracts/match.sol\":7787:7801  fixedPoolInput */\n      dup4\n        /* \"contracts/match.sol\":7755:7801  fixedPoolInput == 0 ? poolNow : fixedPoolInput */\n      jump(tag_191)\n    tag_190:\n        /* \"contracts/match.sol\":7777:7784  poolNow */\n      dup2\n        /* \"contracts/match.sol\":7755:7801  fixedPoolInput == 0 ? poolNow : fixedPoolInput */\n    tag_191:\n        /* \"contracts/match.sol\":7735:7801  uint256 fixedPool = fixedPoolInput == 0 ? poolNow : fixedPoolInput */\n      swap1\n      pop\n        /* \"contracts/match.sol\":7851:7858  poolNow */\n      dup2\n        /* \"contracts/match.sol\":7838:7847  fixedPool */\n      dup2\n        /* \"contracts/match.sol\":7838:7858  fixedPool <= poolNow */\n      gt\n      iszero\n        /* \"contracts/match.sol\":7830:7886  require(fixedPool <= poolNow, \"fixedPool > poolBalance\") */\n      tag_192\n      jumpi\n      mload(0x40)\n      0x08c379a000000000000000000000000000000000000000000000000000000000\n      dup2\n      mstore\n      0x04\n      add\n      tag_193\n      swap1\n      tag_194\n      jump\t// in\n    tag_193:\n      mload(0x40)\n      dup1\n      swap2\n      sub\n      swap1\n      revert\n    tag_192:\n        /* \"contracts/match.sol\":7953:7962  fixedPool */\n      dup1\n        /* \"contracts/match.sol\":7939:7940  m */\n      dup4\n        /* \"contracts/match.sol\":7939:7950  m.fixedPool */\n      0x01\n      add\n        /* \"contracts/match.sol\":7939:7962  m.fixedPool = fixedPool */\n      dup2\n      swap1\n      sstore\n      pop\n        /* \"contracts/match.sol\":8030:8034  true */\n      0x01\n        /* \"contracts/match.sol\":8016:8017  m */\n      dup4\n        /* \"contracts/match.sol\":8016:8027  m.finalized */\n      0x03\n      add\n      0x18\n        /* \"contracts/match.sol\":8016:8034  m.finalized = true */\n      0x0100\n      exp\n      dup2\n      sload\n      dup2\n      0xff\n      mul\n      not\n      and\n      swap1\n      dup4\n      iszero\n      iszero\n      mul\n      or\n      swap1\n      sstore\n      pop\n        /* \"contracts/match.sol\":8114:8121  matchId */\n      dup9\n        /* \"contracts/match.sol\":8104:8145  Finalized(matchId, fixedPool, merkleRoot) */\n      0x989e5959e7cf49ac99f6adc13bd2ba18d0a7d44c527aabacbd37474b4c803b77\n        /* \"contracts/match.sol\":8123:8132  fixedPool */\n      dup3\n        /* \"contracts/match.sol\":8134:8144  merkleRoot */\n      dup8\n        /* \"contracts/match.sol\":8104:8145  Finalized(matchId, fixedPool, merkleRoot) */\n      mload(0x40)\n      tag_195\n      swap3\n      swap2\n      swap1\n      tag_196\n      jump\t// in\n    tag_195:\n      mload(0x40)\n      dup1\n      swap2\n      sub\n      swap1\n      log2\n        /* \"contracts/match.sol\":6724:8152  {... */\n      pop\n      pop\n      pop\n        /* \"contracts/match.sol\":6249:8152  function finalize(... */\n      pop\n      pop\n      pop\n      pop\n      pop\n      pop\n      jump\t// out\n        /* \"contracts/match.sol\":9907:10370  function skim(uint256 matchId, address to, uint256 amount) external onlyOwner {... */\n    tag_75:\n        /* \"@openzeppelin/contracts/access/Ownable.sol\":1531:1544  _checkOwner() */\n      tag_198\n        /* \"@openzeppelin/contracts/access/Ownable.sol\":1531:1542  _checkOwner */\n      tag_107\n        /* \"@openzeppelin/contracts/access/Ownable.sol\":1531:1544  _checkOwner() */\n      jump\t// in\n    tag_198:\n        /* \"contracts/match.sol\":10017:10018  0 */\n      0x00\n        /* \"contracts/match.sol\":10003:10019  to != address(0) */\n      0xffffffffffffffffffffffffffffffffffffffff\n      and\n        /* \"contracts/match.sol\":10003:10005  to */\n      dup3\n        /* \"contracts/match.sol\":10003:10019  to != address(0) */\n      0xffffffffffffffffffffffffffffffffffffffff\n      and\n      sub\n        /* \"contracts/match.sol\":9995:10028  require(to != address(0), \"to=0\") */\n      tag_200\n      jumpi\n      mload(0x40)\n      0x08c379a000000000000000000000000000000000000000000000000000000000\n      dup2\n      mstore\n      0x04\n      add\n      tag_201\n      swap1\n      tag_202\n      jump\t// in\n    tag_201:\n      mload(0x40)\n      dup1\n      swap2\n      sub\n      swap1\n      revert\n    tag_200:\n        /* \"contracts/match.sol\":10110:10116  amount */\n      dup1\n        /* \"contracts/match.sol\":10086:10097  poolBalance */\n      0x03\n        /* \"contracts/match.sol\":10086:10106  poolBalance[matchId] */\n      0x00\n        /* \"contracts/match.sol\":10098:10105  matchId */\n      dup6\n        /* \"contracts/match.sol\":10086:10106  poolBalance[matchId] */\n      dup2\n      mstore\n      0x20\n      add\n      swap1\n      dup2\n      mstore\n      0x20\n      add\n      0x00\n      keccak256\n      sload\n        /* \"contracts/match.sol\":10086:10116  poolBalance[matchId] >= amount */\n      lt\n      iszero\n        /* \"contracts/match.sol\":10078:10133  require(poolBalance[matchId] >= amount, \"insufficient\") */\n      tag_203\n      jumpi\n      mload(0x40)\n      0x08c379a000000000000000000000000000000000000000000000000000000000\n      dup2\n      mstore\n      0x04\n      add\n      tag_204\n      swap1\n      tag_205\n      jump\t// in\n    tag_204:\n      mload(0x40)\n      dup1\n      swap2\n      sub\n      swap1\n      revert\n    tag_203:\n        /* \"contracts/match.sol\":10195:10201  amount */\n      dup1\n        /* \"contracts/match.sol\":10171:10182  poolBalance */\n      0x03\n        /* \"contracts/match.sol\":10171:10191  poolBalance[matchId] */\n      0x00\n        /* \"contracts/match.sol\":10183:10190  matchId */\n      dup6\n        /* \"contracts/match.sol\":10171:10191  poolBalance[matchId] */\n      dup2\n      mstore\n      0x20\n      add\n      swap1\n      dup2\n      mstore\n      0x20\n      add\n      0x00\n      keccak256\n      0x00\n        /* \"contracts/match.sol\":10171:10201  poolBalance[matchId] -= amount */\n      dup3\n      dup3\n      sload\n      tag_206\n      swap2\n      swap1\n      tag_155\n      jump\t// in\n    tag_206:\n      swap3\n      pop\n      pop\n      dup2\n      swap1\n      sstore\n      pop\n        /* \"contracts/match.sol\":10249:10304  IERC20(matches[matchId].token).safeTransfer(to, amount) */\n      tag_207\n        /* \"contracts/match.sol\":10293:10295  to */\n      dup3\n        /* \"contracts/match.sol\":10297:10303  amount */\n      dup3\n        /* \"contracts/match.sol\":10256:10263  matches */\n      0x01\n        /* \"contracts/match.sol\":10256:10272  matches[matchId] */\n      0x00\n        /* \"contracts/match.sol\":10264:10271  matchId */\n      dup8\n        /* \"contracts/match.sol\":10256:10272  matches[matchId] */\n      dup2\n      mstore\n      0x20\n      add\n      swap1\n      dup2\n      mstore\n      0x20\n      add\n      0x00\n      keccak256\n        /* \"contracts/match.sol\":10256:10278  matches[matchId].token */\n      0x00\n      add\n      0x00\n      swap1\n      sload\n      swap1\n      0x0100\n      exp\n      swap1\n      div\n      0xffffffffffffffffffffffffffffffffffffffff\n      and\n        /* \"contracts/match.sol\":10249:10292  IERC20(matches[matchId].token).safeTransfer */\n      0xffffffffffffffffffffffffffffffffffffffff\n      and\n      tag_157\n      swap1\n        /* \"contracts/match.sol\":10249:10304  IERC20(matches[matchId].token).safeTransfer(to, amount) */\n      swap3\n      swap2\n      swap1\n      0xffffffff\n      and\n      jump\t// in\n    tag_207:\n        /* \"contracts/match.sol\":10352:10354  to */\n      dup2\n        /* \"contracts/match.sol\":10335:10363  Skimmed(matchId, to, amount) */\n      0xffffffffffffffffffffffffffffffffffffffff\n      and\n        /* \"contracts/match.sol\":10343:10350  matchId */\n      dup4\n        /* \"contracts/match.sol\":10335:10363  Skimmed(matchId, to, amount) */\n      0x4efe03a0b5ec4a8b41f319c07537b018a7a03b77fac4fef15f9d26d787ef9ebe\n        /* \"contracts/match.sol\":10356:10362  amount */\n      dup4\n        /* \"contracts/match.sol\":10335:10363  Skimmed(matchId, to, amount) */\n      mload(0x40)\n      tag_208\n      swap2\n      swap1\n      tag_50\n      jump\t// in\n    tag_208:\n      mload(0x40)\n      dup1\n      swap2\n      sub\n      swap1\n      log3\n        /* \"contracts/match.sol\":9907:10370  function skim(uint256 matchId, address to, uint256 amount) external onlyOwner {... */\n      pop\n      pop\n      pop\n      jump\t// out\n        /* \"contracts/match.sol\":11908:12172  function status(uint256 matchId, address player) external view returns (bool isRegistered, bool isClaimed) {... */\n    tag_78:\n        /* \"contracts/match.sol\":11980:11997  bool isRegistered */\n      0x00\n        /* \"contracts/match.sol\":11999:12013  bool isClaimed */\n      0x00\n        /* \"contracts/match.sol\":12040:12050  registered */\n      0x04\n        /* \"contracts/match.sol\":12040:12059  registered[matchId] */\n      0x00\n        /* \"contracts/match.sol\":12051:12058  matchId */\n      dup6\n        /* \"contracts/match.sol\":12040:12059  registered[matchId] */\n      dup2\n      mstore\n      0x20\n      add\n      swap1\n      dup2\n      mstore\n      0x20\n      add\n      0x00\n      keccak256\n        /* \"contracts/match.sol\":12040:12067  registered[matchId][player] */\n      0x00\n        /* \"contracts/match.sol\":12060:12066  player */\n      dup5\n        /* \"contracts/match.sol\":12040:12067  registered[matchId][player] */\n      0xffffffffffffffffffffffffffffffffffffffff\n      and\n      0xffffffffffffffffffffffffffffffffffffffff\n      and\n      dup2\n      mstore\n      0x20\n      add\n      swap1\n      dup2\n      mstore\n      0x20\n      add\n      0x00\n      keccak256\n      0x00\n      swap1\n      sload\n      swap1\n      0x0100\n      exp\n      swap1\n      div\n      0xff\n      and\n        /* \"contracts/match.sol\":12025:12067  isRegistered = registered[matchId][player] */\n      swap2\n      pop\n        /* \"contracts/match.sol\":12112:12119  claimed */\n      0x05\n        /* \"contracts/match.sol\":12112:12128  claimed[matchId] */\n      0x00\n        /* \"contracts/match.sol\":12120:12127  matchId */\n      dup6\n        /* \"contracts/match.sol\":12112:12128  claimed[matchId] */\n      dup2\n      mstore\n      0x20\n      add\n      swap1\n      dup2\n      mstore\n      0x20\n      add\n      0x00\n      keccak256\n        /* \"contracts/match.sol\":12112:12136  claimed[matchId][player] */\n      0x00\n        /* \"contracts/match.sol\":12129:12135  player */\n      dup5\n        /* \"contracts/match.sol\":12112:12136  claimed[matchId][player] */\n      0xffffffffffffffffffffffffffffffffffffffff\n      and\n      0xffffffffffffffffffffffffffffffffffffffff\n      and\n      dup2\n      mstore\n      0x20\n      add\n      swap1\n      dup2\n      mstore\n      0x20\n      add\n      0x00\n      keccak256\n      0x00\n      swap1\n      sload\n      swap1\n      0x0100\n      exp\n      swap1\n      div\n      0xff\n      and\n        /* \"contracts/match.sol\":12100:12136  isClaimed = claimed[matchId][player] */\n      swap1\n      pop\n        /* \"contracts/match.sol\":11908:12172  function status(uint256 matchId, address player) external view returns (bool isRegistered, bool isClaimed) {... */\n      swap3\n      pop\n      swap3\n      swap1\n      pop\n      jump\t// out\n        /* \"contracts/match.sol\":1840:1903  mapping(uint256 => mapping(uint256 => uint32)) public rankShare */\n    tag_83:\n      mstore(0x20, 0x02)\n      dup2\n      0x00\n      mstore\n      mstore(0x20, keccak256(0x00, 0x40))\n      dup1\n      0x00\n      mstore\n      keccak256(0x00, 0x40)\n      0x00\n      swap2\n      pop\n      swap2\n      pop\n      swap1\n      sload\n      swap1\n      0x0100\n      exp\n      swap1\n      div\n      0xffffffff\n      and\n      dup2\n      jump\t// out\n        /* \"contracts/match.sol\":4856:5911  function register(uint256 matchId) external {... */\n    tag_88:\n        /* \"contracts/match.sol\":4910:4929  MatchInfo storage m */\n      0x00\n        /* \"contracts/match.sol\":4932:4939  matches */\n      0x01\n        /* \"contracts/match.sol\":4932:4948  matches[matchId] */\n      0x00\n        /* \"contracts/match.sol\":4940:4947  matchId */\n      dup4\n        /* \"contracts/match.sol\":4932:4948  matches[matchId] */\n      dup2\n      mstore\n      0x20\n      add\n      swap1\n      dup2\n      mstore\n      0x20\n      add\n      0x00\n      keccak256\n        /* \"contracts/match.sol\":4910:4948  MatchInfo storage m = matches[matchId] */\n      swap1\n      pop\n        /* \"contracts/match.sol\":4985:4986  0 */\n      0x00\n        /* \"contracts/match.sol\":4966:4987  m.token != address(0) */\n      0xffffffffffffffffffffffffffffffffffffffff\n      and\n        /* \"contracts/match.sol\":4966:4967  m */\n      dup2\n        /* \"contracts/match.sol\":4966:4973  m.token */\n      0x00\n      add\n      0x00\n      swap1\n      sload\n      swap1\n      0x0100\n      exp\n      swap1\n      div\n      0xffffffffffffffffffffffffffffffffffffffff\n      and\n        /* \"contracts/match.sol\":4966:4987  m.token != address(0) */\n      0xffffffffffffffffffffffffffffffffffffffff\n      and\n      sub\n        /* \"contracts/match.sol\":4958:5005  require(m.token != address(0), \"match not set\") */\n      tag_211\n      jumpi\n      mload(0x40)\n      0x08c379a000000000000000000000000000000000000000000000000000000000\n      dup2\n      mstore\n      0x04\n      add\n      tag_212\n      swap1\n      tag_120\n      jump\t// in\n    tag_212:\n      mload(0x40)\n      dup1\n      swap2\n      sub\n      swap1\n      revert\n    tag_211:\n        /* \"contracts/match.sol\":5046:5047  m */\n      dup1\n        /* \"contracts/match.sol\":5046:5057  m.finalized */\n      0x03\n      add\n      0x18\n      swap1\n      sload\n      swap1\n      0x0100\n      exp\n      swap1\n      div\n      0xff\n      and\n        /* \"contracts/match.sol\":5045:5057  !m.finalized */\n      iszero\n        /* \"contracts/match.sol\":5037:5071  require(!m.finalized, \"finalized\") */\n      tag_213\n      jumpi\n      mload(0x40)\n      0x08c379a000000000000000000000000000000000000000000000000000000000\n      dup2\n      mstore\n      0x04\n      add\n      tag_214\n      swap1\n      tag_215\n      jump\t// in\n    tag_214:\n      mload(0x40)\n      dup1\n      swap2\n      sub\n      swap1\n      revert\n    tag_213:\n        /* \"contracts/match.sol\":5164:5165  0 */\n      0x00\n        /* \"contracts/match.sol\":5142:5143  m */\n      dup2\n        /* \"contracts/match.sol\":5142:5160  m.registerDeadline */\n      0x03\n      add\n      0x10\n      swap1\n      sload\n      swap1\n      0x0100\n      exp\n      swap1\n      div\n      0xffffffffffffffff\n      and\n        /* \"contracts/match.sol\":5142:5165  m.registerDeadline != 0 */\n      0xffffffffffffffff\n      and\n      eq\n        /* \"contracts/match.sol\":5138:5326  if (m.registerDeadline != 0) {                   // 若设置了截止时间... */\n      tag_216\n      jumpi\n        /* \"contracts/match.sol\":5254:5255  m */\n      dup1\n        /* \"contracts/match.sol\":5254:5272  m.registerDeadline */\n      0x03\n      add\n      0x10\n      swap1\n      sload\n      swap1\n      0x0100\n      exp\n      swap1\n      div\n      0xffffffffffffffff\n      and\n        /* \"contracts/match.sol\":5235:5272  block.timestamp <= m.registerDeadline */\n      0xffffffffffffffff\n      and\n        /* \"contracts/match.sol\":5235:5250  block.timestamp */\n      timestamp\n        /* \"contracts/match.sol\":5235:5272  block.timestamp <= m.registerDeadline */\n      gt\n      iszero\n        /* \"contracts/match.sol\":5227:5296  require(block.timestamp <= m.registerDeadline, \"registration closed\") */\n      tag_217\n      jumpi\n      mload(0x40)\n      0x08c379a000000000000000000000000000000000000000000000000000000000\n      dup2\n      mstore\n      0x04\n      add\n      tag_218\n      swap1\n      tag_219\n      jump\t// in\n    tag_218:\n      mload(0x40)\n      dup1\n      swap2\n      sub\n      swap1\n      revert\n    tag_217:\n        /* \"contracts/match.sol\":5138:5326  if (m.registerDeadline != 0) {                   // 若设置了截止时间... */\n    tag_216:\n        /* \"contracts/match.sol\":5344:5354  registered */\n      0x04\n        /* \"contracts/match.sol\":5344:5363  registered[matchId] */\n      0x00\n        /* \"contracts/match.sol\":5355:5362  matchId */\n      dup4\n        /* \"contracts/match.sol\":5344:5363  registered[matchId] */\n      dup2\n      mstore\n      0x20\n      add\n      swap1\n      dup2\n      mstore\n      0x20\n      add\n      0x00\n      keccak256\n        /* \"contracts/match.sol\":5344:5375  registered[matchId][msg.sender] */\n      0x00\n        /* \"contracts/match.sol\":5364:5374  msg.sender */\n      caller\n        /* \"contracts/match.sol\":5344:5375  registered[matchId][msg.sender] */\n      0xffffffffffffffffffffffffffffffffffffffff\n      and\n      0xffffffffffffffffffffffffffffffffffffffff\n      and\n      dup2\n      mstore\n      0x20\n      add\n      swap1\n      dup2\n      mstore\n      0x20\n      add\n      0x00\n      keccak256\n      0x00\n      swap1\n      sload\n      swap1\n      0x0100\n      exp\n      swap1\n      div\n      0xff\n      and\n        /* \"contracts/match.sol\":5343:5375  !registered[matchId][msg.sender] */\n      iszero\n        /* \"contracts/match.sol\":5335:5398  require(!registered[matchId][msg.sender], \"already registered\") */\n      tag_220\n      jumpi\n      mload(0x40)\n      0x08c379a000000000000000000000000000000000000000000000000000000000\n      dup2\n      mstore\n      0x04\n      add\n      tag_221\n      swap1\n      tag_222\n      jump\t// in\n    tag_221:\n      mload(0x40)\n      dup1\n      swap2\n      sub\n      swap1\n      revert\n    tag_220:\n        /* \"contracts/match.sol\":5430:5441  uint256 fee */\n      0x00\n        /* \"contracts/match.sol\":5452:5453  m */\n      dup2\n        /* \"contracts/match.sol\":5452:5462  m.entryFee */\n      0x03\n      add\n      0x04\n      swap1\n      sload\n      swap1\n      0x0100\n      exp\n      swap1\n      div\n      0xffffffffffffffffffffffff\n      and\n        /* \"contracts/match.sol\":5444:5463  uint256(m.entryFee) */\n      0xffffffffffffffffffffffff\n      and\n        /* \"contracts/match.sol\":5430:5463  uint256 fee = uint256(m.entryFee) */\n      swap1\n      pop\n        /* \"contracts/match.sol\":5523:5524  0 */\n      0x00\n        /* \"contracts/match.sol\":5517:5520  fee */\n      dup2\n        /* \"contracts/match.sol\":5517:5524  fee > 0 */\n      gt\n        /* \"contracts/match.sol\":5509:5540  require(fee > 0, \"entry fee=0\") */\n      tag_223\n      jumpi\n      mload(0x40)\n      0x08c379a000000000000000000000000000000000000000000000000000000000\n      dup2\n      mstore\n      0x04\n      add\n      tag_224\n      swap1\n      tag_225\n      jump\t// in\n    tag_224:\n      mload(0x40)\n      dup1\n      swap2\n      sub\n      swap1\n      revert\n    tag_223:\n        /* \"contracts/match.sol\":5590:5654  IERC20(m.token).safeTransferFrom(msg.sender, address(this), fee) */\n      tag_226\n        /* \"contracts/match.sol\":5623:5633  msg.sender */\n      caller\n        /* \"contracts/match.sol\":5643:5647  this */\n      address\n        /* \"contracts/match.sol\":5650:5653  fee */\n      dup4\n        /* \"contracts/match.sol\":5597:5598  m */\n      dup6\n        /* \"contracts/match.sol\":5597:5604  m.token */\n      0x00\n      add\n      0x00\n      swap1\n      sload\n      swap1\n      0x0100\n      exp\n      swap1\n      div\n      0xffffffffffffffffffffffffffffffffffffffff\n      and\n        /* \"contracts/match.sol\":5590:5622  IERC20(m.token).safeTransferFrom */\n      0xffffffffffffffffffffffffffffffffffffffff\n      and\n      tag_122\n      swap1\n        /* \"contracts/match.sol\":5590:5654  IERC20(m.token).safeTransferFrom(msg.sender, address(this), fee) */\n      swap4\n      swap3\n      swap2\n      swap1\n      0xffffffff\n      and\n      jump\t// in\n    tag_226:\n        /* \"contracts/match.sol\":5726:5730  true */\n      0x01\n        /* \"contracts/match.sol\":5692:5702  registered */\n      0x04\n        /* \"contracts/match.sol\":5692:5711  registered[matchId] */\n      0x00\n        /* \"contracts/match.sol\":5703:5710  matchId */\n      dup6\n        /* \"contracts/match.sol\":5692:5711  registered[matchId] */\n      dup2\n      mstore\n      0x20\n      add\n      swap1\n      dup2\n      mstore\n      0x20\n      add\n      0x00\n      keccak256\n        /* \"contracts/match.sol\":5692:5723  registered[matchId][msg.sender] */\n      0x00\n        /* \"contracts/match.sol\":5712:5722  msg.sender */\n      caller\n        /* \"contracts/match.sol\":5692:5723  registered[matchId][msg.sender] */\n      0xffffffffffffffffffffffffffffffffffffffff\n      and\n      0xffffffffffffffffffffffffffffffffffffffff\n      and\n      dup2\n      mstore\n      0x20\n      add\n      swap1\n      dup2\n      mstore\n      0x20\n      add\n      0x00\n      keccak256\n      0x00\n        /* \"contracts/match.sol\":5692:5730  registered[matchId][msg.sender] = true */\n      0x0100\n      exp\n      dup2\n      sload\n      dup2\n      0xff\n      mul\n      not\n      and\n      swap1\n      dup4\n      iszero\n      iszero\n      mul\n      or\n      swap1\n      sstore\n      pop\n        /* \"contracts/match.sol\":5792:5795  fee */\n      dup1\n        /* \"contracts/match.sol\":5768:5779  poolBalance */\n      0x03\n        /* \"contracts/match.sol\":5768:5788  poolBalance[matchId] */\n      0x00\n        /* \"contracts/match.sol\":5780:5787  matchId */\n      dup6\n        /* \"contracts/match.sol\":5768:5788  poolBalance[matchId] */\n      dup2\n      mstore\n      0x20\n      add\n      swap1\n      dup2\n      mstore\n      0x20\n      add\n      0x00\n      keccak256\n      0x00\n        /* \"contracts/match.sol\":5768:5795  poolBalance[matchId] += fee */\n      dup3\n      dup3\n      sload\n      tag_227\n      swap2\n      swap1\n      tag_124\n      jump\t// in\n    tag_227:\n      swap3\n      pop\n      pop\n      dup2\n      swap1\n      sstore\n      pop\n        /* \"contracts/match.sol\":5888:5898  msg.sender */\n      caller\n        /* \"contracts/match.sol\":5868:5904  Registered(matchId, msg.sender, fee) */\n      0xffffffffffffffffffffffffffffffffffffffff\n      and\n        /* \"contracts/match.sol\":5879:5886  matchId */\n      dup4\n        /* \"contracts/match.sol\":5868:5904  Registered(matchId, msg.sender, fee) */\n      0x39dd062cc095bf933d83338d8e4591b7eb119264d876f173cacb1cfdf2c9737f\n        /* \"contracts/match.sol\":5900:5903  fee */\n      dup4\n        /* \"contracts/match.sol\":5868:5904  Registered(matchId, msg.sender, fee) */\n      mload(0x40)\n      tag_228\n      swap2\n      swap1\n      tag_50\n      jump\t// in\n    tag_228:\n      mload(0x40)\n      dup1\n      swap2\n      sub\n      swap1\n      log3\n        /* \"contracts/match.sol\":4900:5911  {... */\n      pop\n      pop\n        /* \"contracts/match.sol\":4856:5911  function register(uint256 matchId) external {... */\n      pop\n      jump\t// out\n        /* \"@openzeppelin/contracts/access/Ownable.sol\":2543:2758  function transferOwnership(address newOwner) public virtual onlyOwner {... */\n    tag_92:\n        /* \"@openzeppelin/contracts/access/Ownable.sol\":1531:1544  _checkOwner() */\n      tag_230\n        /* \"@openzeppelin/contracts/access/Ownable.sol\":1531:1542  _checkOwner */\n      tag_107\n        /* \"@openzeppelin/contracts/access/Ownable.sol\":1531:1544  _checkOwner() */\n      jump\t// in\n    tag_230:\n        /* \"@openzeppelin/contracts/access/Ownable.sol\":2647:2648  0 */\n      0x00\n        /* \"@openzeppelin/contracts/access/Ownable.sol\":2627:2649  newOwner == address(0) */\n      0xffffffffffffffffffffffffffffffffffffffff\n      and\n        /* \"@openzeppelin/contracts/access/Ownable.sol\":2627:2635  newOwner */\n      dup2\n        /* \"@openzeppelin/contracts/access/Ownable.sol\":2627:2649  newOwner == address(0) */\n      0xffffffffffffffffffffffffffffffffffffffff\n      and\n      sub\n        /* \"@openzeppelin/contracts/access/Ownable.sol\":2623:2714  if (newOwner == address(0)) {... */\n      tag_232\n      jumpi\n        /* \"@openzeppelin/contracts/access/Ownable.sol\":2700:2701  0 */\n      0x00\n        /* \"@openzeppelin/contracts/access/Ownable.sol\":2672:2703  OwnableInvalidOwner(address(0)) */\n      mload(0x40)\n      0x1e4fbdf700000000000000000000000000000000000000000000000000000000\n      dup2\n      mstore\n      0x04\n      add\n      tag_233\n      swap2\n      swap1\n      tag_60\n      jump\t// in\n    tag_233:\n      mload(0x40)\n      dup1\n      swap2\n      sub\n      swap1\n      revert\n        /* \"@openzeppelin/contracts/access/Ownable.sol\":2623:2714  if (newOwner == address(0)) {... */\n    tag_232:\n        /* \"@openzeppelin/contracts/access/Ownable.sol\":2723:2751  _transferOwnership(newOwner) */\n      tag_234\n        /* \"@openzeppelin/contracts/access/Ownable.sol\":2742:2750  newOwner */\n      dup2\n        /* \"@openzeppelin/contracts/access/Ownable.sol\":2723:2741  _transferOwnership */\n      tag_110\n        /* \"@openzeppelin/contracts/access/Ownable.sol\":2723:2751  _transferOwnership(newOwner) */\n      jump\t// in\n    tag_234:\n        /* \"@openzeppelin/contracts/access/Ownable.sol\":2543:2758  function transferOwnership(address newOwner) public virtual onlyOwner {... */\n      pop\n      jump\t// out\n        /* \"contracts/match.sol\":3229:4107  function createMatch(... */\n    tag_96:\n        /* \"@openzeppelin/contracts/access/Ownable.sol\":1531:1544  _checkOwner() */\n      tag_236\n        /* \"@openzeppelin/contracts/access/Ownable.sol\":1531:1542  _checkOwner */\n      tag_107\n        /* \"@openzeppelin/contracts/access/Ownable.sol\":1531:1544  _checkOwner() */\n      jump\t// in\n    tag_236:\n        /* \"contracts/match.sol\":3611:3612  0 */\n      0x00\n        /* \"contracts/match.sol\":3594:3613  token != address(0) */\n      0xffffffffffffffffffffffffffffffffffffffff\n      and\n        /* \"contracts/match.sol\":3594:3599  token */\n      dup4\n        /* \"contracts/match.sol\":3594:3613  token != address(0) */\n      0xffffffffffffffffffffffffffffffffffffffff\n      and\n      sub\n        /* \"contracts/match.sol\":3586:3625  require(token != address(0), \"token=0\") */\n      tag_238\n      jumpi\n      mload(0x40)\n      0x08c379a000000000000000000000000000000000000000000000000000000000\n      dup2\n      mstore\n      0x04\n      add\n      tag_239\n      swap1\n      tag_240\n      jump\t// in\n    tag_239:\n      mload(0x40)\n      dup1\n      swap2\n      sub\n      swap1\n      revert\n    tag_238:\n        /* \"contracts/match.sol\":3670:3689  MatchInfo storage m */\n      0x00\n        /* \"contracts/match.sol\":3692:3699  matches */\n      0x01\n        /* \"contracts/match.sol\":3692:3708  matches[matchId] */\n      0x00\n        /* \"contracts/match.sol\":3700:3707  matchId */\n      dup7\n        /* \"contracts/match.sol\":3692:3708  matches[matchId] */\n      dup2\n      mstore\n      0x20\n      add\n      swap1\n      dup2\n      mstore\n      0x20\n      add\n      0x00\n      keccak256\n        /* \"contracts/match.sol\":3670:3708  MatchInfo storage m = matches[matchId] */\n      swap1\n      pop\n        /* \"contracts/match.sol\":3745:3746  0 */\n      0x00\n        /* \"contracts/match.sol\":3726:3747  m.token == address(0) */\n      0xffffffffffffffffffffffffffffffffffffffff\n      and\n        /* \"contracts/match.sol\":3726:3727  m */\n      dup2\n        /* \"contracts/match.sol\":3726:3733  m.token */\n      0x00\n      add\n      0x00\n      swap1\n      sload\n      swap1\n      0x0100\n      exp\n      swap1\n      div\n      0xffffffffffffffffffffffffffffffffffffffff\n      and\n        /* \"contracts/match.sol\":3726:3747  m.token == address(0) */\n      0xffffffffffffffffffffffffffffffffffffffff\n      and\n      eq\n        /* \"contracts/match.sol\":3718:3758  require(m.token == address(0), \"exists\") */\n      tag_241\n      jumpi\n      mload(0x40)\n      0x08c379a000000000000000000000000000000000000000000000000000000000\n      dup2\n      mstore\n      0x04\n      add\n      tag_242\n      swap1\n      tag_243\n      jump\t// in\n    tag_242:\n      mload(0x40)\n      dup1\n      swap2\n      sub\n      swap1\n      revert\n    tag_241:\n        /* \"contracts/match.sol\":3821:3826  token */\n      dup4\n        /* \"contracts/match.sol\":3811:3812  m */\n      dup2\n        /* \"contracts/match.sol\":3811:3818  m.token */\n      0x00\n      add\n      0x00\n        /* \"contracts/match.sol\":3811:3826  m.token = token */\n      0x0100\n      exp\n      dup2\n      sload\n      dup2\n      0xffffffffffffffffffffffffffffffffffffffff\n      mul\n      not\n      and\n      swap1\n      dup4\n      0xffffffffffffffffffffffffffffffffffffffff\n      and\n      mul\n      or\n      swap1\n      sstore\n      pop\n        /* \"contracts/match.sol\":3897:3905  entryFee */\n      dup3\n        /* \"contracts/match.sol\":3884:3885  m */\n      dup2\n        /* \"contracts/match.sol\":3884:3894  m.entryFee */\n      0x03\n      add\n      0x04\n        /* \"contracts/match.sol\":3884:3905  m.entryFee = entryFee */\n      0x0100\n      exp\n      dup2\n      sload\n      dup2\n      0xffffffffffffffffffffffff\n      mul\n      not\n      and\n      swap1\n      dup4\n      0xffffffffffffffffffffffff\n      and\n      mul\n      or\n      swap1\n      sstore\n      pop\n        /* \"contracts/match.sol\":3981:3997  registerDeadline */\n      dup2\n        /* \"contracts/match.sol\":3960:3961  m */\n      dup2\n        /* \"contracts/match.sol\":3960:3978  m.registerDeadline */\n      0x03\n      add\n      0x10\n        /* \"contracts/match.sol\":3960:3997  m.registerDeadline = registerDeadline */\n      0x0100\n      exp\n      dup2\n      sload\n      dup2\n      0xffffffffffffffff\n      mul\n      not\n      and\n      swap1\n      dup4\n      0xffffffffffffffff\n      and\n      mul\n      or\n      swap1\n      sstore\n      pop\n        /* \"contracts/match.sol\":4057:4064  matchId */\n      dup5\n        /* \"contracts/match.sol\":4044:4100  MatchCreated(matchId, token, entryFee, registerDeadline) */\n      0x1627ef342a5eb064df1b284ec91d4632f86a5b909cda3de310f8ffc1143d91\n        /* \"contracts/match.sol\":4066:4071  token */\n      dup6\n        /* \"contracts/match.sol\":4073:4081  entryFee */\n      dup6\n        /* \"contracts/match.sol\":4083:4099  registerDeadline */\n      dup6\n        /* \"contracts/match.sol\":4044:4100  MatchCreated(matchId, token, entryFee, registerDeadline) */\n      mload(0x40)\n      tag_244\n      swap4\n      swap3\n      swap2\n      swap1\n      tag_245\n      jump\t// in\n    tag_244:\n      mload(0x40)\n      dup1\n      swap2\n      sub\n      swap1\n      log2\n        /* \"contracts/match.sol\":3576:4107  {... */\n      pop\n        /* \"contracts/match.sol\":3229:4107  function createMatch(... */\n      pop\n      pop\n      pop\n      pop\n      jump\t// out\n        /* \"@openzeppelin/contracts/access/Ownable.sol\":1796:1958  function _checkOwner() internal view virtual {... */\n    tag_107:\n        /* \"@openzeppelin/contracts/access/Ownable.sol\":1866:1878  _msgSender() */\n      tag_247\n        /* \"@openzeppelin/contracts/access/Ownable.sol\":1866:1876  _msgSender */\n      tag_248\n        /* \"@openzeppelin/contracts/access/Ownable.sol\":1866:1878  _msgSender() */\n      jump\t// in\n    tag_247:\n        /* \"@openzeppelin/contracts/access/Ownable.sol\":1855:1878  owner() != _msgSender() */\n      0xffffffffffffffffffffffffffffffffffffffff\n      and\n        /* \"@openzeppelin/contracts/access/Ownable.sol\":1855:1862  owner() */\n      tag_249\n        /* \"@openzeppelin/contracts/access/Ownable.sol\":1855:1860  owner */\n      tag_58\n        /* \"@openzeppelin/contracts/access/Ownable.sol\":1855:1862  owner() */\n      jump\t// in\n    tag_249:\n        /* \"@openzeppelin/contracts/access/Ownable.sol\":1855:1878  owner() != _msgSender() */\n      0xffffffffffffffffffffffffffffffffffffffff\n      and\n      eq\n        /* \"@openzeppelin/contracts/access/Ownable.sol\":1851:1952  if (owner() != _msgSender()) {... */\n      tag_250\n      jumpi\n        /* \"@openzeppelin/contracts/access/Ownable.sol\":1928:1940  _msgSender() */\n      tag_251\n        /* \"@openzeppelin/contracts/access/Ownable.sol\":1928:1938  _msgSender */\n      tag_248\n        /* \"@openzeppelin/contracts/access/Ownable.sol\":1928:1940  _msgSender() */\n      jump\t// in\n    tag_251:\n        /* \"@openzeppelin/contracts/access/Ownable.sol\":1901:1941  OwnableUnauthorizedAccount(_msgSender()) */\n      mload(0x40)\n      0x118cdaa700000000000000000000000000000000000000000000000000000000\n      dup2\n      mstore\n      0x04\n      add\n      tag_252\n      swap2\n      swap1\n      tag_60\n      jump\t// in\n    tag_252:\n      mload(0x40)\n      dup1\n      swap2\n      sub\n      swap1\n      revert\n        /* \"@openzeppelin/contracts/access/Ownable.sol\":1851:1952  if (owner() != _msgSender()) {... */\n    tag_250:\n        /* \"@openzeppelin/contracts/access/Ownable.sol\":1796:1958  function _checkOwner() internal view virtual {... */\n      jump\t// out\n        /* \"@openzeppelin/contracts/access/Ownable.sol\":2912:3099  function _transferOwnership(address newOwner) internal virtual {... */\n    tag_110:\n        /* \"@openzeppelin/contracts/access/Ownable.sol\":2985:3001  address oldOwner */\n      0x00\n        /* \"@openzeppelin/contracts/access/Ownable.sol\":3004:3010  _owner */\n      0x00\n      0x00\n      swap1\n      sload\n      swap1\n      0x0100\n      exp\n      swap1\n      div\n      0xffffffffffffffffffffffffffffffffffffffff\n      and\n        /* \"@openzeppelin/contracts/access/Ownable.sol\":2985:3010  address oldOwner = _owner */\n      swap1\n      pop\n        /* \"@openzeppelin/contracts/access/Ownable.sol\":3029:3037  newOwner */\n      dup2\n        /* \"@openzeppelin/contracts/access/Ownable.sol\":3020:3026  _owner */\n      0x00\n      0x00\n        /* \"@openzeppelin/contracts/access/Ownable.sol\":3020:3037  _owner = newOwner */\n      0x0100\n      exp\n      dup2\n      sload\n      dup2\n      0xffffffffffffffffffffffffffffffffffffffff\n      mul\n      not\n      and\n      swap1\n      dup4\n      0xffffffffffffffffffffffffffffffffffffffff\n      and\n      mul\n      or\n      swap1\n      sstore\n      pop\n        /* \"@openzeppelin/contracts/access/Ownable.sol\":3083:3091  newOwner */\n      dup2\n        /* \"@openzeppelin/contracts/access/Ownable.sol\":3052:3092  OwnershipTransferred(oldOwner, newOwner) */\n      0xffffffffffffffffffffffffffffffffffffffff\n      and\n        /* \"@openzeppelin/contracts/access/Ownable.sol\":3073:3081  oldOwner */\n      dup2\n        /* \"@openzeppelin/contracts/access/Ownable.sol\":3052:3092  OwnershipTransferred(oldOwner, newOwner) */\n      0xffffffffffffffffffffffffffffffffffffffff\n      and\n      0x8be0079c531659141344cd1fd0a4f28419497f9722a3daafe3b4186f6b6457e0\n      mload(0x40)\n      mload(0x40)\n      dup1\n      swap2\n      sub\n      swap1\n      log3\n        /* \"@openzeppelin/contracts/access/Ownable.sol\":2975:3099  {... */\n      pop\n        /* \"@openzeppelin/contracts/access/Ownable.sol\":2912:3099  function _transferOwnership(address newOwner) internal virtual {... */\n      pop\n      jump\t// out\n        /* \"@openzeppelin/contracts/token/ERC20/utils/SafeERC20.sol\":1618:1806  function safeTransferFrom(IERC20 token, address from, address to, uint256 value) internal {... */\n    tag_122:\n        /* \"@openzeppelin/contracts/token/ERC20/utils/SafeERC20.sol\":1718:1799  _callOptionalReturn(token, abi.encodeCall(token.transferFrom, (from, to, value))) */\n      tag_255\n        /* \"@openzeppelin/contracts/token/ERC20/utils/SafeERC20.sol\":1738:1743  token */\n      dup5\n        /* \"@openzeppelin/contracts/token/ERC20/utils/SafeERC20.sol\":1760:1765  token */\n      dup6\n        /* \"@openzeppelin/contracts/token/ERC20/utils/SafeERC20.sol\":1760:1778  token.transferFrom */\n      0xffffffffffffffffffffffffffffffffffffffff\n      and\n      0x23b872dd\n        /* \"@openzeppelin/contracts/token/ERC20/utils/SafeERC20.sol\":1781:1785  from */\n      dup7\n        /* \"@openzeppelin/contracts/token/ERC20/utils/SafeERC20.sol\":1787:1789  to */\n      dup7\n        /* \"@openzeppelin/contracts/token/ERC20/utils/SafeERC20.sol\":1791:1796  value */\n      dup7\n        /* \"@openzeppelin/contracts/token/ERC20/utils/SafeERC20.sol\":1745:1798  abi.encodeCall(token.transferFrom, (from, to, value)) */\n      add(0x24, mload(0x40))\n      tag_256\n      swap4\n      swap3\n      swap2\n      swap1\n      tag_257\n      jump\t// in\n    tag_256:\n      mload(0x40)\n      0x20\n      dup2\n      dup4\n      sub\n      sub\n      dup2\n      mstore\n      swap1\n      0x40\n      mstore\n      swap2\n      pop\n      0xe0\n      shl\n      0x20\n      dup3\n      add\n      dup1\n      mload\n      0xffffffffffffffffffffffffffffffffffffffffffffffffffffffff\n      dup4\n      dup2\n      dup4\n      and\n      or\n      dup4\n      mstore\n      pop\n      pop\n      pop\n      pop\n        /* \"@openzeppelin/contracts/token/ERC20/utils/SafeERC20.sol\":1718:1737  _callOptionalReturn */\n      tag_258\n        /* \"@openzeppelin/contracts/token/ERC20/utils/SafeERC20.sol\":1718:1799  _callOptionalReturn(token, abi.encodeCall(token.transferFrom, (from, to, value))) */\n      jump\t// in\n    tag_255:\n        /* \"@openzeppelin/contracts/token/ERC20/utils/SafeERC20.sol\":1618:1806  function safeTransferFrom(IERC20 token, address from, address to, uint256 value) internal {... */\n      pop\n      pop\n      pop\n      pop\n      jump\t// out\n        /* \"contracts/match.sol\":12394:13075  function _verifySortedMerkleProof(bytes32[] calldata proof, bytes32 root, bytes32 leaf) internal pure returns (bool) {... */\n    tag_139:\n        /* \"contracts/match.sol\":12505:12509  bool */\n      0x00\n        /* \"contracts/match.sol\":12521:12537  bytes32 computed */\n      0x00\n        /* \"contracts/match.sol\":12540:12544  leaf */\n      dup3\n        /* \"contracts/match.sol\":12521:12544  bytes32 computed = leaf */\n      swap1\n      pop\n        /* \"contracts/match.sol\":12601:12610  uint256 i */\n      0x00\n        /* \"contracts/match.sol\":12613:12614  0 */\n      0x00\n        /* \"contracts/match.sol\":12601:12614  uint256 i = 0 */\n      swap1\n      pop\n        /* \"contracts/match.sol\":12596:12986  for (uint256 i = 0; i < proof.length; i++) {... */\n    tag_260:\n        /* \"contracts/match.sol\":12620:12625  proof */\n      dup7\n      dup7\n        /* \"contracts/match.sol\":12620:12632  proof.length */\n      swap1\n      pop\n        /* \"contracts/match.sol\":12616:12617  i */\n      dup2\n        /* \"contracts/match.sol\":12616:12632  i < proof.length */\n      lt\n        /* \"contracts/match.sol\":12596:12986  for (uint256 i = 0; i < proof.length; i++) {... */\n      iszero\n      tag_261\n      jumpi\n        /* \"contracts/match.sol\":12653:12668  bytes32 sibling */\n      0x00\n        /* \"contracts/match.sol\":12671:12676  proof */\n      dup8\n      dup8\n        /* \"contracts/match.sol\":12677:12678  i */\n      dup4\n        /* \"contracts/match.sol\":12671:12679  proof[i] */\n      dup2\n      dup2\n      lt\n      tag_263\n      jumpi\n      tag_264\n      tag_180\n      jump\t// in\n    tag_264:\n    tag_263:\n      swap1\n      pop\n      0x20\n      mul\n      add\n      calldataload\n        /* \"contracts/match.sol\":12653:12679  bytes32 sibling = proof[i] */\n      swap1\n      pop\n        /* \"contracts/match.sol\":12838:12845  sibling */\n      dup1\n        /* \"contracts/match.sol\":12826:12834  computed */\n      dup4\n        /* \"contracts/match.sol\":12826:12845  computed <= sibling */\n      gt\n      iszero\n        /* \"contracts/match.sol\":12826:12975  computed <= sibling... */\n      tag_265\n      jumpi\n        /* \"contracts/match.sol\":12956:12963  sibling */\n      dup1\n        /* \"contracts/match.sol\":12965:12973  computed */\n      dup4\n        /* \"contracts/match.sol\":12939:12974  abi.encodePacked(sibling, computed) */\n      add(0x20, mload(0x40))\n      tag_266\n      swap3\n      swap2\n      swap1\n      tag_267\n      jump\t// in\n    tag_266:\n      mload(0x40)\n      0x20\n      dup2\n      dup4\n      sub\n      sub\n      dup2\n      mstore\n      swap1\n      0x40\n      mstore\n        /* \"contracts/match.sol\":12929:12975  keccak256(abi.encodePacked(sibling, computed)) */\n      dup1\n      mload\n      swap1\n      0x20\n      add\n      keccak256\n        /* \"contracts/match.sol\":12826:12975  computed <= sibling... */\n      jump(tag_268)\n    tag_265:\n        /* \"contracts/match.sol\":12891:12899  computed */\n      dup3\n        /* \"contracts/match.sol\":12901:12908  sibling */\n      dup2\n        /* \"contracts/match.sol\":12874:12909  abi.encodePacked(computed, sibling) */\n      add(0x20, mload(0x40))\n      tag_269\n      swap3\n      swap2\n      swap1\n      tag_267\n      jump\t// in\n    tag_269:\n      mload(0x40)\n      0x20\n      dup2\n      dup4\n      sub\n      sub\n      dup2\n      mstore\n      swap1\n      0x40\n      mstore\n        /* \"contracts/match.sol\":12864:12910  keccak256(abi.encodePacked(computed, sibling)) */\n      dup1\n      mload\n      swap1\n      0x20\n      add\n      keccak256\n        /* \"contracts/match.sol\":12826:12975  computed <= sibling... */\n    tag_268:\n        /* \"contracts/match.sol\":12815:12975  computed = computed <= sibling... */\n      swap3\n      pop\n        /* \"contracts/match.sol\":12639:12986  {... */\n      pop\n        /* \"contracts/match.sol\":12634:12637  i++ */\n      dup1\n      dup1\n      0x01\n      add\n      swap2\n      pop\n      pop\n        /* \"contracts/match.sol\":12596:12986  for (uint256 i = 0; i < proof.length; i++) {... */\n      jump(tag_260)\n    tag_261:\n      pop\n        /* \"contracts/match.sol\":13014:13018  root */\n      dup4\n        /* \"contracts/match.sol\":13002:13010  computed */\n      dup2\n        /* \"contracts/match.sol\":13002:13018  computed == root */\n      eq\n        /* \"contracts/match.sol\":12995:13018  return computed == root */\n      swap2\n      pop\n      pop\n        /* \"contracts/match.sol\":12394:13075  function _verifySortedMerkleProof(bytes32[] calldata proof, bytes32 root, bytes32 leaf) internal pure returns (bool) {... */\n      swap5\n      swap4\n      pop\n      pop\n      pop\n      pop\n      jump\t// out\n        /* \"@openzeppelin/contracts/token/ERC20/utils/SafeERC20.sol\":1219:1379  function safeTransfer(IERC20 token, address to, uint256 value) internal {... */\n    tag_157:\n        /* \"@openzeppelin/contracts/token/ERC20/utils/SafeERC20.sol\":1301:1372  _callOptionalReturn(token, abi.encodeCall(token.transfer, (to, value))) */\n      tag_271\n        /* \"@openzeppelin/contracts/token/ERC20/utils/SafeERC20.sol\":1321:1326  token */\n      dup4\n        /* \"@openzeppelin/contracts/token/ERC20/utils/SafeERC20.sol\":1343:1348  token */\n      dup5\n        /* \"@openzeppelin/contracts/token/ERC20/utils/SafeERC20.sol\":1343:1357  token.transfer */\n      0xffffffffffffffffffffffffffffffffffffffff\n      and\n      0xa9059cbb\n        /* \"@openzeppelin/contracts/token/ERC20/utils/SafeERC20.sol\":1360:1362  to */\n      dup6\n        /* \"@openzeppelin/contracts/token/ERC20/utils/SafeERC20.sol\":1364:1369  value */\n      dup6\n        /* \"@openzeppelin/contracts/token/ERC20/utils/SafeERC20.sol\":1328:1371  abi.encodeCall(token.transfer, (to, value)) */\n      add(0x24, mload(0x40))\n      tag_272\n      swap3\n      swap2\n      swap1\n      tag_273\n      jump\t// in\n    tag_272:\n      mload(0x40)\n      0x20\n      dup2\n      dup4\n      sub\n      sub\n      dup2\n      mstore\n      swap1\n      0x40\n      mstore\n      swap2\n      pop\n      0xe0\n      shl\n      0x20\n      dup3\n      add\n      dup1\n      mload\n      0xffffffffffffffffffffffffffffffffffffffffffffffffffffffff\n      dup4\n      dup2\n      dup4\n      and\n      or\n      dup4\n      mstore\n      pop\n      pop\n      pop\n      pop\n        /* \"@openzeppelin/contracts/token/ERC20/utils/SafeERC20.sol\":1301:1320  _callOptionalReturn */\n      tag_258\n        /* \"@openzeppelin/contracts/token/ERC20/utils/SafeERC20.sol\":1301:1372  _callOptionalReturn(token, abi.encodeCall(token.transfer, (to, value))) */\n      jump\t// in\n    tag_271:\n        /* \"@openzeppelin/contracts/token/ERC20/utils/SafeERC20.sol\":1219:1379  function safeTransfer(IERC20 token, address to, uint256 value) internal {... */\n      pop\n      pop\n      pop\n      jump\t// out\n        /* \"@openzeppelin/contracts/utils/Context.sol\":656:752  function _msgSender() internal view virtual returns (address) {... */\n    tag_248:\n        /* \"@openzeppelin/contracts/utils/Context.sol\":709:716  address */\n      0x00\n        /* \"@openzeppelin/contracts/utils/Context.sol\":735:745  msg.sender */\n      caller\n        /* \"@openzeppelin/contracts/utils/Context.sol\":728:745  return msg.sender */\n      swap1\n      pop\n        /* \"@openzeppelin/contracts/utils/Context.sol\":656:752  function _msgSender() internal view virtual returns (address) {... */\n      swap1\n      jump\t// out\n        /* \"@openzeppelin/contracts/token/ERC20/utils/SafeERC20.sol\":8370:9090  function _callOptionalReturn(IERC20 token, bytes memory data) private {... */\n    tag_258:\n        /* \"@openzeppelin/contracts/token/ERC20/utils/SafeERC20.sol\":8450:8468  uint256 returnSize */\n      0x00\n        /* \"@openzeppelin/contracts/token/ERC20/utils/SafeERC20.sol\":8478:8497  uint256 returnValue */\n      0x00\n        /* \"@openzeppelin/contracts/token/ERC20/utils/SafeERC20.sol\":8616:8620  0x20 */\n      0x20\n        /* \"@openzeppelin/contracts/token/ERC20/utils/SafeERC20.sol\":8613:8614  0 */\n      0x00\n        /* \"@openzeppelin/contracts/token/ERC20/utils/SafeERC20.sol\":8606:8610  data */\n      dup5\n        /* \"@openzeppelin/contracts/token/ERC20/utils/SafeERC20.sol\":8600:8611  mload(data) */\n      mload\n        /* \"@openzeppelin/contracts/token/ERC20/utils/SafeERC20.sol\":8593:8597  0x20 */\n      0x20\n        /* \"@openzeppelin/contracts/token/ERC20/utils/SafeERC20.sol\":8587:8591  data */\n      dup7\n        /* \"@openzeppelin/contracts/token/ERC20/utils/SafeERC20.sol\":8583:8598  add(data, 0x20) */\n      add\n        /* \"@openzeppelin/contracts/token/ERC20/utils/SafeERC20.sol\":8580:8581  0 */\n      0x00\n        /* \"@openzeppelin/contracts/token/ERC20/utils/SafeERC20.sol\":8573:8578  token */\n      dup9\n        /* \"@openzeppelin/contracts/token/ERC20/utils/SafeERC20.sol\":8566:8571  gas() */\n      gas\n        /* \"@openzeppelin/contracts/token/ERC20/utils/SafeERC20.sol\":8561:8621  call(gas(), token, 0, add(data, 0x20), mload(data), 0, 0x20) */\n      call\n        /* \"@openzeppelin/contracts/token/ERC20/utils/SafeERC20.sol\":8673:8680  success */\n      dup1\n        /* \"@openzeppelin/contracts/token/ERC20/utils/SafeERC20.sol\":8663:8839  if iszero(success) {... */\n      tag_276\n      jumpi\n        /* \"@openzeppelin/contracts/token/ERC20/utils/SafeERC20.sol\":8717:8721  0x40 */\n      0x40\n        /* \"@openzeppelin/contracts/token/ERC20/utils/SafeERC20.sol\":8711:8722  mload(0x40) */\n      mload\n        /* \"@openzeppelin/contracts/token/ERC20/utils/SafeERC20.sol\":8762:8778  returndatasize() */\n      returndatasize\n        /* \"@openzeppelin/contracts/token/ERC20/utils/SafeERC20.sol\":8759:8760  0 */\n      0x00\n        /* \"@openzeppelin/contracts/token/ERC20/utils/SafeERC20.sol\":8754:8757  ptr */\n      dup3\n        /* \"@openzeppelin/contracts/token/ERC20/utils/SafeERC20.sol\":8739:8779  returndatacopy(ptr, 0, returndatasize()) */\n      returndatacopy\n        /* \"@openzeppelin/contracts/token/ERC20/utils/SafeERC20.sol\":8808:8824  returndatasize() */\n      returndatasize\n        /* \"@openzeppelin/contracts/token/ERC20/utils/SafeERC20.sol\":8803:8806  ptr */\n      dup2\n        /* \"@openzeppelin/contracts/token/ERC20/utils/SafeERC20.sol\":8796:8825  revert(ptr, returndatasize()) */\n      revert\n        /* \"@openzeppelin/contracts/token/ERC20/utils/SafeERC20.sol\":8663:8839  if iszero(success) {... */\n    tag_276:\n        /* \"@openzeppelin/contracts/token/ERC20/utils/SafeERC20.sol\":8866:8882  returndatasize() */\n      returndatasize\n        /* \"@openzeppelin/contracts/token/ERC20/utils/SafeERC20.sol\":8852:8882  returnSize := returndatasize() */\n      swap3\n      pop\n        /* \"@openzeppelin/contracts/token/ERC20/utils/SafeERC20.sol\":8916:8917  0 */\n      0x00\n        /* \"@openzeppelin/contracts/token/ERC20/utils/SafeERC20.sol\":8910:8918  mload(0) */\n      mload\n        /* \"@openzeppelin/contracts/token/ERC20/utils/SafeERC20.sol\":8895:8918  returnValue := mload(0) */\n      swap2\n      pop\n        /* \"@openzeppelin/contracts/token/ERC20/utils/SafeERC20.sol\":8532:8928  {... */\n      pop\n        /* \"@openzeppelin/contracts/token/ERC20/utils/SafeERC20.sol\":8956:8957  0 */\n      0x00\n        /* \"@openzeppelin/contracts/token/ERC20/utils/SafeERC20.sol\":8942:8952  returnSize */\n      dup3\n        /* \"@openzeppelin/contracts/token/ERC20/utils/SafeERC20.sol\":8942:8957  returnSize == 0 */\n      eq\n        /* \"@openzeppelin/contracts/token/ERC20/utils/SafeERC20.sol\":8942:9010  returnSize == 0 ? address(token).code.length == 0 : returnValue != 1 */\n      tag_277\n      jumpi\n        /* \"@openzeppelin/contracts/token/ERC20/utils/SafeERC20.sol\":9009:9010  1 */\n      0x01\n        /* \"@openzeppelin/contracts/token/ERC20/utils/SafeERC20.sol\":8994:9005  returnValue */\n      dup2\n        /* \"@openzeppelin/contracts/token/ERC20/utils/SafeERC20.sol\":8994:9010  returnValue != 1 */\n      eq\n      iszero\n        /* \"@openzeppelin/contracts/token/ERC20/utils/SafeERC20.sol\":8942:9010  returnSize == 0 ? address(token).code.length == 0 : returnValue != 1 */\n      jump(tag_278)\n    tag_277:\n        /* \"@openzeppelin/contracts/token/ERC20/utils/SafeERC20.sol\":8990:8991  0 */\n      0x00\n        /* \"@openzeppelin/contracts/token/ERC20/utils/SafeERC20.sol\":8968:8973  token */\n      dup5\n        /* \"@openzeppelin/contracts/token/ERC20/utils/SafeERC20.sol\":8960:8986  address(token).code.length */\n      0xffffffffffffffffffffffffffffffffffffffff\n      and\n      extcodesize\n        /* \"@openzeppelin/contracts/token/ERC20/utils/SafeERC20.sol\":8960:8991  address(token).code.length == 0 */\n      eq\n        /* \"@openzeppelin/contracts/token/ERC20/utils/SafeERC20.sol\":8942:9010  returnSize == 0 ? address(token).code.length == 0 : returnValue != 1 */\n    tag_278:\n        /* \"@openzeppelin/contracts/token/ERC20/utils/SafeERC20.sol\":8938:9084  if (returnSize == 0 ? address(token).code.length == 0 : returnValue != 1) {... */\n      iszero\n      tag_279\n      jumpi\n        /* \"@openzeppelin/contracts/token/ERC20/utils/SafeERC20.sol\":9066:9071  token */\n      dup4\n        /* \"@openzeppelin/contracts/token/ERC20/utils/SafeERC20.sol\":9033:9073  SafeERC20FailedOperation(address(token)) */\n      mload(0x40)\n      0x5274afe700000000000000000000000000000000000000000000000000000000\n      dup2\n      mstore\n      0x04\n      add\n      tag_280\n      swap2\n      swap1\n      tag_60\n      jump\t// in\n    tag_280:\n      mload(0x40)\n      dup1\n      swap2\n      sub\n      swap1\n      revert\n        /* \"@openzeppelin/contracts/token/ERC20/utils/SafeERC20.sol\":8938:9084  if (returnSize == 0 ? address(token).code.length == 0 : returnValue != 1) {... */\n    tag_279:\n        /* \"@openzeppelin/contracts/token/ERC20/utils/SafeERC20.sol\":8440:9090  {... */\n      pop\n      pop\n        /* \"@openzeppelin/contracts/token/ERC20/utils/SafeERC20.sol\":8370:9090  function _callOptionalReturn(IERC20 token, bytes memory data) private {... */\n      pop\n      pop\n      jump\t// out\n        /* \"#utility.yul\":88:205   */\n    tag_282:\n        /* \"#utility.yul\":197:198   */\n      0x00\n        /* \"#utility.yul\":194:195   */\n      0x00\n        /* \"#utility.yul\":187:199   */\n      revert\n        /* \"#utility.yul\":211:328   */\n    tag_283:\n        /* \"#utility.yul\":320:321   */\n      0x00\n        /* \"#utility.yul\":317:318   */\n      0x00\n        /* \"#utility.yul\":310:322   */\n      revert\n        /* \"#utility.yul\":334:411   */\n    tag_284:\n        /* \"#utility.yul\":371:378   */\n      0x00\n        /* \"#utility.yul\":400:405   */\n      dup2\n        /* \"#utility.yul\":389:405   */\n      swap1\n      pop\n        /* \"#utility.yul\":334:411   */\n      swap2\n      swap1\n      pop\n      jump\t// out\n        /* \"#utility.yul\":417:539   */\n    tag_285:\n        /* \"#utility.yul\":490:514   */\n      tag_377\n        /* \"#utility.yul\":508:513   */\n      dup2\n        /* \"#utility.yul\":490:514   */\n      tag_284\n      jump\t// in\n    tag_377:\n        /* \"#utility.yul\":483:488   */\n      dup2\n        /* \"#utility.yul\":480:515   */\n      eq\n        /* \"#utility.yul\":470:533   */\n      tag_378\n      jumpi\n        /* \"#utility.yul\":529:530   */\n      0x00\n        /* \"#utility.yul\":526:527   */\n      0x00\n        /* \"#utility.yul\":519:531   */\n      revert\n        /* \"#utility.yul\":470:533   */\n    tag_378:\n        /* \"#utility.yul\":417:539   */\n      pop\n      jump\t// out\n        /* \"#utility.yul\":545:684   */\n    tag_286:\n        /* \"#utility.yul\":591:596   */\n      0x00\n        /* \"#utility.yul\":629:635   */\n      dup2\n        /* \"#utility.yul\":616:636   */\n      calldataload\n        /* \"#utility.yul\":607:636   */\n      swap1\n      pop\n        /* \"#utility.yul\":645:678   */\n      tag_380\n        /* \"#utility.yul\":672:677   */\n      dup2\n        /* \"#utility.yul\":645:678   */\n      tag_285\n      jump\t// in\n    tag_380:\n        /* \"#utility.yul\":545:684   */\n      swap3\n      swap2\n      pop\n      pop\n      jump\t// out\n        /* \"#utility.yul\":690:1164   */\n    tag_25:\n        /* \"#utility.yul\":758:764   */\n      0x00\n        /* \"#utility.yul\":766:772   */\n      0x00\n        /* \"#utility.yul\":815:817   */\n      0x40\n        /* \"#utility.yul\":803:812   */\n      dup4\n        /* \"#utility.yul\":794:801   */\n      dup6\n        /* \"#utility.yul\":790:813   */\n      sub\n        /* \"#utility.yul\":786:818   */\n      slt\n        /* \"#utility.yul\":783:902   */\n      iszero\n      tag_382\n      jumpi\n        /* \"#utility.yul\":821:900   */\n      tag_383\n      tag_282\n      jump\t// in\n    tag_383:\n        /* \"#utility.yul\":783:902   */\n    tag_382:\n        /* \"#utility.yul\":941:942   */\n      0x00\n        /* \"#utility.yul\":966:1019   */\n      tag_384\n        /* \"#utility.yul\":1011:1018   */\n      dup6\n        /* \"#utility.yul\":1002:1008   */\n      dup3\n        /* \"#utility.yul\":991:1000   */\n      dup7\n        /* \"#utility.yul\":987:1009   */\n      add\n        /* \"#utility.yul\":966:1019   */\n      tag_286\n      jump\t// in\n    tag_384:\n        /* \"#utility.yul\":956:1019   */\n      swap3\n      pop\n        /* \"#utility.yul\":912:1029   */\n      pop\n        /* \"#utility.yul\":1068:1070   */\n      0x20\n        /* \"#utility.yul\":1094:1147   */\n      tag_385\n        /* \"#utility.yul\":1139:1146   */\n      dup6\n        /* \"#utility.yul\":1130:1136   */\n      dup3\n        /* \"#utility.yul\":1119:1128   */\n      dup7\n        /* \"#utility.yul\":1115:1137   */\n      add\n        /* \"#utility.yul\":1094:1147   */\n      tag_286\n      jump\t// in\n    tag_385:\n        /* \"#utility.yul\":1084:1147   */\n      swap2\n      pop\n        /* \"#utility.yul\":1039:1157   */\n      pop\n        /* \"#utility.yul\":690:1164   */\n      swap3\n      pop\n      swap3\n      swap1\n      pop\n      jump\t// out\n        /* \"#utility.yul\":1170:1263   */\n    tag_287:\n        /* \"#utility.yul\":1206:1213   */\n      0x00\n        /* \"#utility.yul\":1246:1256   */\n      0xffffffff\n        /* \"#utility.yul\":1239:1244   */\n      dup3\n        /* \"#utility.yul\":1235:1257   */\n      and\n        /* \"#utility.yul\":1224:1257   */\n      swap1\n      pop\n        /* \"#utility.yul\":1170:1263   */\n      swap2\n      swap1\n      pop\n      jump\t// out\n        /* \"#utility.yul\":1269:1384   */\n    tag_288:\n        /* \"#utility.yul\":1354:1377   */\n      tag_388\n        /* \"#utility.yul\":1371:1376   */\n      dup2\n        /* \"#utility.yul\":1354:1377   */\n      tag_287\n      jump\t// in\n    tag_388:\n        /* \"#utility.yul\":1349:1352   */\n      dup3\n        /* \"#utility.yul\":1342:1378   */\n      mstore\n        /* \"#utility.yul\":1269:1384   */\n      pop\n      pop\n      jump\t// out\n        /* \"#utility.yul\":1390:1508   */\n    tag_289:\n        /* \"#utility.yul\":1477:1501   */\n      tag_390\n        /* \"#utility.yul\":1495:1500   */\n      dup2\n        /* \"#utility.yul\":1477:1501   */\n      tag_284\n      jump\t// in\n    tag_390:\n        /* \"#utility.yul\":1472:1475   */\n      dup3\n        /* \"#utility.yul\":1465:1502   */\n      mstore\n        /* \"#utility.yul\":1390:1508   */\n      pop\n      pop\n      jump\t// out\n        /* \"#utility.yul\":1514:1842   */\n    tag_28:\n        /* \"#utility.yul\":1633:1637   */\n      0x00\n        /* \"#utility.yul\":1671:1673   */\n      0x40\n        /* \"#utility.yul\":1660:1669   */\n      dup3\n        /* \"#utility.yul\":1656:1674   */\n      add\n        /* \"#utility.yul\":1648:1674   */\n      swap1\n      pop\n        /* \"#utility.yul\":1684:1753   */\n      tag_392\n        /* \"#utility.yul\":1750:1751   */\n      0x00\n        /* \"#utility.yul\":1739:1748   */\n      dup4\n        /* \"#utility.yul\":1735:1752   */\n      add\n        /* \"#utility.yul\":1726:1732   */\n      dup6\n        /* \"#utility.yul\":1684:1753   */\n      tag_288\n      jump\t// in\n    tag_392:\n        /* \"#utility.yul\":1763:1835   */\n      tag_393\n        /* \"#utility.yul\":1831:1833   */\n      0x20\n        /* \"#utility.yul\":1820:1829   */\n      dup4\n        /* \"#utility.yul\":1816:1834   */\n      add\n        /* \"#utility.yul\":1807:1813   */\n      dup5\n        /* \"#utility.yul\":1763:1835   */\n      tag_289\n      jump\t// in\n    tag_393:\n        /* \"#utility.yul\":1514:1842   */\n      swap4\n      swap3\n      pop\n      pop\n      pop\n      jump\t// out\n        /* \"#utility.yul\":1848:1974   */\n    tag_290:\n        /* \"#utility.yul\":1885:1892   */\n      0x00\n        /* \"#utility.yul\":1925:1967   */\n      0xffffffffffffffffffffffffffffffffffffffff\n        /* \"#utility.yul\":1918:1923   */\n      dup3\n        /* \"#utility.yul\":1914:1968   */\n      and\n        /* \"#utility.yul\":1903:1968   */\n      swap1\n      pop\n        /* \"#utility.yul\":1848:1974   */\n      swap2\n      swap1\n      pop\n      jump\t// out\n        /* \"#utility.yul\":1980:2076   */\n    tag_291:\n        /* \"#utility.yul\":2017:2024   */\n      0x00\n        /* \"#utility.yul\":2046:2070   */\n      tag_396\n        /* \"#utility.yul\":2064:2069   */\n      dup3\n        /* \"#utility.yul\":2046:2070   */\n      tag_290\n      jump\t// in\n    tag_396:\n        /* \"#utility.yul\":2035:2070   */\n      swap1\n      pop\n        /* \"#utility.yul\":1980:2076   */\n      swap2\n      swap1\n      pop\n      jump\t// out\n        /* \"#utility.yul\":2082:2204   */\n    tag_292:\n        /* \"#utility.yul\":2155:2179   */\n      tag_398\n        /* \"#utility.yul\":2173:2178   */\n      dup2\n        /* \"#utility.yul\":2155:2179   */\n      tag_291\n      jump\t// in\n    tag_398:\n        /* \"#utility.yul\":2148:2153   */\n      dup2\n        /* \"#utility.yul\":2145:2180   */\n      eq\n        /* \"#utility.yul\":2135:2198   */\n      tag_399\n      jumpi\n        /* \"#utility.yul\":2194:2195   */\n      0x00\n        /* \"#utility.yul\":2191:2192   */\n      0x00\n        /* \"#utility.yul\":2184:2196   */\n      revert\n        /* \"#utility.yul\":2135:2198   */\n    tag_399:\n        /* \"#utility.yul\":2082:2204   */\n      pop\n      jump\t// out\n        /* \"#utility.yul\":2210:2349   */\n    tag_293:\n        /* \"#utility.yul\":2256:2261   */\n      0x00\n        /* \"#utility.yul\":2294:2300   */\n      dup2\n        /* \"#utility.yul\":2281:2301   */\n      calldataload\n        /* \"#utility.yul\":2272:2301   */\n      swap1\n      pop\n        /* \"#utility.yul\":2310:2343   */\n      tag_401\n        /* \"#utility.yul\":2337:2342   */\n      dup2\n        /* \"#utility.yul\":2310:2343   */\n      tag_292\n      jump\t// in\n    tag_401:\n        /* \"#utility.yul\":2210:2349   */\n      swap3\n      swap2\n      pop\n      pop\n      jump\t// out\n        /* \"#utility.yul\":2355:2829   */\n    tag_31:\n        /* \"#utility.yul\":2423:2429   */\n      0x00\n        /* \"#utility.yul\":2431:2437   */\n      0x00\n        /* \"#utility.yul\":2480:2482   */\n      0x40\n        /* \"#utility.yul\":2468:2477   */\n      dup4\n        /* \"#utility.yul\":2459:2466   */\n      dup6\n        /* \"#utility.yul\":2455:2478   */\n      sub\n        /* \"#utility.yul\":2451:2483   */\n      slt\n        /* \"#utility.yul\":2448:2567   */\n      iszero\n      tag_403\n      jumpi\n        /* \"#utility.yul\":2486:2565   */\n      tag_404\n      tag_282\n      jump\t// in\n    tag_404:\n        /* \"#utility.yul\":2448:2567   */\n    tag_403:\n        /* \"#utility.yul\":2606:2607   */\n      0x00\n        /* \"#utility.yul\":2631:2684   */\n      tag_405\n        /* \"#utility.yul\":2676:2683   */\n      dup6\n        /* \"#utility.yul\":2667:2673   */\n      dup3\n        /* \"#utility.yul\":2656:2665   */\n      dup7\n        /* \"#utility.yul\":2652:2674   */\n      add\n        /* \"#utility.yul\":2631:2684   */\n      tag_286\n      jump\t// in\n    tag_405:\n        /* \"#utility.yul\":2621:2684   */\n      swap3\n      pop\n        /* \"#utility.yul\":2577:2694   */\n      pop\n        /* \"#utility.yul\":2733:2735   */\n      0x20\n        /* \"#utility.yul\":2759:2812   */\n      tag_406\n        /* \"#utility.yul\":2804:2811   */\n      dup6\n        /* \"#utility.yul\":2795:2801   */\n      dup3\n        /* \"#utility.yul\":2784:2793   */\n      dup7\n        /* \"#utility.yul\":2780:2802   */\n      add\n        /* \"#utility.yul\":2759:2812   */\n      tag_293\n      jump\t// in\n    tag_406:\n        /* \"#utility.yul\":2749:2812   */\n      swap2\n      pop\n        /* \"#utility.yul\":2704:2822   */\n      pop\n        /* \"#utility.yul\":2355:2829   */\n      swap3\n      pop\n      swap3\n      swap1\n      pop\n      jump\t// out\n        /* \"#utility.yul\":2835:2925   */\n    tag_294:\n        /* \"#utility.yul\":2869:2876   */\n      0x00\n        /* \"#utility.yul\":2912:2917   */\n      dup2\n        /* \"#utility.yul\":2905:2918   */\n      iszero\n        /* \"#utility.yul\":2898:2919   */\n      iszero\n        /* \"#utility.yul\":2887:2919   */\n      swap1\n      pop\n        /* \"#utility.yul\":2835:2925   */\n      swap2\n      swap1\n      pop\n      jump\t// out\n        /* \"#utility.yul\":2931:3040   */\n    tag_295:\n        /* \"#utility.yul\":3012:3033   */\n      tag_409\n        /* \"#utility.yul\":3027:3032   */\n      dup2\n        /* \"#utility.yul\":3012:3033   */\n      tag_294\n      jump\t// in\n    tag_409:\n        /* \"#utility.yul\":3007:3010   */\n      dup3\n        /* \"#utility.yul\":3000:3034   */\n      mstore\n        /* \"#utility.yul\":2931:3040   */\n      pop\n      pop\n      jump\t// out\n        /* \"#utility.yul\":3046:3256   */\n    tag_34:\n        /* \"#utility.yul\":3133:3137   */\n      0x00\n        /* \"#utility.yul\":3171:3173   */\n      0x20\n        /* \"#utility.yul\":3160:3169   */\n      dup3\n        /* \"#utility.yul\":3156:3174   */\n      add\n        /* \"#utility.yul\":3148:3174   */\n      swap1\n      pop\n        /* \"#utility.yul\":3184:3249   */\n      tag_411\n        /* \"#utility.yul\":3246:3247   */\n      0x00\n        /* \"#utility.yul\":3235:3244   */\n      dup4\n        /* \"#utility.yul\":3231:3248   */\n      add\n        /* \"#utility.yul\":3222:3228   */\n      dup5\n        /* \"#utility.yul\":3184:3249   */\n      tag_295\n      jump\t// in\n    tag_411:\n        /* \"#utility.yul\":3046:3256   */\n      swap3\n      swap2\n      pop\n      pop\n      jump\t// out\n        /* \"#utility.yul\":3262:3591   */\n    tag_37:\n        /* \"#utility.yul\":3321:3327   */\n      0x00\n        /* \"#utility.yul\":3370:3372   */\n      0x20\n        /* \"#utility.yul\":3358:3367   */\n      dup3\n        /* \"#utility.yul\":3349:3356   */\n      dup5\n        /* \"#utility.yul\":3345:3368   */\n      sub\n        /* \"#utility.yul\":3341:3373   */\n      slt\n        /* \"#utility.yul\":3338:3457   */\n      iszero\n      tag_413\n      jumpi\n        /* \"#utility.yul\":3376:3455   */\n      tag_414\n      tag_282\n      jump\t// in\n    tag_414:\n        /* \"#utility.yul\":3338:3457   */\n    tag_413:\n        /* \"#utility.yul\":3496:3497   */\n      0x00\n        /* \"#utility.yul\":3521:3574   */\n      tag_415\n        /* \"#utility.yul\":3566:3573   */\n      dup5\n        /* \"#utility.yul\":3557:3563   */\n      dup3\n        /* \"#utility.yul\":3546:3555   */\n      dup6\n        /* \"#utility.yul\":3542:3564   */\n      add\n        /* \"#utility.yul\":3521:3574   */\n      tag_286\n      jump\t// in\n    tag_415:\n        /* \"#utility.yul\":3511:3574   */\n      swap2\n      pop\n        /* \"#utility.yul\":3467:3584   */\n      pop\n        /* \"#utility.yul\":3262:3591   */\n      swap3\n      swap2\n      pop\n      pop\n      jump\t// out\n        /* \"#utility.yul\":3597:3715   */\n    tag_296:\n        /* \"#utility.yul\":3684:3708   */\n      tag_417\n        /* \"#utility.yul\":3702:3707   */\n      dup2\n        /* \"#utility.yul\":3684:3708   */\n      tag_291\n      jump\t// in\n    tag_417:\n        /* \"#utility.yul\":3679:3682   */\n      dup3\n        /* \"#utility.yul\":3672:3709   */\n      mstore\n        /* \"#utility.yul\":3597:3715   */\n      pop\n      pop\n      jump\t// out\n        /* \"#utility.yul\":3721:3798   */\n    tag_297:\n        /* \"#utility.yul\":3758:3765   */\n      0x00\n        /* \"#utility.yul\":3787:3792   */\n      dup2\n        /* \"#utility.yul\":3776:3792   */\n      swap1\n      pop\n        /* \"#utility.yul\":3721:3798   */\n      swap2\n      swap1\n      pop\n      jump\t// out\n        /* \"#utility.yul\":3804:3922   */\n    tag_298:\n        /* \"#utility.yul\":3891:3915   */\n      tag_420\n        /* \"#utility.yul\":3909:3914   */\n      dup2\n        /* \"#utility.yul\":3891:3915   */\n      tag_297\n      jump\t// in\n    tag_420:\n        /* \"#utility.yul\":3886:3889   */\n      dup3\n        /* \"#utility.yul\":3879:3916   */\n      mstore\n        /* \"#utility.yul\":3804:3922   */\n      pop\n      pop\n      jump\t// out\n        /* \"#utility.yul\":3928:4037   */\n    tag_299:\n        /* \"#utility.yul\":3964:3971   */\n      0x00\n        /* \"#utility.yul\":4004:4030   */\n      0xffffffffffffffffffffffff\n        /* \"#utility.yul\":3997:4002   */\n      dup3\n        /* \"#utility.yul\":3993:4031   */\n      and\n        /* \"#utility.yul\":3982:4031   */\n      swap1\n      pop\n        /* \"#utility.yul\":3928:4037   */\n      swap2\n      swap1\n      pop\n      jump\t// out\n        /* \"#utility.yul\":4043:4158   */\n    tag_300:\n        /* \"#utility.yul\":4128:4151   */\n      tag_423\n        /* \"#utility.yul\":4145:4150   */\n      dup2\n        /* \"#utility.yul\":4128:4151   */\n      tag_299\n      jump\t// in\n    tag_423:\n        /* \"#utility.yul\":4123:4126   */\n      dup3\n        /* \"#utility.yul\":4116:4152   */\n      mstore\n        /* \"#utility.yul\":4043:4158   */\n      pop\n      pop\n      jump\t// out\n        /* \"#utility.yul\":4164:4265   */\n    tag_301:\n        /* \"#utility.yul\":4200:4207   */\n      0x00\n        /* \"#utility.yul\":4240:4258   */\n      0xffffffffffffffff\n        /* \"#utility.yul\":4233:4238   */\n      dup3\n        /* \"#utility.yul\":4229:4259   */\n      and\n        /* \"#utility.yul\":4218:4259   */\n      swap1\n      pop\n        /* \"#utility.yul\":4164:4265   */\n      swap2\n      swap1\n      pop\n      jump\t// out\n        /* \"#utility.yul\":4271:4386   */\n    tag_302:\n        /* \"#utility.yul\":4356:4379   */\n      tag_426\n        /* \"#utility.yul\":4373:4378   */\n      dup2\n        /* \"#utility.yul\":4356:4379   */\n      tag_301\n      jump\t// in\n    tag_426:\n        /* \"#utility.yul\":4351:4354   */\n      dup3\n        /* \"#utility.yul\":4344:4380   */\n      mstore\n        /* \"#utility.yul\":4271:4386   */\n      pop\n      pop\n      jump\t// out\n        /* \"#utility.yul\":4392:5254   */\n    tag_40:\n        /* \"#utility.yul\":4641:4645   */\n      0x00\n        /* \"#utility.yul\":4679:4682   */\n      0xe0\n        /* \"#utility.yul\":4668:4677   */\n      dup3\n        /* \"#utility.yul\":4664:4683   */\n      add\n        /* \"#utility.yul\":4656:4683   */\n      swap1\n      pop\n        /* \"#utility.yul\":4693:4764   */\n      tag_428\n        /* \"#utility.yul\":4761:4762   */\n      0x00\n        /* \"#utility.yul\":4750:4759   */\n      dup4\n        /* \"#utility.yul\":4746:4763   */\n      add\n        /* \"#utility.yul\":4737:4743   */\n      dup11\n        /* \"#utility.yul\":4693:4764   */\n      tag_296\n      jump\t// in\n    tag_428:\n        /* \"#utility.yul\":4774:4846   */\n      tag_429\n        /* \"#utility.yul\":4842:4844   */\n      0x20\n        /* \"#utility.yul\":4831:4840   */\n      dup4\n        /* \"#utility.yul\":4827:4845   */\n      add\n        /* \"#utility.yul\":4818:4824   */\n      dup10\n        /* \"#utility.yul\":4774:4846   */\n      tag_289\n      jump\t// in\n    tag_429:\n        /* \"#utility.yul\":4856:4928   */\n      tag_430\n        /* \"#utility.yul\":4924:4926   */\n      0x40\n        /* \"#utility.yul\":4913:4922   */\n      dup4\n        /* \"#utility.yul\":4909:4927   */\n      add\n        /* \"#utility.yul\":4900:4906   */\n      dup9\n        /* \"#utility.yul\":4856:4928   */\n      tag_298\n      jump\t// in\n    tag_430:\n        /* \"#utility.yul\":4938:5008   */\n      tag_431\n        /* \"#utility.yul\":5004:5006   */\n      0x60\n        /* \"#utility.yul\":4993:5002   */\n      dup4\n        /* \"#utility.yul\":4989:5007   */\n      add\n        /* \"#utility.yul\":4980:4986   */\n      dup8\n        /* \"#utility.yul\":4938:5008   */\n      tag_288\n      jump\t// in\n    tag_431:\n        /* \"#utility.yul\":5018:5089   */\n      tag_432\n        /* \"#utility.yul\":5084:5087   */\n      0x80\n        /* \"#utility.yul\":5073:5082   */\n      dup4\n        /* \"#utility.yul\":5069:5088   */\n      add\n        /* \"#utility.yul\":5060:5066   */\n      dup7\n        /* \"#utility.yul\":5018:5089   */\n      tag_300\n      jump\t// in\n    tag_432:\n        /* \"#utility.yul\":5099:5170   */\n      tag_433\n        /* \"#utility.yul\":5165:5168   */\n      0xa0\n        /* \"#utility.yul\":5154:5163   */\n      dup4\n        /* \"#utility.yul\":5150:5169   */\n      add\n        /* \"#utility.yul\":5141:5147   */\n      dup6\n        /* \"#utility.yul\":5099:5170   */\n      tag_302\n      jump\t// in\n    tag_433:\n        /* \"#utility.yul\":5180:5247   */\n      tag_434\n        /* \"#utility.yul\":5242:5245   */\n      0xc0\n        /* \"#utility.yul\":5231:5240   */\n      dup4\n        /* \"#utility.yul\":5227:5246   */\n      add\n        /* \"#utility.yul\":5218:5224   */\n      dup5\n        /* \"#utility.yul\":5180:5247   */\n      tag_295\n      jump\t// in\n    tag_434:\n        /* \"#utility.yul\":4392:5254   */\n      swap9\n      swap8\n      pop\n      pop\n      pop\n      pop\n      pop\n      pop\n      pop\n      pop\n      jump\t// out\n        /* \"#utility.yul\":5260:6233   */\n    tag_45:\n        /* \"#utility.yul\":5537:5541   */\n      0x00\n        /* \"#utility.yul\":5575:5578   */\n      0x0100\n        /* \"#utility.yul\":5564:5573   */\n      dup3\n        /* \"#utility.yul\":5560:5579   */\n      add\n        /* \"#utility.yul\":5552:5579   */\n      swap1\n      pop\n        /* \"#utility.yul\":5589:5660   */\n      tag_436\n        /* \"#utility.yul\":5657:5658   */\n      0x00\n        /* \"#utility.yul\":5646:5655   */\n      dup4\n        /* \"#utility.yul\":5642:5659   */\n      add\n        /* \"#utility.yul\":5633:5639   */\n      dup12\n        /* \"#utility.yul\":5589:5660   */\n      tag_296\n      jump\t// in\n    tag_436:\n        /* \"#utility.yul\":5670:5740   */\n      tag_437\n        /* \"#utility.yul\":5736:5738   */\n      0x20\n        /* \"#utility.yul\":5725:5734   */\n      dup4\n        /* \"#utility.yul\":5721:5739   */\n      add\n        /* \"#utility.yul\":5712:5718   */\n      dup11\n        /* \"#utility.yul\":5670:5740   */\n      tag_300\n      jump\t// in\n    tag_437:\n        /* \"#utility.yul\":5750:5820   */\n      tag_438\n        /* \"#utility.yul\":5816:5818   */\n      0x40\n        /* \"#utility.yul\":5805:5814   */\n      dup4\n        /* \"#utility.yul\":5801:5819   */\n      add\n        /* \"#utility.yul\":5792:5798   */\n      dup10\n        /* \"#utility.yul\":5750:5820   */\n      tag_302\n      jump\t// in\n    tag_438:\n        /* \"#utility.yul\":5830:5902   */\n      tag_439\n        /* \"#utility.yul\":5898:5900   */\n      0x60\n        /* \"#utility.yul\":5887:5896   */\n      dup4\n        /* \"#utility.yul\":5883:5901   */\n      add\n        /* \"#utility.yul\":5874:5880   */\n      dup9\n        /* \"#utility.yul\":5830:5902   */\n      tag_289\n      jump\t// in\n    tag_439:\n        /* \"#utility.yul\":5912:5985   */\n      tag_440\n        /* \"#utility.yul\":5980:5983   */\n      0x80\n        /* \"#utility.yul\":5969:5978   */\n      dup4\n        /* \"#utility.yul\":5965:5984   */\n      add\n        /* \"#utility.yul\":5956:5962   */\n      dup8\n        /* \"#utility.yul\":5912:5985   */\n      tag_289\n      jump\t// in\n    tag_440:\n        /* \"#utility.yul\":5995:6068   */\n      tag_441\n        /* \"#utility.yul\":6063:6066   */\n      0xa0\n        /* \"#utility.yul\":6052:6061   */\n      dup4\n        /* \"#utility.yul\":6048:6067   */\n      add\n        /* \"#utility.yul\":6039:6045   */\n      dup7\n        /* \"#utility.yul\":5995:6068   */\n      tag_298\n      jump\t// in\n    tag_441:\n        /* \"#utility.yul\":6078:6149   */\n      tag_442\n        /* \"#utility.yul\":6144:6147   */\n      0xc0\n        /* \"#utility.yul\":6133:6142   */\n      dup4\n        /* \"#utility.yul\":6129:6148   */\n      add\n        /* \"#utility.yul\":6120:6126   */\n      dup6\n        /* \"#utility.yul\":6078:6149   */\n      tag_288\n      jump\t// in\n    tag_442:\n        /* \"#utility.yul\":6159:6226   */\n      tag_443\n        /* \"#utility.yul\":6221:6224   */\n      0xe0\n        /* \"#utility.yul\":6210:6219   */\n      dup4\n        /* \"#utility.yul\":6206:6225   */\n      add\n        /* \"#utility.yul\":6197:6203   */\n      dup5\n        /* \"#utility.yul\":6159:6226   */\n      tag_295\n      jump\t// in\n    tag_443:\n        /* \"#utility.yul\":5260:6233   */\n      swap10\n      swap9\n      pop\n      pop\n      pop\n      pop\n      pop\n      pop\n      pop\n      pop\n      pop\n      jump\t// out\n        /* \"#utility.yul\":6239:6461   */\n    tag_50:\n        /* \"#utility.yul\":6332:6336   */\n      0x00\n        /* \"#utility.yul\":6370:6372   */\n      0x20\n        /* \"#utility.yul\":6359:6368   */\n      dup3\n        /* \"#utility.yul\":6355:6373   */\n      add\n        /* \"#utility.yul\":6347:6373   */\n      swap1\n      pop\n        /* \"#utility.yul\":6383:6454   */\n      tag_445\n        /* \"#utility.yul\":6451:6452   */\n      0x00\n        /* \"#utility.yul\":6440:6449   */\n      dup4\n        /* \"#utility.yul\":6436:6453   */\n      add\n        /* \"#utility.yul\":6427:6433   */\n      dup5\n        /* \"#utility.yul\":6383:6454   */\n      tag_289\n      jump\t// in\n    tag_445:\n        /* \"#utility.yul\":6239:6461   */\n      swap3\n      swap2\n      pop\n      pop\n      jump\t// out\n        /* \"#utility.yul\":6467:6689   */\n    tag_60:\n        /* \"#utility.yul\":6560:6564   */\n      0x00\n        /* \"#utility.yul\":6598:6600   */\n      0x20\n        /* \"#utility.yul\":6587:6596   */\n      dup3\n        /* \"#utility.yul\":6583:6601   */\n      add\n        /* \"#utility.yul\":6575:6601   */\n      swap1\n      pop\n        /* \"#utility.yul\":6611:6682   */\n      tag_447\n        /* \"#utility.yul\":6679:6680   */\n      0x00\n        /* \"#utility.yul\":6668:6677   */\n      dup4\n        /* \"#utility.yul\":6664:6681   */\n      add\n        /* \"#utility.yul\":6655:6661   */\n      dup5\n        /* \"#utility.yul\":6611:6682   */\n      tag_296\n      jump\t// in\n    tag_447:\n        /* \"#utility.yul\":6467:6689   */\n      swap3\n      swap2\n      pop\n      pop\n      jump\t// out\n        /* \"#utility.yul\":6695:6812   */\n    tag_303:\n        /* \"#utility.yul\":6804:6805   */\n      0x00\n        /* \"#utility.yul\":6801:6802   */\n      0x00\n        /* \"#utility.yul\":6794:6806   */\n      revert\n        /* \"#utility.yul\":6818:6935   */\n    tag_304:\n        /* \"#utility.yul\":6927:6928   */\n      0x00\n        /* \"#utility.yul\":6924:6925   */\n      0x00\n        /* \"#utility.yul\":6917:6929   */\n      revert\n        /* \"#utility.yul\":6941:7058   */\n    tag_305:\n        /* \"#utility.yul\":7050:7051   */\n      0x00\n        /* \"#utility.yul\":7047:7048   */\n      0x00\n        /* \"#utility.yul\":7040:7052   */\n      revert\n        /* \"#utility.yul\":7081:7649   */\n    tag_306:\n        /* \"#utility.yul\":7154:7162   */\n      0x00\n        /* \"#utility.yul\":7164:7170   */\n      0x00\n        /* \"#utility.yul\":7214:7217   */\n      dup4\n        /* \"#utility.yul\":7207:7211   */\n      0x1f\n        /* \"#utility.yul\":7199:7205   */\n      dup5\n        /* \"#utility.yul\":7195:7212   */\n      add\n        /* \"#utility.yul\":7191:7218   */\n      slt\n        /* \"#utility.yul\":7181:7303   */\n      tag_452\n      jumpi\n        /* \"#utility.yul\":7222:7301   */\n      tag_453\n      tag_303\n      jump\t// in\n    tag_453:\n        /* \"#utility.yul\":7181:7303   */\n    tag_452:\n        /* \"#utility.yul\":7335:7341   */\n      dup3\n        /* \"#utility.yul\":7322:7342   */\n      calldataload\n        /* \"#utility.yul\":7312:7342   */\n      swap1\n      pop\n        /* \"#utility.yul\":7365:7383   */\n      0xffffffffffffffff\n        /* \"#utility.yul\":7357:7363   */\n      dup2\n        /* \"#utility.yul\":7354:7384   */\n      gt\n        /* \"#utility.yul\":7351:7468   */\n      iszero\n      tag_454\n      jumpi\n        /* \"#utility.yul\":7387:7466   */\n      tag_455\n      tag_304\n      jump\t// in\n    tag_455:\n        /* \"#utility.yul\":7351:7468   */\n    tag_454:\n        /* \"#utility.yul\":7501:7505   */\n      0x20\n        /* \"#utility.yul\":7493:7499   */\n      dup4\n        /* \"#utility.yul\":7489:7506   */\n      add\n        /* \"#utility.yul\":7477:7506   */\n      swap2\n      pop\n        /* \"#utility.yul\":7555:7558   */\n      dup4\n        /* \"#utility.yul\":7547:7551   */\n      0x20\n        /* \"#utility.yul\":7539:7545   */\n      dup3\n        /* \"#utility.yul\":7535:7552   */\n      mul\n        /* \"#utility.yul\":7525:7533   */\n      dup4\n        /* \"#utility.yul\":7521:7553   */\n      add\n        /* \"#utility.yul\":7518:7559   */\n      gt\n        /* \"#utility.yul\":7515:7643   */\n      iszero\n      tag_456\n      jumpi\n        /* \"#utility.yul\":7562:7641   */\n      tag_457\n      tag_305\n      jump\t// in\n    tag_457:\n        /* \"#utility.yul\":7515:7643   */\n    tag_456:\n        /* \"#utility.yul\":7081:7649   */\n      swap3\n      pop\n      swap3\n      swap1\n      pop\n      jump\t// out\n        /* \"#utility.yul\":7655:8504   */\n    tag_66:\n        /* \"#utility.yul\":7759:7765   */\n      0x00\n        /* \"#utility.yul\":7767:7773   */\n      0x00\n        /* \"#utility.yul\":7775:7781   */\n      0x00\n        /* \"#utility.yul\":7783:7789   */\n      0x00\n        /* \"#utility.yul\":7832:7834   */\n      0x60\n        /* \"#utility.yul\":7820:7829   */\n      dup6\n        /* \"#utility.yul\":7811:7818   */\n      dup8\n        /* \"#utility.yul\":7807:7830   */\n      sub\n        /* \"#utility.yul\":7803:7835   */\n      slt\n        /* \"#utility.yul\":7800:7919   */\n      iszero\n      tag_459\n      jumpi\n        /* \"#utility.yul\":7838:7917   */\n      tag_460\n      tag_282\n      jump\t// in\n    tag_460:\n        /* \"#utility.yul\":7800:7919   */\n    tag_459:\n        /* \"#utility.yul\":7958:7959   */\n      0x00\n        /* \"#utility.yul\":7983:8036   */\n      tag_461\n        /* \"#utility.yul\":8028:8035   */\n      dup8\n        /* \"#utility.yul\":8019:8025   */\n      dup3\n        /* \"#utility.yul\":8008:8017   */\n      dup9\n        /* \"#utility.yul\":8004:8026   */\n      add\n        /* \"#utility.yul\":7983:8036   */\n      tag_286\n      jump\t// in\n    tag_461:\n        /* \"#utility.yul\":7973:8036   */\n      swap5\n      pop\n        /* \"#utility.yul\":7929:8046   */\n      pop\n        /* \"#utility.yul\":8085:8087   */\n      0x20\n        /* \"#utility.yul\":8111:8164   */\n      tag_462\n        /* \"#utility.yul\":8156:8163   */\n      dup8\n        /* \"#utility.yul\":8147:8153   */\n      dup3\n        /* \"#utility.yul\":8136:8145   */\n      dup9\n        /* \"#utility.yul\":8132:8154   */\n      add\n        /* \"#utility.yul\":8111:8164   */\n      tag_286\n      jump\t// in\n    tag_462:\n        /* \"#utility.yul\":8101:8164   */\n      swap4\n      pop\n        /* \"#utility.yul\":8056:8174   */\n      pop\n        /* \"#utility.yul\":8241:8243   */\n      0x40\n        /* \"#utility.yul\":8230:8239   */\n      dup6\n        /* \"#utility.yul\":8226:8244   */\n      add\n        /* \"#utility.yul\":8213:8245   */\n      calldataload\n        /* \"#utility.yul\":8272:8290   */\n      0xffffffffffffffff\n        /* \"#utility.yul\":8264:8270   */\n      dup2\n        /* \"#utility.yul\":8261:8291   */\n      gt\n        /* \"#utility.yul\":8258:8375   */\n      iszero\n      tag_463\n      jumpi\n        /* \"#utility.yul\":8294:8373   */\n      tag_464\n      tag_283\n      jump\t// in\n    tag_464:\n        /* \"#utility.yul\":8258:8375   */\n    tag_463:\n        /* \"#utility.yul\":8407:8487   */\n      tag_465\n        /* \"#utility.yul\":8479:8486   */\n      dup8\n        /* \"#utility.yul\":8470:8476   */\n      dup3\n        /* \"#utility.yul\":8459:8468   */\n      dup9\n        /* \"#utility.yul\":8455:8477   */\n      add\n        /* \"#utility.yul\":8407:8487   */\n      tag_306\n      jump\t// in\n    tag_465:\n        /* \"#utility.yul\":8389:8487   */\n      swap3\n      pop\n      swap3\n      pop\n        /* \"#utility.yul\":8184:8497   */\n      pop\n        /* \"#utility.yul\":7655:8504   */\n      swap3\n      swap6\n      swap2\n      swap5\n      pop\n      swap3\n      pop\n      jump\t// out\n        /* \"#utility.yul\":8526:9093   */\n    tag_307:\n        /* \"#utility.yul\":8598:8606   */\n      0x00\n        /* \"#utility.yul\":8608:8614   */\n      0x00\n        /* \"#utility.yul\":8658:8661   */\n      dup4\n        /* \"#utility.yul\":8651:8655   */\n      0x1f\n        /* \"#utility.yul\":8643:8649   */\n      dup5\n        /* \"#utility.yul\":8639:8656   */\n      add\n        /* \"#utility.yul\":8635:8662   */\n      slt\n        /* \"#utility.yul\":8625:8747   */\n      tag_467\n      jumpi\n        /* \"#utility.yul\":8666:8745   */\n      tag_468\n      tag_303\n      jump\t// in\n    tag_468:\n        /* \"#utility.yul\":8625:8747   */\n    tag_467:\n        /* \"#utility.yul\":8779:8785   */\n      dup3\n        /* \"#utility.yul\":8766:8786   */\n      calldataload\n        /* \"#utility.yul\":8756:8786   */\n      swap1\n      pop\n        /* \"#utility.yul\":8809:8827   */\n      0xffffffffffffffff\n        /* \"#utility.yul\":8801:8807   */\n      dup2\n        /* \"#utility.yul\":8798:8828   */\n      gt\n        /* \"#utility.yul\":8795:8912   */\n      iszero\n      tag_469\n      jumpi\n        /* \"#utility.yul\":8831:8910   */\n      tag_470\n      tag_304\n      jump\t// in\n    tag_470:\n        /* \"#utility.yul\":8795:8912   */\n    tag_469:\n        /* \"#utility.yul\":8945:8949   */\n      0x20\n        /* \"#utility.yul\":8937:8943   */\n      dup4\n        /* \"#utility.yul\":8933:8950   */\n      add\n        /* \"#utility.yul\":8921:8950   */\n      swap2\n      pop\n        /* \"#utility.yul\":8999:9002   */\n      dup4\n        /* \"#utility.yul\":8991:8995   */\n      0x20\n        /* \"#utility.yul\":8983:8989   */\n      dup3\n        /* \"#utility.yul\":8979:8996   */\n      mul\n        /* \"#utility.yul\":8969:8977   */\n      dup4\n        /* \"#utility.yul\":8965:8997   */\n      add\n        /* \"#utility.yul\":8962:9003   */\n      gt\n        /* \"#utility.yul\":8959:9087   */\n      iszero\n      tag_471\n      jumpi\n        /* \"#utility.yul\":9006:9085   */\n      tag_472\n      tag_305\n      jump\t// in\n    tag_472:\n        /* \"#utility.yul\":8959:9087   */\n    tag_471:\n        /* \"#utility.yul\":8526:9093   */\n      swap3\n      pop\n      swap3\n      swap1\n      pop\n      jump\t// out\n        /* \"#utility.yul\":9099:9219   */\n    tag_308:\n        /* \"#utility.yul\":9171:9194   */\n      tag_474\n        /* \"#utility.yul\":9188:9193   */\n      dup2\n        /* \"#utility.yul\":9171:9194   */\n      tag_287\n      jump\t// in\n    tag_474:\n        /* \"#utility.yul\":9164:9169   */\n      dup2\n        /* \"#utility.yul\":9161:9195   */\n      eq\n        /* \"#utility.yul\":9151:9213   */\n      tag_475\n      jumpi\n        /* \"#utility.yul\":9209:9210   */\n      0x00\n        /* \"#utility.yul\":9206:9207   */\n      0x00\n        /* \"#utility.yul\":9199:9211   */\n      revert\n        /* \"#utility.yul\":9151:9213   */\n    tag_475:\n        /* \"#utility.yul\":9099:9219   */\n      pop\n      jump\t// out\n        /* \"#utility.yul\":9225:9362   */\n    tag_309:\n        /* \"#utility.yul\":9270:9275   */\n      0x00\n        /* \"#utility.yul\":9308:9314   */\n      dup2\n        /* \"#utility.yul\":9295:9315   */\n      calldataload\n        /* \"#utility.yul\":9286:9315   */\n      swap1\n      pop\n        /* \"#utility.yul\":9324:9356   */\n      tag_477\n        /* \"#utility.yul\":9350:9355   */\n      dup2\n        /* \"#utility.yul\":9324:9356   */\n      tag_308\n      jump\t// in\n    tag_477:\n        /* \"#utility.yul\":9225:9362   */\n      swap3\n      swap2\n      pop\n      pop\n      jump\t// out\n        /* \"#utility.yul\":9368:9490   */\n    tag_310:\n        /* \"#utility.yul\":9441:9465   */\n      tag_479\n        /* \"#utility.yul\":9459:9464   */\n      dup2\n        /* \"#utility.yul\":9441:9465   */\n      tag_297\n      jump\t// in\n    tag_479:\n        /* \"#utility.yul\":9434:9439   */\n      dup2\n        /* \"#utility.yul\":9431:9466   */\n      eq\n        /* \"#utility.yul\":9421:9484   */\n      tag_480\n      jumpi\n        /* \"#utility.yul\":9480:9481   */\n      0x00\n        /* \"#utility.yul\":9477:9478   */\n      0x00\n        /* \"#utility.yul\":9470:9482   */\n      revert\n        /* \"#utility.yul\":9421:9484   */\n    tag_480:\n        /* \"#utility.yul\":9368:9490   */\n      pop\n      jump\t// out\n        /* \"#utility.yul\":9496:9635   */\n    tag_311:\n        /* \"#utility.yul\":9542:9547   */\n      0x00\n        /* \"#utility.yul\":9580:9586   */\n      dup2\n        /* \"#utility.yul\":9567:9587   */\n      calldataload\n        /* \"#utility.yul\":9558:9587   */\n      swap1\n      pop\n        /* \"#utility.yul\":9596:9629   */\n      tag_482\n        /* \"#utility.yul\":9623:9628   */\n      dup2\n        /* \"#utility.yul\":9596:9629   */\n      tag_310\n      jump\t// in\n    tag_482:\n        /* \"#utility.yul\":9496:9635   */\n      swap3\n      swap2\n      pop\n      pop\n      jump\t// out\n        /* \"#utility.yul\":9641:10778   */\n    tag_70:\n        /* \"#utility.yul\":9761:9767   */\n      0x00\n        /* \"#utility.yul\":9769:9775   */\n      0x00\n        /* \"#utility.yul\":9777:9783   */\n      0x00\n        /* \"#utility.yul\":9785:9791   */\n      0x00\n        /* \"#utility.yul\":9793:9799   */\n      0x00\n        /* \"#utility.yul\":9801:9807   */\n      0x00\n        /* \"#utility.yul\":9850:9853   */\n      0xa0\n        /* \"#utility.yul\":9838:9847   */\n      dup8\n        /* \"#utility.yul\":9829:9836   */\n      dup10\n        /* \"#utility.yul\":9825:9848   */\n      sub\n        /* \"#utility.yul\":9821:9854   */\n      slt\n        /* \"#utility.yul\":9818:9938   */\n      iszero\n      tag_484\n      jumpi\n        /* \"#utility.yul\":9857:9936   */\n      tag_485\n      tag_282\n      jump\t// in\n    tag_485:\n        /* \"#utility.yul\":9818:9938   */\n    tag_484:\n        /* \"#utility.yul\":9977:9978   */\n      0x00\n        /* \"#utility.yul\":10002:10055   */\n      tag_486\n        /* \"#utility.yul\":10047:10054   */\n      dup10\n        /* \"#utility.yul\":10038:10044   */\n      dup3\n        /* \"#utility.yul\":10027:10036   */\n      dup11\n        /* \"#utility.yul\":10023:10045   */\n      add\n        /* \"#utility.yul\":10002:10055   */\n      tag_286\n      jump\t// in\n    tag_486:\n        /* \"#utility.yul\":9992:10055   */\n      swap7\n      pop\n        /* \"#utility.yul\":9948:10065   */\n      pop\n        /* \"#utility.yul\":10132:10134   */\n      0x20\n        /* \"#utility.yul\":10121:10130   */\n      dup8\n        /* \"#utility.yul\":10117:10135   */\n      add\n        /* \"#utility.yul\":10104:10136   */\n      calldataload\n        /* \"#utility.yul\":10163:10181   */\n      0xffffffffffffffff\n        /* \"#utility.yul\":10155:10161   */\n      dup2\n        /* \"#utility.yul\":10152:10182   */\n      gt\n        /* \"#utility.yul\":10149:10266   */\n      iszero\n      tag_487\n      jumpi\n        /* \"#utility.yul\":10185:10264   */\n      tag_488\n      tag_283\n      jump\t// in\n    tag_488:\n        /* \"#utility.yul\":10149:10266   */\n    tag_487:\n        /* \"#utility.yul\":10298:10377   */\n      tag_489\n        /* \"#utility.yul\":10369:10376   */\n      dup10\n        /* \"#utility.yul\":10360:10366   */\n      dup3\n        /* \"#utility.yul\":10349:10358   */\n      dup11\n        /* \"#utility.yul\":10345:10367   */\n      add\n        /* \"#utility.yul\":10298:10377   */\n      tag_307\n      jump\t// in\n    tag_489:\n        /* \"#utility.yul\":10280:10377   */\n      swap6\n      pop\n      swap6\n      pop\n        /* \"#utility.yul\":10075:10387   */\n      pop\n        /* \"#utility.yul\":10426:10428   */\n      0x40\n        /* \"#utility.yul\":10452:10504   */\n      tag_490\n        /* \"#utility.yul\":10496:10503   */\n      dup10\n        /* \"#utility.yul\":10487:10493   */\n      dup3\n        /* \"#utility.yul\":10476:10485   */\n      dup11\n        /* \"#utility.yul\":10472:10494   */\n      add\n        /* \"#utility.yul\":10452:10504   */\n      tag_309\n      jump\t// in\n    tag_490:\n        /* \"#utility.yul\":10442:10504   */\n      swap4\n      pop\n        /* \"#utility.yul\":10397:10514   */\n      pop\n        /* \"#utility.yul\":10553:10555   */\n      0x60\n        /* \"#utility.yul\":10579:10632   */\n      tag_491\n        /* \"#utility.yul\":10624:10631   */\n      dup10\n        /* \"#utility.yul\":10615:10621   */\n      dup3\n        /* \"#utility.yul\":10604:10613   */\n      dup11\n        /* \"#utility.yul\":10600:10622   */\n      add\n        /* \"#utility.yul\":10579:10632   */\n      tag_311\n      jump\t// in\n    tag_491:\n        /* \"#utility.yul\":10569:10632   */\n      swap3\n      pop\n        /* \"#utility.yul\":10524:10642   */\n      pop\n        /* \"#utility.yul\":10681:10684   */\n      0x80\n        /* \"#utility.yul\":10708:10761   */\n      tag_492\n        /* \"#utility.yul\":10753:10760   */\n      dup10\n        /* \"#utility.yul\":10744:10750   */\n      dup3\n        /* \"#utility.yul\":10733:10742   */\n      dup11\n        /* \"#utility.yul\":10729:10751   */\n      add\n        /* \"#utility.yul\":10708:10761   */\n      tag_286\n      jump\t// in\n    tag_492:\n        /* \"#utility.yul\":10698:10761   */\n      swap2\n      pop\n        /* \"#utility.yul\":10652:10771   */\n      pop\n        /* \"#utility.yul\":9641:10778   */\n      swap3\n      swap6\n      pop\n      swap3\n      swap6\n      pop\n      swap3\n      swap6\n      jump\t// out\n        /* \"#utility.yul\":10784:11403   */\n    tag_74:\n        /* \"#utility.yul\":10861:10867   */\n      0x00\n        /* \"#utility.yul\":10869:10875   */\n      0x00\n        /* \"#utility.yul\":10877:10883   */\n      0x00\n        /* \"#utility.yul\":10926:10928   */\n      0x60\n        /* \"#utility.yul\":10914:10923   */\n      dup5\n        /* \"#utility.yul\":10905:10912   */\n      dup7\n        /* \"#utility.yul\":10901:10924   */\n      sub\n        /* \"#utility.yul\":10897:10929   */\n      slt\n        /* \"#utility.yul\":10894:11013   */\n      iszero\n      tag_494\n      jumpi\n        /* \"#utility.yul\":10932:11011   */\n      tag_495\n      tag_282\n      jump\t// in\n    tag_495:\n        /* \"#utility.yul\":10894:11013   */\n    tag_494:\n        /* \"#utility.yul\":11052:11053   */\n      0x00\n        /* \"#utility.yul\":11077:11130   */\n      tag_496\n        /* \"#utility.yul\":11122:11129   */\n      dup7\n        /* \"#utility.yul\":11113:11119   */\n      dup3\n        /* \"#utility.yul\":11102:11111   */\n      dup8\n        /* \"#utility.yul\":11098:11120   */\n      add\n        /* \"#utility.yul\":11077:11130   */\n      tag_286\n      jump\t// in\n    tag_496:\n        /* \"#utility.yul\":11067:11130   */\n      swap4\n      pop\n        /* \"#utility.yul\":11023:11140   */\n      pop\n        /* \"#utility.yul\":11179:11181   */\n      0x20\n        /* \"#utility.yul\":11205:11258   */\n      tag_497\n        /* \"#utility.yul\":11250:11257   */\n      dup7\n        /* \"#utility.yul\":11241:11247   */\n      dup3\n        /* \"#utility.yul\":11230:11239   */\n      dup8\n        /* \"#utility.yul\":11226:11248   */\n      add\n        /* \"#utility.yul\":11205:11258   */\n      tag_293\n      jump\t// in\n    tag_497:\n        /* \"#utility.yul\":11195:11258   */\n      swap3\n      pop\n        /* \"#utility.yul\":11150:11268   */\n      pop\n        /* \"#utility.yul\":11307:11309   */\n      0x40\n        /* \"#utility.yul\":11333:11386   */\n      tag_498\n        /* \"#utility.yul\":11378:11385   */\n      dup7\n        /* \"#utility.yul\":11369:11375   */\n      dup3\n        /* \"#utility.yul\":11358:11367   */\n      dup8\n        /* \"#utility.yul\":11354:11376   */\n      add\n        /* \"#utility.yul\":11333:11386   */\n      tag_286\n      jump\t// in\n    tag_498:\n        /* \"#utility.yul\":11323:11386   */\n      swap2\n      pop\n        /* \"#utility.yul\":11278:11396   */\n      pop\n        /* \"#utility.yul\":10784:11403   */\n      swap3\n      pop\n      swap3\n      pop\n      swap3\n      jump\t// out\n        /* \"#utility.yul\":11409:11717   */\n    tag_80:\n        /* \"#utility.yul\":11518:11522   */\n      0x00\n        /* \"#utility.yul\":11556:11558   */\n      0x40\n        /* \"#utility.yul\":11545:11554   */\n      dup3\n        /* \"#utility.yul\":11541:11559   */\n      add\n        /* \"#utility.yul\":11533:11559   */\n      swap1\n      pop\n        /* \"#utility.yul\":11569:11634   */\n      tag_500\n        /* \"#utility.yul\":11631:11632   */\n      0x00\n        /* \"#utility.yul\":11620:11629   */\n      dup4\n        /* \"#utility.yul\":11616:11633   */\n      add\n        /* \"#utility.yul\":11607:11613   */\n      dup6\n        /* \"#utility.yul\":11569:11634   */\n      tag_295\n      jump\t// in\n    tag_500:\n        /* \"#utility.yul\":11644:11710   */\n      tag_501\n        /* \"#utility.yul\":11706:11708   */\n      0x20\n        /* \"#utility.yul\":11695:11704   */\n      dup4\n        /* \"#utility.yul\":11691:11709   */\n      add\n        /* \"#utility.yul\":11682:11688   */\n      dup5\n        /* \"#utility.yul\":11644:11710   */\n      tag_295\n      jump\t// in\n    tag_501:\n        /* \"#utility.yul\":11409:11717   */\n      swap4\n      swap3\n      pop\n      pop\n      pop\n      jump\t// out\n        /* \"#utility.yul\":11723:11941   */\n    tag_85:\n        /* \"#utility.yul\":11814:11818   */\n      0x00\n        /* \"#utility.yul\":11852:11854   */\n      0x20\n        /* \"#utility.yul\":11841:11850   */\n      dup3\n        /* \"#utility.yul\":11837:11855   */\n      add\n        /* \"#utility.yul\":11829:11855   */\n      swap1\n      pop\n        /* \"#utility.yul\":11865:11934   */\n      tag_503\n        /* \"#utility.yul\":11931:11932   */\n      0x00\n        /* \"#utility.yul\":11920:11929   */\n      dup4\n        /* \"#utility.yul\":11916:11933   */\n      add\n        /* \"#utility.yul\":11907:11913   */\n      dup5\n        /* \"#utility.yul\":11865:11934   */\n      tag_288\n      jump\t// in\n    tag_503:\n        /* \"#utility.yul\":11723:11941   */\n      swap3\n      swap2\n      pop\n      pop\n      jump\t// out\n        /* \"#utility.yul\":11947:12276   */\n    tag_91:\n        /* \"#utility.yul\":12006:12012   */\n      0x00\n        /* \"#utility.yul\":12055:12057   */\n      0x20\n        /* \"#utility.yul\":12043:12052   */\n      dup3\n        /* \"#utility.yul\":12034:12041   */\n      dup5\n        /* \"#utility.yul\":12030:12053   */\n      sub\n        /* \"#utility.yul\":12026:12058   */\n      slt\n        /* \"#utility.yul\":12023:12142   */\n      iszero\n      tag_505\n      jumpi\n        /* \"#utility.yul\":12061:12140   */\n      tag_506\n      tag_282\n      jump\t// in\n    tag_506:\n        /* \"#utility.yul\":12023:12142   */\n    tag_505:\n        /* \"#utility.yul\":12181:12182   */\n      0x00\n        /* \"#utility.yul\":12206:12259   */\n      tag_507\n        /* \"#utility.yul\":12251:12258   */\n      dup5\n        /* \"#utility.yul\":12242:12248   */\n      dup3\n        /* \"#utility.yul\":12231:12240   */\n      dup6\n        /* \"#utility.yul\":12227:12249   */\n      add\n        /* \"#utility.yul\":12206:12259   */\n      tag_293\n      jump\t// in\n    tag_507:\n        /* \"#utility.yul\":12196:12259   */\n      swap2\n      pop\n        /* \"#utility.yul\":12152:12269   */\n      pop\n        /* \"#utility.yul\":11947:12276   */\n      swap3\n      swap2\n      pop\n      pop\n      jump\t// out\n        /* \"#utility.yul\":12282:12402   */\n    tag_312:\n        /* \"#utility.yul\":12354:12377   */\n      tag_509\n        /* \"#utility.yul\":12371:12376   */\n      dup2\n        /* \"#utility.yul\":12354:12377   */\n      tag_299\n      jump\t// in\n    tag_509:\n        /* \"#utility.yul\":12347:12352   */\n      dup2\n        /* \"#utility.yul\":12344:12378   */\n      eq\n        /* \"#utility.yul\":12334:12396   */\n      tag_510\n      jumpi\n        /* \"#utility.yul\":12392:12393   */\n      0x00\n        /* \"#utility.yul\":12389:12390   */\n      0x00\n        /* \"#utility.yul\":12382:12394   */\n      revert\n        /* \"#utility.yul\":12334:12396   */\n    tag_510:\n        /* \"#utility.yul\":12282:12402   */\n      pop\n      jump\t// out\n        /* \"#utility.yul\":12408:12545   */\n    tag_313:\n        /* \"#utility.yul\":12453:12458   */\n      0x00\n        /* \"#utility.yul\":12491:12497   */\n      dup2\n        /* \"#utility.yul\":12478:12498   */\n      calldataload\n        /* \"#utility.yul\":12469:12498   */\n      swap1\n      pop\n        /* \"#utility.yul\":12507:12539   */\n      tag_512\n        /* \"#utility.yul\":12533:12538   */\n      dup2\n        /* \"#utility.yul\":12507:12539   */\n      tag_312\n      jump\t// in\n    tag_512:\n        /* \"#utility.yul\":12408:12545   */\n      swap3\n      swap2\n      pop\n      pop\n      jump\t// out\n        /* \"#utility.yul\":12551:12671   */\n    tag_314:\n        /* \"#utility.yul\":12623:12646   */\n      tag_514\n        /* \"#utility.yul\":12640:12645   */\n      dup2\n        /* \"#utility.yul\":12623:12646   */\n      tag_301\n      jump\t// in\n    tag_514:\n        /* \"#utility.yul\":12616:12621   */\n      dup2\n        /* \"#utility.yul\":12613:12647   */\n      eq\n        /* \"#utility.yul\":12603:12665   */\n      tag_515\n      jumpi\n        /* \"#utility.yul\":12661:12662   */\n      0x00\n        /* \"#utility.yul\":12658:12659   */\n      0x00\n        /* \"#utility.yul\":12651:12663   */\n      revert\n        /* \"#utility.yul\":12603:12665   */\n    tag_515:\n        /* \"#utility.yul\":12551:12671   */\n      pop\n      jump\t// out\n        /* \"#utility.yul\":12677:12814   */\n    tag_315:\n        /* \"#utility.yul\":12722:12727   */\n      0x00\n        /* \"#utility.yul\":12760:12766   */\n      dup2\n        /* \"#utility.yul\":12747:12767   */\n      calldataload\n        /* \"#utility.yul\":12738:12767   */\n      swap1\n      pop\n        /* \"#utility.yul\":12776:12808   */\n      tag_517\n        /* \"#utility.yul\":12802:12807   */\n      dup2\n        /* \"#utility.yul\":12776:12808   */\n      tag_314\n      jump\t// in\n    tag_517:\n        /* \"#utility.yul\":12677:12814   */\n      swap3\n      swap2\n      pop\n      pop\n      jump\t// out\n        /* \"#utility.yul\":12820:13581   */\n    tag_95:\n        /* \"#utility.yul\":12904:12910   */\n      0x00\n        /* \"#utility.yul\":12912:12918   */\n      0x00\n        /* \"#utility.yul\":12920:12926   */\n      0x00\n        /* \"#utility.yul\":12928:12934   */\n      0x00\n        /* \"#utility.yul\":12977:12980   */\n      0x80\n        /* \"#utility.yul\":12965:12974   */\n      dup6\n        /* \"#utility.yul\":12956:12963   */\n      dup8\n        /* \"#utility.yul\":12952:12975   */\n      sub\n        /* \"#utility.yul\":12948:12981   */\n      slt\n        /* \"#utility.yul\":12945:13065   */\n      iszero\n      tag_519\n      jumpi\n        /* \"#utility.yul\":12984:13063   */\n      tag_520\n      tag_282\n      jump\t// in\n    tag_520:\n        /* \"#utility.yul\":12945:13065   */\n    tag_519:\n        /* \"#utility.yul\":13104:13105   */\n      0x00\n        /* \"#utility.yul\":13129:13182   */\n      tag_521\n        /* \"#utility.yul\":13174:13181   */\n      dup8\n        /* \"#utility.yul\":13165:13171   */\n      dup3\n        /* \"#utility.yul\":13154:13163   */\n      dup9\n        /* \"#utility.yul\":13150:13172   */\n      add\n        /* \"#utility.yul\":13129:13182   */\n      tag_286\n      jump\t// in\n    tag_521:\n        /* \"#utility.yul\":13119:13182   */\n      swap5\n      pop\n        /* \"#utility.yul\":13075:13192   */\n      pop\n        /* \"#utility.yul\":13231:13233   */\n      0x20\n        /* \"#utility.yul\":13257:13310   */\n      tag_522\n        /* \"#utility.yul\":13302:13309   */\n      dup8\n        /* \"#utility.yul\":13293:13299   */\n      dup3\n        /* \"#utility.yul\":13282:13291   */\n      dup9\n        /* \"#utility.yul\":13278:13300   */\n      add\n        /* \"#utility.yul\":13257:13310   */\n      tag_293\n      jump\t// in\n    tag_522:\n        /* \"#utility.yul\":13247:13310   */\n      swap4\n      pop\n        /* \"#utility.yul\":13202:13320   */\n      pop\n        /* \"#utility.yul\":13359:13361   */\n      0x40\n        /* \"#utility.yul\":13385:13437   */\n      tag_523\n        /* \"#utility.yul\":13429:13436   */\n      dup8\n        /* \"#utility.yul\":13420:13426   */\n      dup3\n        /* \"#utility.yul\":13409:13418   */\n      dup9\n        /* \"#utility.yul\":13405:13427   */\n      add\n        /* \"#utility.yul\":13385:13437   */\n      tag_313\n      jump\t// in\n    tag_523:\n        /* \"#utility.yul\":13375:13437   */\n      swap3\n      pop\n        /* \"#utility.yul\":13330:13447   */\n      pop\n        /* \"#utility.yul\":13486:13488   */\n      0x60\n        /* \"#utility.yul\":13512:13564   */\n      tag_524\n        /* \"#utility.yul\":13556:13563   */\n      dup8\n        /* \"#utility.yul\":13547:13553   */\n      dup3\n        /* \"#utility.yul\":13536:13545   */\n      dup9\n        /* \"#utility.yul\":13532:13554   */\n      add\n        /* \"#utility.yul\":13512:13564   */\n      tag_315\n      jump\t// in\n    tag_524:\n        /* \"#utility.yul\":13502:13564   */\n      swap2\n      pop\n        /* \"#utility.yul\":13457:13574   */\n      pop\n        /* \"#utility.yul\":12820:13581   */\n      swap3\n      swap6\n      swap2\n      swap5\n      pop\n      swap3\n      pop\n      jump\t// out\n        /* \"#utility.yul\":13587:13767   */\n    tag_316:\n        /* \"#utility.yul\":13635:13712   */\n      0x4e487b7100000000000000000000000000000000000000000000000000000000\n        /* \"#utility.yul\":13632:13633   */\n      0x00\n        /* \"#utility.yul\":13625:13713   */\n      mstore\n        /* \"#utility.yul\":13732:13736   */\n      0x11\n        /* \"#utility.yul\":13729:13730   */\n      0x04\n        /* \"#utility.yul\":13722:13737   */\n      mstore\n        /* \"#utility.yul\":13756:13760   */\n      0x24\n        /* \"#utility.yul\":13753:13754   */\n      0x00\n        /* \"#utility.yul\":13746:13761   */\n      revert\n        /* \"#utility.yul\":13773:14183   */\n    tag_101:\n        /* \"#utility.yul\":13813:13820   */\n      0x00\n        /* \"#utility.yul\":13836:13856   */\n      tag_527\n        /* \"#utility.yul\":13854:13855   */\n      dup3\n        /* \"#utility.yul\":13836:13856   */\n      tag_284\n      jump\t// in\n    tag_527:\n        /* \"#utility.yul\":13831:13856   */\n      swap2\n      pop\n        /* \"#utility.yul\":13870:13890   */\n      tag_528\n        /* \"#utility.yul\":13888:13889   */\n      dup4\n        /* \"#utility.yul\":13870:13890   */\n      tag_284\n      jump\t// in\n    tag_528:\n        /* \"#utility.yul\":13865:13890   */\n      swap3\n      pop\n        /* \"#utility.yul\":13925:13926   */\n      dup3\n        /* \"#utility.yul\":13922:13923   */\n      dup3\n        /* \"#utility.yul\":13918:13927   */\n      mul\n        /* \"#utility.yul\":13947:13977   */\n      tag_529\n        /* \"#utility.yul\":13965:13976   */\n      dup2\n        /* \"#utility.yul\":13947:13977   */\n      tag_284\n      jump\t// in\n    tag_529:\n        /* \"#utility.yul\":13936:13977   */\n      swap2\n      pop\n        /* \"#utility.yul\":14126:14127   */\n      dup3\n        /* \"#utility.yul\":14117:14124   */\n      dup3\n        /* \"#utility.yul\":14113:14128   */\n      div\n        /* \"#utility.yul\":14110:14111   */\n      dup5\n        /* \"#utility.yul\":14107:14129   */\n      eq\n        /* \"#utility.yul\":14087:14088   */\n      dup4\n        /* \"#utility.yul\":14080:14089   */\n      iszero\n        /* \"#utility.yul\":14060:14143   */\n      or\n        /* \"#utility.yul\":14037:14176   */\n      tag_530\n      jumpi\n        /* \"#utility.yul\":14156:14174   */\n      tag_531\n      tag_316\n      jump\t// in\n    tag_531:\n        /* \"#utility.yul\":14037:14176   */\n    tag_530:\n        /* \"#utility.yul\":13821:14183   */\n      pop\n        /* \"#utility.yul\":13773:14183   */\n      swap3\n      swap2\n      pop\n      pop\n      jump\t// out\n        /* \"#utility.yul\":14189:14369   */\n    tag_317:\n        /* \"#utility.yul\":14237:14314   */\n      0x4e487b7100000000000000000000000000000000000000000000000000000000\n        /* \"#utility.yul\":14234:14235   */\n      0x00\n        /* \"#utility.yul\":14227:14315   */\n      mstore\n        /* \"#utility.yul\":14334:14338   */\n      0x12\n        /* \"#utility.yul\":14331:14332   */\n      0x04\n        /* \"#utility.yul\":14324:14339   */\n      mstore\n        /* \"#utility.yul\":14358:14362   */\n      0x24\n        /* \"#utility.yul\":14355:14356   */\n      0x00\n        /* \"#utility.yul\":14348:14363   */\n      revert\n        /* \"#utility.yul\":14375:14560   */\n    tag_103:\n        /* \"#utility.yul\":14415:14416   */\n      0x00\n        /* \"#utility.yul\":14432:14452   */\n      tag_534\n        /* \"#utility.yul\":14450:14451   */\n      dup3\n        /* \"#utility.yul\":14432:14452   */\n      tag_284\n      jump\t// in\n    tag_534:\n        /* \"#utility.yul\":14427:14452   */\n      swap2\n      pop\n        /* \"#utility.yul\":14466:14486   */\n      tag_535\n        /* \"#utility.yul\":14484:14485   */\n      dup4\n        /* \"#utility.yul\":14466:14486   */\n      tag_284\n      jump\t// in\n    tag_535:\n        /* \"#utility.yul\":14461:14486   */\n      swap3\n      pop\n        /* \"#utility.yul\":14505:14506   */\n      dup3\n        /* \"#utility.yul\":14495:14530   */\n      tag_536\n      jumpi\n        /* \"#utility.yul\":14510:14528   */\n      tag_537\n      tag_317\n      jump\t// in\n    tag_537:\n        /* \"#utility.yul\":14495:14530   */\n    tag_536:\n        /* \"#utility.yul\":14552:14553   */\n      dup3\n        /* \"#utility.yul\":14549:14550   */\n      dup3\n        /* \"#utility.yul\":14545:14554   */\n      div\n        /* \"#utility.yul\":14540:14554   */\n      swap1\n      pop\n        /* \"#utility.yul\":14375:14560   */\n      swap3\n      swap2\n      pop\n      pop\n      jump\t// out\n        /* \"#utility.yul\":14566:14735   */\n    tag_318:\n        /* \"#utility.yul\":14650:14661   */\n      0x00\n        /* \"#utility.yul\":14684:14690   */\n      dup3\n        /* \"#utility.yul\":14679:14682   */\n      dup3\n        /* \"#utility.yul\":14672:14691   */\n      mstore\n        /* \"#utility.yul\":14724:14728   */\n      0x20\n        /* \"#utility.yul\":14719:14722   */\n      dup3\n        /* \"#utility.yul\":14715:14729   */\n      add\n        /* \"#utility.yul\":14700:14729   */\n      swap1\n      pop\n        /* \"#utility.yul\":14566:14735   */\n      swap3\n      swap2\n      pop\n      pop\n      jump\t// out\n        /* \"#utility.yul\":14741:14899   */\n    tag_319:\n        /* \"#utility.yul\":14881:14891   */\n      0x616d6f756e743d30000000000000000000000000000000000000000000000000\n        /* \"#utility.yul\":14877:14878   */\n      0x00\n        /* \"#utility.yul\":14869:14875   */\n      dup3\n        /* \"#utility.yul\":14865:14879   */\n      add\n        /* \"#utility.yul\":14858:14892   */\n      mstore\n        /* \"#utility.yul\":14741:14899   */\n      pop\n      jump\t// out\n        /* \"#utility.yul\":14905:15270   */\n    tag_320:\n        /* \"#utility.yul\":15047:15050   */\n      0x00\n        /* \"#utility.yul\":15068:15134   */\n      tag_541\n        /* \"#utility.yul\":15132:15133   */\n      0x08\n        /* \"#utility.yul\":15127:15130   */\n      dup4\n        /* \"#utility.yul\":15068:15134   */\n      tag_318\n      jump\t// in\n    tag_541:\n        /* \"#utility.yul\":15061:15134   */\n      swap2\n      pop\n        /* \"#utility.yul\":15143:15236   */\n      tag_542\n        /* \"#utility.yul\":15232:15235   */\n      dup3\n        /* \"#utility.yul\":15143:15236   */\n      tag_319\n      jump\t// in\n    tag_542:\n        /* \"#utility.yul\":15261:15263   */\n      0x20\n        /* \"#utility.yul\":15256:15259   */\n      dup3\n        /* \"#utility.yul\":15252:15264   */\n      add\n        /* \"#utility.yul\":15245:15264   */\n      swap1\n      pop\n        /* \"#utility.yul\":14905:15270   */\n      swap2\n      swap1\n      pop\n      jump\t// out\n        /* \"#utility.yul\":15276:15695   */\n    tag_117:\n        /* \"#utility.yul\":15442:15446   */\n      0x00\n        /* \"#utility.yul\":15480:15482   */\n      0x20\n        /* \"#utility.yul\":15469:15478   */\n      dup3\n        /* \"#utility.yul\":15465:15483   */\n      add\n        /* \"#utility.yul\":15457:15483   */\n      swap1\n      pop\n        /* \"#utility.yul\":15529:15538   */\n      dup2\n        /* \"#utility.yul\":15523:15527   */\n      dup2\n        /* \"#utility.yul\":15519:15539   */\n      sub\n        /* \"#utility.yul\":15515:15516   */\n      0x00\n        /* \"#utility.yul\":15504:15513   */\n      dup4\n        /* \"#utility.yul\":15500:15517   */\n      add\n        /* \"#utility.yul\":15493:15540   */\n      mstore\n        /* \"#utility.yul\":15557:15688   */\n      tag_544\n        /* \"#utility.yul\":15683:15687   */\n      dup2\n        /* \"#utility.yul\":15557:15688   */\n      tag_320\n      jump\t// in\n    tag_544:\n        /* \"#utility.yul\":15549:15688   */\n      swap1\n      pop\n        /* \"#utility.yul\":15276:15695   */\n      swap2\n      swap1\n      pop\n      jump\t// out\n        /* \"#utility.yul\":15701:15864   */\n    tag_321:\n        /* \"#utility.yul\":15841:15856   */\n      0x6d61746368206e6f742073657400000000000000000000000000000000000000\n        /* \"#utility.yul\":15837:15838   */\n      0x00\n        /* \"#utility.yul\":15829:15835   */\n      dup3\n        /* \"#utility.yul\":15825:15839   */\n      add\n        /* \"#utility.yul\":15818:15857   */\n      mstore\n        /* \"#utility.yul\":15701:15864   */\n      pop\n      jump\t// out\n        /* \"#utility.yul\":15870:16236   */\n    tag_322:\n        /* \"#utility.yul\":16012:16015   */\n      0x00\n        /* \"#utility.yul\":16033:16100   */\n      tag_547\n        /* \"#utility.yul\":16097:16099   */\n      0x0d\n        /* \"#utility.yul\":16092:16095   */\n      dup4\n        /* \"#utility.yul\":16033:16100   */\n      tag_318\n      jump\t// in\n    tag_547:\n        /* \"#utility.yul\":16026:16100   */\n      swap2\n      pop\n        /* \"#utility.yul\":16109:16202   */\n      tag_548\n        /* \"#utility.yul\":16198:16201   */\n      dup3\n        /* \"#utility.yul\":16109:16202   */\n      tag_321\n      jump\t// in\n    tag_548:\n        /* \"#utility.yul\":16227:16229   */\n      0x20\n        /* \"#utility.yul\":16222:16225   */\n      dup3\n        /* \"#utility.yul\":16218:16230   */\n      add\n        /* \"#utility.yul\":16211:16230   */\n      swap1\n      pop\n        /* \"#utility.yul\":15870:16236   */\n      swap2\n      swap1\n      pop\n      jump\t// out\n        /* \"#utility.yul\":16242:16661   */\n    tag_120:\n        /* \"#utility.yul\":16408:16412   */\n      0x00\n        /* \"#utility.yul\":16446:16448   */\n      0x20\n        /* \"#utility.yul\":16435:16444   */\n      dup3\n        /* \"#utility.yul\":16431:16449   */\n      add\n        /* \"#utility.yul\":16423:16449   */\n      swap1\n      pop\n        /* \"#utility.yul\":16495:16504   */\n      dup2\n        /* \"#utility.yul\":16489:16493   */\n      dup2\n        /* \"#utility.yul\":16485:16505   */\n      sub\n        /* \"#utility.yul\":16481:16482   */\n      0x00\n        /* \"#utility.yul\":16470:16479   */\n      dup4\n        /* \"#utility.yul\":16466:16483   */\n      add\n        /* \"#utility.yul\":16459:16506   */\n      mstore\n        /* \"#utility.yul\":16523:16654   */\n      tag_550\n        /* \"#utility.yul\":16649:16653   */\n      dup2\n        /* \"#utility.yul\":16523:16654   */\n      tag_322\n      jump\t// in\n    tag_550:\n        /* \"#utility.yul\":16515:16654   */\n      swap1\n      pop\n        /* \"#utility.yul\":16242:16661   */\n      swap2\n      swap1\n      pop\n      jump\t// out\n        /* \"#utility.yul\":16667:16858   */\n    tag_124:\n        /* \"#utility.yul\":16707:16710   */\n      0x00\n        /* \"#utility.yul\":16726:16746   */\n      tag_552\n        /* \"#utility.yul\":16744:16745   */\n      dup3\n        /* \"#utility.yul\":16726:16746   */\n      tag_284\n      jump\t// in\n    tag_552:\n        /* \"#utility.yul\":16721:16746   */\n      swap2\n      pop\n        /* \"#utility.yul\":16760:16780   */\n      tag_553\n        /* \"#utility.yul\":16778:16779   */\n      dup4\n        /* \"#utility.yul\":16760:16780   */\n      tag_284\n      jump\t// in\n    tag_553:\n        /* \"#utility.yul\":16755:16780   */\n      swap3\n      pop\n        /* \"#utility.yul\":16803:16804   */\n      dup3\n        /* \"#utility.yul\":16800:16801   */\n      dup3\n        /* \"#utility.yul\":16796:16805   */\n      add\n        /* \"#utility.yul\":16789:16805   */\n      swap1\n      pop\n        /* \"#utility.yul\":16824:16827   */\n      dup1\n        /* \"#utility.yul\":16821:16822   */\n      dup3\n        /* \"#utility.yul\":16818:16828   */\n      gt\n        /* \"#utility.yul\":16815:16851   */\n      iszero\n      tag_554\n      jumpi\n        /* \"#utility.yul\":16831:16849   */\n      tag_555\n      tag_316\n      jump\t// in\n    tag_555:\n        /* \"#utility.yul\":16815:16851   */\n    tag_554:\n        /* \"#utility.yul\":16667:16858   */\n      swap3\n      swap2\n      pop\n      pop\n      jump\t// out\n        /* \"#utility.yul\":16864:17027   */\n    tag_323:\n        /* \"#utility.yul\":17004:17019   */\n      0x6e6f742066696e616c697a656400000000000000000000000000000000000000\n        /* \"#utility.yul\":17000:17001   */\n      0x00\n        /* \"#utility.yul\":16992:16998   */\n      dup3\n        /* \"#utility.yul\":16988:17002   */\n      add\n        /* \"#utility.yul\":16981:17020   */\n      mstore\n        /* \"#utility.yul\":16864:17027   */\n      pop\n      jump\t// out\n        /* \"#utility.yul\":17033:17399   */\n    tag_324:\n        /* \"#utility.yul\":17175:17178   */\n      0x00\n        /* \"#utility.yul\":17196:17263   */\n      tag_558\n        /* \"#utility.yul\":17260:17262   */\n      0x0d\n        /* \"#utility.yul\":17255:17258   */\n      dup4\n        /* \"#utility.yul\":17196:17263   */\n      tag_318\n      jump\t// in\n    tag_558:\n        /* \"#utility.yul\":17189:17263   */\n      swap2\n      pop\n        /* \"#utility.yul\":17272:17365   */\n      tag_559\n        /* \"#utility.yul\":17361:17364   */\n      dup3\n        /* \"#utility.yul\":17272:17365   */\n      tag_323\n      jump\t// in\n    tag_559:\n        /* \"#utility.yul\":17390:17392   */\n      0x20\n        /* \"#utility.yul\":17385:17388   */\n      dup3\n        /* \"#utility.yul\":17381:17393   */\n      add\n        /* \"#utility.yul\":17374:17393   */\n      swap1\n      pop\n        /* \"#utility.yul\":17033:17399   */\n      swap2\n      swap1\n      pop\n      jump\t// out\n        /* \"#utility.yul\":17405:17824   */\n    tag_129:\n        /* \"#utility.yul\":17571:17575   */\n      0x00\n        /* \"#utility.yul\":17609:17611   */\n      0x20\n        /* \"#utility.yul\":17598:17607   */\n      dup3\n        /* \"#utility.yul\":17594:17612   */\n      add\n        /* \"#utility.yul\":17586:17612   */\n      swap1\n      pop\n        /* \"#utility.yul\":17658:17667   */\n      dup2\n        /* \"#utility.yul\":17652:17656   */\n      dup2\n        /* \"#utility.yul\":17648:17668   */\n      sub\n        /* \"#utility.yul\":17644:17645   */\n      0x00\n        /* \"#utility.yul\":17633:17642   */\n      dup4\n        /* \"#utility.yul\":17629:17646   */\n      add\n        /* \"#utility.yul\":17622:17669   */\n      mstore\n        /* \"#utility.yul\":17686:17817   */\n      tag_561\n        /* \"#utility.yul\":17812:17816   */\n      dup2\n        /* \"#utility.yul\":17686:17817   */\n      tag_324\n      jump\t// in\n    tag_561:\n        /* \"#utility.yul\":17678:17817   */\n      swap1\n      pop\n        /* \"#utility.yul\":17405:17824   */\n      swap2\n      swap1\n      pop\n      jump\t// out\n        /* \"#utility.yul\":17830:17994   */\n    tag_325:\n        /* \"#utility.yul\":17970:17986   */\n      0x6e6f742072656769737465726564000000000000000000000000000000000000\n        /* \"#utility.yul\":17966:17967   */\n      0x00\n        /* \"#utility.yul\":17958:17964   */\n      dup3\n        /* \"#utility.yul\":17954:17968   */\n      add\n        /* \"#utility.yul\":17947:17987   */\n      mstore\n        /* \"#utility.yul\":17830:17994   */\n      pop\n      jump\t// out\n        /* \"#utility.yul\":18000:18366   */\n    tag_326:\n        /* \"#utility.yul\":18142:18145   */\n      0x00\n        /* \"#utility.yul\":18163:18230   */\n      tag_564\n        /* \"#utility.yul\":18227:18229   */\n      0x0e\n        /* \"#utility.yul\":18222:18225   */\n      dup4\n        /* \"#utility.yul\":18163:18230   */\n      tag_318\n      jump\t// in\n    tag_564:\n        /* \"#utility.yul\":18156:18230   */\n      swap2\n      pop\n        /* \"#utility.yul\":18239:18332   */\n      tag_565\n        /* \"#utility.yul\":18328:18331   */\n      dup3\n        /* \"#utility.yul\":18239:18332   */\n      tag_325\n      jump\t// in\n    tag_565:\n        /* \"#utility.yul\":18357:18359   */\n      0x20\n        /* \"#utility.yul\":18352:18355   */\n      dup3\n        /* \"#utility.yul\":18348:18360   */\n      add\n        /* \"#utility.yul\":18341:18360   */\n      swap1\n      pop\n        /* \"#utility.yul\":18000:18366   */\n      swap2\n      swap1\n      pop\n      jump\t// out\n        /* \"#utility.yul\":18372:18791   */\n    tag_132:\n        /* \"#utility.yul\":18538:18542   */\n      0x00\n        /* \"#utility.yul\":18576:18578   */\n      0x20\n        /* \"#utility.yul\":18565:18574   */\n      dup3\n        /* \"#utility.yul\":18561:18579   */\n      add\n        /* \"#utility.yul\":18553:18579   */\n      swap1\n      pop\n        /* \"#utility.yul\":18625:18634   */\n      dup2\n        /* \"#utility.yul\":18619:18623   */\n      dup2\n        /* \"#utility.yul\":18615:18635   */\n      sub\n        /* \"#utility.yul\":18611:18612   */\n      0x00\n        /* \"#utility.yul\":18600:18609   */\n      dup4\n        /* \"#utility.yul\":18596:18613   */\n      add\n        /* \"#utility.yul\":18589:18636   */\n      mstore\n        /* \"#utility.yul\":18653:18784   */\n      tag_567\n        /* \"#utility.yul\":18779:18783   */\n      dup2\n        /* \"#utility.yul\":18653:18784   */\n      tag_326\n      jump\t// in\n    tag_567:\n        /* \"#utility.yul\":18645:18784   */\n      swap1\n      pop\n        /* \"#utility.yul\":18372:18791   */\n      swap2\n      swap1\n      pop\n      jump\t// out\n        /* \"#utility.yul\":18797:18954   */\n    tag_327:\n        /* \"#utility.yul\":18937:18946   */\n      0x636c61696d656400000000000000000000000000000000000000000000000000\n        /* \"#utility.yul\":18933:18934   */\n      0x00\n        /* \"#utility.yul\":18925:18931   */\n      dup3\n        /* \"#utility.yul\":18921:18935   */\n      add\n        /* \"#utility.yul\":18914:18947   */\n      mstore\n        /* \"#utility.yul\":18797:18954   */\n      pop\n      jump\t// out\n        /* \"#utility.yul\":18960:19325   */\n    tag_328:\n        /* \"#utility.yul\":19102:19105   */\n      0x00\n        /* \"#utility.yul\":19123:19189   */\n      tag_570\n        /* \"#utility.yul\":19187:19188   */\n      0x07\n        /* \"#utility.yul\":19182:19185   */\n      dup4\n        /* \"#utility.yul\":19123:19189   */\n      tag_318\n      jump\t// in\n    tag_570:\n        /* \"#utility.yul\":19116:19189   */\n      swap2\n      pop\n        /* \"#utility.yul\":19198:19291   */\n      tag_571\n        /* \"#utility.yul\":19287:19290   */\n      dup3\n        /* \"#utility.yul\":19198:19291   */\n      tag_327\n      jump\t// in\n    tag_571:\n        /* \"#utility.yul\":19316:19318   */\n      0x20\n        /* \"#utility.yul\":19311:19314   */\n      dup3\n        /* \"#utility.yul\":19307:19319   */\n      add\n        /* \"#utility.yul\":19300:19319   */\n      swap1\n      pop\n        /* \"#utility.yul\":18960:19325   */\n      swap2\n      swap1\n      pop\n      jump\t// out\n        /* \"#utility.yul\":19331:19750   */\n    tag_135:\n        /* \"#utility.yul\":19497:19501   */\n      0x00\n        /* \"#utility.yul\":19535:19537   */\n      0x20\n        /* \"#utility.yul\":19524:19533   */\n      dup3\n        /* \"#utility.yul\":19520:19538   */\n      add\n        /* \"#utility.yul\":19512:19538   */\n      swap1\n      pop\n        /* \"#utility.yul\":19584:19593   */\n      dup2\n        /* \"#utility.yul\":19578:19582   */\n      dup2\n        /* \"#utility.yul\":19574:19594   */\n      sub\n        /* \"#utility.yul\":19570:19571   */\n      0x00\n        /* \"#utility.yul\":19559:19568   */\n      dup4\n        /* \"#utility.yul\":19555:19572   */\n      add\n        /* \"#utility.yul\":19548:19595   */\n      mstore\n        /* \"#utility.yul\":19612:19743   */\n      tag_573\n        /* \"#utility.yul\":19738:19742   */\n      dup2\n        /* \"#utility.yul\":19612:19743   */\n      tag_328\n      jump\t// in\n    tag_573:\n        /* \"#utility.yul\":19604:19743   */\n      swap1\n      pop\n        /* \"#utility.yul\":19331:19750   */\n      swap2\n      swap1\n      pop\n      jump\t// out\n        /* \"#utility.yul\":19756:19850   */\n    tag_329:\n        /* \"#utility.yul\":19789:19797   */\n      0x00\n        /* \"#utility.yul\":19837:19842   */\n      dup2\n        /* \"#utility.yul\":19833:19835   */\n      0x60\n        /* \"#utility.yul\":19829:19843   */\n      shl\n        /* \"#utility.yul\":19808:19843   */\n      swap1\n      pop\n        /* \"#utility.yul\":19756:19850   */\n      swap2\n      swap1\n      pop\n      jump\t// out\n        /* \"#utility.yul\":19856:19950   */\n    tag_330:\n        /* \"#utility.yul\":19895:19902   */\n      0x00\n        /* \"#utility.yul\":19924:19944   */\n      tag_576\n        /* \"#utility.yul\":19938:19943   */\n      dup3\n        /* \"#utility.yul\":19924:19944   */\n      tag_329\n      jump\t// in\n    tag_576:\n        /* \"#utility.yul\":19913:19944   */\n      swap1\n      pop\n        /* \"#utility.yul\":19856:19950   */\n      swap2\n      swap1\n      pop\n      jump\t// out\n        /* \"#utility.yul\":19956:20056   */\n    tag_331:\n        /* \"#utility.yul\":19995:20002   */\n      0x00\n        /* \"#utility.yul\":20024:20050   */\n      tag_578\n        /* \"#utility.yul\":20044:20049   */\n      dup3\n        /* \"#utility.yul\":20024:20050   */\n      tag_330\n      jump\t// in\n    tag_578:\n        /* \"#utility.yul\":20013:20050   */\n      swap1\n      pop\n        /* \"#utility.yul\":19956:20056   */\n      swap2\n      swap1\n      pop\n      jump\t// out\n        /* \"#utility.yul\":20062:20219   */\n    tag_332:\n        /* \"#utility.yul\":20167:20212   */\n      tag_580\n        /* \"#utility.yul\":20187:20211   */\n      tag_581\n        /* \"#utility.yul\":20205:20210   */\n      dup3\n        /* \"#utility.yul\":20187:20211   */\n      tag_291\n      jump\t// in\n    tag_581:\n        /* \"#utility.yul\":20167:20212   */\n      tag_331\n      jump\t// in\n    tag_580:\n        /* \"#utility.yul\":20162:20165   */\n      dup3\n        /* \"#utility.yul\":20155:20213   */\n      mstore\n        /* \"#utility.yul\":20062:20219   */\n      pop\n      pop\n      jump\t// out\n        /* \"#utility.yul\":20225:20304   */\n    tag_333:\n        /* \"#utility.yul\":20264:20271   */\n      0x00\n        /* \"#utility.yul\":20293:20298   */\n      dup2\n        /* \"#utility.yul\":20282:20298   */\n      swap1\n      pop\n        /* \"#utility.yul\":20225:20304   */\n      swap2\n      swap1\n      pop\n      jump\t// out\n        /* \"#utility.yul\":20310:20467   */\n    tag_334:\n        /* \"#utility.yul\":20415:20460   */\n      tag_584\n        /* \"#utility.yul\":20435:20459   */\n      tag_585\n        /* \"#utility.yul\":20453:20458   */\n      dup3\n        /* \"#utility.yul\":20435:20459   */\n      tag_284\n      jump\t// in\n    tag_585:\n        /* \"#utility.yul\":20415:20460   */\n      tag_333\n      jump\t// in\n    tag_584:\n        /* \"#utility.yul\":20410:20413   */\n      dup3\n        /* \"#utility.yul\":20403:20461   */\n      mstore\n        /* \"#utility.yul\":20310:20467   */\n      pop\n      pop\n      jump\t// out\n        /* \"#utility.yul\":20473:20870   */\n    tag_137:\n        /* \"#utility.yul\":20613:20616   */\n      0x00\n        /* \"#utility.yul\":20628:20703   */\n      tag_587\n        /* \"#utility.yul\":20699:20702   */\n      dup3\n        /* \"#utility.yul\":20690:20696   */\n      dup6\n        /* \"#utility.yul\":20628:20703   */\n      tag_332\n      jump\t// in\n    tag_587:\n        /* \"#utility.yul\":20728:20730   */\n      0x14\n        /* \"#utility.yul\":20723:20726   */\n      dup3\n        /* \"#utility.yul\":20719:20731   */\n      add\n        /* \"#utility.yul\":20712:20731   */\n      swap2\n      pop\n        /* \"#utility.yul\":20741:20816   */\n      tag_588\n        /* \"#utility.yul\":20812:20815   */\n      dup3\n        /* \"#utility.yul\":20803:20809   */\n      dup5\n        /* \"#utility.yul\":20741:20816   */\n      tag_334\n      jump\t// in\n    tag_588:\n        /* \"#utility.yul\":20841:20843   */\n      0x20\n        /* \"#utility.yul\":20836:20839   */\n      dup3\n        /* \"#utility.yul\":20832:20844   */\n      add\n        /* \"#utility.yul\":20825:20844   */\n      swap2\n      pop\n        /* \"#utility.yul\":20861:20864   */\n      dup2\n        /* \"#utility.yul\":20854:20864   */\n      swap1\n      pop\n        /* \"#utility.yul\":20473:20870   */\n      swap4\n      swap3\n      pop\n      pop\n      pop\n      jump\t// out\n        /* \"#utility.yul\":20876:21035   */\n    tag_335:\n        /* \"#utility.yul\":21016:21027   */\n      0x6261642070726f6f660000000000000000000000000000000000000000000000\n        /* \"#utility.yul\":21012:21013   */\n      0x00\n        /* \"#utility.yul\":21004:21010   */\n      dup3\n        /* \"#utility.yul\":21000:21014   */\n      add\n        /* \"#utility.yul\":20993:21028   */\n      mstore\n        /* \"#utility.yul\":20876:21035   */\n      pop\n      jump\t// out\n        /* \"#utility.yul\":21041:21406   */\n    tag_336:\n        /* \"#utility.yul\":21183:21186   */\n      0x00\n        /* \"#utility.yul\":21204:21270   */\n      tag_591\n        /* \"#utility.yul\":21268:21269   */\n      0x09\n        /* \"#utility.yul\":21263:21266   */\n      dup4\n        /* \"#utility.yul\":21204:21270   */\n      tag_318\n      jump\t// in\n    tag_591:\n        /* \"#utility.yul\":21197:21270   */\n      swap2\n      pop\n        /* \"#utility.yul\":21279:21372   */\n      tag_592\n        /* \"#utility.yul\":21368:21371   */\n      dup3\n        /* \"#utility.yul\":21279:21372   */\n      tag_335\n      jump\t// in\n    tag_592:\n        /* \"#utility.yul\":21397:21399   */\n      0x20\n        /* \"#utility.yul\":21392:21395   */\n      dup3\n        /* \"#utility.yul\":21388:21400   */\n      add\n        /* \"#utility.yul\":21381:21400   */\n      swap1\n      pop\n        /* \"#utility.yul\":21041:21406   */\n      swap2\n      swap1\n      pop\n      jump\t// out\n        /* \"#utility.yul\":21412:21831   */\n    tag_142:\n        /* \"#utility.yul\":21578:21582   */\n      0x00\n        /* \"#utility.yul\":21616:21618   */\n      0x20\n        /* \"#utility.yul\":21605:21614   */\n      dup3\n        /* \"#utility.yul\":21601:21619   */\n      add\n        /* \"#utility.yul\":21593:21619   */\n      swap1\n      pop\n        /* \"#utility.yul\":21665:21674   */\n      dup2\n        /* \"#utility.yul\":21659:21663   */\n      dup2\n        /* \"#utility.yul\":21655:21675   */\n      sub\n        /* \"#utility.yul\":21651:21652   */\n      0x00\n        /* \"#utility.yul\":21640:21649   */\n      dup4\n        /* \"#utility.yul\":21636:21653   */\n      add\n        /* \"#utility.yul\":21629:21676   */\n      mstore\n        /* \"#utility.yul\":21693:21824   */\n      tag_594\n        /* \"#utility.yul\":21819:21823   */\n      dup2\n        /* \"#utility.yul\":21693:21824   */\n      tag_336\n      jump\t// in\n    tag_594:\n        /* \"#utility.yul\":21685:21824   */\n      swap1\n      pop\n        /* \"#utility.yul\":21412:21831   */\n      swap2\n      swap1\n      pop\n      jump\t// out\n        /* \"#utility.yul\":21837:21999   */\n    tag_337:\n        /* \"#utility.yul\":21977:21991   */\n      0x696e76616c69642072616e6b0000000000000000000000000000000000000000\n        /* \"#utility.yul\":21973:21974   */\n      0x00\n        /* \"#utility.yul\":21965:21971   */\n      dup3\n        /* \"#utility.yul\":21961:21975   */\n      add\n        /* \"#utility.yul\":21954:21992   */\n      mstore\n        /* \"#utility.yul\":21837:21999   */\n      pop\n      jump\t// out\n        /* \"#utility.yul\":22005:22371   */\n    tag_338:\n        /* \"#utility.yul\":22147:22150   */\n      0x00\n        /* \"#utility.yul\":22168:22235   */\n      tag_597\n        /* \"#utility.yul\":22232:22234   */\n      0x0c\n        /* \"#utility.yul\":22227:22230   */\n      dup4\n        /* \"#utility.yul\":22168:22235   */\n      tag_318\n      jump\t// in\n    tag_597:\n        /* \"#utility.yul\":22161:22235   */\n      swap2\n      pop\n        /* \"#utility.yul\":22244:22337   */\n      tag_598\n        /* \"#utility.yul\":22333:22336   */\n      dup3\n        /* \"#utility.yul\":22244:22337   */\n      tag_337\n      jump\t// in\n    tag_598:\n        /* \"#utility.yul\":22362:22364   */\n      0x20\n        /* \"#utility.yul\":22357:22360   */\n      dup3\n        /* \"#utility.yul\":22353:22365   */\n      add\n        /* \"#utility.yul\":22346:22365   */\n      swap1\n      pop\n        /* \"#utility.yul\":22005:22371   */\n      swap2\n      swap1\n      pop\n      jump\t// out\n        /* \"#utility.yul\":22377:22796   */\n    tag_145:\n        /* \"#utility.yul\":22543:22547   */\n      0x00\n        /* \"#utility.yul\":22581:22583   */\n      0x20\n        /* \"#utility.yul\":22570:22579   */\n      dup3\n        /* \"#utility.yul\":22566:22584   */\n      add\n        /* \"#utility.yul\":22558:22584   */\n      swap1\n      pop\n        /* \"#utility.yul\":22630:22639   */\n      dup2\n        /* \"#utility.yul\":22624:22628   */\n      dup2\n        /* \"#utility.yul\":22620:22640   */\n      sub\n        /* \"#utility.yul\":22616:22617   */\n      0x00\n        /* \"#utility.yul\":22605:22614   */\n      dup4\n        /* \"#utility.yul\":22601:22618   */\n      add\n        /* \"#utility.yul\":22594:22641   */\n      mstore\n        /* \"#utility.yul\":22658:22789   */\n      tag_600\n        /* \"#utility.yul\":22784:22788   */\n      dup2\n        /* \"#utility.yul\":22658:22789   */\n      tag_338\n      jump\t// in\n    tag_600:\n        /* \"#utility.yul\":22650:22789   */\n      swap1\n      pop\n        /* \"#utility.yul\":22377:22796   */\n      swap2\n      swap1\n      pop\n      jump\t// out\n        /* \"#utility.yul\":22802:22963   */\n    tag_339:\n        /* \"#utility.yul\":22942:22955   */\n      0x7a65726f207061796f7574000000000000000000000000000000000000000000\n        /* \"#utility.yul\":22938:22939   */\n      0x00\n        /* \"#utility.yul\":22930:22936   */\n      dup3\n        /* \"#utility.yul\":22926:22940   */\n      add\n        /* \"#utility.yul\":22919:22956   */\n      mstore\n        /* \"#utility.yul\":22802:22963   */\n      pop\n      jump\t// out\n        /* \"#utility.yul\":22969:23335   */\n    tag_340:\n        /* \"#utility.yul\":23111:23114   */\n      0x00\n        /* \"#utility.yul\":23132:23199   */\n      tag_603\n        /* \"#utility.yul\":23196:23198   */\n      0x0b\n        /* \"#utility.yul\":23191:23194   */\n      dup4\n        /* \"#utility.yul\":23132:23199   */\n      tag_318\n      jump\t// in\n    tag_603:\n        /* \"#utility.yul\":23125:23199   */\n      swap2\n      pop\n        /* \"#utility.yul\":23208:23301   */\n      tag_604\n        /* \"#utility.yul\":23297:23300   */\n      dup3\n        /* \"#utility.yul\":23208:23301   */\n      tag_339\n      jump\t// in\n    tag_604:\n        /* \"#utility.yul\":23326:23328   */\n      0x20\n        /* \"#utility.yul\":23321:23324   */\n      dup3\n        /* \"#utility.yul\":23317:23329   */\n      add\n        /* \"#utility.yul\":23310:23329   */\n      swap1\n      pop\n        /* \"#utility.yul\":22969:23335   */\n      swap2\n      swap1\n      pop\n      jump\t// out\n        /* \"#utility.yul\":23341:23760   */\n    tag_150:\n        /* \"#utility.yul\":23507:23511   */\n      0x00\n        /* \"#utility.yul\":23545:23547   */\n      0x20\n        /* \"#utility.yul\":23534:23543   */\n      dup3\n        /* \"#utility.yul\":23530:23548   */\n      add\n        /* \"#utility.yul\":23522:23548   */\n      swap1\n      pop\n        /* \"#utility.yul\":23594:23603   */\n      dup2\n        /* \"#utility.yul\":23588:23592   */\n      dup2\n        /* \"#utility.yul\":23584:23604   */\n      sub\n        /* \"#utility.yul\":23580:23581   */\n      0x00\n        /* \"#utility.yul\":23569:23578   */\n      dup4\n        /* \"#utility.yul\":23565:23582   */\n      add\n        /* \"#utility.yul\":23558:23605   */\n      mstore\n        /* \"#utility.yul\":23622:23753   */\n      tag_606\n        /* \"#utility.yul\":23748:23752   */\n      dup2\n        /* \"#utility.yul\":23622:23753   */\n      tag_340\n      jump\t// in\n    tag_606:\n        /* \"#utility.yul\":23614:23753   */\n      swap1\n      pop\n        /* \"#utility.yul\":23341:23760   */\n      swap2\n      swap1\n      pop\n      jump\t// out\n        /* \"#utility.yul\":23766:23929   */\n    tag_341:\n        /* \"#utility.yul\":23906:23921   */\n      0x706f6f6c2073686f727461676500000000000000000000000000000000000000\n        /* \"#utility.yul\":23902:23903   */\n      0x00\n        /* \"#utility.yul\":23894:23900   */\n      dup3\n        /* \"#utility.yul\":23890:23904   */\n      add\n        /* \"#utility.yul\":23883:23922   */\n      mstore\n        /* \"#utility.yul\":23766:23929   */\n      pop\n      jump\t// out\n        /* \"#utility.yul\":23935:24301   */\n    tag_342:\n        /* \"#utility.yul\":24077:24080   */\n      0x00\n        /* \"#utility.yul\":24098:24165   */\n      tag_609\n        /* \"#utility.yul\":24162:24164   */\n      0x0d\n        /* \"#utility.yul\":24157:24160   */\n      dup4\n        /* \"#utility.yul\":24098:24165   */\n      tag_318\n      jump\t// in\n    tag_609:\n        /* \"#utility.yul\":24091:24165   */\n      swap2\n      pop\n        /* \"#utility.yul\":24174:24267   */\n      tag_610\n        /* \"#utility.yul\":24263:24266   */\n      dup3\n        /* \"#utility.yul\":24174:24267   */\n      tag_341\n      jump\t// in\n    tag_610:\n        /* \"#utility.yul\":24292:24294   */\n      0x20\n        /* \"#utility.yul\":24287:24290   */\n      dup3\n        /* \"#utility.yul\":24283:24295   */\n      add\n        /* \"#utility.yul\":24276:24295   */\n      swap1\n      pop\n        /* \"#utility.yul\":23935:24301   */\n      swap2\n      swap1\n      pop\n      jump\t// out\n        /* \"#utility.yul\":24307:24726   */\n    tag_153:\n        /* \"#utility.yul\":24473:24477   */\n      0x00\n        /* \"#utility.yul\":24511:24513   */\n      0x20\n        /* \"#utility.yul\":24500:24509   */\n      dup3\n        /* \"#utility.yul\":24496:24514   */\n      add\n        /* \"#utility.yul\":24488:24514   */\n      swap1\n      pop\n        /* \"#utility.yul\":24560:24569   */\n      dup2\n        /* \"#utility.yul\":24554:24558   */\n      dup2\n        /* \"#utility.yul\":24550:24570   */\n      sub\n        /* \"#utility.yul\":24546:24547   */\n      0x00\n        /* \"#utility.yul\":24535:24544   */\n      dup4\n        /* \"#utility.yul\":24531:24548   */\n      add\n        /* \"#utility.yul\":24524:24571   */\n      mstore\n        /* \"#utility.yul\":24588:24719   */\n      tag_612\n        /* \"#utility.yul\":24714:24718   */\n      dup2\n        /* \"#utility.yul\":24588:24719   */\n      tag_342\n      jump\t// in\n    tag_612:\n        /* \"#utility.yul\":24580:24719   */\n      swap1\n      pop\n        /* \"#utility.yul\":24307:24726   */\n      swap2\n      swap1\n      pop\n      jump\t// out\n        /* \"#utility.yul\":24732:24926   */\n    tag_155:\n        /* \"#utility.yul\":24772:24776   */\n      0x00\n        /* \"#utility.yul\":24792:24812   */\n      tag_614\n        /* \"#utility.yul\":24810:24811   */\n      dup3\n        /* \"#utility.yul\":24792:24812   */\n      tag_284\n      jump\t// in\n    tag_614:\n        /* \"#utility.yul\":24787:24812   */\n      swap2\n      pop\n        /* \"#utility.yul\":24826:24846   */\n      tag_615\n        /* \"#utility.yul\":24844:24845   */\n      dup4\n        /* \"#utility.yul\":24826:24846   */\n      tag_284\n      jump\t// in\n    tag_615:\n        /* \"#utility.yul\":24821:24846   */\n      swap3\n      pop\n        /* \"#utility.yul\":24870:24871   */\n      dup3\n        /* \"#utility.yul\":24867:24868   */\n      dup3\n        /* \"#utility.yul\":24863:24872   */\n      sub\n        /* \"#utility.yul\":24855:24872   */\n      swap1\n      pop\n        /* \"#utility.yul\":24894:24895   */\n      dup2\n        /* \"#utility.yul\":24888:24892   */\n      dup2\n        /* \"#utility.yul\":24885:24896   */\n      gt\n        /* \"#utility.yul\":24882:24919   */\n      iszero\n      tag_616\n      jumpi\n        /* \"#utility.yul\":24899:24917   */\n      tag_617\n      tag_316\n      jump\t// in\n    tag_617:\n        /* \"#utility.yul\":24882:24919   */\n    tag_616:\n        /* \"#utility.yul\":24732:24926   */\n      swap3\n      swap2\n      pop\n      pop\n      jump\t// out\n        /* \"#utility.yul\":24932:25264   */\n    tag_159:\n        /* \"#utility.yul\":25053:25057   */\n      0x00\n        /* \"#utility.yul\":25091:25093   */\n      0x40\n        /* \"#utility.yul\":25080:25089   */\n      dup3\n        /* \"#utility.yul\":25076:25094   */\n      add\n        /* \"#utility.yul\":25068:25094   */\n      swap1\n      pop\n        /* \"#utility.yul\":25104:25175   */\n      tag_619\n        /* \"#utility.yul\":25172:25173   */\n      0x00\n        /* \"#utility.yul\":25161:25170   */\n      dup4\n        /* \"#utility.yul\":25157:25174   */\n      add\n        /* \"#utility.yul\":25148:25154   */\n      dup6\n        /* \"#utility.yul\":25104:25175   */\n      tag_289\n      jump\t// in\n    tag_619:\n        /* \"#utility.yul\":25185:25257   */\n      tag_620\n        /* \"#utility.yul\":25253:25255   */\n      0x20\n        /* \"#utility.yul\":25242:25251   */\n      dup4\n        /* \"#utility.yul\":25238:25256   */\n      add\n        /* \"#utility.yul\":25229:25235   */\n      dup5\n        /* \"#utility.yul\":25185:25257   */\n      tag_289\n      jump\t// in\n    tag_620:\n        /* \"#utility.yul\":24932:25264   */\n      swap4\n      swap3\n      pop\n      pop\n      pop\n      jump\t// out\n        /* \"#utility.yul\":25270:25437   */\n    tag_343:\n        /* \"#utility.yul\":25410:25429   */\n      0x616c72656164792066696e616c697a6564000000000000000000000000000000\n        /* \"#utility.yul\":25406:25407   */\n      0x00\n        /* \"#utility.yul\":25398:25404   */\n      dup3\n        /* \"#utility.yul\":25394:25408   */\n      add\n        /* \"#utility.yul\":25387:25430   */\n      mstore\n        /* \"#utility.yul\":25270:25437   */\n      pop\n      jump\t// out\n        /* \"#utility.yul\":25443:25809   */\n    tag_344:\n        /* \"#utility.yul\":25585:25588   */\n      0x00\n        /* \"#utility.yul\":25606:25673   */\n      tag_623\n        /* \"#utility.yul\":25670:25672   */\n      0x11\n        /* \"#utility.yul\":25665:25668   */\n      dup4\n        /* \"#utility.yul\":25606:25673   */\n      tag_318\n      jump\t// in\n    tag_623:\n        /* \"#utility.yul\":25599:25673   */\n      swap2\n      pop\n        /* \"#utility.yul\":25682:25775   */\n      tag_624\n        /* \"#utility.yul\":25771:25774   */\n      dup3\n        /* \"#utility.yul\":25682:25775   */\n      tag_343\n      jump\t// in\n    tag_624:\n        /* \"#utility.yul\":25800:25802   */\n      0x20\n        /* \"#utility.yul\":25795:25798   */\n      dup3\n        /* \"#utility.yul\":25791:25803   */\n      add\n        /* \"#utility.yul\":25784:25803   */\n      swap1\n      pop\n        /* \"#utility.yul\":25443:25809   */\n      swap2\n      swap1\n      pop\n      jump\t// out\n        /* \"#utility.yul\":25815:26234   */\n    tag_165:\n        /* \"#utility.yul\":25981:25985   */\n      0x00\n        /* \"#utility.yul\":26019:26021   */\n      0x20\n        /* \"#utility.yul\":26008:26017   */\n      dup3\n        /* \"#utility.yul\":26004:26022   */\n      add\n        /* \"#utility.yul\":25996:26022   */\n      swap1\n      pop\n        /* \"#utility.yul\":26068:26077   */\n      dup2\n        /* \"#utility.yul\":26062:26066   */\n      dup2\n        /* \"#utility.yul\":26058:26078   */\n      sub\n        /* \"#utility.yul\":26054:26055   */\n      0x00\n        /* \"#utility.yul\":26043:26052   */\n      dup4\n        /* \"#utility.yul\":26039:26056   */\n      add\n        /* \"#utility.yul\":26032:26079   */\n      mstore\n        /* \"#utility.yul\":26096:26227   */\n      tag_626\n        /* \"#utility.yul\":26222:26226   */\n      dup2\n        /* \"#utility.yul\":26096:26227   */\n      tag_344\n      jump\t// in\n    tag_626:\n        /* \"#utility.yul\":26088:26227   */\n      swap1\n      pop\n        /* \"#utility.yul\":25815:26234   */\n      swap2\n      swap1\n      pop\n      jump\t// out\n        /* \"#utility.yul\":26240:26396   */\n    tag_345:\n        /* \"#utility.yul\":26380:26388   */\n      0x726f6f743d300000000000000000000000000000000000000000000000000000\n        /* \"#utility.yul\":26376:26377   */\n      0x00\n        /* \"#utility.yul\":26368:26374   */\n      dup3\n        /* \"#utility.yul\":26364:26378   */\n      add\n        /* \"#utility.yul\":26357:26389   */\n      mstore\n        /* \"#utility.yul\":26240:26396   */\n      pop\n      jump\t// out\n        /* \"#utility.yul\":26402:26767   */\n    tag_346:\n        /* \"#utility.yul\":26544:26547   */\n      0x00\n        /* \"#utility.yul\":26565:26631   */\n      tag_629\n        /* \"#utility.yul\":26629:26630   */\n      0x06\n        /* \"#utility.yul\":26624:26627   */\n      dup4\n        /* \"#utility.yul\":26565:26631   */\n      tag_318\n      jump\t// in\n    tag_629:\n        /* \"#utility.yul\":26558:26631   */\n      swap2\n      pop\n        /* \"#utility.yul\":26640:26733   */\n      tag_630\n        /* \"#utility.yul\":26729:26732   */\n      dup3\n        /* \"#utility.yul\":26640:26733   */\n      tag_345\n      jump\t// in\n    tag_630:\n        /* \"#utility.yul\":26758:26760   */\n      0x20\n        /* \"#utility.yul\":26753:26756   */\n      dup3\n        /* \"#utility.yul\":26749:26761   */\n      add\n        /* \"#utility.yul\":26742:26761   */\n      swap1\n      pop\n        /* \"#utility.yul\":26402:26767   */\n      swap2\n      swap1\n      pop\n      jump\t// out\n        /* \"#utility.yul\":26773:27192   */\n    tag_170:\n        /* \"#utility.yul\":26939:26943   */\n      0x00\n        /* \"#utility.yul\":26977:26979   */\n      0x20\n        /* \"#utility.yul\":26966:26975   */\n      dup3\n        /* \"#utility.yul\":26962:26980   */\n      add\n        /* \"#utility.yul\":26954:26980   */\n      swap1\n      pop\n        /* \"#utility.yul\":27026:27035   */\n      dup2\n        /* \"#utility.yul\":27020:27024   */\n      dup2\n        /* \"#utility.yul\":27016:27036   */\n      sub\n        /* \"#utility.yul\":27012:27013   */\n      0x00\n        /* \"#utility.yul\":27001:27010   */\n      dup4\n        /* \"#utility.yul\":26997:27014   */\n      add\n        /* \"#utility.yul\":26990:27037   */\n      mstore\n        /* \"#utility.yul\":27054:27185   */\n      tag_632\n        /* \"#utility.yul\":27180:27184   */\n      dup2\n        /* \"#utility.yul\":27054:27185   */\n      tag_346\n      jump\t// in\n    tag_632:\n        /* \"#utility.yul\":27046:27185   */\n      swap1\n      pop\n        /* \"#utility.yul\":26773:27192   */\n      swap2\n      swap1\n      pop\n      jump\t// out\n        /* \"#utility.yul\":27198:27358   */\n    tag_347:\n        /* \"#utility.yul\":27338:27350   */\n      0x6261642073686172657300000000000000000000000000000000000000000000\n        /* \"#utility.yul\":27334:27335   */\n      0x00\n        /* \"#utility.yul\":27326:27332   */\n      dup3\n        /* \"#utility.yul\":27322:27336   */\n      add\n        /* \"#utility.yul\":27315:27351   */\n      mstore\n        /* \"#utility.yul\":27198:27358   */\n      pop\n      jump\t// out\n        /* \"#utility.yul\":27364:27730   */\n    tag_348:\n        /* \"#utility.yul\":27506:27509   */\n      0x00\n        /* \"#utility.yul\":27527:27594   */\n      tag_635\n        /* \"#utility.yul\":27591:27593   */\n      0x0a\n        /* \"#utility.yul\":27586:27589   */\n      dup4\n        /* \"#utility.yul\":27527:27594   */\n      tag_318\n      jump\t// in\n    tag_635:\n        /* \"#utility.yul\":27520:27594   */\n      swap2\n      pop\n        /* \"#utility.yul\":27603:27696   */\n      tag_636\n        /* \"#utility.yul\":27692:27695   */\n      dup3\n        /* \"#utility.yul\":27603:27696   */\n      tag_347\n      jump\t// in\n    tag_636:\n        /* \"#utility.yul\":27721:27723   */\n      0x20\n        /* \"#utility.yul\":27716:27719   */\n      dup3\n        /* \"#utility.yul\":27712:27724   */\n      add\n        /* \"#utility.yul\":27705:27724   */\n      swap1\n      pop\n        /* \"#utility.yul\":27364:27730   */\n      swap2\n      swap1\n      pop\n      jump\t// out\n        /* \"#utility.yul\":27736:28155   */\n    tag_174:\n        /* \"#utility.yul\":27902:27906   */\n      0x00\n        /* \"#utility.yul\":27940:27942   */\n      0x20\n        /* \"#utility.yul\":27929:27938   */\n      dup3\n        /* \"#utility.yul\":27925:27943   */\n      add\n        /* \"#utility.yul\":27917:27943   */\n      swap1\n      pop\n        /* \"#utility.yul\":27989:27998   */\n      dup2\n        /* \"#utility.yul\":27983:27987   */\n      dup2\n        /* \"#utility.yul\":27979:27999   */\n      sub\n        /* \"#utility.yul\":27975:27976   */\n      0x00\n        /* \"#utility.yul\":27964:27973   */\n      dup4\n        /* \"#utility.yul\":27960:27977   */\n      add\n        /* \"#utility.yul\":27953:28000   */\n      mstore\n        /* \"#utility.yul\":28017:28148   */\n      tag_638\n        /* \"#utility.yul\":28143:28147   */\n      dup2\n        /* \"#utility.yul\":28017:28148   */\n      tag_348\n      jump\t// in\n    tag_638:\n        /* \"#utility.yul\":28009:28148   */\n      swap1\n      pop\n        /* \"#utility.yul\":27736:28155   */\n      swap2\n      swap1\n      pop\n      jump\t// out\n        /* \"#utility.yul\":28161:28341   */\n    tag_180:\n        /* \"#utility.yul\":28209:28286   */\n      0x4e487b7100000000000000000000000000000000000000000000000000000000\n        /* \"#utility.yul\":28206:28207   */\n      0x00\n        /* \"#utility.yul\":28199:28287   */\n      mstore\n        /* \"#utility.yul\":28306:28310   */\n      0x32\n        /* \"#utility.yul\":28303:28304   */\n      0x04\n        /* \"#utility.yul\":28296:28311   */\n      mstore\n        /* \"#utility.yul\":28330:28334   */\n      0x24\n        /* \"#utility.yul\":28327:28328   */\n      0x00\n        /* \"#utility.yul\":28320:28335   */\n      revert\n        /* \"#utility.yul\":28347:28674   */\n    tag_182:\n        /* \"#utility.yul\":28405:28411   */\n      0x00\n        /* \"#utility.yul\":28454:28456   */\n      0x20\n        /* \"#utility.yul\":28442:28451   */\n      dup3\n        /* \"#utility.yul\":28433:28440   */\n      dup5\n        /* \"#utility.yul\":28429:28452   */\n      sub\n        /* \"#utility.yul\":28425:28457   */\n      slt\n        /* \"#utility.yul\":28422:28541   */\n      iszero\n      tag_641\n      jumpi\n        /* \"#utility.yul\":28460:28539   */\n      tag_642\n      tag_282\n      jump\t// in\n    tag_642:\n        /* \"#utility.yul\":28422:28541   */\n    tag_641:\n        /* \"#utility.yul\":28580:28581   */\n      0x00\n        /* \"#utility.yul\":28605:28657   */\n      tag_643\n        /* \"#utility.yul\":28649:28656   */\n      dup5\n        /* \"#utility.yul\":28640:28646   */\n      dup3\n        /* \"#utility.yul\":28629:28638   */\n      dup6\n        /* \"#utility.yul\":28625:28647   */\n      add\n        /* \"#utility.yul\":28605:28657   */\n      tag_309\n      jump\t// in\n    tag_643:\n        /* \"#utility.yul\":28595:28657   */\n      swap2\n      pop\n        /* \"#utility.yul\":28551:28667   */\n      pop\n        /* \"#utility.yul\":28347:28674   */\n      swap3\n      swap2\n      pop\n      pop\n      jump\t// out\n        /* \"#utility.yul\":28680:28840   */\n    tag_349:\n        /* \"#utility.yul\":28820:28832   */\n      0x7a65726f20736861726500000000000000000000000000000000000000000000\n        /* \"#utility.yul\":28816:28817   */\n      0x00\n        /* \"#utility.yul\":28808:28814   */\n      dup3\n        /* \"#utility.yul\":28804:28818   */\n      add\n        /* \"#utility.yul\":28797:28833   */\n      mstore\n        /* \"#utility.yul\":28680:28840   */\n      pop\n      jump\t// out\n        /* \"#utility.yul\":28846:29212   */\n    tag_350:\n        /* \"#utility.yul\":28988:28991   */\n      0x00\n        /* \"#utility.yul\":29009:29076   */\n      tag_646\n        /* \"#utility.yul\":29073:29075   */\n      0x0a\n        /* \"#utility.yul\":29068:29071   */\n      dup4\n        /* \"#utility.yul\":29009:29076   */\n      tag_318\n      jump\t// in\n    tag_646:\n        /* \"#utility.yul\":29002:29076   */\n      swap2\n      pop\n        /* \"#utility.yul\":29085:29178   */\n      tag_647\n        /* \"#utility.yul\":29174:29177   */\n      dup3\n        /* \"#utility.yul\":29085:29178   */\n      tag_349\n      jump\t// in\n    tag_647:\n        /* \"#utility.yul\":29203:29205   */\n      0x20\n        /* \"#utility.yul\":29198:29201   */\n      dup3\n        /* \"#utility.yul\":29194:29206   */\n      add\n        /* \"#utility.yul\":29187:29206   */\n      swap1\n      pop\n        /* \"#utility.yul\":28846:29212   */\n      swap2\n      swap1\n      pop\n      jump\t// out\n        /* \"#utility.yul\":29218:29637   */\n    tag_185:\n        /* \"#utility.yul\":29384:29388   */\n      0x00\n        /* \"#utility.yul\":29422:29424   */\n      0x20\n        /* \"#utility.yul\":29411:29420   */\n      dup3\n        /* \"#utility.yul\":29407:29425   */\n      add\n        /* \"#utility.yul\":29399:29425   */\n      swap1\n      pop\n        /* \"#utility.yul\":29471:29480   */\n      dup2\n        /* \"#utility.yul\":29465:29469   */\n      dup2\n        /* \"#utility.yul\":29461:29481   */\n      sub\n        /* \"#utility.yul\":29457:29458   */\n      0x00\n        /* \"#utility.yul\":29446:29455   */\n      dup4\n        /* \"#utility.yul\":29442:29459   */\n      add\n        /* \"#utility.yul\":29435:29482   */\n      mstore\n        /* \"#utility.yul\":29499:29630   */\n      tag_649\n        /* \"#utility.yul\":29625:29629   */\n      dup2\n        /* \"#utility.yul\":29499:29630   */\n      tag_350\n      jump\t// in\n    tag_649:\n        /* \"#utility.yul\":29491:29630   */\n      swap1\n      pop\n        /* \"#utility.yul\":29218:29637   */\n      swap2\n      swap1\n      pop\n      jump\t// out\n        /* \"#utility.yul\":29643:29816   */\n    tag_351:\n        /* \"#utility.yul\":29783:29808   */\n      0x6669786564506f6f6c203e20706f6f6c42616c616e6365000000000000000000\n        /* \"#utility.yul\":29779:29780   */\n      0x00\n        /* \"#utility.yul\":29771:29777   */\n      dup3\n        /* \"#utility.yul\":29767:29781   */\n      add\n        /* \"#utility.yul\":29760:29809   */\n      mstore\n        /* \"#utility.yul\":29643:29816   */\n      pop\n      jump\t// out\n        /* \"#utility.yul\":29822:30188   */\n    tag_352:\n        /* \"#utility.yul\":29964:29967   */\n      0x00\n        /* \"#utility.yul\":29985:30052   */\n      tag_652\n        /* \"#utility.yul\":30049:30051   */\n      0x17\n        /* \"#utility.yul\":30044:30047   */\n      dup4\n        /* \"#utility.yul\":29985:30052   */\n      tag_318\n      jump\t// in\n    tag_652:\n        /* \"#utility.yul\":29978:30052   */\n      swap2\n      pop\n        /* \"#utility.yul\":30061:30154   */\n      tag_653\n        /* \"#utility.yul\":30150:30153   */\n      dup3\n        /* \"#utility.yul\":30061:30154   */\n      tag_351\n      jump\t// in\n    tag_653:\n        /* \"#utility.yul\":30179:30181   */\n      0x20\n        /* \"#utility.yul\":30174:30177   */\n      dup3\n        /* \"#utility.yul\":30170:30182   */\n      add\n        /* \"#utility.yul\":30163:30182   */\n      swap1\n      pop\n        /* \"#utility.yul\":29822:30188   */\n      swap2\n      swap1\n      pop\n      jump\t// out\n        /* \"#utility.yul\":30194:30613   */\n    tag_194:\n        /* \"#utility.yul\":30360:30364   */\n      0x00\n        /* \"#utility.yul\":30398:30400   */\n      0x20\n        /* \"#utility.yul\":30387:30396   */\n      dup3\n        /* \"#utility.yul\":30383:30401   */\n      add\n        /* \"#utility.yul\":30375:30401   */\n      swap1\n      pop\n        /* \"#utility.yul\":30447:30456   */\n      dup2\n        /* \"#utility.yul\":30441:30445   */\n      dup2\n        /* \"#utility.yul\":30437:30457   */\n      sub\n        /* \"#utility.yul\":30433:30434   */\n      0x00\n        /* \"#utility.yul\":30422:30431   */\n      dup4\n        /* \"#utility.yul\":30418:30435   */\n      add\n        /* \"#utility.yul\":30411:30458   */\n      mstore\n        /* \"#utility.yul\":30475:30606   */\n      tag_655\n        /* \"#utility.yul\":30601:30605   */\n      dup2\n        /* \"#utility.yul\":30475:30606   */\n      tag_352\n      jump\t// in\n    tag_655:\n        /* \"#utility.yul\":30467:30606   */\n      swap1\n      pop\n        /* \"#utility.yul\":30194:30613   */\n      swap2\n      swap1\n      pop\n      jump\t// out\n        /* \"#utility.yul\":30619:30951   */\n    tag_196:\n        /* \"#utility.yul\":30740:30744   */\n      0x00\n        /* \"#utility.yul\":30778:30780   */\n      0x40\n        /* \"#utility.yul\":30767:30776   */\n      dup3\n        /* \"#utility.yul\":30763:30781   */\n      add\n        /* \"#utility.yul\":30755:30781   */\n      swap1\n      pop\n        /* \"#utility.yul\":30791:30862   */\n      tag_657\n        /* \"#utility.yul\":30859:30860   */\n      0x00\n        /* \"#utility.yul\":30848:30857   */\n      dup4\n        /* \"#utility.yul\":30844:30861   */\n      add\n        /* \"#utility.yul\":30835:30841   */\n      dup6\n        /* \"#utility.yul\":30791:30862   */\n      tag_289\n      jump\t// in\n    tag_657:\n        /* \"#utility.yul\":30872:30944   */\n      tag_658\n        /* \"#utility.yul\":30940:30942   */\n      0x20\n        /* \"#utility.yul\":30929:30938   */\n      dup4\n        /* \"#utility.yul\":30925:30943   */\n      add\n        /* \"#utility.yul\":30916:30922   */\n      dup5\n        /* \"#utility.yul\":30872:30944   */\n      tag_298\n      jump\t// in\n    tag_658:\n        /* \"#utility.yul\":30619:30951   */\n      swap4\n      swap3\n      pop\n      pop\n      pop\n      jump\t// out\n        /* \"#utility.yul\":30957:31111   */\n    tag_353:\n        /* \"#utility.yul\":31097:31103   */\n      0x746f3d3000000000000000000000000000000000000000000000000000000000\n        /* \"#utility.yul\":31093:31094   */\n      0x00\n        /* \"#utility.yul\":31085:31091   */\n      dup3\n        /* \"#utility.yul\":31081:31095   */\n      add\n        /* \"#utility.yul\":31074:31104   */\n      mstore\n        /* \"#utility.yul\":30957:31111   */\n      pop\n      jump\t// out\n        /* \"#utility.yul\":31117:31482   */\n    tag_354:\n        /* \"#utility.yul\":31259:31262   */\n      0x00\n        /* \"#utility.yul\":31280:31346   */\n      tag_661\n        /* \"#utility.yul\":31344:31345   */\n      0x04\n        /* \"#utility.yul\":31339:31342   */\n      dup4\n        /* \"#utility.yul\":31280:31346   */\n      tag_318\n      jump\t// in\n    tag_661:\n        /* \"#utility.yul\":31273:31346   */\n      swap2\n      pop\n        /* \"#utility.yul\":31355:31448   */\n      tag_662\n        /* \"#utility.yul\":31444:31447   */\n      dup3\n        /* \"#utility.yul\":31355:31448   */\n      tag_353\n      jump\t// in\n    tag_662:\n        /* \"#utility.yul\":31473:31475   */\n      0x20\n        /* \"#utility.yul\":31468:31471   */\n      dup3\n        /* \"#utility.yul\":31464:31476   */\n      add\n        /* \"#utility.yul\":31457:31476   */\n      swap1\n      pop\n        /* \"#utility.yul\":31117:31482   */\n      swap2\n      swap1\n      pop\n      jump\t// out\n        /* \"#utility.yul\":31488:31907   */\n    tag_202:\n        /* \"#utility.yul\":31654:31658   */\n      0x00\n        /* \"#utility.yul\":31692:31694   */\n      0x20\n        /* \"#utility.yul\":31681:31690   */\n      dup3\n        /* \"#utility.yul\":31677:31695   */\n      add\n        /* \"#utility.yul\":31669:31695   */\n      swap1\n      pop\n        /* \"#utility.yul\":31741:31750   */\n      dup2\n        /* \"#utility.yul\":31735:31739   */\n      dup2\n        /* \"#utility.yul\":31731:31751   */\n      sub\n        /* \"#utility.yul\":31727:31728   */\n      0x00\n        /* \"#utility.yul\":31716:31725   */\n      dup4\n        /* \"#utility.yul\":31712:31729   */\n      add\n        /* \"#utility.yul\":31705:31752   */\n      mstore\n        /* \"#utility.yul\":31769:31900   */\n      tag_664\n        /* \"#utility.yul\":31895:31899   */\n      dup2\n        /* \"#utility.yul\":31769:31900   */\n      tag_354\n      jump\t// in\n    tag_664:\n        /* \"#utility.yul\":31761:31900   */\n      swap1\n      pop\n        /* \"#utility.yul\":31488:31907   */\n      swap2\n      swap1\n      pop\n      jump\t// out\n        /* \"#utility.yul\":31913:32075   */\n    tag_355:\n        /* \"#utility.yul\":32053:32067   */\n      0x696e73756666696369656e740000000000000000000000000000000000000000\n        /* \"#utility.yul\":32049:32050   */\n      0x00\n        /* \"#utility.yul\":32041:32047   */\n      dup3\n        /* \"#utility.yul\":32037:32051   */\n      add\n        /* \"#utility.yul\":32030:32068   */\n      mstore\n        /* \"#utility.yul\":31913:32075   */\n      pop\n      jump\t// out\n        /* \"#utility.yul\":32081:32447   */\n    tag_356:\n        /* \"#utility.yul\":32223:32226   */\n      0x00\n        /* \"#utility.yul\":32244:32311   */\n      tag_667\n        /* \"#utility.yul\":32308:32310   */\n      0x0c\n        /* \"#utility.yul\":32303:32306   */\n      dup4\n        /* \"#utility.yul\":32244:32311   */\n      tag_318\n      jump\t// in\n    tag_667:\n        /* \"#utility.yul\":32237:32311   */\n      swap2\n      pop\n        /* \"#utility.yul\":32320:32413   */\n      tag_668\n        /* \"#utility.yul\":32409:32412   */\n      dup3\n        /* \"#utility.yul\":32320:32413   */\n      tag_355\n      jump\t// in\n    tag_668:\n        /* \"#utility.yul\":32438:32440   */\n      0x20\n        /* \"#utility.yul\":32433:32436   */\n      dup3\n        /* \"#utility.yul\":32429:32441   */\n      add\n        /* \"#utility.yul\":32422:32441   */\n      swap1\n      pop\n        /* \"#utility.yul\":32081:32447   */\n      swap2\n      swap1\n      pop\n      jump\t// out\n        /* \"#utility.yul\":32453:32872   */\n    tag_205:\n        /* \"#utility.yul\":32619:32623   */\n      0x00\n        /* \"#utility.yul\":32657:32659   */\n      0x20\n        /* \"#utility.yul\":32646:32655   */\n      dup3\n        /* \"#utility.yul\":32642:32660   */\n      add\n        /* \"#utility.yul\":32634:32660   */\n      swap1\n      pop\n        /* \"#utility.yul\":32706:32715   */\n      dup2\n        /* \"#utility.yul\":32700:32704   */\n      dup2\n        /* \"#utility.yul\":32696:32716   */\n      sub\n        /* \"#utility.yul\":32692:32693   */\n      0x00\n        /* \"#utility.yul\":32681:32690   */\n      dup4\n        /* \"#utility.yul\":32677:32694   */\n      add\n        /* \"#utility.yul\":32670:32717   */\n      mstore\n        /* \"#utility.yul\":32734:32865   */\n      tag_670\n        /* \"#utility.yul\":32860:32864   */\n      dup2\n        /* \"#utility.yul\":32734:32865   */\n      tag_356\n      jump\t// in\n    tag_670:\n        /* \"#utility.yul\":32726:32865   */\n      swap1\n      pop\n        /* \"#utility.yul\":32453:32872   */\n      swap2\n      swap1\n      pop\n      jump\t// out\n        /* \"#utility.yul\":32878:33037   */\n    tag_357:\n        /* \"#utility.yul\":33018:33029   */\n      0x66696e616c697a65640000000000000000000000000000000000000000000000\n        /* \"#utility.yul\":33014:33015   */\n      0x00\n        /* \"#utility.yul\":33006:33012   */\n      dup3\n        /* \"#utility.yul\":33002:33016   */\n      add\n        /* \"#utility.yul\":32995:33030   */\n      mstore\n        /* \"#utility.yul\":32878:33037   */\n      pop\n      jump\t// out\n        /* \"#utility.yul\":33043:33408   */\n    tag_358:\n        /* \"#utility.yul\":33185:33188   */\n      0x00\n        /* \"#utility.yul\":33206:33272   */\n      tag_673\n        /* \"#utility.yul\":33270:33271   */\n      0x09\n        /* \"#utility.yul\":33265:33268   */\n      dup4\n        /* \"#utility.yul\":33206:33272   */\n      tag_318\n      jump\t// in\n    tag_673:\n        /* \"#utility.yul\":33199:33272   */\n      swap2\n      pop\n        /* \"#utility.yul\":33281:33374   */\n      tag_674\n        /* \"#utility.yul\":33370:33373   */\n      dup3\n        /* \"#utility.yul\":33281:33374   */\n      tag_357\n      jump\t// in\n    tag_674:\n        /* \"#utility.yul\":33399:33401   */\n      0x20\n        /* \"#utility.yul\":33394:33397   */\n      dup3\n        /* \"#utility.yul\":33390:33402   */\n      add\n        /* \"#utility.yul\":33383:33402   */\n      swap1\n      pop\n        /* \"#utility.yul\":33043:33408   */\n      swap2\n      swap1\n      pop\n      jump\t// out\n        /* \"#utility.yul\":33414:33833   */\n    tag_215:\n        /* \"#utility.yul\":33580:33584   */\n      0x00\n        /* \"#utility.yul\":33618:33620   */\n      0x20\n        /* \"#utility.yul\":33607:33616   */\n      dup3\n        /* \"#utility.yul\":33603:33621   */\n      add\n        /* \"#utility.yul\":33595:33621   */\n      swap1\n      pop\n        /* \"#utility.yul\":33667:33676   */\n      dup2\n        /* \"#utility.yul\":33661:33665   */\n      dup2\n        /* \"#utility.yul\":33657:33677   */\n      sub\n        /* \"#utility.yul\":33653:33654   */\n      0x00\n        /* \"#utility.yul\":33642:33651   */\n      dup4\n        /* \"#utility.yul\":33638:33655   */\n      add\n        /* \"#utility.yul\":33631:33678   */\n      mstore\n        /* \"#utility.yul\":33695:33826   */\n      tag_676\n        /* \"#utility.yul\":33821:33825   */\n      dup2\n        /* \"#utility.yul\":33695:33826   */\n      tag_358\n      jump\t// in\n    tag_676:\n        /* \"#utility.yul\":33687:33826   */\n      swap1\n      pop\n        /* \"#utility.yul\":33414:33833   */\n      swap2\n      swap1\n      pop\n      jump\t// out\n        /* \"#utility.yul\":33839:34008   */\n    tag_359:\n        /* \"#utility.yul\":33979:34000   */\n      0x726567697374726174696f6e20636c6f73656400000000000000000000000000\n        /* \"#utility.yul\":33975:33976   */\n      0x00\n        /* \"#utility.yul\":33967:33973   */\n      dup3\n        /* \"#utility.yul\":33963:33977   */\n      add\n        /* \"#utility.yul\":33956:34001   */\n      mstore\n        /* \"#utility.yul\":33839:34008   */\n      pop\n      jump\t// out\n        /* \"#utility.yul\":34014:34380   */\n    tag_360:\n        /* \"#utility.yul\":34156:34159   */\n      0x00\n        /* \"#utility.yul\":34177:34244   */\n      tag_679\n        /* \"#utility.yul\":34241:34243   */\n      0x13\n        /* \"#utility.yul\":34236:34239   */\n      dup4\n        /* \"#utility.yul\":34177:34244   */\n      tag_318\n      jump\t// in\n    tag_679:\n        /* \"#utility.yul\":34170:34244   */\n      swap2\n      pop\n        /* \"#utility.yul\":34253:34346   */\n      tag_680\n        /* \"#utility.yul\":34342:34345   */\n      dup3\n        /* \"#utility.yul\":34253:34346   */\n      tag_359\n      jump\t// in\n    tag_680:\n        /* \"#utility.yul\":34371:34373   */\n      0x20\n        /* \"#utility.yul\":34366:34369   */\n      dup3\n        /* \"#utility.yul\":34362:34374   */\n      add\n        /* \"#utility.yul\":34355:34374   */\n      swap1\n      pop\n        /* \"#utility.yul\":34014:34380   */\n      swap2\n      swap1\n      pop\n      jump\t// out\n        /* \"#utility.yul\":34386:34805   */\n    tag_219:\n        /* \"#utility.yul\":34552:34556   */\n      0x00\n        /* \"#utility.yul\":34590:34592   */\n      0x20\n        /* \"#utility.yul\":34579:34588   */\n      dup3\n        /* \"#utility.yul\":34575:34593   */\n      add\n        /* \"#utility.yul\":34567:34593   */\n      swap1\n      pop\n        /* \"#utility.yul\":34639:34648   */\n      dup2\n        /* \"#utility.yul\":34633:34637   */\n      dup2\n        /* \"#utility.yul\":34629:34649   */\n      sub\n        /* \"#utility.yul\":34625:34626   */\n      0x00\n        /* \"#utility.yul\":34614:34623   */\n      dup4\n        /* \"#utility.yul\":34610:34627   */\n      add\n        /* \"#utility.yul\":34603:34650   */\n      mstore\n        /* \"#utility.yul\":34667:34798   */\n      tag_682\n        /* \"#utility.yul\":34793:34797   */\n      dup2\n        /* \"#utility.yul\":34667:34798   */\n      tag_360\n      jump\t// in\n    tag_682:\n        /* \"#utility.yul\":34659:34798   */\n      swap1\n      pop\n        /* \"#utility.yul\":34386:34805   */\n      swap2\n      swap1\n      pop\n      jump\t// out\n        /* \"#utility.yul\":34811:34979   */\n    tag_361:\n        /* \"#utility.yul\":34951:34971   */\n      0x616c726561647920726567697374657265640000000000000000000000000000\n        /* \"#utility.yul\":34947:34948   */\n      0x00\n        /* \"#utility.yul\":34939:34945   */\n      dup3\n        /* \"#utility.yul\":34935:34949   */\n      add\n        /* \"#utility.yul\":34928:34972   */\n      mstore\n        /* \"#utility.yul\":34811:34979   */\n      pop\n      jump\t// out\n        /* \"#utility.yul\":34985:35351   */\n    tag_362:\n        /* \"#utility.yul\":35127:35130   */\n      0x00\n        /* \"#utility.yul\":35148:35215   */\n      tag_685\n        /* \"#utility.yul\":35212:35214   */\n      0x12\n        /* \"#utility.yul\":35207:35210   */\n      dup4\n        /* \"#utility.yul\":35148:35215   */\n      tag_318\n      jump\t// in\n    tag_685:\n        /* \"#utility.yul\":35141:35215   */\n      swap2\n      pop\n        /* \"#utility.yul\":35224:35317   */\n      tag_686\n        /* \"#utility.yul\":35313:35316   */\n      dup3\n        /* \"#utility.yul\":35224:35317   */\n      tag_361\n      jump\t// in\n    tag_686:\n        /* \"#utility.yul\":35342:35344   */\n      0x20\n        /* \"#utility.yul\":35337:35340   */\n      dup3\n        /* \"#utility.yul\":35333:35345   */\n      add\n        /* \"#utility.yul\":35326:35345   */\n      swap1\n      pop\n        /* \"#utility.yul\":34985:35351   */\n      swap2\n      swap1\n      pop\n      jump\t// out\n        /* \"#utility.yul\":35357:35776   */\n    tag_222:\n        /* \"#utility.yul\":35523:35527   */\n      0x00\n        /* \"#utility.yul\":35561:35563   */\n      0x20\n        /* \"#utility.yul\":35550:35559   */\n      dup3\n        /* \"#utility.yul\":35546:35564   */\n      add\n        /* \"#utility.yul\":35538:35564   */\n      swap1\n      pop\n        /* \"#utility.yul\":35610:35619   */\n      dup2\n        /* \"#utility.yul\":35604:35608   */\n      dup2\n        /* \"#utility.yul\":35600:35620   */\n      sub\n        /* \"#utility.yul\":35596:35597   */\n      0x00\n        /* \"#utility.yul\":35585:35594   */\n      dup4\n        /* \"#utility.yul\":35581:35598   */\n      add\n        /* \"#utility.yul\":35574:35621   */\n      mstore\n        /* \"#utility.yul\":35638:35769   */\n      tag_688\n        /* \"#utility.yul\":35764:35768   */\n      dup2\n        /* \"#utility.yul\":35638:35769   */\n      tag_362\n      jump\t// in\n    tag_688:\n        /* \"#utility.yul\":35630:35769   */\n      swap1\n      pop\n        /* \"#utility.yul\":35357:35776   */\n      swap2\n      swap1\n      pop\n      jump\t// out\n        /* \"#utility.yul\":35782:35943   */\n    tag_363:\n        /* \"#utility.yul\":35922:35935   */\n      0x656e747279206665653d30000000000000000000000000000000000000000000\n        /* \"#utility.yul\":35918:35919   */\n      0x00\n        /* \"#utility.yul\":35910:35916   */\n      dup3\n        /* \"#utility.yul\":35906:35920   */\n      add\n        /* \"#utility.yul\":35899:35936   */\n      mstore\n        /* \"#utility.yul\":35782:35943   */\n      pop\n      jump\t// out\n        /* \"#utility.yul\":35949:36315   */\n    tag_364:\n        /* \"#utility.yul\":36091:36094   */\n      0x00\n        /* \"#utility.yul\":36112:36179   */\n      tag_691\n        /* \"#utility.yul\":36176:36178   */\n      0x0b\n        /* \"#utility.yul\":36171:36174   */\n      dup4\n        /* \"#utility.yul\":36112:36179   */\n      tag_318\n      jump\t// in\n    tag_691:\n        /* \"#utility.yul\":36105:36179   */\n      swap2\n      pop\n        /* \"#utility.yul\":36188:36281   */\n      tag_692\n        /* \"#utility.yul\":36277:36280   */\n      dup3\n        /* \"#utility.yul\":36188:36281   */\n      tag_363\n      jump\t// in\n    tag_692:\n        /* \"#utility.yul\":36306:36308   */\n      0x20\n        /* \"#utility.yul\":36301:36304   */\n      dup3\n        /* \"#utility.yul\":36297:36309   */\n      add\n        /* \"#utility.yul\":36290:36309   */\n      swap1\n      pop\n        /* \"#utility.yul\":35949:36315   */\n      swap2\n      swap1\n      pop\n      jump\t// out\n        /* \"#utility.yul\":36321:36740   */\n    tag_225:\n        /* \"#utility.yul\":36487:36491   */\n      0x00\n        /* \"#utility.yul\":36525:36527   */\n      0x20\n        /* \"#utility.yul\":36514:36523   */\n      dup3\n        /* \"#utility.yul\":36510:36528   */\n      add\n        /* \"#utility.yul\":36502:36528   */\n      swap1\n      pop\n        /* \"#utility.yul\":36574:36583   */\n      dup2\n        /* \"#utility.yul\":36568:36572   */\n      dup2\n        /* \"#utility.yul\":36564:36584   */\n      sub\n        /* \"#utility.yul\":36560:36561   */\n      0x00\n        /* \"#utility.yul\":36549:36558   */\n      dup4\n        /* \"#utility.yul\":36545:36562   */\n      add\n        /* \"#utility.yul\":36538:36585   */\n      mstore\n        /* \"#utility.yul\":36602:36733   */\n      tag_694\n        /* \"#utility.yul\":36728:36732   */\n      dup2\n        /* \"#utility.yul\":36602:36733   */\n      tag_364\n      jump\t// in\n    tag_694:\n        /* \"#utility.yul\":36594:36733   */\n      swap1\n      pop\n        /* \"#utility.yul\":36321:36740   */\n      swap2\n      swap1\n      pop\n      jump\t// out\n        /* \"#utility.yul\":36746:36903   */\n    tag_365:\n        /* \"#utility.yul\":36886:36895   */\n      0x746f6b656e3d3000000000000000000000000000000000000000000000000000\n        /* \"#utility.yul\":36882:36883   */\n      0x00\n        /* \"#utility.yul\":36874:36880   */\n      dup3\n        /* \"#utility.yul\":36870:36884   */\n      add\n        /* \"#utility.yul\":36863:36896   */\n      mstore\n        /* \"#utility.yul\":36746:36903   */\n      pop\n      jump\t// out\n        /* \"#utility.yul\":36909:37274   */\n    tag_366:\n        /* \"#utility.yul\":37051:37054   */\n      0x00\n        /* \"#utility.yul\":37072:37138   */\n      tag_697\n        /* \"#utility.yul\":37136:37137   */\n      0x07\n        /* \"#utility.yul\":37131:37134   */\n      dup4\n        /* \"#utility.yul\":37072:37138   */\n      tag_318\n      jump\t// in\n    tag_697:\n        /* \"#utility.yul\":37065:37138   */\n      swap2\n      pop\n        /* \"#utility.yul\":37147:37240   */\n      tag_698\n        /* \"#utility.yul\":37236:37239   */\n      dup3\n        /* \"#utility.yul\":37147:37240   */\n      tag_365\n      jump\t// in\n    tag_698:\n        /* \"#utility.yul\":37265:37267   */\n      0x20\n        /* \"#utility.yul\":37260:37263   */\n      dup3\n        /* \"#utility.yul\":37256:37268   */\n      add\n        /* \"#utility.yul\":37249:37268   */\n      swap1\n      pop\n        /* \"#utility.yul\":36909:37274   */\n      swap2\n      swap1\n      pop\n      jump\t// out\n        /* \"#utility.yul\":37280:37699   */\n    tag_240:\n        /* \"#utility.yul\":37446:37450   */\n      0x00\n        /* \"#utility.yul\":37484:37486   */\n      0x20\n        /* \"#utility.yul\":37473:37482   */\n      dup3\n        /* \"#utility.yul\":37469:37487   */\n      add\n        /* \"#utility.yul\":37461:37487   */\n      swap1\n      pop\n        /* \"#utility.yul\":37533:37542   */\n      dup2\n        /* \"#utility.yul\":37527:37531   */\n      dup2\n        /* \"#utility.yul\":37523:37543   */\n      sub\n        /* \"#utility.yul\":37519:37520   */\n      0x00\n        /* \"#utility.yul\":37508:37517   */\n      dup4\n        /* \"#utility.yul\":37504:37521   */\n      add\n        /* \"#utility.yul\":37497:37544   */\n      mstore\n        /* \"#utility.yul\":37561:37692   */\n      tag_700\n        /* \"#utility.yul\":37687:37691   */\n      dup2\n        /* \"#utility.yul\":37561:37692   */\n      tag_366\n      jump\t// in\n    tag_700:\n        /* \"#utility.yul\":37553:37692   */\n      swap1\n      pop\n        /* \"#utility.yul\":37280:37699   */\n      swap2\n      swap1\n      pop\n      jump\t// out\n        /* \"#utility.yul\":37705:37861   */\n    tag_367:\n        /* \"#utility.yul\":37845:37853   */\n      0x6578697374730000000000000000000000000000000000000000000000000000\n        /* \"#utility.yul\":37841:37842   */\n      0x00\n        /* \"#utility.yul\":37833:37839   */\n      dup3\n        /* \"#utility.yul\":37829:37843   */\n      add\n        /* \"#utility.yul\":37822:37854   */\n      mstore\n        /* \"#utility.yul\":37705:37861   */\n      pop\n      jump\t// out\n        /* \"#utility.yul\":37867:38232   */\n    tag_368:\n        /* \"#utility.yul\":38009:38012   */\n      0x00\n        /* \"#utility.yul\":38030:38096   */\n      tag_703\n        /* \"#utility.yul\":38094:38095   */\n      0x06\n        /* \"#utility.yul\":38089:38092   */\n      dup4\n        /* \"#utility.yul\":38030:38096   */\n      tag_318\n      jump\t// in\n    tag_703:\n        /* \"#utility.yul\":38023:38096   */\n      swap2\n      pop\n        /* \"#utility.yul\":38105:38198   */\n      tag_704\n        /* \"#utility.yul\":38194:38197   */\n      dup3\n        /* \"#utility.yul\":38105:38198   */\n      tag_367\n      jump\t// in\n    tag_704:\n        /* \"#utility.yul\":38223:38225   */\n      0x20\n        /* \"#utility.yul\":38218:38221   */\n      dup3\n        /* \"#utility.yul\":38214:38226   */\n      add\n        /* \"#utility.yul\":38207:38226   */\n      swap1\n      pop\n        /* \"#utility.yul\":37867:38232   */\n      swap2\n      swap1\n      pop\n      jump\t// out\n        /* \"#utility.yul\":38238:38657   */\n    tag_243:\n        /* \"#utility.yul\":38404:38408   */\n      0x00\n        /* \"#utility.yul\":38442:38444   */\n      0x20\n        /* \"#utility.yul\":38431:38440   */\n      dup3\n        /* \"#utility.yul\":38427:38445   */\n      add\n        /* \"#utility.yul\":38419:38445   */\n      swap1\n      pop\n        /* \"#utility.yul\":38491:38500   */\n      dup2\n        /* \"#utility.yul\":38485:38489   */\n      dup2\n        /* \"#utility.yul\":38481:38501   */\n      sub\n        /* \"#utility.yul\":38477:38478   */\n      0x00\n        /* \"#utility.yul\":38466:38475   */\n      dup4\n        /* \"#utility.yul\":38462:38479   */\n      add\n        /* \"#utility.yul\":38455:38502   */\n      mstore\n        /* \"#utility.yul\":38519:38650   */\n      tag_706\n        /* \"#utility.yul\":38645:38649   */\n      dup2\n        /* \"#utility.yul\":38519:38650   */\n      tag_368\n      jump\t// in\n    tag_706:\n        /* \"#utility.yul\":38511:38650   */\n      swap1\n      pop\n        /* \"#utility.yul\":38238:38657   */\n      swap2\n      swap1\n      pop\n      jump\t// out\n        /* \"#utility.yul\":38663:39097   */\n    tag_245:\n        /* \"#utility.yul\":38808:38812   */\n      0x00\n        /* \"#utility.yul\":38846:38848   */\n      0x60\n        /* \"#utility.yul\":38835:38844   */\n      dup3\n        /* \"#utility.yul\":38831:38849   */\n      add\n        /* \"#utility.yul\":38823:38849   */\n      swap1\n      pop\n        /* \"#utility.yul\":38859:38930   */\n      tag_708\n        /* \"#utility.yul\":38927:38928   */\n      0x00\n        /* \"#utility.yul\":38916:38925   */\n      dup4\n        /* \"#utility.yul\":38912:38929   */\n      add\n        /* \"#utility.yul\":38903:38909   */\n      dup7\n        /* \"#utility.yul\":38859:38930   */\n      tag_296\n      jump\t// in\n    tag_708:\n        /* \"#utility.yul\":38940:39010   */\n      tag_709\n        /* \"#utility.yul\":39006:39008   */\n      0x20\n        /* \"#utility.yul\":38995:39004   */\n      dup4\n        /* \"#utility.yul\":38991:39009   */\n      add\n        /* \"#utility.yul\":38982:38988   */\n      dup6\n        /* \"#utility.yul\":38940:39010   */\n      tag_300\n      jump\t// in\n    tag_709:\n        /* \"#utility.yul\":39020:39090   */\n      tag_710\n        /* \"#utility.yul\":39086:39088   */\n      0x40\n        /* \"#utility.yul\":39075:39084   */\n      dup4\n        /* \"#utility.yul\":39071:39089   */\n      add\n        /* \"#utility.yul\":39062:39068   */\n      dup5\n        /* \"#utility.yul\":39020:39090   */\n      tag_302\n      jump\t// in\n    tag_710:\n        /* \"#utility.yul\":38663:39097   */\n      swap5\n      swap4\n      pop\n      pop\n      pop\n      pop\n      jump\t// out\n        /* \"#utility.yul\":39103:39545   */\n    tag_257:\n        /* \"#utility.yul\":39252:39256   */\n      0x00\n        /* \"#utility.yul\":39290:39292   */\n      0x60\n        /* \"#utility.yul\":39279:39288   */\n      dup3\n        /* \"#utility.yul\":39275:39293   */\n      add\n        /* \"#utility.yul\":39267:39293   */\n      swap1\n      pop\n        /* \"#utility.yul\":39303:39374   */\n      tag_712\n        /* \"#utility.yul\":39371:39372   */\n      0x00\n        /* \"#utility.yul\":39360:39369   */\n      dup4\n        /* \"#utility.yul\":39356:39373   */\n      add\n        /* \"#utility.yul\":39347:39353   */\n      dup7\n        /* \"#utility.yul\":39303:39374   */\n      tag_296\n      jump\t// in\n    tag_712:\n        /* \"#utility.yul\":39384:39456   */\n      tag_713\n        /* \"#utility.yul\":39452:39454   */\n      0x20\n        /* \"#utility.yul\":39441:39450   */\n      dup4\n        /* \"#utility.yul\":39437:39455   */\n      add\n        /* \"#utility.yul\":39428:39434   */\n      dup6\n        /* \"#utility.yul\":39384:39456   */\n      tag_296\n      jump\t// in\n    tag_713:\n        /* \"#utility.yul\":39466:39538   */\n      tag_714\n        /* \"#utility.yul\":39534:39536   */\n      0x40\n        /* \"#utility.yul\":39523:39532   */\n      dup4\n        /* \"#utility.yul\":39519:39537   */\n      add\n        /* \"#utility.yul\":39510:39516   */\n      dup5\n        /* \"#utility.yul\":39466:39538   */\n      tag_289\n      jump\t// in\n    tag_714:\n        /* \"#utility.yul\":39103:39545   */\n      swap5\n      swap4\n      pop\n      pop\n      pop\n      pop\n      jump\t// out\n        /* \"#utility.yul\":39551:39630   */\n    tag_369:\n        /* \"#utility.yul\":39590:39597   */\n      0x00\n        /* \"#utility.yul\":39619:39624   */\n      dup2\n        /* \"#utility.yul\":39608:39624   */\n      swap1\n      pop\n        /* \"#utility.yul\":39551:39630   */\n      swap2\n      swap1\n      pop\n      jump\t// out\n        /* \"#utility.yul\":39636:39793   */\n    tag_370:\n        /* \"#utility.yul\":39741:39786   */\n      tag_717\n        /* \"#utility.yul\":39761:39785   */\n      tag_718\n        /* \"#utility.yul\":39779:39784   */\n      dup3\n        /* \"#utility.yul\":39761:39785   */\n      tag_297\n      jump\t// in\n    tag_718:\n        /* \"#utility.yul\":39741:39786   */\n      tag_369\n      jump\t// in\n    tag_717:\n        /* \"#utility.yul\":39736:39739   */\n      dup3\n        /* \"#utility.yul\":39729:39787   */\n      mstore\n        /* \"#utility.yul\":39636:39793   */\n      pop\n      pop\n      jump\t// out\n        /* \"#utility.yul\":39799:40196   */\n    tag_267:\n        /* \"#utility.yul\":39939:39942   */\n      0x00\n        /* \"#utility.yul\":39954:40029   */\n      tag_720\n        /* \"#utility.yul\":40025:40028   */\n      dup3\n        /* \"#utility.yul\":40016:40022   */\n      dup6\n        /* \"#utility.yul\":39954:40029   */\n      tag_370\n      jump\t// in\n    tag_720:\n        /* \"#utility.yul\":40054:40056   */\n      0x20\n        /* \"#utility.yul\":40049:40052   */\n      dup3\n        /* \"#utility.yul\":40045:40057   */\n      add\n        /* \"#utility.yul\":40038:40057   */\n      swap2\n      pop\n        /* \"#utility.yul\":40067:40142   */\n      tag_721\n        /* \"#utility.yul\":40138:40141   */\n      dup3\n        /* \"#utility.yul\":40129:40135   */\n      dup5\n        /* \"#utility.yul\":40067:40142   */\n      tag_370\n      jump\t// in\n    tag_721:\n        /* \"#utility.yul\":40167:40169   */\n      0x20\n        /* \"#utility.yul\":40162:40165   */\n      dup3\n        /* \"#utility.yul\":40158:40170   */\n      add\n        /* \"#utility.yul\":40151:40170   */\n      swap2\n      pop\n        /* \"#utility.yul\":40187:40190   */\n      dup2\n        /* \"#utility.yul\":40180:40190   */\n      swap1\n      pop\n        /* \"#utility.yul\":39799:40196   */\n      swap4\n      swap3\n      pop\n      pop\n      pop\n      jump\t// out\n        /* \"#utility.yul\":40202:40534   */\n    tag_273:\n        /* \"#utility.yul\":40323:40327   */\n      0x00\n        /* \"#utility.yul\":40361:40363   */\n      0x40\n        /* \"#utility.yul\":40350:40359   */\n      dup3\n        /* \"#utility.yul\":40346:40364   */\n      add\n        /* \"#utility.yul\":40338:40364   */\n      swap1\n      pop\n        /* \"#utility.yul\":40374:40445   */\n      tag_723\n        /* \"#utility.yul\":40442:40443   */\n      0x00\n        /* \"#utility.yul\":40431:40440   */\n      dup4\n        /* \"#utility.yul\":40427:40444   */\n      add\n        /* \"#utility.yul\":40418:40424   */\n      dup6\n        /* \"#utility.yul\":40374:40445   */\n      tag_296\n      jump\t// in\n    tag_723:\n        /* \"#utility.yul\":40455:40527   */\n      tag_724\n        /* \"#utility.yul\":40523:40525   */\n      0x20\n        /* \"#utility.yul\":40512:40521   */\n      dup4\n        /* \"#utility.yul\":40508:40526   */\n      add\n        /* \"#utility.yul\":40499:40505   */\n      dup5\n        /* \"#utility.yul\":40455:40527   */\n      tag_289\n      jump\t// in\n    tag_724:\n        /* \"#utility.yul\":40202:40534   */\n      swap4\n      swap3\n      pop\n      pop\n      pop\n      jump\t// out\n\n    auxdata: 0xa26469706673582212208751caf66aa684b48460a96ad377286f0bdc42164b1e8fcb899f31a32230bea164736f6c634300081e0033\n}\n",
				"bytecode": {
					"linkReferences": {},
					"object": "608060405234801561000f575f5ffd5b506040516134dc3803806134dc833981810160405281019061003191906101d7565b805f73ffffffffffffffffffffffffffffffffffffffff168173ffffffffffffffffffffffffffffffffffffffff16036100a2575f6040517f1e4fbdf70000000000000000000000000000000000000000000000000000000081526004016100999190610211565b60405180910390fd5b6100b1816100b860201b60201c565b505061022a565b5f5f5f9054906101000a900473ffffffffffffffffffffffffffffffffffffffff169050815f5f6101000a81548173ffffffffffffffffffffffffffffffffffffffff021916908373ffffffffffffffffffffffffffffffffffffffff1602179055508173ffffffffffffffffffffffffffffffffffffffff168173ffffffffffffffffffffffffffffffffffffffff167f8be0079c531659141344cd1fd0a4f28419497f9722a3daafe3b4186f6b6457e060405160405180910390a35050565b5f5ffd5b5f73ffffffffffffffffffffffffffffffffffffffff82169050919050565b5f6101a68261017d565b9050919050565b6101b68161019c565b81146101c0575f5ffd5b50565b5f815190506101d1816101ad565b92915050565b5f602082840312156101ec576101eb610179565b5b5f6101f9848285016101c3565b91505092915050565b61020b8161019c565b82525050565b5f6020820190506102245f830184610202565b92915050565b6132a5806102375f395ff3fe608060405234801561000f575f5ffd5b5060043610610109575f3560e01c8063947fdb8b116100a0578063db1698b21161006f578063db1698b2146102d3578063e23e4cab14610304578063f207564e14610334578063f2fde38b14610350578063f8d4a9751461036c57610109565b8063947fdb8b14610263578063ae0b51df1461027f578063b4921afd1461029b578063b756a459146102b757610109565b80636a6d964e116100dc5780636a6d964e146101db578063715018a61461020b5780638c817b6e146102155780638da5cb5b1461024557610109565b80630d0a80b01461010d578063120aa8771461013e5780634768d4ef1461016e5780634b561a16146101a4575b5f5ffd5b61012760048036038101906101229190611f96565b610388565b604051610135929190612001565b60405180910390f35b61015860048036038101906101539190612082565b610557565b60405161016591906120da565b60405180910390f35b610188600480360381019061018391906120f3565b610581565b60405161019b979695949392919061218d565b60405180910390f35b6101be60048036038101906101b991906120f3565b610626565b6040516101d29897969594939291906121fa565b60405180910390f35b6101f560048036038101906101f091906120f3565b6107b5565b6040516102029190612276565b60405180910390f35b6102136107ca565b005b61022f600480360381019061022a9190612082565b6107dd565b60405161023c91906120da565b60405180910390f35b61024d610807565b60405161025a919061228f565b60405180910390f35b61027d60048036038101906102789190611f96565b61082e565b005b61029960048036038101906102949190612309565b6109e6565b005b6102b560048036038101906102b09190612423565b610f60565b005b6102d160048036038101906102cc91906124b9565b6112f6565b005b6102ed60048036038101906102e89190612082565b611498565b6040516102fb929190612509565b60405180910390f35b61031e60048036038101906103199190611f96565b611557565b60405161032b9190612530565b60405180910390f35b61034e600480360381019061034991906120f3565b611584565b005b61036a60048036038101906103659190612549565b611940565b005b610386600480360381019061038191906125c8565b6119c4565b005b5f5f5f60015f8681526020019081526020015f206040518060e00160405290815f82015f9054906101000a900473ffffffffffffffffffffffffffffffffffffffff1673ffffffffffffffffffffffffffffffffffffffff1673ffffffffffffffffffffffffffffffffffffffff1681526020016001820154815260200160028201548152602001600382015f9054906101000a900463ffffffff1663ffffffff1663ffffffff1681526020016003820160049054906101000a90046bffffffffffffffffffffffff166bffffffffffffffffffffffff166bffffffffffffffffffffffff1681526020016003820160109054906101000a900467ffffffffffffffff1667ffffffffffffffff1667ffffffffffffffff1681526020016003820160189054906101000a900460ff161515151581525050905060025f8681526020019081526020015f205f8581526020019081526020015f205f9054906101000a900463ffffffff1692505f8363ffffffff16148061051057505f816060015163ffffffff16145b1561052157825f9250925050610550565b806060015163ffffffff168363ffffffff1682602001516105429190612659565b61054c91906126c7565b9150505b9250929050565b6005602052815f5260405f20602052805f5260405f205f915091509054906101000a900460ff1681565b6001602052805f5260405f205f91509050805f015f9054906101000a900473ffffffffffffffffffffffffffffffffffffffff1690806001015490806002015490806003015f9054906101000a900463ffffffff16908060030160049054906101000a90046bffffffffffffffffffffffff16908060030160109054906101000a900467ffffffffffffffff16908060030160189054906101000a900460ff16905087565b5f5f5f5f5f5f5f5f5f60015f8b81526020019081526020015f206040518060e00160405290815f82015f9054906101000a900473ffffffffffffffffffffffffffffffffffffffff1673ffffffffffffffffffffffffffffffffffffffff1673ffffffffffffffffffffffffffffffffffffffff1681526020016001820154815260200160028201548152602001600382015f9054906101000a900463ffffffff1663ffffffff1663ffffffff1681526020016003820160049054906101000a90046bffffffffffffffffffffffff166bffffffffffffffffffffffff166bffffffffffffffffffffffff1681526020016003820160109054906101000a900467ffffffffffffffff1667ffffffffffffffff1667ffffffffffffffff1681526020016003820160189054906101000a900460ff1615151515815250509050805f015181608001518260a00151836020015160035f8f81526020019081526020015f2054856040015186606001518760c001519850985098509850985098509850985050919395975091939597565b6003602052805f5260405f205f915090505481565b6107d2611bbf565b6107db5f611c46565b565b6004602052815f5260405f20602052805f5260405f205f915091509054906101000a900460ff1681565b5f5f5f9054906101000a900473ffffffffffffffffffffffffffffffffffffffff16905090565b610836611bbf565b5f8111610878576040517f08c379a000000000000000000000000000000000000000000000000000000000815260040161086f90612751565b60405180910390fd5b5f60015f8481526020019081526020015f2090505f73ffffffffffffffffffffffffffffffffffffffff16815f015f9054906101000a900473ffffffffffffffffffffffffffffffffffffffff1673ffffffffffffffffffffffffffffffffffffffff160361091c576040517f08c379a0000000000000000000000000000000000000000000000000000000008152600401610913906127b9565b60405180910390fd5b61096b333084845f015f9054906101000a900473ffffffffffffffffffffffffffffffffffffffff1673ffffffffffffffffffffffffffffffffffffffff16611d07909392919063ffffffff16565b8160035f8581526020019081526020015f205f82825461098b91906127d7565b925050819055503373ffffffffffffffffffffffffffffffffffffffff16837f29bf09e34c9d183e502eb847f68c23c0499d08486d51dd179e34e65cc0973b11846040516109d99190612276565b60405180910390a3505050565b5f60015f8681526020019081526020015f206040518060e00160405290815f82015f9054906101000a900473ffffffffffffffffffffffffffffffffffffffff1673ffffffffffffffffffffffffffffffffffffffff1673ffffffffffffffffffffffffffffffffffffffff1681526020016001820154815260200160028201548152602001600382015f9054906101000a900463ffffffff1663ffffffff1663ffffffff1681526020016003820160049054906101000a90046bffffffffffffffffffffffff166bffffffffffffffffffffffff166bffffffffffffffffffffffff1681526020016003820160109054906101000a900467ffffffffffffffff1667ffffffffffffffff1667ffffffffffffffff1681526020016003820160189054906101000a900460ff16151515158152505090508060c00151610b61576040517f08c379a0000000000000000000000000000000000000000000000000000000008152600401610b5890612854565b60405180910390fd5b60045f8681526020019081526020015f205f3373ffffffffffffffffffffffffffffffffffffffff1673ffffffffffffffffffffffffffffffffffffffff1681526020019081526020015f205f9054906101000a900460ff16610bf9576040517f08c379a0000000000000000000000000000000000000000000000000000000008152600401610bf0906128bc565b60405180910390fd5b60055f8681526020019081526020015f205f3373ffffffffffffffffffffffffffffffffffffffff1673ffffffffffffffffffffffffffffffffffffffff1681526020019081526020015f205f9054906101000a900460ff1615610c92576040517f08c379a0000000000000000000000000000000000000000000000000000000008152600401610c8990612924565b60405180910390fd5b5f3385604051602001610ca69291906129a7565b604051602081830303815290604052805190602001209050610cce8484846040015184611d89565b610d0d576040517f08c379a0000000000000000000000000000000000000000000000000000000008152600401610d0490612a1c565b60405180910390fd5b5f60025f8881526020019081526020015f205f8781526020019081526020015f205f9054906101000a900463ffffffff1690505f8163ffffffff1611610d88576040517f08c379a0000000000000000000000000000000000000000000000000000000008152600401610d7f90612a84565b60405180910390fd5b5f836060015163ffffffff168263ffffffff168560200151610daa9190612659565b610db491906126c7565b90505f8111610df8576040517f08c379a0000000000000000000000000000000000000000000000000000000008152600401610def90612aec565b60405180910390fd5b8060035f8a81526020019081526020015f20541015610e4c576040517f08c379a0000000000000000000000000000000000000000000000000000000008152600401610e4390612b54565b60405180910390fd5b600160055f8a81526020019081526020015f205f3373ffffffffffffffffffffffffffffffffffffffff1673ffffffffffffffffffffffffffffffffffffffff1681526020019081526020015f205f6101000a81548160ff0219169083151502179055508060035f8a81526020019081526020015f205f828254610ed09190612b72565b92505081905550610f053382865f015173ffffffffffffffffffffffffffffffffffffffff16611e3a9092919063ffffffff16565b3373ffffffffffffffffffffffffffffffffffffffff16887fd9cb1e2714d65a111c0f20f060176ad657496bd47a3de04ec7c3d4ca232112ac8984604051610f4e929190612ba5565b60405180910390a35050505050505050565b610f68611bbf565b5f60015f8881526020019081526020015f2090508060030160189054906101000a900460ff1615610fce576040517f08c379a0000000000000000000000000000000000000000000000000000000008152600401610fc590612c16565b60405180910390fd5b5f73ffffffffffffffffffffffffffffffffffffffff16815f015f9054906101000a900473ffffffffffffffffffffffffffffffffffffffff1673ffffffffffffffffffffffffffffffffffffffff160361105e576040517f08c379a0000000000000000000000000000000000000000000000000000000008152600401611055906127b9565b60405180910390fd5b5f5f1b83036110a2576040517f08c379a000000000000000000000000000000000000000000000000000000000815260040161109990612c7e565b60405180910390fd5b5f868690501180156110b957505f8463ffffffff16115b6110f8576040517f08c379a00000000000000000000000000000000000000000000000000000000081526004016110ef90612ce6565b60405180910390fd5b5f5f90505b868690508110156111f5575f87878381811061111c5761111b612d04565b5b90506020020160208101906111319190612d31565b63ffffffff1611611177576040517f08c379a000000000000000000000000000000000000000000000000000000000815260040161116e90612da6565b60405180910390fd5b86868281811061118a57611189612d04565b5b905060200201602081019061119f9190612d31565b60025f8a81526020019081526020015f205f6001846111be91906127d7565b81526020019081526020015f205f6101000a81548163ffffffff021916908363ffffffff16021790555080806001019150506110fd565b5083816003015f6101000a81548163ffffffff021916908363ffffffff1602179055508281600201819055505f60035f8981526020019081526020015f205490505f5f84146112445783611246565b815b90508181111561128b576040517f08c379a000000000000000000000000000000000000000000000000000000000815260040161128290612e0e565b60405180910390fd5b80836001018190555060018360030160186101000a81548160ff021916908315150217905550887f989e5959e7cf49ac99f6adc13bd2ba18d0a7d44c527aabacbd37474b4c803b7782876040516112e3929190612e2c565b60405180910390a2505050505050505050565b6112fe611bbf565b5f73ffffffffffffffffffffffffffffffffffffffff168273ffffffffffffffffffffffffffffffffffffffff160361136c576040517f08c379a000000000000000000000000000000000000000000000000000000000815260040161136390612e9d565b60405180910390fd5b8060035f8581526020019081526020015f205410156113c0576040517f08c379a00000000000000000000000000000000000000000000000000000000081526004016113b790612f05565b60405180910390fd5b8060035f8581526020019081526020015f205f8282546113e09190612b72565b92505081905550611444828260015f8781526020019081526020015f205f015f9054906101000a900473ffffffffffffffffffffffffffffffffffffffff1673ffffffffffffffffffffffffffffffffffffffff16611e3a9092919063ffffffff16565b8173ffffffffffffffffffffffffffffffffffffffff16837f4efe03a0b5ec4a8b41f319c07537b018a7a03b77fac4fef15f9d26d787ef9ebe8360405161148b9190612276565b60405180910390a3505050565b5f5f60045f8581526020019081526020015f205f8473ffffffffffffffffffffffffffffffffffffffff1673ffffffffffffffffffffffffffffffffffffffff1681526020019081526020015f205f9054906101000a900460ff16915060055f8581526020019081526020015f205f8473ffffffffffffffffffffffffffffffffffffffff1673ffffffffffffffffffffffffffffffffffffffff1681526020019081526020015f205f9054906101000a900460ff1690509250929050565b6002602052815f5260405f20602052805f5260405f205f915091509054906101000a900463ffffffff1681565b5f60015f8381526020019081526020015f2090505f73ffffffffffffffffffffffffffffffffffffffff16815f015f9054906101000a900473ffffffffffffffffffffffffffffffffffffffff1673ffffffffffffffffffffffffffffffffffffffff1603611628576040517f08c379a000000000000000000000000000000000000000000000000000000000815260040161161f906127b9565b60405180910390fd5b8060030160189054906101000a900460ff161561167a576040517f08c379a000000000000000000000000000000000000000000000000000000000815260040161167190612f6d565b60405180910390fd5b5f8160030160109054906101000a900467ffffffffffffffff1667ffffffffffffffff1614611709578060030160109054906101000a900467ffffffffffffffff1667ffffffffffffffff16421115611708576040517f08c379a00000000000000000000000000000000000000000000000000000000081526004016116ff90612fd5565b60405180910390fd5b5b60045f8381526020019081526020015f205f3373ffffffffffffffffffffffffffffffffffffffff1673ffffffffffffffffffffffffffffffffffffffff1681526020019081526020015f205f9054906101000a900460ff16156117a2576040517f08c379a00000000000000000000000000000000000000000000000000000000081526004016117999061303d565b60405180910390fd5b5f8160030160049054906101000a90046bffffffffffffffffffffffff166bffffffffffffffffffffffff1690505f8111611812576040517f08c379a0000000000000000000000000000000000000000000000000000000008152600401611809906130a5565b60405180910390fd5b611861333083855f015f9054906101000a900473ffffffffffffffffffffffffffffffffffffffff1673ffffffffffffffffffffffffffffffffffffffff16611d07909392919063ffffffff16565b600160045f8581526020019081526020015f205f3373ffffffffffffffffffffffffffffffffffffffff1673ffffffffffffffffffffffffffffffffffffffff1681526020019081526020015f205f6101000a81548160ff0219169083151502179055508060035f8581526020019081526020015f205f8282546118e591906127d7565b925050819055503373ffffffffffffffffffffffffffffffffffffffff16837f39dd062cc095bf933d83338d8e4591b7eb119264d876f173cacb1cfdf2c9737f836040516119339190612276565b60405180910390a3505050565b611948611bbf565b5f73ffffffffffffffffffffffffffffffffffffffff168173ffffffffffffffffffffffffffffffffffffffff16036119b8575f6040517f1e4fbdf70000000000000000000000000000000000000000000000000000000081526004016119af919061228f565b60405180910390fd5b6119c181611c46565b50565b6119cc611bbf565b5f73ffffffffffffffffffffffffffffffffffffffff168373ffffffffffffffffffffffffffffffffffffffff1603611a3a576040517f08c379a0000000000000000000000000000000000000000000000000000000008152600401611a319061310d565b60405180910390fd5b5f60015f8681526020019081526020015f2090505f73ffffffffffffffffffffffffffffffffffffffff16815f015f9054906101000a900473ffffffffffffffffffffffffffffffffffffffff1673ffffffffffffffffffffffffffffffffffffffff1614611ade576040517f08c379a0000000000000000000000000000000000000000000000000000000008152600401611ad590613175565b60405180910390fd5b83815f015f6101000a81548173ffffffffffffffffffffffffffffffffffffffff021916908373ffffffffffffffffffffffffffffffffffffffff160217905550828160030160046101000a8154816bffffffffffffffffffffffff02191690836bffffffffffffffffffffffff160217905550818160030160106101000a81548167ffffffffffffffff021916908367ffffffffffffffff160217905550847e1627ef342a5eb064df1b284ec91d4632f86a5b909cda3de310f8ffc1143d91858585604051611bb093929190613193565b60405180910390a25050505050565b611bc7611eb9565b73ffffffffffffffffffffffffffffffffffffffff16611be5610807565b73ffffffffffffffffffffffffffffffffffffffff1614611c4457611c08611eb9565b6040517f118cdaa7000000000000000000000000000000000000000000000000000000008152600401611c3b919061228f565b60405180910390fd5b565b5f5f5f9054906101000a900473ffffffffffffffffffffffffffffffffffffffff169050815f5f6101000a81548173ffffffffffffffffffffffffffffffffffffffff021916908373ffffffffffffffffffffffffffffffffffffffff1602179055508173ffffffffffffffffffffffffffffffffffffffff168173ffffffffffffffffffffffffffffffffffffffff167f8be0079c531659141344cd1fd0a4f28419497f9722a3daafe3b4186f6b6457e060405160405180910390a35050565b611d83848573ffffffffffffffffffffffffffffffffffffffff166323b872dd868686604051602401611d3c939291906131c8565b604051602081830303815290604052915060e01b6020820180517bffffffffffffffffffffffffffffffffffffffffffffffffffffffff8381831617835250505050611ec0565b50505050565b5f5f8290505f5f90505b86869050811015611e2b575f878783818110611db257611db1612d04565b5b90506020020135905080831115611df1578083604051602001611dd692919061321d565b60405160208183030381529060405280519060200120611e1b565b8281604051602001611e0492919061321d565b604051602081830303815290604052805190602001205b9250508080600101915050611d93565b50838114915050949350505050565b611eb4838473ffffffffffffffffffffffffffffffffffffffff1663a9059cbb8585604051602401611e6d929190613248565b604051602081830303815290604052915060e01b6020820180517bffffffffffffffffffffffffffffffffffffffffffffffffffffffff8381831617835250505050611ec0565b505050565b5f33905090565b5f5f60205f8451602086015f885af180611edf576040513d5f823e3d81fd5b3d92505f519150505f8214611ef8576001811415611f13565b5f8473ffffffffffffffffffffffffffffffffffffffff163b145b15611f5557836040517f5274afe7000000000000000000000000000000000000000000000000000000008152600401611f4c919061228f565b60405180910390fd5b50505050565b5f5ffd5b5f5ffd5b5f819050919050565b611f7581611f63565b8114611f7f575f5ffd5b50565b5f81359050611f9081611f6c565b92915050565b5f5f60408385031215611fac57611fab611f5b565b5b5f611fb985828601611f82565b9250506020611fca85828601611f82565b9150509250929050565b5f63ffffffff82169050919050565b611fec81611fd4565b82525050565b611ffb81611f63565b82525050565b5f6040820190506120145f830185611fe3565b6120216020830184611ff2565b9392505050565b5f73ffffffffffffffffffffffffffffffffffffffff82169050919050565b5f61205182612028565b9050919050565b61206181612047565b811461206b575f5ffd5b50565b5f8135905061207c81612058565b92915050565b5f5f6040838503121561209857612097611f5b565b5b5f6120a585828601611f82565b92505060206120b68582860161206e565b9150509250929050565b5f8115159050919050565b6120d4816120c0565b82525050565b5f6020820190506120ed5f8301846120cb565b92915050565b5f6020828403121561210857612107611f5b565b5b5f61211584828501611f82565b91505092915050565b61212781612047565b82525050565b5f819050919050565b61213f8161212d565b82525050565b5f6bffffffffffffffffffffffff82169050919050565b61216581612145565b82525050565b5f67ffffffffffffffff82169050919050565b6121878161216b565b82525050565b5f60e0820190506121a05f83018a61211e565b6121ad6020830189611ff2565b6121ba6040830188612136565b6121c76060830187611fe3565b6121d4608083018661215c565b6121e160a083018561217e565b6121ee60c08301846120cb565b98975050505050505050565b5f6101008201905061220e5f83018b61211e565b61221b602083018a61215c565b612228604083018961217e565b6122356060830188611ff2565b6122426080830187611ff2565b61224f60a0830186612136565b61225c60c0830185611fe3565b61226960e08301846120cb565b9998505050505050505050565b5f6020820190506122895f830184611ff2565b92915050565b5f6020820190506122a25f83018461211e565b92915050565b5f5ffd5b5f5ffd5b5f5ffd5b5f5f83601f8401126122c9576122c86122a8565b5b8235905067ffffffffffffffff8111156122e6576122e56122ac565b5b602083019150836020820283011115612302576123016122b0565b5b9250929050565b5f5f5f5f6060858703121561232157612320611f5b565b5b5f61232e87828801611f82565b945050602061233f87828801611f82565b935050604085013567ffffffffffffffff8111156123605761235f611f5f565b5b61236c878288016122b4565b925092505092959194509250565b5f5f83601f84011261238f5761238e6122a8565b5b8235905067ffffffffffffffff8111156123ac576123ab6122ac565b5b6020830191508360208202830111156123c8576123c76122b0565b5b9250929050565b6123d881611fd4565b81146123e2575f5ffd5b50565b5f813590506123f3816123cf565b92915050565b6124028161212d565b811461240c575f5ffd5b50565b5f8135905061241d816123f9565b92915050565b5f5f5f5f5f5f60a0878903121561243d5761243c611f5b565b5b5f61244a89828a01611f82565b965050602087013567ffffffffffffffff81111561246b5761246a611f5f565b5b61247789828a0161237a565b9550955050604061248a89828a016123e5565b935050606061249b89828a0161240f565b92505060806124ac89828a01611f82565b9150509295509295509295565b5f5f5f606084860312156124d0576124cf611f5b565b5b5f6124dd86828701611f82565b93505060206124ee8682870161206e565b92505060406124ff86828701611f82565b9150509250925092565b5f60408201905061251c5f8301856120cb565b61252960208301846120cb565b9392505050565b5f6020820190506125435f830184611fe3565b92915050565b5f6020828403121561255e5761255d611f5b565b5b5f61256b8482850161206e565b91505092915050565b61257d81612145565b8114612587575f5ffd5b50565b5f8135905061259881612574565b92915050565b6125a78161216b565b81146125b1575f5ffd5b50565b5f813590506125c28161259e565b92915050565b5f5f5f5f608085870312156125e0576125df611f5b565b5b5f6125ed87828801611f82565b94505060206125fe8782880161206e565b935050604061260f8782880161258a565b9250506060612620878288016125b4565b91505092959194509250565b7f4e487b71000000000000000000000000000000000000000000000000000000005f52601160045260245ffd5b5f61266382611f63565b915061266e83611f63565b925082820261267c81611f63565b915082820484148315176126935761269261262c565b5b5092915050565b7f4e487b71000000000000000000000000000000000000000000000000000000005f52601260045260245ffd5b5f6126d182611f63565b91506126dc83611f63565b9250826126ec576126eb61269a565b5b828204905092915050565b5f82825260208201905092915050565b7f616d6f756e743d300000000000000000000000000000000000000000000000005f82015250565b5f61273b6008836126f7565b915061274682612707565b602082019050919050565b5f6020820190508181035f8301526127688161272f565b9050919050565b7f6d61746368206e6f7420736574000000000000000000000000000000000000005f82015250565b5f6127a3600d836126f7565b91506127ae8261276f565b602082019050919050565b5f6020820190508181035f8301526127d081612797565b9050919050565b5f6127e182611f63565b91506127ec83611f63565b92508282019050808211156128045761280361262c565b5b92915050565b7f6e6f742066696e616c697a6564000000000000000000000000000000000000005f82015250565b5f61283e600d836126f7565b91506128498261280a565b602082019050919050565b5f6020820190508181035f83015261286b81612832565b9050919050565b7f6e6f7420726567697374657265640000000000000000000000000000000000005f82015250565b5f6128a6600e836126f7565b91506128b182612872565b602082019050919050565b5f6020820190508181035f8301526128d38161289a565b9050919050565b7f636c61696d6564000000000000000000000000000000000000000000000000005f82015250565b5f61290e6007836126f7565b9150612919826128da565b602082019050919050565b5f6020820190508181035f83015261293b81612902565b9050919050565b5f8160601b9050919050565b5f61295882612942565b9050919050565b5f6129698261294e565b9050919050565b61298161297c82612047565b61295f565b82525050565b5f819050919050565b6129a161299c82611f63565b612987565b82525050565b5f6129b28285612970565b6014820191506129c28284612990565b6020820191508190509392505050565b7f6261642070726f6f6600000000000000000000000000000000000000000000005f82015250565b5f612a066009836126f7565b9150612a11826129d2565b602082019050919050565b5f6020820190508181035f830152612a33816129fa565b9050919050565b7f696e76616c69642072616e6b00000000000000000000000000000000000000005f82015250565b5f612a6e600c836126f7565b9150612a7982612a3a565b602082019050919050565b5f6020820190508181035f830152612a9b81612a62565b9050919050565b7f7a65726f207061796f75740000000000000000000000000000000000000000005f82015250565b5f612ad6600b836126f7565b9150612ae182612aa2565b602082019050919050565b5f6020820190508181035f830152612b0381612aca565b9050919050565b7f706f6f6c2073686f7274616765000000000000000000000000000000000000005f82015250565b5f612b3e600d836126f7565b9150612b4982612b0a565b602082019050919050565b5f6020820190508181035f830152612b6b81612b32565b9050919050565b5f612b7c82611f63565b9150612b8783611f63565b9250828203905081811115612b9f57612b9e61262c565b5b92915050565b5f604082019050612bb85f830185611ff2565b612bc56020830184611ff2565b9392505050565b7f616c72656164792066696e616c697a65640000000000000000000000000000005f82015250565b5f612c006011836126f7565b9150612c0b82612bcc565b602082019050919050565b5f6020820190508181035f830152612c2d81612bf4565b9050919050565b7f726f6f743d3000000000000000000000000000000000000000000000000000005f82015250565b5f612c686006836126f7565b9150612c7382612c34565b602082019050919050565b5f6020820190508181035f830152612c9581612c5c565b9050919050565b7f62616420736861726573000000000000000000000000000000000000000000005f82015250565b5f612cd0600a836126f7565b9150612cdb82612c9c565b602082019050919050565b5f6020820190508181035f830152612cfd81612cc4565b9050919050565b7f4e487b71000000000000000000000000000000000000000000000000000000005f52603260045260245ffd5b5f60208284031215612d4657612d45611f5b565b5b5f612d53848285016123e5565b91505092915050565b7f7a65726f207368617265000000000000000000000000000000000000000000005f82015250565b5f612d90600a836126f7565b9150612d9b82612d5c565b602082019050919050565b5f6020820190508181035f830152612dbd81612d84565b9050919050565b7f6669786564506f6f6c203e20706f6f6c42616c616e63650000000000000000005f82015250565b5f612df86017836126f7565b9150612e0382612dc4565b602082019050919050565b5f6020820190508181035f830152612e2581612dec565b9050919050565b5f604082019050612e3f5f830185611ff2565b612e4c6020830184612136565b9392505050565b7f746f3d30000000000000000000000000000000000000000000000000000000005f82015250565b5f612e876004836126f7565b9150612e9282612e53565b602082019050919050565b5f6020820190508181035f830152612eb481612e7b565b9050919050565b7f696e73756666696369656e7400000000000000000000000000000000000000005f82015250565b5f612eef600c836126f7565b9150612efa82612ebb565b602082019050919050565b5f6020820190508181035f830152612f1c81612ee3565b9050919050565b7f66696e616c697a656400000000000000000000000000000000000000000000005f82015250565b5f612f576009836126f7565b9150612f6282612f23565b602082019050919050565b5f6020820190508181035f830152612f8481612f4b565b9050919050565b7f726567697374726174696f6e20636c6f736564000000000000000000000000005f82015250565b5f612fbf6013836126f7565b9150612fca82612f8b565b602082019050919050565b5f6020820190508181035f830152612fec81612fb3565b9050919050565b7f616c7265616479207265676973746572656400000000000000000000000000005f82015250565b5f6130276012836126f7565b915061303282612ff3565b602082019050919050565b5f6020820190508181035f8301526130548161301b565b9050919050565b7f656e747279206665653d300000000000000000000000000000000000000000005f82015250565b5f61308f600b836126f7565b915061309a8261305b565b602082019050919050565b5f6020820190508181035f8301526130bc81613083565b9050919050565b7f746f6b656e3d30000000000000000000000000000000000000000000000000005f82015250565b5f6130f76007836126f7565b9150613102826130c3565b602082019050919050565b5f6020820190508181035f830152613124816130eb565b9050919050565b7f65786973747300000000000000000000000000000000000000000000000000005f82015250565b5f61315f6006836126f7565b915061316a8261312b565b602082019050919050565b5f6020820190508181035f83015261318c81613153565b9050919050565b5f6060820190506131a65f83018661211e565b6131b3602083018561215c565b6131c0604083018461217e565b949350505050565b5f6060820190506131db5f83018661211e565b6131e8602083018561211e565b6131f56040830184611ff2565b949350505050565b5f819050919050565b6132176132128261212d565b6131fd565b82525050565b5f6132288285613206565b6020820191506132388284613206565b6020820191508190509392505050565b5f60408201905061325b5f83018561211e565b6132686020830184611ff2565b939250505056fea26469706673582212208751caf66aa684b48460a96ad377286f0bdc42164b1e8fcb899f31a32230bea164736f6c634300081e0033",
					"opcodes": "PUSH1 0x80 PUSH1 0x40 MSTORE CALLVALUE DUP1 ISZERO PUSH2 0xF JUMPI PUSH0 PUSH0 REVERT JUMPDEST POP PUSH1 0x40 MLOAD PUSH2 0x34DC CODESIZE SUB DUP1 PUSH2 0x34DC DUP4 CODECOPY DUP2 DUP2 ADD PUSH1 0x40 MSTORE DUP2 ADD SWAP1 PUSH2 0x31 SWAP2 SWAP1 PUSH2 0x1D7 JUMP JUMPDEST DUP1 PUSH0 PUSH20 0xFFFFFFFFFFFFFFFFFFFFFFFFFFFFFFFFFFFFFFFF AND DUP2 PUSH20 0xFFFFFFFFFFFFFFFFFFFFFFFFFFFFFFFFFFFFFFFF AND SUB PUSH2 0xA2 JUMPI PUSH0 PUSH1 0x40 MLOAD PUSH32 0x1E4FBDF700000000000000000000000000000000000000000000000000000000 DUP2 MSTORE PUSH1 0x4 ADD PUSH2 0x99 SWAP2 SWAP1 PUSH2 0x211 JUMP JUMPDEST PUSH1 0x40 MLOAD DUP1 SWAP2 SUB SWAP1 REVERT JUMPDEST PUSH2 0xB1 DUP2 PUSH2 0xB8 PUSH1 0x20 SHL PUSH1 0x20 SHR JUMP JUMPDEST POP POP PUSH2 0x22A JUMP JUMPDEST PUSH0 PUSH0 PUSH0 SWAP1 SLOAD SWAP1 PUSH2 0x100 EXP SWAP1 DIV PUSH20 0xFFFFFFFFFFFFFFFFFFFFFFFFFFFFFFFFFFFFFFFF AND SWAP1 POP DUP2 PUSH0 PUSH0 PUSH2 0x100 EXP DUP2 SLOAD DUP2 PUSH20 0xFFFFFFFFFFFFFFFFFFFFFFFFFFFFFFFFFFFFFFFF MUL NOT AND SWAP1 DUP4 PUSH20 0xFFFFFFFFFFFFFFFFFFFFFFFFFFFFFFFFFFFFFFFF AND MUL OR SWAP1 SSTORE POP DUP2 PUSH20 0xFFFFFFFFFFFFFFFFFFFFFFFFFFFFFFFFFFFFFFFF AND DUP2 PUSH20 0xFFFFFFFFFFFFFFFFFFFFFFFFFFFFFFFFFFFFFFFF AND PUSH32 0x8BE0079C531659141344CD1FD0A4F28419497F9722A3DAAFE3B4186F6B6457E0 PUSH1 0x40 MLOAD PUSH1 0x40 MLOAD DUP1 SWAP2 SUB SWAP1 LOG3 POP POP JUMP JUMPDEST PUSH0 PUSH0 REVERT JUMPDEST PUSH0 PUSH20 0xFFFFFFFFFFFFFFFFFFFFFFFFFFFFFFFFFFFFFFFF DUP3 AND SWAP1 POP SWAP2 SWAP1 POP JUMP JUMPDEST PUSH0 PUSH2 0x1A6 DUP3 PUSH2 0x17D JUMP JUMPDEST SWAP1 POP SWAP2 SWAP1 POP JUMP JUMPDEST PUSH2 0x1B6 DUP2 PUSH2 0x19C JUMP JUMPDEST DUP2 EQ PUSH2 0x1C0 JUMPI PUSH0 PUSH0 REVERT JUMPDEST POP JUMP JUMPDEST PUSH0 DUP2 MLOAD SWAP1 POP PUSH2 0x1D1 DUP2 PUSH2 0x1AD JUMP JUMPDEST SWAP3 SWAP2 POP POP JUMP JUMPDEST PUSH0 PUSH1 0x20 DUP3 DUP5 SUB SLT ISZERO PUSH2 0x1EC JUMPI PUSH2 0x1EB PUSH2 0x179 JUMP JUMPDEST JUMPDEST PUSH0 PUSH2 0x1F9 DUP5 DUP3 DUP6 ADD PUSH2 0x1C3 JUMP JUMPDEST SWAP2 POP POP SWAP3 SWAP2 POP POP JUMP JUMPDEST PUSH2 0x20B DUP2 PUSH2 0x19C JUMP JUMPDEST DUP3 MSTORE POP POP JUMP JUMPDEST PUSH0 PUSH1 0x20 DUP3 ADD SWAP1 POP PUSH2 0x224 PUSH0 DUP4 ADD DUP5 PUSH2 0x202 JUMP JUMPDEST SWAP3 SWAP2 POP POP JUMP JUMPDEST PUSH2 0x32A5 DUP1 PUSH2 0x237 PUSH0 CODECOPY PUSH0 RETURN INVALID PUSH1 0x80 PUSH1 0x40 MSTORE CALLVALUE DUP1 ISZERO PUSH2 0xF JUMPI PUSH0 PUSH0 REVERT JUMPDEST POP PUSH1 0x4 CALLDATASIZE LT PUSH2 0x109 JUMPI PUSH0 CALLDATALOAD PUSH1 0xE0 SHR DUP1 PUSH4 0x947FDB8B GT PUSH2 0xA0 JUMPI DUP1 PUSH4 0xDB1698B2 GT PUSH2 0x6F JUMPI DUP1 PUSH4 0xDB1698B2 EQ PUSH2 0x2D3 JUMPI DUP1 PUSH4 0xE23E4CAB EQ PUSH2 0x304 JUMPI DUP1 PUSH4 0xF207564E EQ PUSH2 0x334 JUMPI DUP1 PUSH4 0xF2FDE38B EQ PUSH2 0x350 JUMPI DUP1 PUSH4 0xF8D4A975 EQ PUSH2 0x36C JUMPI PUSH2 0x109 JUMP JUMPDEST DUP1 PUSH4 0x947FDB8B EQ PUSH2 0x263 JUMPI DUP1 PUSH4 0xAE0B51DF EQ PUSH2 0x27F JUMPI DUP1 PUSH4 0xB4921AFD EQ PUSH2 0x29B JUMPI DUP1 PUSH4 0xB756A459 EQ PUSH2 0x2B7 JUMPI PUSH2 0x109 JUMP JUMPDEST DUP1 PUSH4 0x6A6D964E GT PUSH2 0xDC JUMPI DUP1 PUSH4 0x6A6D964E EQ PUSH2 0x1DB JUMPI DUP1 PUSH4 0x715018A6 EQ PUSH2 0x20B JUMPI DUP1 PUSH4 0x8C817B6E EQ PUSH2 0x215 JUMPI DUP1 PUSH4 0x8DA5CB5B EQ PUSH2 0x245 JUMPI PUSH2 0x109 JUMP JUMPDEST DUP1 PUSH4 0xD0A80B0 EQ PUSH2 0x10D JUMPI DUP1 PUSH4 0x120AA877 EQ PUSH2 0x13E JUMPI DUP1 PUSH4 0x4768D4EF EQ PUSH2 0x16E JUMPI DUP1 PUSH4 0x4B561A16 EQ PUSH2 0x1A4 JUMPI JUMPDEST PUSH0 PUSH0 REVERT JUMPDEST PUSH2 0x127 PUSH1 0x4 DUP1 CALLDATASIZE SUB DUP2 ADD SWAP1 PUSH2 0x122 SWAP2 SWAP1 PUSH2 0x1F96 JUMP JUMPDEST PUSH2 0x388 JUMP JUMPDEST PUSH1 0x40 MLOAD PUSH2 0x135 SWAP3 SWAP2 SWAP1 PUSH2 0x2001 JUMP JUMPDEST PUSH1 0x40 MLOAD DUP1 SWAP2 SUB SWAP1 RETURN JUMPDEST PUSH2 0x158 PUSH1 0x4 DUP1 CALLDATASIZE SUB DUP2 ADD SWAP1 PUSH2 0x153 SWAP2 SWAP1 PUSH2 0x2082 JUMP JUMPDEST PUSH2 0x557 JUMP JUMPDEST PUSH1 0x40 MLOAD PUSH2 0x165 SWAP2 SWAP1 PUSH2 0x20DA JUMP JUMPDEST PUSH1 0x40 MLOAD DUP1 SWAP2 SUB SWAP1 RETURN JUMPDEST PUSH2 0x188 PUSH1 0x4 DUP1 CALLDATASIZE SUB DUP2 ADD SWAP1 PUSH2 0x183 SWAP2 SWAP1 PUSH2 0x20F3 JUMP JUMPDEST PUSH2 0x581 JUMP JUMPDEST PUSH1 0x40 MLOAD PUSH2 0x19B SWAP8 SWAP7 SWAP6 SWAP5 SWAP4 SWAP3 SWAP2 SWAP1 PUSH2 0x218D JUMP JUMPDEST PUSH1 0x40 MLOAD DUP1 SWAP2 SUB SWAP1 RETURN JUMPDEST PUSH2 0x1BE PUSH1 0x4 DUP1 CALLDATASIZE SUB DUP2 ADD SWAP1 PUSH2 0x1B9 SWAP2 SWAP1 PUSH2 0x20F3 JUMP JUMPDEST PUSH2 0x626 JUMP JUMPDEST PUSH1 0x40 MLOAD PUSH2 0x1D2 SWAP9 SWAP8 SWAP7 SWAP6 SWAP5 SWAP4 SWAP3 SWAP2 SWAP1 PUSH2 0x21FA JUMP JUMPDEST PUSH1 0x40 MLOAD DUP1 SWAP2 SUB SWAP1 RETURN JUMPDEST PUSH2 0x1F5 PUSH1 0x4 DUP1 CALLDATASIZE SUB DUP2 ADD SWAP1 PUSH2 0x1F0 SWAP2 SWAP1 PUSH2 0x20F3 JUMP JUMPDEST PUSH2 0x7B5 JUMP JUMPDEST PUSH1 0x40 MLOAD PUSH2 0x202 SWAP2 SWAP1 PUSH2 0x2276 JUMP JUMPDEST PUSH1 0x40 MLOAD DUP1 SWAP2 SUB SWAP1 RETURN JUMPDEST PUSH2 0x213 PUSH2 0x7CA JUMP JUMPDEST STOP JUMPDEST PUSH2 0x22F PUSH1 0x4 DUP1 CALLDATASIZE SUB DUP2 ADD SWAP1 PUSH2 0x22A SWAP2 SWAP1 PUSH2 0x2082 JUMP JUMPDEST PUSH2 0x7DD JUMP JUMPDEST PUSH1 0x40 MLOAD PUSH2 0x23C SWAP2 SWAP1 PUSH2 0x20DA JUMP JUMPDEST PUSH1 0x40 MLOAD DUP1 SWAP2 SUB SWAP1 RETURN JUMPDEST PUSH2 0x24D PUSH2 0x807 JUMP JUMPDEST PUSH1 0x40 MLOAD PUSH2 0x25A SWAP2 SWAP1 PUSH2 0x228F JUMP JUMPDEST PUSH1 0x40 MLOAD DUP1 SWAP2 SUB SWAP1 RETURN JUMPDEST PUSH2 0x27D PUSH1 0x4 DUP1 CALLDATASIZE SUB DUP2 ADD SWAP1 PUSH2 0x278 SWAP2 SWAP1 PUSH2 0x1F96 JUMP JUMPDEST PUSH2 0x82E JUMP JUMPDEST STOP JUMPDEST PUSH2 0x299 PUSH1 0x4 DUP1 CALLDATASIZE SUB DUP2 ADD SWAP1 PUSH2 0x294 SWAP2 SWAP1 PUSH2 0x2309 JUMP JUMPDEST PUSH2 0x9E6 JUMP JUMPDEST STOP JUMPDEST PUSH2 0x2B5 PUSH1 0x4 DUP1 CALLDATASIZE SUB DUP2 ADD SWAP1 PUSH2 0x2B0 SWAP2 SWAP1 PUSH2 0x2423 JUMP JUMPDEST PUSH2 0xF60 JUMP JUMPDEST STOP JUMPDEST PUSH2 0x2D1 PUSH1 0x4 DUP1 CALLDATASIZE SUB DUP2 ADD SWAP1 PUSH2 0x2CC SWAP2 SWAP1 PUSH2 0x24B9 JUMP JUMPDEST PUSH2 0x12F6 JUMP JUMPDEST STOP JUMPDEST PUSH2 0x2ED PUSH1 0x4 DUP1 CALLDATASIZE SUB DUP2 ADD SWAP1 PUSH2 0x2E8 SWAP2 SWAP1 PUSH2 0x2082 JUMP JUMPDEST PUSH2 0x1498 JUMP JUMPDEST PUSH1 0x40 MLOAD PUSH2 0x2FB SWAP3 SWAP2 SWAP1 PUSH2 0x2509 JUMP JUMPDEST PUSH1 0x40 MLOAD DUP1 SWAP2 SUB SWAP1 RETURN JUMPDEST PUSH2 0x31E PUSH1 0x4 DUP1 CALLDATASIZE SUB DUP2 ADD SWAP1 PUSH2 0x319 SWAP2 SWAP1 PUSH2 0x1F96 JUMP JUMPDEST PUSH2 0x1557 JUMP JUMPDEST PUSH1 0x40 MLOAD PUSH2 0x32B SWAP2 SWAP1 PUSH2 0x2530 JUMP JUMPDEST PUSH1 0x40 MLOAD DUP1 SWAP2 SUB SWAP1 RETURN JUMPDEST PUSH2 0x34E PUSH1 0x4 DUP1 CALLDATASIZE SUB DUP2 ADD SWAP1 PUSH2 0x349 SWAP2 SWAP1 PUSH2 0x20F3 JUMP JUMPDEST PUSH2 0x1584 JUMP JUMPDEST STOP JUMPDEST PUSH2 0x36A PUSH1 0x4 DUP1 CALLDATASIZE SUB DUP2 ADD SWAP1 PUSH2 0x365 SWAP2 SWAP1 PUSH2 0x2549 JUMP JUMPDEST PUSH2 0x1940 JUMP JUMPDEST STOP JUMPDEST PUSH2 0x386 PUSH1 0x4 DUP1 CALLDATASIZE SUB DUP2 ADD SWAP1 PUSH2 0x381 SWAP2 SWAP1 PUSH2 0x25C8 JUMP JUMPDEST PUSH2 0x19C4 JUMP JUMPDEST STOP JUMPDEST PUSH0 PUSH0 PUSH0 PUSH1 0x1 PUSH0 DUP7 DUP2 MSTORE PUSH1 0x20 ADD SWAP1 DUP2 MSTORE PUSH1 0x20 ADD PUSH0 KECCAK256 PUSH1 0x40 MLOAD DUP1 PUSH1 0xE0 ADD PUSH1 0x40 MSTORE SWAP1 DUP2 PUSH0 DUP3 ADD PUSH0 SWAP1 SLOAD SWAP1 PUSH2 0x100 EXP SWAP1 DIV PUSH20 0xFFFFFFFFFFFFFFFFFFFFFFFFFFFFFFFFFFFFFFFF AND PUSH20 0xFFFFFFFFFFFFFFFFFFFFFFFFFFFFFFFFFFFFFFFF AND PUSH20 0xFFFFFFFFFFFFFFFFFFFFFFFFFFFFFFFFFFFFFFFF AND DUP2 MSTORE PUSH1 0x20 ADD PUSH1 0x1 DUP3 ADD SLOAD DUP2 MSTORE PUSH1 0x20 ADD PUSH1 0x2 DUP3 ADD SLOAD DUP2 MSTORE PUSH1 0x20 ADD PUSH1 0x3 DUP3 ADD PUSH0 SWAP1 SLOAD SWAP1 PUSH2 0x100 EXP SWAP1 DIV PUSH4 0xFFFFFFFF AND PUSH4 0xFFFFFFFF AND PUSH4 0xFFFFFFFF AND DUP2 MSTORE PUSH1 0x20 ADD PUSH1 0x3 DUP3 ADD PUSH1 0x4 SWAP1 SLOAD SWAP1 PUSH2 0x100 EXP SWAP1 DIV PUSH12 0xFFFFFFFFFFFFFFFFFFFFFFFF AND PUSH12 0xFFFFFFFFFFFFFFFFFFFFFFFF AND PUSH12 0xFFFFFFFFFFFFFFFFFFFFFFFF AND DUP2 MSTORE PUSH1 0x20 ADD PUSH1 0x3 DUP3 ADD PUSH1 0x10 SWAP1 SLOAD SWAP1 PUSH2 0x100 EXP SWAP1 DIV PUSH8 0xFFFFFFFFFFFFFFFF AND PUSH8 0xFFFFFFFFFFFFFFFF AND PUSH8 0xFFFFFFFFFFFFFFFF AND DUP2 MSTORE PUSH1 0x20 ADD PUSH1 0x3 DUP3 ADD PUSH1 0x18 SWAP1 SLOAD SWAP1 PUSH2 0x100 EXP SWAP1 DIV PUSH1 0xFF AND ISZERO ISZERO ISZERO ISZERO DUP2 MSTORE POP POP SWAP1 POP PUSH1 0x2 PUSH0 DUP7 DUP2 MSTORE PUSH1 0x20 ADD SWAP1 DUP2 MSTORE PUSH1 0x20 ADD PUSH0 KECCAK256 PUSH0 DUP6 DUP2 MSTORE PUSH1 0x20 ADD SWAP1 DUP2 MSTORE PUSH1 0x20 ADD PUSH0 KECCAK256 PUSH0 SWAP1 SLOAD SWAP1 PUSH2 0x100 EXP SWAP1 DIV PUSH4 0xFFFFFFFF AND SWAP3 POP PUSH0 DUP4 PUSH4 0xFFFFFFFF AND EQ DUP1 PUSH2 0x510 JUMPI POP PUSH0 DUP2 PUSH1 0x60 ADD MLOAD PUSH4 0xFFFFFFFF AND EQ JUMPDEST ISZERO PUSH2 0x521 JUMPI DUP3 PUSH0 SWAP3 POP SWAP3 POP POP PUSH2 0x550 JUMP JUMPDEST DUP1 PUSH1 0x60 ADD MLOAD PUSH4 0xFFFFFFFF AND DUP4 PUSH4 0xFFFFFFFF AND DUP3 PUSH1 0x20 ADD MLOAD PUSH2 0x542 SWAP2 SWAP1 PUSH2 0x2659 JUMP JUMPDEST PUSH2 0x54C SWAP2 SWAP1 PUSH2 0x26C7 JUMP JUMPDEST SWAP2 POP POP JUMPDEST SWAP3 POP SWAP3 SWAP1 POP JUMP JUMPDEST PUSH1 0x5 PUSH1 0x20 MSTORE DUP2 PUSH0 MSTORE PUSH1 0x40 PUSH0 KECCAK256 PUSH1 0x20 MSTORE DUP1 PUSH0 MSTORE PUSH1 0x40 PUSH0 KECCAK256 PUSH0 SWAP2 POP SWAP2 POP SWAP1 SLOAD SWAP1 PUSH2 0x100 EXP SWAP1 DIV PUSH1 0xFF AND DUP2 JUMP JUMPDEST PUSH1 0x1 PUSH1 0x20 MSTORE DUP1 PUSH0 MSTORE PUSH1 0x40 PUSH0 KECCAK256 PUSH0 SWAP2 POP SWAP1 POP DUP1 PUSH0 ADD PUSH0 SWAP1 SLOAD SWAP1 PUSH2 0x100 EXP SWAP1 DIV PUSH20 0xFFFFFFFFFFFFFFFFFFFFFFFFFFFFFFFFFFFFFFFF AND SWAP1 DUP1 PUSH1 0x1 ADD SLOAD SWAP1 DUP1 PUSH1 0x2 ADD SLOAD SWAP1 DUP1 PUSH1 0x3 ADD PUSH0 SWAP1 SLOAD SWAP1 PUSH2 0x100 EXP SWAP1 DIV PUSH4 0xFFFFFFFF AND SWAP1 DUP1 PUSH1 0x3 ADD PUSH1 0x4 SWAP1 SLOAD SWAP1 PUSH2 0x100 EXP SWAP1 DIV PUSH12 0xFFFFFFFFFFFFFFFFFFFFFFFF AND SWAP1 DUP1 PUSH1 0x3 ADD PUSH1 0x10 SWAP1 SLOAD SWAP1 PUSH2 0x100 EXP SWAP1 DIV PUSH8 0xFFFFFFFFFFFFFFFF AND SWAP1 DUP1 PUSH1 0x3 ADD PUSH1 0x18 SWAP1 SLOAD SWAP1 PUSH2 0x100 EXP SWAP1 DIV PUSH1 0xFF AND SWAP1 POP DUP8 JUMP JUMPDEST PUSH0 PUSH0 PUSH0 PUSH0 PUSH0 PUSH0 PUSH0 PUSH0 PUSH0 PUSH1 0x1 PUSH0 DUP12 DUP2 MSTORE PUSH1 0x20 ADD SWAP1 DUP2 MSTORE PUSH1 0x20 ADD PUSH0 KECCAK256 PUSH1 0x40 MLOAD DUP1 PUSH1 0xE0 ADD PUSH1 0x40 MSTORE SWAP1 DUP2 PUSH0 DUP3 ADD PUSH0 SWAP1 SLOAD SWAP1 PUSH2 0x100 EXP SWAP1 DIV PUSH20 0xFFFFFFFFFFFFFFFFFFFFFFFFFFFFFFFFFFFFFFFF AND PUSH20 0xFFFFFFFFFFFFFFFFFFFFFFFFFFFFFFFFFFFFFFFF AND PUSH20 0xFFFFFFFFFFFFFFFFFFFFFFFFFFFFFFFFFFFFFFFF AND DUP2 MSTORE PUSH1 0x20 ADD PUSH1 0x1 DUP3 ADD SLOAD DUP2 MSTORE PUSH1 0x20 ADD PUSH1 0x2 DUP3 ADD SLOAD DUP2 MSTORE PUSH1 0x20 ADD PUSH1 0x3 DUP3 ADD PUSH0 SWAP1 SLOAD SWAP1 PUSH2 0x100 EXP SWAP1 DIV PUSH4 0xFFFFFFFF AND PUSH4 0xFFFFFFFF AND PUSH4 0xFFFFFFFF AND DUP2 MSTORE PUSH1 0x20 ADD PUSH1 0x3 DUP3 ADD PUSH1 0x4 SWAP1 SLOAD SWAP1 PUSH2 0x100 EXP SWAP1 DIV PUSH12 0xFFFFFFFFFFFFFFFFFFFFFFFF AND PUSH12 0xFFFFFFFFFFFFFFFFFFFFFFFF AND PUSH12 0xFFFFFFFFFFFFFFFFFFFFFFFF AND DUP2 MSTORE PUSH1 0x20 ADD PUSH1 0x3 DUP3 ADD PUSH1 0x10 SWAP1 SLOAD SWAP1 PUSH2 0x100 EXP SWAP1 DIV PUSH8 0xFFFFFFFFFFFFFFFF AND PUSH8 0xFFFFFFFFFFFFFFFF AND PUSH8 0xFFFFFFFFFFFFFFFF AND DUP2 MSTORE PUSH1 0x20 ADD PUSH1 0x3 DUP3 ADD PUSH1 0x18 SWAP1 SLOAD SWAP1 PUSH2 0x100 EXP SWAP1 DIV PUSH1 0xFF AND ISZERO ISZERO ISZERO ISZERO DUP2 MSTORE POP POP SWAP1 POP DUP1 PUSH0 ADD MLOAD DUP2 PUSH1 0x80 ADD MLOAD DUP3 PUSH1 0xA0 ADD MLOAD DUP4 PUSH1 0x20 ADD MLOAD PUSH1 0x3 PUSH0 DUP16 DUP2 MSTORE PUSH1 0x20 ADD SWAP1 DUP2 MSTORE PUSH1 0x20 ADD PUSH0 KECCAK256 SLOAD DUP6 PUSH1 0x40 ADD MLOAD DUP7 PUSH1 0x60 ADD MLOAD DUP8 PUSH1 0xC0 ADD MLOAD SWAP9 POP SWAP9 POP SWAP9 POP SWAP9 POP SWAP9 POP SWAP9 POP SWAP9 POP SWAP9 POP POP SWAP2 SWAP4 SWAP6 SWAP8 POP SWAP2 SWAP4 SWAP6 SWAP8 JUMP JUMPDEST PUSH1 0x3 PUSH1 0x20 MSTORE DUP1 PUSH0 MSTORE PUSH1 0x40 PUSH0 KECCAK256 PUSH0 SWAP2 POP SWAP1 POP SLOAD DUP2 JUMP JUMPDEST PUSH2 0x7D2 PUSH2 0x1BBF JUMP JUMPDEST PUSH2 0x7DB PUSH0 PUSH2 0x1C46 JUMP JUMPDEST JUMP JUMPDEST PUSH1 0x4 PUSH1 0x20 MSTORE DUP2 PUSH0 MSTORE PUSH1 0x40 PUSH0 KECCAK256 PUSH1 0x20 MSTORE DUP1 PUSH0 MSTORE PUSH1 0x40 PUSH0 KECCAK256 PUSH0 SWAP2 POP SWAP2 POP SWAP1 SLOAD SWAP1 PUSH2 0x100 EXP SWAP1 DIV PUSH1 0xFF AND DUP2 JUMP JUMPDEST PUSH0 PUSH0 PUSH0 SWAP1 SLOAD SWAP1 PUSH2 0x100 EXP SWAP1 DIV PUSH20 0xFFFFFFFFFFFFFFFFFFFFFFFFFFFFFFFFFFFFFFFF AND SWAP1 POP SWAP1 JUMP JUMPDEST PUSH2 0x836 PUSH2 0x1BBF JUMP JUMPDEST PUSH0 DUP2 GT PUSH2 0x878 JUMPI PUSH1 0x40 MLOAD PUSH32 0x8C379A000000000000000000000000000000000000000000000000000000000 DUP2 MSTORE PUSH1 0x4 ADD PUSH2 0x86F SWAP1 PUSH2 0x2751 JUMP JUMPDEST PUSH1 0x40 MLOAD DUP1 SWAP2 SUB SWAP1 REVERT JUMPDEST PUSH0 PUSH1 0x1 PUSH0 DUP5 DUP2 MSTORE PUSH1 0x20 ADD SWAP1 DUP2 MSTORE PUSH1 0x20 ADD PUSH0 KECCAK256 SWAP1 POP PUSH0 PUSH20 0xFFFFFFFFFFFFFFFFFFFFFFFFFFFFFFFFFFFFFFFF AND DUP2 PUSH0 ADD PUSH0 SWAP1 SLOAD SWAP1 PUSH2 0x100 EXP SWAP1 DIV PUSH20 0xFFFFFFFFFFFFFFFFFFFFFFFFFFFFFFFFFFFFFFFF AND PUSH20 0xFFFFFFFFFFFFFFFFFFFFFFFFFFFFFFFFFFFFFFFF AND SUB PUSH2 0x91C JUMPI PUSH1 0x40 MLOAD PUSH32 0x8C379A000000000000000000000000000000000000000000000000000000000 DUP2 MSTORE PUSH1 0x4 ADD PUSH2 0x913 SWAP1 PUSH2 0x27B9 JUMP JUMPDEST PUSH1 0x40 MLOAD DUP1 SWAP2 SUB SWAP1 REVERT JUMPDEST PUSH2 0x96B CALLER ADDRESS DUP5 DUP5 PUSH0 ADD PUSH0 SWAP1 SLOAD SWAP1 PUSH2 0x100 EXP SWAP1 DIV PUSH20 0xFFFFFFFFFFFFFFFFFFFFFFFFFFFFFFFFFFFFFFFF AND PUSH20 0xFFFFFFFFFFFFFFFFFFFFFFFFFFFFFFFFFFFFFFFF AND PUSH2 0x1D07 SWAP1 SWAP4 SWAP3 SWAP2 SWAP1 PUSH4 0xFFFFFFFF AND JUMP JUMPDEST DUP2 PUSH1 0x3 PUSH0 DUP6 DUP2 MSTORE PUSH1 0x20 ADD SWAP1 DUP2 MSTORE PUSH1 0x20 ADD PUSH0 KECCAK256 PUSH0 DUP3 DUP3 SLOAD PUSH2 0x98B SWAP2 SWAP1 PUSH2 0x27D7 JUMP JUMPDEST SWAP3 POP POP DUP2 SWAP1 SSTORE POP CALLER PUSH20 0xFFFFFFFFFFFFFFFFFFFFFFFFFFFFFFFFFFFFFFFF AND DUP4 PUSH32 0x29BF09E34C9D183E502EB847F68C23C0499D08486D51DD179E34E65CC0973B11 DUP5 PUSH1 0x40 MLOAD PUSH2 0x9D9 SWAP2 SWAP1 PUSH2 0x2276 JUMP JUMPDEST PUSH1 0x40 MLOAD DUP1 SWAP2 SUB SWAP1 LOG3 POP POP POP JUMP JUMPDEST PUSH0 PUSH1 0x1 PUSH0 DUP7 DUP2 MSTORE PUSH1 0x20 ADD SWAP1 DUP2 MSTORE PUSH1 0x20 ADD PUSH0 KECCAK256 PUSH1 0x40 MLOAD DUP1 PUSH1 0xE0 ADD PUSH1 0x40 MSTORE SWAP1 DUP2 PUSH0 DUP3 ADD PUSH0 SWAP1 SLOAD SWAP1 PUSH2 0x100 EXP SWAP1 DIV PUSH20 0xFFFFFFFFFFFFFFFFFFFFFFFFFFFFFFFFFFFFFFFF AND PUSH20 0xFFFFFFFFFFFFFFFFFFFFFFFFFFFFFFFFFFFFFFFF AND PUSH20 0xFFFFFFFFFFFFFFFFFFFFFFFFFFFFFFFFFFFFFFFF AND DUP2 MSTORE PUSH1 0x20 ADD PUSH1 0x1 DUP3 ADD SLOAD DUP2 MSTORE PUSH1 0x20 ADD PUSH1 0x2 DUP3 ADD SLOAD DUP2 MSTORE PUSH1 0x20 ADD PUSH1 0x3 DUP3 ADD PUSH0 SWAP1 SLOAD SWAP1 PUSH2 0x100 EXP SWAP1 DIV PUSH4 0xFFFFFFFF AND PUSH4 0xFFFFFFFF AND PUSH4 0xFFFFFFFF AND DUP2 MSTORE PUSH1 0x20 ADD PUSH1 0x3 DUP3 ADD PUSH1 0x4 SWAP1 SLOAD SWAP1 PUSH2 0x100 EXP SWAP1 DIV PUSH12 0xFFFFFFFFFFFFFFFFFFFFFFFF AND PUSH12 0xFFFFFFFFFFFFFFFFFFFFFFFF AND PUSH12 0xFFFFFFFFFFFFFFFFFFFFFFFF AND DUP2 MSTORE PUSH1 0x20 ADD PUSH1 0x3 DUP3 ADD PUSH1 0x10 SWAP1 SLOAD SWAP1 PUSH2 0x100 EXP SWAP1 DIV PUSH8 0xFFFFFFFFFFFFFFFF AND PUSH8 0xFFFFFFFFFFFFFFFF AND PUSH8 0xFFFFFFFFFFFFFFFF AND DUP2 MSTORE PUSH1 0x20 ADD PUSH1 0x3 DUP3 ADD PUSH1 0x18 SWAP1 SLOAD SWAP1 PUSH2 0x100 EXP SWAP1 DIV PUSH1 0xFF AND ISZERO ISZERO ISZERO ISZERO DUP2 MSTORE POP POP SWAP1 POP DUP1 PUSH1 0xC0 ADD MLOAD PUSH2 0xB61 JUMPI PUSH1 0x40 MLOAD PUSH32 0x8C379A000000000000000000000000000000000000000000000000000000000 DUP2 MSTORE PUSH1 0x4 ADD PUSH2 0xB58 SWAP1 PUSH2 0x2854 JUMP JUMPDEST PUSH1 0x40 MLOAD DUP1 SWAP2 SUB SWAP1 REVERT JUMPDEST PUSH1 0x4 PUSH0 DUP7 DUP2 MSTORE PUSH1 0x20 ADD SWAP1 DUP2 MSTORE PUSH1 0x20 ADD PUSH0 KECCAK256 PUSH0 CALLER PUSH20 0xFFFFFFFFFFFFFFFFFFFFFFFFFFFFFFFFFFFFFFFF AND PUSH20 0xFFFFFFFFFFFFFFFFFFFFFFFFFFFFFFFFFFFFFFFF AND DUP2 MSTORE PUSH1 0x20 ADD SWAP1 DUP2 MSTORE PUSH1 0x20 ADD PUSH0 KECCAK256 PUSH0 SWAP1 SLOAD SWAP1 PUSH2 0x100 EXP SWAP1 DIV PUSH1 0xFF AND PUSH2 0xBF9 JUMPI PUSH1 0x40 MLOAD PUSH32 0x8C379A000000000000000000000000000000000000000000000000000000000 DUP2 MSTORE PUSH1 0x4 ADD PUSH2 0xBF0 SWAP1 PUSH2 0x28BC JUMP JUMPDEST PUSH1 0x40 MLOAD DUP1 SWAP2 SUB SWAP1 REVERT JUMPDEST PUSH1 0x5 PUSH0 DUP7 DUP2 MSTORE PUSH1 0x20 ADD SWAP1 DUP2 MSTORE PUSH1 0x20 ADD PUSH0 KECCAK256 PUSH0 CALLER PUSH20 0xFFFFFFFFFFFFFFFFFFFFFFFFFFFFFFFFFFFFFFFF AND PUSH20 0xFFFFFFFFFFFFFFFFFFFFFFFFFFFFFFFFFFFFFFFF AND DUP2 MSTORE PUSH1 0x20 ADD SWAP1 DUP2 MSTORE PUSH1 0x20 ADD PUSH0 KECCAK256 PUSH0 SWAP1 SLOAD SWAP1 PUSH2 0x100 EXP SWAP1 DIV PUSH1 0xFF AND ISZERO PUSH2 0xC92 JUMPI PUSH1 0x40 MLOAD PUSH32 0x8C379A000000000000000000000000000000000000000000000000000000000 DUP2 MSTORE PUSH1 0x4 ADD PUSH2 0xC89 SWAP1 PUSH2 0x2924 JUMP JUMPDEST PUSH1 0x40 MLOAD DUP1 SWAP2 SUB SWAP1 REVERT JUMPDEST PUSH0 CALLER DUP6 PUSH1 0x40 MLOAD PUSH1 0x20 ADD PUSH2 0xCA6 SWAP3 SWAP2 SWAP1 PUSH2 0x29A7 JUMP JUMPDEST PUSH1 0x40 MLOAD PUSH1 0x20 DUP2 DUP4 SUB SUB DUP2 MSTORE SWAP1 PUSH1 0x40 MSTORE DUP1 MLOAD SWAP1 PUSH1 0x20 ADD KECCAK256 SWAP1 POP PUSH2 0xCCE DUP5 DUP5 DUP5 PUSH1 0x40 ADD MLOAD DUP5 PUSH2 0x1D89 JUMP JUMPDEST PUSH2 0xD0D JUMPI PUSH1 0x40 MLOAD PUSH32 0x8C379A000000000000000000000000000000000000000000000000000000000 DUP2 MSTORE PUSH1 0x4 ADD PUSH2 0xD04 SWAP1 PUSH2 0x2A1C JUMP JUMPDEST PUSH1 0x40 MLOAD DUP1 SWAP2 SUB SWAP1 REVERT JUMPDEST PUSH0 PUSH1 0x2 PUSH0 DUP9 DUP2 MSTORE PUSH1 0x20 ADD SWAP1 DUP2 MSTORE PUSH1 0x20 ADD PUSH0 KECCAK256 PUSH0 DUP8 DUP2 MSTORE PUSH1 0x20 ADD SWAP1 DUP2 MSTORE PUSH1 0x20 ADD PUSH0 KECCAK256 PUSH0 SWAP1 SLOAD SWAP1 PUSH2 0x100 EXP SWAP1 DIV PUSH4 0xFFFFFFFF AND SWAP1 POP PUSH0 DUP2 PUSH4 0xFFFFFFFF AND GT PUSH2 0xD88 JUMPI PUSH1 0x40 MLOAD PUSH32 0x8C379A000000000000000000000000000000000000000000000000000000000 DUP2 MSTORE PUSH1 0x4 ADD PUSH2 0xD7F SWAP1 PUSH2 0x2A84 JUMP JUMPDEST PUSH1 0x40 MLOAD DUP1 SWAP2 SUB SWAP1 REVERT JUMPDEST PUSH0 DUP4 PUSH1 0x60 ADD MLOAD PUSH4 0xFFFFFFFF AND DUP3 PUSH4 0xFFFFFFFF AND DUP6 PUSH1 0x20 ADD MLOAD PUSH2 0xDAA SWAP2 SWAP1 PUSH2 0x2659 JUMP JUMPDEST PUSH2 0xDB4 SWAP2 SWAP1 PUSH2 0x26C7 JUMP JUMPDEST SWAP1 POP PUSH0 DUP2 GT PUSH2 0xDF8 JUMPI PUSH1 0x40 MLOAD PUSH32 0x8C379A000000000000000000000000000000000000000000000000000000000 DUP2 MSTORE PUSH1 0x4 ADD PUSH2 0xDEF SWAP1 PUSH2 0x2AEC JUMP JUMPDEST PUSH1 0x40 MLOAD DUP1 SWAP2 SUB SWAP1 REVERT JUMPDEST DUP1 PUSH1 0x3 PUSH0 DUP11 DUP2 MSTORE PUSH1 0x20 ADD SWAP1 DUP2 MSTORE PUSH1 0x20 ADD PUSH0 KECCAK256 SLOAD LT ISZERO PUSH2 0xE4C JUMPI PUSH1 0x40 MLOAD PUSH32 0x8C379A000000000000000000000000000000000000000000000000000000000 DUP2 MSTORE PUSH1 0x4 ADD PUSH2 0xE43 SWAP1 PUSH2 0x2B54 JUMP JUMPDEST PUSH1 0x40 MLOAD DUP1 SWAP2 SUB SWAP1 REVERT JUMPDEST PUSH1 0x1 PUSH1 0x5 PUSH0 DUP11 DUP2 MSTORE PUSH1 0x20 ADD SWAP1 DUP2 MSTORE PUSH1 0x20 ADD PUSH0 KECCAK256 PUSH0 CALLER PUSH20 0xFFFFFFFFFFFFFFFFFFFFFFFFFFFFFFFFFFFFFFFF AND PUSH20 0xFFFFFFFFFFFFFFFFFFFFFFFFFFFFFFFFFFFFFFFF AND DUP2 MSTORE PUSH1 0x20 ADD SWAP1 DUP2 MSTORE PUSH1 0x20 ADD PUSH0 KECCAK256 PUSH0 PUSH2 0x100 EXP DUP2 SLOAD DUP2 PUSH1 0xFF MUL NOT AND SWAP1 DUP4 ISZERO ISZERO MUL OR SWAP1 SSTORE POP DUP1 PUSH1 0x3 PUSH0 DUP11 DUP2 MSTORE PUSH1 0x20 ADD SWAP1 DUP2 MSTORE PUSH1 0x20 ADD PUSH0 KECCAK256 PUSH0 DUP3 DUP3 SLOAD PUSH2 0xED0 SWAP2 SWAP1 PUSH2 0x2B72 JUMP JUMPDEST SWAP3 POP POP DUP2 SWAP1 SSTORE POP PUSH2 0xF05 CALLER DUP3 DUP7 PUSH0 ADD MLOAD PUSH20 0xFFFFFFFFFFFFFFFFFFFFFFFFFFFFFFFFFFFFFFFF AND PUSH2 0x1E3A SWAP1 SWAP3 SWAP2 SWAP1 PUSH4 0xFFFFFFFF AND JUMP JUMPDEST CALLER PUSH20 0xFFFFFFFFFFFFFFFFFFFFFFFFFFFFFFFFFFFFFFFF AND DUP9 PUSH32 0xD9CB1E2714D65A111C0F20F060176AD657496BD47A3DE04EC7C3D4CA232112AC DUP10 DUP5 PUSH1 0x40 MLOAD PUSH2 0xF4E SWAP3 SWAP2 SWAP1 PUSH2 0x2BA5 JUMP JUMPDEST PUSH1 0x40 MLOAD DUP1 SWAP2 SUB SWAP1 LOG3 POP POP POP POP POP POP POP POP JUMP JUMPDEST PUSH2 0xF68 PUSH2 0x1BBF JUMP JUMPDEST PUSH0 PUSH1 0x1 PUSH0 DUP9 DUP2 MSTORE PUSH1 0x20 ADD SWAP1 DUP2 MSTORE PUSH1 0x20 ADD PUSH0 KECCAK256 SWAP1 POP DUP1 PUSH1 0x3 ADD PUSH1 0x18 SWAP1 SLOAD SWAP1 PUSH2 0x100 EXP SWAP1 DIV PUSH1 0xFF AND ISZERO PUSH2 0xFCE JUMPI PUSH1 0x40 MLOAD PUSH32 0x8C379A000000000000000000000000000000000000000000000000000000000 DUP2 MSTORE PUSH1 0x4 ADD PUSH2 0xFC5 SWAP1 PUSH2 0x2C16 JUMP JUMPDEST PUSH1 0x40 MLOAD DUP1 SWAP2 SUB SWAP1 REVERT JUMPDEST PUSH0 PUSH20 0xFFFFFFFFFFFFFFFFFFFFFFFFFFFFFFFFFFFFFFFF AND DUP2 PUSH0 ADD PUSH0 SWAP1 SLOAD SWAP1 PUSH2 0x100 EXP SWAP1 DIV PUSH20 0xFFFFFFFFFFFFFFFFFFFFFFFFFFFFFFFFFFFFFFFF AND PUSH20 0xFFFFFFFFFFFFFFFFFFFFFFFFFFFFFFFFFFFFFFFF AND SUB PUSH2 0x105E JUMPI PUSH1 0x40 MLOAD PUSH32 0x8C379A000000000000000000000000000000000000000000000000000000000 DUP2 MSTORE PUSH1 0x4 ADD PUSH2 0x1055 SWAP1 PUSH2 0x27B9 JUMP JUMPDEST PUSH1 0x40 MLOAD DUP1 SWAP2 SUB SWAP1 REVERT JUMPDEST PUSH0 PUSH0 SHL DUP4 SUB PUSH2 0x10A2 JUMPI PUSH1 0x40 MLOAD PUSH32 0x8C379A000000000000000000000000000000000000000000000000000000000 DUP2 MSTORE PUSH1 0x4 ADD PUSH2 0x1099 SWAP1 PUSH2 0x2C7E JUMP JUMPDEST PUSH1 0x40 MLOAD DUP1 SWAP2 SUB SWAP1 REVERT JUMPDEST PUSH0 DUP7 DUP7 SWAP1 POP GT DUP1 ISZERO PUSH2 0x10B9 JUMPI POP PUSH0 DUP5 PUSH4 0xFFFFFFFF AND GT JUMPDEST PUSH2 0x10F8 JUMPI PUSH1 0x40 MLOAD PUSH32 0x8C379A000000000000000000000000000000000000000000000000000000000 DUP2 MSTORE PUSH1 0x4 ADD PUSH2 0x10EF SWAP1 PUSH2 0x2CE6 JUMP JUMPDEST PUSH1 0x40 MLOAD DUP1 SWAP2 SUB SWAP1 REVERT JUMPDEST PUSH0 PUSH0 SWAP1 POP JUMPDEST DUP7 DUP7 SWAP1 POP DUP2 LT ISZERO PUSH2 0x11F5 JUMPI PUSH0 DUP8 DUP8 DUP4 DUP2 DUP2 LT PUSH2 0x111C JUMPI PUSH2 0x111B PUSH2 0x2D04 JUMP JUMPDEST JUMPDEST SWAP1 POP PUSH1 0x20 MUL ADD PUSH1 0x20 DUP2 ADD SWAP1 PUSH2 0x1131 SWAP2 SWAP1 PUSH2 0x2D31 JUMP JUMPDEST PUSH4 0xFFFFFFFF AND GT PUSH2 0x1177 JUMPI PUSH1 0x40 MLOAD PUSH32 0x8C379A000000000000000000000000000000000000000000000000000000000 DUP2 MSTORE PUSH1 0x4 ADD PUSH2 0x116E SWAP1 PUSH2 0x2DA6 JUMP JUMPDEST PUSH1 0x40 MLOAD DUP1 SWAP2 SUB SWAP1 REVERT JUMPDEST DUP7 DUP7 DUP3 DUP2 DUP2 LT PUSH2 0x118A JUMPI PUSH2 0x1189 PUSH2 0x2D04 JUMP JUMPDEST JUMPDEST SWAP1 POP PUSH1 0x20 MUL ADD PUSH1 0x20 DUP2 ADD SWAP1 PUSH2 0x119F SWAP2 SWAP1 PUSH2 0x2D31 JUMP JUMPDEST PUSH1 0x2 PUSH0 DUP11 DUP2 MSTORE PUSH1 0x20 ADD SWAP1 DUP2 MSTORE PUSH1 0x20 ADD PUSH0 KECCAK256 PUSH0 PUSH1 0x1 DUP5 PUSH2 0x11BE SWAP2 SWAP1 PUSH2 0x27D7 JUMP JUMPDEST DUP2 MSTORE PUSH1 0x20 ADD SWAP1 DUP2 MSTORE PUSH1 0x20 ADD PUSH0 KECCAK256 PUSH0 PUSH2 0x100 EXP DUP2 SLOAD DUP2 PUSH4 0xFFFFFFFF MUL NOT AND SWAP1 DUP4 PUSH4 0xFFFFFFFF AND MUL OR SWAP1 SSTORE POP DUP1 DUP1 PUSH1 0x1 ADD SWAP2 POP POP PUSH2 0x10FD JUMP JUMPDEST POP DUP4 DUP2 PUSH1 0x3 ADD PUSH0 PUSH2 0x100 EXP DUP2 SLOAD DUP2 PUSH4 0xFFFFFFFF MUL NOT AND SWAP1 DUP4 PUSH4 0xFFFFFFFF AND MUL OR SWAP1 SSTORE POP DUP3 DUP2 PUSH1 0x2 ADD DUP2 SWAP1 SSTORE POP PUSH0 PUSH1 0x3 PUSH0 DUP10 DUP2 MSTORE PUSH1 0x20 ADD SWAP1 DUP2 MSTORE PUSH1 0x20 ADD PUSH0 KECCAK256 SLOAD SWAP1 POP PUSH0 PUSH0 DUP5 EQ PUSH2 0x1244 JUMPI DUP4 PUSH2 0x1246 JUMP JUMPDEST DUP2 JUMPDEST SWAP1 POP DUP2 DUP2 GT ISZERO PUSH2 0x128B JUMPI PUSH1 0x40 MLOAD PUSH32 0x8C379A000000000000000000000000000000000000000000000000000000000 DUP2 MSTORE PUSH1 0x4 ADD PUSH2 0x1282 SWAP1 PUSH2 0x2E0E JUMP JUMPDEST PUSH1 0x40 MLOAD DUP1 SWAP2 SUB SWAP1 REVERT JUMPDEST DUP1 DUP4 PUSH1 0x1 ADD DUP2 SWAP1 SSTORE POP PUSH1 0x1 DUP4 PUSH1 0x3 ADD PUSH1 0x18 PUSH2 0x100 EXP DUP2 SLOAD DUP2 PUSH1 0xFF MUL NOT AND SWAP1 DUP4 ISZERO ISZERO MUL OR SWAP1 SSTORE POP DUP9 PUSH32 0x989E5959E7CF49AC99F6ADC13BD2BA18D0A7D44C527AABACBD37474B4C803B77 DUP3 DUP8 PUSH1 0x40 MLOAD PUSH2 0x12E3 SWAP3 SWAP2 SWAP1 PUSH2 0x2E2C JUMP JUMPDEST PUSH1 0x40 MLOAD DUP1 SWAP2 SUB SWAP1 LOG2 POP POP POP POP POP POP POP POP POP JUMP JUMPDEST PUSH2 0x12FE PUSH2 0x1BBF JUMP JUMPDEST PUSH0 PUSH20 0xFFFFFFFFFFFFFFFFFFFFFFFFFFFFFFFFFFFFFFFF AND DUP3 PUSH20 0xFFFFFFFFFFFFFFFFFFFFFFFFFFFFFFFFFFFFFFFF AND SUB PUSH2 0x136C JUMPI PUSH1 0x40 MLOAD PUSH32 0x8C379A000000000000000000000000000000000000000000000000000000000 DUP2 MSTORE PUSH1 0x4 ADD PUSH2 0x1363 SWAP1 PUSH2 0x2E9D JUMP JUMPDEST PUSH1 0x40 MLOAD DUP1 SWAP2 SUB SWAP1 REVERT JUMPDEST DUP1 PUSH1 0x3 PUSH0 DUP6 DUP2 MSTORE PUSH1 0x20 ADD SWAP1 DUP2 MSTORE PUSH1 0x20 ADD PUSH0 KECCAK256 SLOAD LT ISZERO PUSH2 0x13C0 JUMPI PUSH1 0x40 MLOAD PUSH32 0x8C379A000000000000000000000000000000000000000000000000000000000 DUP2 MSTORE PUSH1 0x4 ADD PUSH2 0x13B7 SWAP1 PUSH2 0x2F05 JUMP JUMPDEST PUSH1 0x40 MLOAD DUP1 SWAP2 SUB SWAP1 REVERT JUMPDEST DUP1 PUSH1 0x3 PUSH0 DUP6 DUP2 MSTORE PUSH1 0x20 ADD SWAP1 DUP2 MSTORE PUSH1 0x20 ADD PUSH0 KECCAK256 PUSH0 DUP3 DUP3 SLOAD PUSH2 0x13E0 SWAP2 SWAP1 PUSH2 0x2B72 JUMP JUMPDEST SWAP3 POP POP DUP2 SWAP1 SSTORE POP PUSH2 0x1444 DUP3 DUP3 PUSH1 0x1 PUSH0 DUP8 DUP2 MSTORE PUSH1 0x20 ADD SWAP1 DUP2 MSTORE PUSH1 0x20 ADD PUSH0 KECCAK256 PUSH0 ADD PUSH0 SWAP1 SLOAD SWAP1 PUSH2 0x100 EXP SWAP1 DIV PUSH20 0xFFFFFFFFFFFFFFFFFFFFFFFFFFFFFFFFFFFFFFFF AND PUSH20 0xFFFFFFFFFFFFFFFFFFFFFFFFFFFFFFFFFFFFFFFF AND PUSH2 0x1E3A SWAP1 SWAP3 SWAP2 SWAP1 PUSH4 0xFFFFFFFF AND JUMP JUMPDEST DUP2 PUSH20 0xFFFFFFFFFFFFFFFFFFFFFFFFFFFFFFFFFFFFFFFF AND DUP4 PUSH32 0x4EFE03A0B5EC4A8B41F319C07537B018A7A03B77FAC4FEF15F9D26D787EF9EBE DUP4 PUSH1 0x40 MLOAD PUSH2 0x148B SWAP2 SWAP1 PUSH2 0x2276 JUMP JUMPDEST PUSH1 0x40 MLOAD DUP1 SWAP2 SUB SWAP1 LOG3 POP POP POP JUMP JUMPDEST PUSH0 PUSH0 PUSH1 0x4 PUSH0 DUP6 DUP2 MSTORE PUSH1 0x20 ADD SWAP1 DUP2 MSTORE PUSH1 0x20 ADD PUSH0 KECCAK256 PUSH0 DUP5 PUSH20 0xFFFFFFFFFFFFFFFFFFFFFFFFFFFFFFFFFFFFFFFF AND PUSH20 0xFFFFFFFFFFFFFFFFFFFFFFFFFFFFFFFFFFFFFFFF AND DUP2 MSTORE PUSH1 0x20 ADD SWAP1 DUP2 MSTORE PUSH1 0x20 ADD PUSH0 KECCAK256 PUSH0 SWAP1 SLOAD SWAP1 PUSH2 0x100 EXP SWAP1 DIV PUSH1 0xFF AND SWAP2 POP PUSH1 0x5 PUSH0 DUP6 DUP2 MSTORE PUSH1 0x20 ADD SWAP1 DUP2 MSTORE PUSH1 0x20 ADD PUSH0 KECCAK256 PUSH0 DUP5 PUSH20 0xFFFFFFFFFFFFFFFFFFFFFFFFFFFFFFFFFFFFFFFF AND PUSH20 0xFFFFFFFFFFFFFFFFFFFFFFFFFFFFFFFFFFFFFFFF AND DUP2 MSTORE PUSH1 0x20 ADD SWAP1 DUP2 MSTORE PUSH1 0x20 ADD PUSH0 KECCAK256 PUSH0 SWAP1 SLOAD SWAP1 PUSH2 0x100 EXP SWAP1 DIV PUSH1 0xFF AND SWAP1 POP SWAP3 POP SWAP3 SWAP1 POP JUMP JUMPDEST PUSH1 0x2 PUSH1 0x20 MSTORE DUP2 PUSH0 MSTORE PUSH1 0x40 PUSH0 KECCAK256 PUSH1 0x20 MSTORE DUP1 PUSH0 MSTORE PUSH1 0x40 PUSH0 KECCAK256 PUSH0 SWAP2 POP SWAP2 POP SWAP1 SLOAD SWAP1 PUSH2 0x100 EXP SWAP1 DIV PUSH4 0xFFFFFFFF AND DUP2 JUMP JUMPDEST PUSH0 PUSH1 0x1 PUSH0 DUP4 DUP2 MSTORE PUSH1 0x20 ADD SWAP1 DUP2 MSTORE PUSH1 0x20 ADD PUSH0 KECCAK256 SWAP1 POP PUSH0 PUSH20 0xFFFFFFFFFFFFFFFFFFFFFFFFFFFFFFFFFFFFFFFF AND DUP2 PUSH0 ADD PUSH0 SWAP1 SLOAD SWAP1 PUSH2 0x100 EXP SWAP1 DIV PUSH20 0xFFFFFFFFFFFFFFFFFFFFFFFFFFFFFFFFFFFFFFFF AND PUSH20 0xFFFFFFFFFFFFFFFFFFFFFFFFFFFFFFFFFFFFFFFF AND SUB PUSH2 0x1628 JUMPI PUSH1 0x40 MLOAD PUSH32 0x8C379A000000000000000000000000000000000000000000000000000000000 DUP2 MSTORE PUSH1 0x4 ADD PUSH2 0x161F SWAP1 PUSH2 0x27B9 JUMP JUMPDEST PUSH1 0x40 MLOAD DUP1 SWAP2 SUB SWAP1 REVERT JUMPDEST DUP1 PUSH1 0x3 ADD PUSH1 0x18 SWAP1 SLOAD SWAP1 PUSH2 0x100 EXP SWAP1 DIV PUSH1 0xFF AND ISZERO PUSH2 0x167A JUMPI PUSH1 0x40 MLOAD PUSH32 0x8C379A000000000000000000000000000000000000000000000000000000000 DUP2 MSTORE PUSH1 0x4 ADD PUSH2 0x1671 SWAP1 PUSH2 0x2F6D JUMP JUMPDEST PUSH1 0x40 MLOAD DUP1 SWAP2 SUB SWAP1 REVERT JUMPDEST PUSH0 DUP2 PUSH1 0x3 ADD PUSH1 0x10 SWAP1 SLOAD SWAP1 PUSH2 0x100 EXP SWAP1 DIV PUSH8 0xFFFFFFFFFFFFFFFF AND PUSH8 0xFFFFFFFFFFFFFFFF AND EQ PUSH2 0x1709 JUMPI DUP1 PUSH1 0x3 ADD PUSH1 0x10 SWAP1 SLOAD SWAP1 PUSH2 0x100 EXP SWAP1 DIV PUSH8 0xFFFFFFFFFFFFFFFF AND PUSH8 0xFFFFFFFFFFFFFFFF AND TIMESTAMP GT ISZERO PUSH2 0x1708 JUMPI PUSH1 0x40 MLOAD PUSH32 0x8C379A000000000000000000000000000000000000000000000000000000000 DUP2 MSTORE PUSH1 0x4 ADD PUSH2 0x16FF SWAP1 PUSH2 0x2FD5 JUMP JUMPDEST PUSH1 0x40 MLOAD DUP1 SWAP2 SUB SWAP1 REVERT JUMPDEST JUMPDEST PUSH1 0x4 PUSH0 DUP4 DUP2 MSTORE PUSH1 0x20 ADD SWAP1 DUP2 MSTORE PUSH1 0x20 ADD PUSH0 KECCAK256 PUSH0 CALLER PUSH20 0xFFFFFFFFFFFFFFFFFFFFFFFFFFFFFFFFFFFFFFFF AND PUSH20 0xFFFFFFFFFFFFFFFFFFFFFFFFFFFFFFFFFFFFFFFF AND DUP2 MSTORE PUSH1 0x20 ADD SWAP1 DUP2 MSTORE PUSH1 0x20 ADD PUSH0 KECCAK256 PUSH0 SWAP1 SLOAD SWAP1 PUSH2 0x100 EXP SWAP1 DIV PUSH1 0xFF AND ISZERO PUSH2 0x17A2 JUMPI PUSH1 0x40 MLOAD PUSH32 0x8C379A000000000000000000000000000000000000000000000000000000000 DUP2 MSTORE PUSH1 0x4 ADD PUSH2 0x1799 SWAP1 PUSH2 0x303D JUMP JUMPDEST PUSH1 0x40 MLOAD DUP1 SWAP2 SUB SWAP1 REVERT JUMPDEST PUSH0 DUP2 PUSH1 0x3 ADD PUSH1 0x4 SWAP1 SLOAD SWAP1 PUSH2 0x100 EXP SWAP1 DIV PUSH12 0xFFFFFFFFFFFFFFFFFFFFFFFF AND PUSH12 0xFFFFFFFFFFFFFFFFFFFFFFFF AND SWAP1 POP PUSH0 DUP2 GT PUSH2 0x1812 JUMPI PUSH1 0x40 MLOAD PUSH32 0x8C379A000000000000000000000000000000000000000000000000000000000 DUP2 MSTORE PUSH1 0x4 ADD PUSH2 0x1809 SWAP1 PUSH2 0x30A5 JUMP JUMPDEST PUSH1 0x40 MLOAD DUP1 SWAP2 SUB SWAP1 REVERT JUMPDEST PUSH2 0x1861 CALLER ADDRESS DUP4 DUP6 PUSH0 ADD PUSH0 SWAP1 SLOAD SWAP1 PUSH2 0x100 EXP SWAP1 DIV PUSH20 0xFFFFFFFFFFFFFFFFFFFFFFFFFFFFFFFFFFFFFFFF AND PUSH20 0xFFFFFFFFFFFFFFFFFFFFFFFFFFFFFFFFFFFFFFFF AND PUSH2 0x1D07 SWAP1 SWAP4 SWAP3 SWAP2 SWAP1 PUSH4 0xFFFFFFFF AND JUMP JUMPDEST PUSH1 0x1 PUSH1 0x4 PUSH0 DUP6 DUP2 MSTORE PUSH1 0x20 ADD SWAP1 DUP2 MSTORE PUSH1 0x20 ADD PUSH0 KECCAK256 PUSH0 CALLER PUSH20 0xFFFFFFFFFFFFFFFFFFFFFFFFFFFFFFFFFFFFFFFF AND PUSH20 0xFFFFFFFFFFFFFFFFFFFFFFFFFFFFFFFFFFFFFFFF AND DUP2 MSTORE PUSH1 0x20 ADD SWAP1 DUP2 MSTORE PUSH1 0x20 ADD PUSH0 KECCAK256 PUSH0 PUSH2 0x100 EXP DUP2 SLOAD DUP2 PUSH1 0xFF MUL NOT AND SWAP1 DUP4 ISZERO ISZERO MUL OR SWAP1 SSTORE POP DUP1 PUSH1 0x3 PUSH0 DUP6 DUP2 MSTORE PUSH1 0x20 ADD SWAP1 DUP2 MSTORE PUSH1 0x20 ADD PUSH0 KECCAK256 PUSH0 DUP3 DUP3 SLOAD PUSH2 0x18E5 SWAP2 SWAP1 PUSH2 0x27D7 JUMP JUMPDEST SWAP3 POP POP DUP2 SWAP1 SSTORE POP CALLER PUSH20 0xFFFFFFFFFFFFFFFFFFFFFFFFFFFFFFFFFFFFFFFF AND DUP4 PUSH32 0x39DD062CC095BF933D83338D8E4591B7EB119264D876F173CACB1CFDF2C9737F DUP4 PUSH1 0x40 MLOAD PUSH2 0x1933 SWAP2 SWAP1 PUSH2 0x2276 JUMP JUMPDEST PUSH1 0x40 MLOAD DUP1 SWAP2 SUB SWAP1 LOG3 POP POP POP JUMP JUMPDEST PUSH2 0x1948 PUSH2 0x1BBF JUMP JUMPDEST PUSH0 PUSH20 0xFFFFFFFFFFFFFFFFFFFFFFFFFFFFFFFFFFFFFFFF AND DUP2 PUSH20 0xFFFFFFFFFFFFFFFFFFFFFFFFFFFFFFFFFFFFFFFF AND SUB PUSH2 0x19B8 JUMPI PUSH0 PUSH1 0x40 MLOAD PUSH32 0x1E4FBDF700000000000000000000000000000000000000000000000000000000 DUP2 MSTORE PUSH1 0x4 ADD PUSH2 0x19AF SWAP2 SWAP1 PUSH2 0x228F JUMP JUMPDEST PUSH1 0x40 MLOAD DUP1 SWAP2 SUB SWAP1 REVERT JUMPDEST PUSH2 0x19C1 DUP2 PUSH2 0x1C46 JUMP JUMPDEST POP JUMP JUMPDEST PUSH2 0x19CC PUSH2 0x1BBF JUMP JUMPDEST PUSH0 PUSH20 0xFFFFFFFFFFFFFFFFFFFFFFFFFFFFFFFFFFFFFFFF AND DUP4 PUSH20 0xFFFFFFFFFFFFFFFFFFFFFFFFFFFFFFFFFFFFFFFF AND SUB PUSH2 0x1A3A JUMPI PUSH1 0x40 MLOAD PUSH32 0x8C379A000000000000000000000000000000000000000000000000000000000 DUP2 MSTORE PUSH1 0x4 ADD PUSH2 0x1A31 SWAP1 PUSH2 0x310D JUMP JUMPDEST PUSH1 0x40 MLOAD DUP1 SWAP2 SUB SWAP1 REVERT JUMPDEST PUSH0 PUSH1 0x1 PUSH0 DUP7 DUP2 MSTORE PUSH1 0x20 ADD SWAP1 DUP2 MSTORE PUSH1 0x20 ADD PUSH0 KECCAK256 SWAP1 POP PUSH0 PUSH20 0xFFFFFFFFFFFFFFFFFFFFFFFFFFFFFFFFFFFFFFFF AND DUP2 PUSH0 ADD PUSH0 SWAP1 SLOAD SWAP1 PUSH2 0x100 EXP SWAP1 DIV PUSH20 0xFFFFFFFFFFFFFFFFFFFFFFFFFFFFFFFFFFFFFFFF AND PUSH20 0xFFFFFFFFFFFFFFFFFFFFFFFFFFFFFFFFFFFFFFFF AND EQ PUSH2 0x1ADE JUMPI PUSH1 0x40 MLOAD PUSH32 0x8C379A000000000000000000000000000000000000000000000000000000000 DUP2 MSTORE PUSH1 0x4 ADD PUSH2 0x1AD5 SWAP1 PUSH2 0x3175 JUMP JUMPDEST PUSH1 0x40 MLOAD DUP1 SWAP2 SUB SWAP1 REVERT JUMPDEST DUP4 DUP2 PUSH0 ADD PUSH0 PUSH2 0x100 EXP DUP2 SLOAD DUP2 PUSH20 0xFFFFFFFFFFFFFFFFFFFFFFFFFFFFFFFFFFFFFFFF MUL NOT AND SWAP1 DUP4 PUSH20 0xFFFFFFFFFFFFFFFFFFFFFFFFFFFFFFFFFFFFFFFF AND MUL OR SWAP1 SSTORE POP DUP3 DUP2 PUSH1 0x3 ADD PUSH1 0x4 PUSH2 0x100 EXP DUP2 SLOAD DUP2 PUSH12 0xFFFFFFFFFFFFFFFFFFFFFFFF MUL NOT AND SWAP1 DUP4 PUSH12 0xFFFFFFFFFFFFFFFFFFFFFFFF AND MUL OR SWAP1 SSTORE POP DUP2 DUP2 PUSH1 0x3 ADD PUSH1 0x10 PUSH2 0x100 EXP DUP2 SLOAD DUP2 PUSH8 0xFFFFFFFFFFFFFFFF MUL NOT AND SWAP1 DUP4 PUSH8 0xFFFFFFFFFFFFFFFF AND MUL OR SWAP1 SSTORE POP DUP5 PUSH31 0x1627EF342A5EB064DF1B284EC91D4632F86A5B909CDA3DE310F8FFC1143D91 DUP6 DUP6 DUP6 PUSH1 0x40 MLOAD PUSH2 0x1BB0 SWAP4 SWAP3 SWAP2 SWAP1 PUSH2 0x3193 JUMP JUMPDEST PUSH1 0x40 MLOAD DUP1 SWAP2 SUB SWAP1 LOG2 POP POP POP POP POP JUMP JUMPDEST PUSH2 0x1BC7 PUSH2 0x1EB9 JUMP JUMPDEST PUSH20 0xFFFFFFFFFFFFFFFFFFFFFFFFFFFFFFFFFFFFFFFF AND PUSH2 0x1BE5 PUSH2 0x807 JUMP JUMPDEST PUSH20 0xFFFFFFFFFFFFFFFFFFFFFFFFFFFFFFFFFFFFFFFF AND EQ PUSH2 0x1C44 JUMPI PUSH2 0x1C08 PUSH2 0x1EB9 JUMP JUMPDEST PUSH1 0x40 MLOAD PUSH32 0x118CDAA700000000000000000000000000000000000000000000000000000000 DUP2 MSTORE PUSH1 0x4 ADD PUSH2 0x1C3B SWAP2 SWAP1 PUSH2 0x228F JUMP JUMPDEST PUSH1 0x40 MLOAD DUP1 SWAP2 SUB SWAP1 REVERT JUMPDEST JUMP JUMPDEST PUSH0 PUSH0 PUSH0 SWAP1 SLOAD SWAP1 PUSH2 0x100 EXP SWAP1 DIV PUSH20 0xFFFFFFFFFFFFFFFFFFFFFFFFFFFFFFFFFFFFFFFF AND SWAP1 POP DUP2 PUSH0 PUSH0 PUSH2 0x100 EXP DUP2 SLOAD DUP2 PUSH20 0xFFFFFFFFFFFFFFFFFFFFFFFFFFFFFFFFFFFFFFFF MUL NOT AND SWAP1 DUP4 PUSH20 0xFFFFFFFFFFFFFFFFFFFFFFFFFFFFFFFFFFFFFFFF AND MUL OR SWAP1 SSTORE POP DUP2 PUSH20 0xFFFFFFFFFFFFFFFFFFFFFFFFFFFFFFFFFFFFFFFF AND DUP2 PUSH20 0xFFFFFFFFFFFFFFFFFFFFFFFFFFFFFFFFFFFFFFFF AND PUSH32 0x8BE0079C531659141344CD1FD0A4F28419497F9722A3DAAFE3B4186F6B6457E0 PUSH1 0x40 MLOAD PUSH1 0x40 MLOAD DUP1 SWAP2 SUB SWAP1 LOG3 POP POP JUMP JUMPDEST PUSH2 0x1D83 DUP5 DUP6 PUSH20 0xFFFFFFFFFFFFFFFFFFFFFFFFFFFFFFFFFFFFFFFF AND PUSH4 0x23B872DD DUP7 DUP7 DUP7 PUSH1 0x40 MLOAD PUSH1 0x24 ADD PUSH2 0x1D3C SWAP4 SWAP3 SWAP2 SWAP1 PUSH2 0x31C8 JUMP JUMPDEST PUSH1 0x40 MLOAD PUSH1 0x20 DUP2 DUP4 SUB SUB DUP2 MSTORE SWAP1 PUSH1 0x40 MSTORE SWAP2 POP PUSH1 0xE0 SHL PUSH1 0x20 DUP3 ADD DUP1 MLOAD PUSH28 0xFFFFFFFFFFFFFFFFFFFFFFFFFFFFFFFFFFFFFFFFFFFFFFFFFFFFFFFF DUP4 DUP2 DUP4 AND OR DUP4 MSTORE POP POP POP POP PUSH2 0x1EC0 JUMP JUMPDEST POP POP POP POP JUMP JUMPDEST PUSH0 PUSH0 DUP3 SWAP1 POP PUSH0 PUSH0 SWAP1 POP JUMPDEST DUP7 DUP7 SWAP1 POP DUP2 LT ISZERO PUSH2 0x1E2B JUMPI PUSH0 DUP8 DUP8 DUP4 DUP2 DUP2 LT PUSH2 0x1DB2 JUMPI PUSH2 0x1DB1 PUSH2 0x2D04 JUMP JUMPDEST JUMPDEST SWAP1 POP PUSH1 0x20 MUL ADD CALLDATALOAD SWAP1 POP DUP1 DUP4 GT ISZERO PUSH2 0x1DF1 JUMPI DUP1 DUP4 PUSH1 0x40 MLOAD PUSH1 0x20 ADD PUSH2 0x1DD6 SWAP3 SWAP2 SWAP1 PUSH2 0x321D JUMP JUMPDEST PUSH1 0x40 MLOAD PUSH1 0x20 DUP2 DUP4 SUB SUB DUP2 MSTORE SWAP1 PUSH1 0x40 MSTORE DUP1 MLOAD SWAP1 PUSH1 0x20 ADD KECCAK256 PUSH2 0x1E1B JUMP JUMPDEST DUP3 DUP2 PUSH1 0x40 MLOAD PUSH1 0x20 ADD PUSH2 0x1E04 SWAP3 SWAP2 SWAP1 PUSH2 0x321D JUMP JUMPDEST PUSH1 0x40 MLOAD PUSH1 0x20 DUP2 DUP4 SUB SUB DUP2 MSTORE SWAP1 PUSH1 0x40 MSTORE DUP1 MLOAD SWAP1 PUSH1 0x20 ADD KECCAK256 JUMPDEST SWAP3 POP POP DUP1 DUP1 PUSH1 0x1 ADD SWAP2 POP POP PUSH2 0x1D93 JUMP JUMPDEST POP DUP4 DUP2 EQ SWAP2 POP POP SWAP5 SWAP4 POP POP POP POP JUMP JUMPDEST PUSH2 0x1EB4 DUP4 DUP5 PUSH20 0xFFFFFFFFFFFFFFFFFFFFFFFFFFFFFFFFFFFFFFFF AND PUSH4 0xA9059CBB DUP6 DUP6 PUSH1 0x40 MLOAD PUSH1 0x24 ADD PUSH2 0x1E6D SWAP3 SWAP2 SWAP1 PUSH2 0x3248 JUMP JUMPDEST PUSH1 0x40 MLOAD PUSH1 0x20 DUP2 DUP4 SUB SUB DUP2 MSTORE SWAP1 PUSH1 0x40 MSTORE SWAP2 POP PUSH1 0xE0 SHL PUSH1 0x20 DUP3 ADD DUP1 MLOAD PUSH28 0xFFFFFFFFFFFFFFFFFFFFFFFFFFFFFFFFFFFFFFFFFFFFFFFFFFFFFFFF DUP4 DUP2 DUP4 AND OR DUP4 MSTORE POP POP POP POP PUSH2 0x1EC0 JUMP JUMPDEST POP POP POP JUMP JUMPDEST PUSH0 CALLER SWAP1 POP SWAP1 JUMP JUMPDEST PUSH0 PUSH0 PUSH1 0x20 PUSH0 DUP5 MLOAD PUSH1 0x20 DUP7 ADD PUSH0 DUP9 GAS CALL DUP1 PUSH2 0x1EDF JUMPI PUSH1 0x40 MLOAD RETURNDATASIZE PUSH0 DUP3 RETURNDATACOPY RETURNDATASIZE DUP2 REVERT JUMPDEST RETURNDATASIZE SWAP3 POP PUSH0 MLOAD SWAP2 POP POP PUSH0 DUP3 EQ PUSH2 0x1EF8 JUMPI PUSH1 0x1 DUP2 EQ ISZERO PUSH2 0x1F13 JUMP JUMPDEST PUSH0 DUP5 PUSH20 0xFFFFFFFFFFFFFFFFFFFFFFFFFFFFFFFFFFFFFFFF AND EXTCODESIZE EQ JUMPDEST ISZERO PUSH2 0x1F55 JUMPI DUP4 PUSH1 0x40 MLOAD PUSH32 0x5274AFE700000000000000000000000000000000000000000000000000000000 DUP2 MSTORE PUSH1 0x4 ADD PUSH2 0x1F4C SWAP2 SWAP1 PUSH2 0x228F JUMP JUMPDEST PUSH1 0x40 MLOAD DUP1 SWAP2 SUB SWAP1 REVERT JUMPDEST POP POP POP POP JUMP JUMPDEST PUSH0 PUSH0 REVERT JUMPDEST PUSH0 PUSH0 REVERT JUMPDEST PUSH0 DUP2 SWAP1 POP SWAP2 SWAP1 POP JUMP JUMPDEST PUSH2 0x1F75 DUP2 PUSH2 0x1F63 JUMP JUMPDEST DUP2 EQ PUSH2 0x1F7F JUMPI PUSH0 PUSH0 REVERT JUMPDEST POP JUMP JUMPDEST PUSH0 DUP2 CALLDATALOAD SWAP1 POP PUSH2 0x1F90 DUP2 PUSH2 0x1F6C JUMP JUMPDEST SWAP3 SWAP2 POP POP JUMP JUMPDEST PUSH0 PUSH0 PUSH1 0x40 DUP4 DUP6 SUB SLT ISZERO PUSH2 0x1FAC JUMPI PUSH2 0x1FAB PUSH2 0x1F5B JUMP JUMPDEST JUMPDEST PUSH0 PUSH2 0x1FB9 DUP6 DUP3 DUP7 ADD PUSH2 0x1F82 JUMP JUMPDEST SWAP3 POP POP PUSH1 0x20 PUSH2 0x1FCA DUP6 DUP3 DUP7 ADD PUSH2 0x1F82 JUMP JUMPDEST SWAP2 POP POP SWAP3 POP SWAP3 SWAP1 POP JUMP JUMPDEST PUSH0 PUSH4 0xFFFFFFFF DUP3 AND SWAP1 POP SWAP2 SWAP1 POP JUMP JUMPDEST PUSH2 0x1FEC DUP2 PUSH2 0x1FD4 JUMP JUMPDEST DUP3 MSTORE POP POP JUMP JUMPDEST PUSH2 0x1FFB DUP2 PUSH2 0x1F63 JUMP JUMPDEST DUP3 MSTORE POP POP JUMP JUMPDEST PUSH0 PUSH1 0x40 DUP3 ADD SWAP1 POP PUSH2 0x2014 PUSH0 DUP4 ADD DUP6 PUSH2 0x1FE3 JUMP JUMPDEST PUSH2 0x2021 PUSH1 0x20 DUP4 ADD DUP5 PUSH2 0x1FF2 JUMP JUMPDEST SWAP4 SWAP3 POP POP POP JUMP JUMPDEST PUSH0 PUSH20 0xFFFFFFFFFFFFFFFFFFFFFFFFFFFFFFFFFFFFFFFF DUP3 AND SWAP1 POP SWAP2 SWAP1 POP JUMP JUMPDEST PUSH0 PUSH2 0x2051 DUP3 PUSH2 0x2028 JUMP JUMPDEST SWAP1 POP SWAP2 SWAP1 POP JUMP JUMPDEST PUSH2 0x2061 DUP2 PUSH2 0x2047 JUMP JUMPDEST DUP2 EQ PUSH2 0x206B JUMPI PUSH0 PUSH0 REVERT JUMPDEST POP JUMP JUMPDEST PUSH0 DUP2 CALLDATALOAD SWAP1 POP PUSH2 0x207C DUP2 PUSH2 0x2058 JUMP JUMPDEST SWAP3 SWAP2 POP POP JUMP JUMPDEST PUSH0 PUSH0 PUSH1 0x40 DUP4 DUP6 SUB SLT ISZERO PUSH2 0x2098 JUMPI PUSH2 0x2097 PUSH2 0x1F5B JUMP JUMPDEST JUMPDEST PUSH0 PUSH2 0x20A5 DUP6 DUP3 DUP7 ADD PUSH2 0x1F82 JUMP JUMPDEST SWAP3 POP POP PUSH1 0x20 PUSH2 0x20B6 DUP6 DUP3 DUP7 ADD PUSH2 0x206E JUMP JUMPDEST SWAP2 POP POP SWAP3 POP SWAP3 SWAP1 POP JUMP JUMPDEST PUSH0 DUP2 ISZERO ISZERO SWAP1 POP SWAP2 SWAP1 POP JUMP JUMPDEST PUSH2 0x20D4 DUP2 PUSH2 0x20C0 JUMP JUMPDEST DUP3 MSTORE POP POP JUMP JUMPDEST PUSH0 PUSH1 0x20 DUP3 ADD SWAP1 POP PUSH2 0x20ED PUSH0 DUP4 ADD DUP5 PUSH2 0x20CB JUMP JUMPDEST SWAP3 SWAP2 POP POP JUMP JUMPDEST PUSH0 PUSH1 0x20 DUP3 DUP5 SUB SLT ISZERO PUSH2 0x2108 JUMPI PUSH2 0x2107 PUSH2 0x1F5B JUMP JUMPDEST JUMPDEST PUSH0 PUSH2 0x2115 DUP5 DUP3 DUP6 ADD PUSH2 0x1F82 JUMP JUMPDEST SWAP2 POP POP SWAP3 SWAP2 POP POP JUMP JUMPDEST PUSH2 0x2127 DUP2 PUSH2 0x2047 JUMP JUMPDEST DUP3 MSTORE POP POP JUMP JUMPDEST PUSH0 DUP2 SWAP1 POP SWAP2 SWAP1 POP JUMP JUMPDEST PUSH2 0x213F DUP2 PUSH2 0x212D JUMP JUMPDEST DUP3 MSTORE POP POP JUMP JUMPDEST PUSH0 PUSH12 0xFFFFFFFFFFFFFFFFFFFFFFFF DUP3 AND SWAP1 POP SWAP2 SWAP1 POP JUMP JUMPDEST PUSH2 0x2165 DUP2 PUSH2 0x2145 JUMP JUMPDEST DUP3 MSTORE POP POP JUMP JUMPDEST PUSH0 PUSH8 0xFFFFFFFFFFFFFFFF DUP3 AND SWAP1 POP SWAP2 SWAP1 POP JUMP JUMPDEST PUSH2 0x2187 DUP2 PUSH2 0x216B JUMP JUMPDEST DUP3 MSTORE POP POP JUMP JUMPDEST PUSH0 PUSH1 0xE0 DUP3 ADD SWAP1 POP PUSH2 0x21A0 PUSH0 DUP4 ADD DUP11 PUSH2 0x211E JUMP JUMPDEST PUSH2 0x21AD PUSH1 0x20 DUP4 ADD DUP10 PUSH2 0x1FF2 JUMP JUMPDEST PUSH2 0x21BA PUSH1 0x40 DUP4 ADD DUP9 PUSH2 0x2136 JUMP JUMPDEST PUSH2 0x21C7 PUSH1 0x60 DUP4 ADD DUP8 PUSH2 0x1FE3 JUMP JUMPDEST PUSH2 0x21D4 PUSH1 0x80 DUP4 ADD DUP7 PUSH2 0x215C JUMP JUMPDEST PUSH2 0x21E1 PUSH1 0xA0 DUP4 ADD DUP6 PUSH2 0x217E JUMP JUMPDEST PUSH2 0x21EE PUSH1 0xC0 DUP4 ADD DUP5 PUSH2 0x20CB JUMP JUMPDEST SWAP9 SWAP8 POP POP POP POP POP POP POP POP JUMP JUMPDEST PUSH0 PUSH2 0x100 DUP3 ADD SWAP1 POP PUSH2 0x220E PUSH0 DUP4 ADD DUP12 PUSH2 0x211E JUMP JUMPDEST PUSH2 0x221B PUSH1 0x20 DUP4 ADD DUP11 PUSH2 0x215C JUMP JUMPDEST PUSH2 0x2228 PUSH1 0x40 DUP4 ADD DUP10 PUSH2 0x217E JUMP JUMPDEST PUSH2 0x2235 PUSH1 0x60 DUP4 ADD DUP9 PUSH2 0x1FF2 JUMP JUMPDEST PUSH2 0x2242 PUSH1 0x80 DUP4 ADD DUP8 PUSH2 0x1FF2 JUMP JUMPDEST PUSH2 0x224F PUSH1 0xA0 DUP4 ADD DUP7 PUSH2 0x2136 JUMP JUMPDEST PUSH2 0x225C PUSH1 0xC0 DUP4 ADD DUP6 PUSH2 0x1FE3 JUMP JUMPDEST PUSH2 0x2269 PUSH1 0xE0 DUP4 ADD DUP5 PUSH2 0x20CB JUMP JUMPDEST SWAP10 SWAP9 POP POP POP POP POP POP POP POP POP JUMP JUMPDEST PUSH0 PUSH1 0x20 DUP3 ADD SWAP1 POP PUSH2 0x2289 PUSH0 DUP4 ADD DUP5 PUSH2 0x1FF2 JUMP JUMPDEST SWAP3 SWAP2 POP POP JUMP JUMPDEST PUSH0 PUSH1 0x20 DUP3 ADD SWAP1 POP PUSH2 0x22A2 PUSH0 DUP4 ADD DUP5 PUSH2 0x211E JUMP JUMPDEST SWAP3 SWAP2 POP POP JUMP JUMPDEST PUSH0 PUSH0 REVERT JUMPDEST PUSH0 PUSH0 REVERT JUMPDEST PUSH0 PUSH0 REVERT JUMPDEST PUSH0 PUSH0 DUP4 PUSH1 0x1F DUP5 ADD SLT PUSH2 0x22C9 JUMPI PUSH2 0x22C8 PUSH2 0x22A8 JUMP JUMPDEST JUMPDEST DUP3 CALLDATALOAD SWAP1 POP PUSH8 0xFFFFFFFFFFFFFFFF DUP2 GT ISZERO PUSH2 0x22E6 JUMPI PUSH2 0x22E5 PUSH2 0x22AC JUMP JUMPDEST JUMPDEST PUSH1 0x20 DUP4 ADD SWAP2 POP DUP4 PUSH1 0x20 DUP3 MUL DUP4 ADD GT ISZERO PUSH2 0x2302 JUMPI PUSH2 0x2301 PUSH2 0x22B0 JUMP JUMPDEST JUMPDEST SWAP3 POP SWAP3 SWAP1 POP JUMP JUMPDEST PUSH0 PUSH0 PUSH0 PUSH0 PUSH1 0x60 DUP6 DUP8 SUB SLT ISZERO PUSH2 0x2321 JUMPI PUSH2 0x2320 PUSH2 0x1F5B JUMP JUMPDEST JUMPDEST PUSH0 PUSH2 0x232E DUP8 DUP3 DUP9 ADD PUSH2 0x1F82 JUMP JUMPDEST SWAP5 POP POP PUSH1 0x20 PUSH2 0x233F DUP8 DUP3 DUP9 ADD PUSH2 0x1F82 JUMP JUMPDEST SWAP4 POP POP PUSH1 0x40 DUP6 ADD CALLDATALOAD PUSH8 0xFFFFFFFFFFFFFFFF DUP2 GT ISZERO PUSH2 0x2360 JUMPI PUSH2 0x235F PUSH2 0x1F5F JUMP JUMPDEST JUMPDEST PUSH2 0x236C DUP8 DUP3 DUP9 ADD PUSH2 0x22B4 JUMP JUMPDEST SWAP3 POP SWAP3 POP POP SWAP3 SWAP6 SWAP2 SWAP5 POP SWAP3 POP JUMP JUMPDEST PUSH0 PUSH0 DUP4 PUSH1 0x1F DUP5 ADD SLT PUSH2 0x238F JUMPI PUSH2 0x238E PUSH2 0x22A8 JUMP JUMPDEST JUMPDEST DUP3 CALLDATALOAD SWAP1 POP PUSH8 0xFFFFFFFFFFFFFFFF DUP2 GT ISZERO PUSH2 0x23AC JUMPI PUSH2 0x23AB PUSH2 0x22AC JUMP JUMPDEST JUMPDEST PUSH1 0x20 DUP4 ADD SWAP2 POP DUP4 PUSH1 0x20 DUP3 MUL DUP4 ADD GT ISZERO PUSH2 0x23C8 JUMPI PUSH2 0x23C7 PUSH2 0x22B0 JUMP JUMPDEST JUMPDEST SWAP3 POP SWAP3 SWAP1 POP JUMP JUMPDEST PUSH2 0x23D8 DUP2 PUSH2 0x1FD4 JUMP JUMPDEST DUP2 EQ PUSH2 0x23E2 JUMPI PUSH0 PUSH0 REVERT JUMPDEST POP JUMP JUMPDEST PUSH0 DUP2 CALLDATALOAD SWAP1 POP PUSH2 0x23F3 DUP2 PUSH2 0x23CF JUMP JUMPDEST SWAP3 SWAP2 POP POP JUMP JUMPDEST PUSH2 0x2402 DUP2 PUSH2 0x212D JUMP JUMPDEST DUP2 EQ PUSH2 0x240C JUMPI PUSH0 PUSH0 REVERT JUMPDEST POP JUMP JUMPDEST PUSH0 DUP2 CALLDATALOAD SWAP1 POP PUSH2 0x241D DUP2 PUSH2 0x23F9 JUMP JUMPDEST SWAP3 SWAP2 POP POP JUMP JUMPDEST PUSH0 PUSH0 PUSH0 PUSH0 PUSH0 PUSH0 PUSH1 0xA0 DUP8 DUP10 SUB SLT ISZERO PUSH2 0x243D JUMPI PUSH2 0x243C PUSH2 0x1F5B JUMP JUMPDEST JUMPDEST PUSH0 PUSH2 0x244A DUP10 DUP3 DUP11 ADD PUSH2 0x1F82 JUMP JUMPDEST SWAP7 POP POP PUSH1 0x20 DUP8 ADD CALLDATALOAD PUSH8 0xFFFFFFFFFFFFFFFF DUP2 GT ISZERO PUSH2 0x246B JUMPI PUSH2 0x246A PUSH2 0x1F5F JUMP JUMPDEST JUMPDEST PUSH2 0x2477 DUP10 DUP3 DUP11 ADD PUSH2 0x237A JUMP JUMPDEST SWAP6 POP SWAP6 POP POP PUSH1 0x40 PUSH2 0x248A DUP10 DUP3 DUP11 ADD PUSH2 0x23E5 JUMP JUMPDEST SWAP4 POP POP PUSH1 0x60 PUSH2 0x249B DUP10 DUP3 DUP11 ADD PUSH2 0x240F JUMP JUMPDEST SWAP3 POP POP PUSH1 0x80 PUSH2 0x24AC DUP10 DUP3 DUP11 ADD PUSH2 0x1F82 JUMP JUMPDEST SWAP2 POP POP SWAP3 SWAP6 POP SWAP3 SWAP6 POP SWAP3 SWAP6 JUMP JUMPDEST PUSH0 PUSH0 PUSH0 PUSH1 0x60 DUP5 DUP7 SUB SLT ISZERO PUSH2 0x24D0 JUMPI PUSH2 0x24CF PUSH2 0x1F5B JUMP JUMPDEST JUMPDEST PUSH0 PUSH2 0x24DD DUP7 DUP3 DUP8 ADD PUSH2 0x1F82 JUMP JUMPDEST SWAP4 POP POP PUSH1 0x20 PUSH2 0x24EE DUP7 DUP3 DUP8 ADD PUSH2 0x206E JUMP JUMPDEST SWAP3 POP POP PUSH1 0x40 PUSH2 0x24FF DUP7 DUP3 DUP8 ADD PUSH2 0x1F82 JUMP JUMPDEST SWAP2 POP POP SWAP3 POP SWAP3 POP SWAP3 JUMP JUMPDEST PUSH0 PUSH1 0x40 DUP3 ADD SWAP1 POP PUSH2 0x251C PUSH0 DUP4 ADD DUP6 PUSH2 0x20CB JUMP JUMPDEST PUSH2 0x2529 PUSH1 0x20 DUP4 ADD DUP5 PUSH2 0x20CB JUMP JUMPDEST SWAP4 SWAP3 POP POP POP JUMP JUMPDEST PUSH0 PUSH1 0x20 DUP3 ADD SWAP1 POP PUSH2 0x2543 PUSH0 DUP4 ADD DUP5 PUSH2 0x1FE3 JUMP JUMPDEST SWAP3 SWAP2 POP POP JUMP JUMPDEST PUSH0 PUSH1 0x20 DUP3 DUP5 SUB SLT ISZERO PUSH2 0x255E JUMPI PUSH2 0x255D PUSH2 0x1F5B JUMP JUMPDEST JUMPDEST PUSH0 PUSH2 0x256B DUP5 DUP3 DUP6 ADD PUSH2 0x206E JUMP JUMPDEST SWAP2 POP POP SWAP3 SWAP2 POP POP JUMP JUMPDEST PUSH2 0x257D DUP2 PUSH2 0x2145 JUMP JUMPDEST DUP2 EQ PUSH2 0x2587 JUMPI PUSH0 PUSH0 REVERT JUMPDEST POP JUMP JUMPDEST PUSH0 DUP2 CALLDATALOAD SWAP1 POP PUSH2 0x2598 DUP2 PUSH2 0x2574 JUMP JUMPDEST SWAP3 SWAP2 POP POP JUMP JUMPDEST PUSH2 0x25A7 DUP2 PUSH2 0x216B JUMP JUMPDEST DUP2 EQ PUSH2 0x25B1 JUMPI PUSH0 PUSH0 REVERT JUMPDEST POP JUMP JUMPDEST PUSH0 DUP2 CALLDATALOAD SWAP1 POP PUSH2 0x25C2 DUP2 PUSH2 0x259E JUMP JUMPDEST SWAP3 SWAP2 POP POP JUMP JUMPDEST PUSH0 PUSH0 PUSH0 PUSH0 PUSH1 0x80 DUP6 DUP8 SUB SLT ISZERO PUSH2 0x25E0 JUMPI PUSH2 0x25DF PUSH2 0x1F5B JUMP JUMPDEST JUMPDEST PUSH0 PUSH2 0x25ED DUP8 DUP3 DUP9 ADD PUSH2 0x1F82 JUMP JUMPDEST SWAP5 POP POP PUSH1 0x20 PUSH2 0x25FE DUP8 DUP3 DUP9 ADD PUSH2 0x206E JUMP JUMPDEST SWAP4 POP POP PUSH1 0x40 PUSH2 0x260F DUP8 DUP3 DUP9 ADD PUSH2 0x258A JUMP JUMPDEST SWAP3 POP POP PUSH1 0x60 PUSH2 0x2620 DUP8 DUP3 DUP9 ADD PUSH2 0x25B4 JUMP JUMPDEST SWAP2 POP POP SWAP3 SWAP6 SWAP2 SWAP5 POP SWAP3 POP JUMP JUMPDEST PUSH32 0x4E487B7100000000000000000000000000000000000000000000000000000000 PUSH0 MSTORE PUSH1 0x11 PUSH1 0x4 MSTORE PUSH1 0x24 PUSH0 REVERT JUMPDEST PUSH0 PUSH2 0x2663 DUP3 PUSH2 0x1F63 JUMP JUMPDEST SWAP2 POP PUSH2 0x266E DUP4 PUSH2 0x1F63 JUMP JUMPDEST SWAP3 POP DUP3 DUP3 MUL PUSH2 0x267C DUP2 PUSH2 0x1F63 JUMP JUMPDEST SWAP2 POP DUP3 DUP3 DIV DUP5 EQ DUP4 ISZERO OR PUSH2 0x2693 JUMPI PUSH2 0x2692 PUSH2 0x262C JUMP JUMPDEST JUMPDEST POP SWAP3 SWAP2 POP POP JUMP JUMPDEST PUSH32 0x4E487B7100000000000000000000000000000000000000000000000000000000 PUSH0 MSTORE PUSH1 0x12 PUSH1 0x4 MSTORE PUSH1 0x24 PUSH0 REVERT JUMPDEST PUSH0 PUSH2 0x26D1 DUP3 PUSH2 0x1F63 JUMP JUMPDEST SWAP2 POP PUSH2 0x26DC DUP4 PUSH2 0x1F63 JUMP JUMPDEST SWAP3 POP DUP3 PUSH2 0x26EC JUMPI PUSH2 0x26EB PUSH2 0x269A JUMP JUMPDEST JUMPDEST DUP3 DUP3 DIV SWAP1 POP SWAP3 SWAP2 POP POP JUMP JUMPDEST PUSH0 DUP3 DUP3 MSTORE PUSH1 0x20 DUP3 ADD SWAP1 POP SWAP3 SWAP2 POP POP JUMP JUMPDEST PUSH32 0x616D6F756E743D30000000000000000000000000000000000000000000000000 PUSH0 DUP3 ADD MSTORE POP JUMP JUMPDEST PUSH0 PUSH2 0x273B PUSH1 0x8 DUP4 PUSH2 0x26F7 JUMP JUMPDEST SWAP2 POP PUSH2 0x2746 DUP3 PUSH2 0x2707 JUMP JUMPDEST PUSH1 0x20 DUP3 ADD SWAP1 POP SWAP2 SWAP1 POP JUMP JUMPDEST PUSH0 PUSH1 0x20 DUP3 ADD SWAP1 POP DUP2 DUP2 SUB PUSH0 DUP4 ADD MSTORE PUSH2 0x2768 DUP2 PUSH2 0x272F JUMP JUMPDEST SWAP1 POP SWAP2 SWAP1 POP JUMP JUMPDEST PUSH32 0x6D61746368206E6F742073657400000000000000000000000000000000000000 PUSH0 DUP3 ADD MSTORE POP JUMP JUMPDEST PUSH0 PUSH2 0x27A3 PUSH1 0xD DUP4 PUSH2 0x26F7 JUMP JUMPDEST SWAP2 POP PUSH2 0x27AE DUP3 PUSH2 0x276F JUMP JUMPDEST PUSH1 0x20 DUP3 ADD SWAP1 POP SWAP2 SWAP1 POP JUMP JUMPDEST PUSH0 PUSH1 0x20 DUP3 ADD SWAP1 POP DUP2 DUP2 SUB PUSH0 DUP4 ADD MSTORE PUSH2 0x27D0 DUP2 PUSH2 0x2797 JUMP JUMPDEST SWAP1 POP SWAP2 SWAP1 POP JUMP JUMPDEST PUSH0 PUSH2 0x27E1 DUP3 PUSH2 0x1F63 JUMP JUMPDEST SWAP2 POP PUSH2 0x27EC DUP4 PUSH2 0x1F63 JUMP JUMPDEST SWAP3 POP DUP3 DUP3 ADD SWAP1 POP DUP1 DUP3 GT ISZERO PUSH2 0x2804 JUMPI PUSH2 0x2803 PUSH2 0x262C JUMP JUMPDEST JUMPDEST SWAP3 SWAP2 POP POP JUMP JUMPDEST PUSH32 0x6E6F742066696E616C697A656400000000000000000000000000000000000000 PUSH0 DUP3 ADD MSTORE POP JUMP JUMPDEST PUSH0 PUSH2 0x283E PUSH1 0xD DUP4 PUSH2 0x26F7 JUMP JUMPDEST SWAP2 POP PUSH2 0x2849 DUP3 PUSH2 0x280A JUMP JUMPDEST PUSH1 0x20 DUP3 ADD SWAP1 POP SWAP2 SWAP1 POP JUMP JUMPDEST PUSH0 PUSH1 0x20 DUP3 ADD SWAP1 POP DUP2 DUP2 SUB PUSH0 DUP4 ADD MSTORE PUSH2 0x286B DUP2 PUSH2 0x2832 JUMP JUMPDEST SWAP1 POP SWAP2 SWAP1 POP JUMP JUMPDEST PUSH32 0x6E6F742072656769737465726564000000000000000000000000000000000000 PUSH0 DUP3 ADD MSTORE POP JUMP JUMPDEST PUSH0 PUSH2 0x28A6 PUSH1 0xE DUP4 PUSH2 0x26F7 JUMP JUMPDEST SWAP2 POP PUSH2 0x28B1 DUP3 PUSH2 0x2872 JUMP JUMPDEST PUSH1 0x20 DUP3 ADD SWAP1 POP SWAP2 SWAP1 POP JUMP JUMPDEST PUSH0 PUSH1 0x20 DUP3 ADD SWAP1 POP DUP2 DUP2 SUB PUSH0 DUP4 ADD MSTORE PUSH2 0x28D3 DUP2 PUSH2 0x289A JUMP JUMPDEST SWAP1 POP SWAP2 SWAP1 POP JUMP JUMPDEST PUSH32 0x636C61696D656400000000000000000000000000000000000000000000000000 PUSH0 DUP3 ADD MSTORE POP JUMP JUMPDEST PUSH0 PUSH2 0x290E PUSH1 0x7 DUP4 PUSH2 0x26F7 JUMP JUMPDEST SWAP2 POP PUSH2 0x2919 DUP3 PUSH2 0x28DA JUMP JUMPDEST PUSH1 0x20 DUP3 ADD SWAP1 POP SWAP2 SWAP1 POP JUMP JUMPDEST PUSH0 PUSH1 0x20 DUP3 ADD SWAP1 POP DUP2 DUP2 SUB PUSH0 DUP4 ADD MSTORE PUSH2 0x293B DUP2 PUSH2 0x2902 JUMP JUMPDEST SWAP1 POP SWAP2 SWAP1 POP JUMP JUMPDEST PUSH0 DUP2 PUSH1 0x60 SHL SWAP1 POP SWAP2 SWAP1 POP JUMP JUMPDEST PUSH0 PUSH2 0x2958 DUP3 PUSH2 0x2942 JUMP JUMPDEST SWAP1 POP SWAP2 SWAP1 POP JUMP JUMPDEST PUSH0 PUSH2 0x2969 DUP3 PUSH2 0x294E JUMP JUMPDEST SWAP1 POP SWAP2 SWAP1 POP JUMP JUMPDEST PUSH2 0x2981 PUSH2 0x297C DUP3 PUSH2 0x2047 JUMP JUMPDEST PUSH2 0x295F JUMP JUMPDEST DUP3 MSTORE POP POP JUMP JUMPDEST PUSH0 DUP2 SWAP1 POP SWAP2 SWAP1 POP JUMP JUMPDEST PUSH2 0x29A1 PUSH2 0x299C DUP3 PUSH2 0x1F63 JUMP JUMPDEST PUSH2 0x2987 JUMP JUMPDEST DUP3 MSTORE POP POP JUMP JUMPDEST PUSH0 PUSH2 0x29B2 DUP3 DUP6 PUSH2 0x2970 JUMP JUMPDEST PUSH1 0x14 DUP3 ADD SWAP2 POP PUSH2 0x29C2 DUP3 DUP5 PUSH2 0x2990 JUMP JUMPDEST PUSH1 0x20 DUP3 ADD SWAP2 POP DUP2 SWAP1 POP SWAP4 SWAP3 POP POP POP JUMP JUMPDEST PUSH32 0x6261642070726F6F660000000000000000000000000000000000000000000000 PUSH0 DUP3 ADD MSTORE POP JUMP JUMPDEST PUSH0 PUSH2 0x2A06 PUSH1 0x9 DUP4 PUSH2 0x26F7 JUMP JUMPDEST SWAP2 POP PUSH2 0x2A11 DUP3 PUSH2 0x29D2 JUMP JUMPDEST PUSH1 0x20 DUP3 ADD SWAP1 POP SWAP2 SWAP1 POP JUMP JUMPDEST PUSH0 PUSH1 0x20 DUP3 ADD SWAP1 POP DUP2 DUP2 SUB PUSH0 DUP4 ADD MSTORE PUSH2 0x2A33 DUP2 PUSH2 0x29FA JUMP JUMPDEST SWAP1 POP SWAP2 SWAP1 POP JUMP JUMPDEST PUSH32 0x696E76616C69642072616E6B0000000000000000000000000000000000000000 PUSH0 DUP3 ADD MSTORE POP JUMP JUMPDEST PUSH0 PUSH2 0x2A6E PUSH1 0xC DUP4 PUSH2 0x26F7 JUMP JUMPDEST SWAP2 POP PUSH2 0x2A79 DUP3 PUSH2 0x2A3A JUMP JUMPDEST PUSH1 0x20 DUP3 ADD SWAP1 POP SWAP2 SWAP1 POP JUMP JUMPDEST PUSH0 PUSH1 0x20 DUP3 ADD SWAP1 POP DUP2 DUP2 SUB PUSH0 DUP4 ADD MSTORE PUSH2 0x2A9B DUP2 PUSH2 0x2A62 JUMP JUMPDEST SWAP1 POP SWAP2 SWAP1 POP JUMP JUMPDEST PUSH32 0x7A65726F207061796F7574000000000000000000000000000000000000000000 PUSH0 DUP3 ADD MSTORE POP JUMP JUMPDEST PUSH0 PUSH2 0x2AD6 PUSH1 0xB DUP4 PUSH2 0x26F7 JUMP JUMPDEST SWAP2 POP PUSH2 0x2AE1 DUP3 PUSH2 0x2AA2 JUMP JUMPDEST PUSH1 0x20 DUP3 ADD SWAP1 POP SWAP2 SWAP1 POP JUMP JUMPDEST PUSH0 PUSH1 0x20 DUP3 ADD SWAP1 POP DUP2 DUP2 SUB PUSH0 DUP4 ADD MSTORE PUSH2 0x2B03 DUP2 PUSH2 0x2ACA JUMP JUMPDEST SWAP1 POP SWAP2 SWAP1 POP JUMP JUMPDEST PUSH32 0x706F6F6C2073686F727461676500000000000000000000000000000000000000 PUSH0 DUP3 ADD MSTORE POP JUMP JUMPDEST PUSH0 PUSH2 0x2B3E PUSH1 0xD DUP4 PUSH2 0x26F7 JUMP JUMPDEST SWAP2 POP PUSH2 0x2B49 DUP3 PUSH2 0x2B0A JUMP JUMPDEST PUSH1 0x20 DUP3 ADD SWAP1 POP SWAP2 SWAP1 POP JUMP JUMPDEST PUSH0 PUSH1 0x20 DUP3 ADD SWAP1 POP DUP2 DUP2 SUB PUSH0 DUP4 ADD MSTORE PUSH2 0x2B6B DUP2 PUSH2 0x2B32 JUMP JUMPDEST SWAP1 POP SWAP2 SWAP1 POP JUMP JUMPDEST PUSH0 PUSH2 0x2B7C DUP3 PUSH2 0x1F63 JUMP JUMPDEST SWAP2 POP PUSH2 0x2B87 DUP4 PUSH2 0x1F63 JUMP JUMPDEST SWAP3 POP DUP3 DUP3 SUB SWAP1 POP DUP2 DUP2 GT ISZERO PUSH2 0x2B9F JUMPI PUSH2 0x2B9E PUSH2 0x262C JUMP JUMPDEST JUMPDEST SWAP3 SWAP2 POP POP JUMP JUMPDEST PUSH0 PUSH1 0x40 DUP3 ADD SWAP1 POP PUSH2 0x2BB8 PUSH0 DUP4 ADD DUP6 PUSH2 0x1FF2 JUMP JUMPDEST PUSH2 0x2BC5 PUSH1 0x20 DUP4 ADD DUP5 PUSH2 0x1FF2 JUMP JUMPDEST SWAP4 SWAP3 POP POP POP JUMP JUMPDEST PUSH32 0x616C72656164792066696E616C697A6564000000000000000000000000000000 PUSH0 DUP3 ADD MSTORE POP JUMP JUMPDEST PUSH0 PUSH2 0x2C00 PUSH1 0x11 DUP4 PUSH2 0x26F7 JUMP JUMPDEST SWAP2 POP PUSH2 0x2C0B DUP3 PUSH2 0x2BCC JUMP JUMPDEST PUSH1 0x20 DUP3 ADD SWAP1 POP SWAP2 SWAP1 POP JUMP JUMPDEST PUSH0 PUSH1 0x20 DUP3 ADD SWAP1 POP DUP2 DUP2 SUB PUSH0 DUP4 ADD MSTORE PUSH2 0x2C2D DUP2 PUSH2 0x2BF4 JUMP JUMPDEST SWAP1 POP SWAP2 SWAP1 POP JUMP JUMPDEST PUSH32 0x726F6F743D300000000000000000000000000000000000000000000000000000 PUSH0 DUP3 ADD MSTORE POP JUMP JUMPDEST PUSH0 PUSH2 0x2C68 PUSH1 0x6 DUP4 PUSH2 0x26F7 JUMP JUMPDEST SWAP2 POP PUSH2 0x2C73 DUP3 PUSH2 0x2C34 JUMP JUMPDEST PUSH1 0x20 DUP3 ADD SWAP1 POP SWAP2 SWAP1 POP JUMP JUMPDEST PUSH0 PUSH1 0x20 DUP3 ADD SWAP1 POP DUP2 DUP2 SUB PUSH0 DUP4 ADD MSTORE PUSH2 0x2C95 DUP2 PUSH2 0x2C5C JUMP JUMPDEST SWAP1 POP SWAP2 SWAP1 POP JUMP JUMPDEST PUSH32 0x6261642073686172657300000000000000000000000000000000000000000000 PUSH0 DUP3 ADD MSTORE POP JUMP JUMPDEST PUSH0 PUSH2 0x2CD0 PUSH1 0xA DUP4 PUSH2 0x26F7 JUMP JUMPDEST SWAP2 POP PUSH2 0x2CDB DUP3 PUSH2 0x2C9C JUMP JUMPDEST PUSH1 0x20 DUP3 ADD SWAP1 POP SWAP2 SWAP1 POP JUMP JUMPDEST PUSH0 PUSH1 0x20 DUP3 ADD SWAP1 POP DUP2 DUP2 SUB PUSH0 DUP4 ADD MSTORE PUSH2 0x2CFD DUP2 PUSH2 0x2CC4 JUMP JUMPDEST SWAP1 POP SWAP2 SWAP1 POP JUMP JUMPDEST PUSH32 0x4E487B7100000000000000000000000000000000000000000000000000000000 PUSH0 MSTORE PUSH1 0x32 PUSH1 0x4 MSTORE PUSH1 0x24 PUSH0 REVERT JUMPDEST PUSH0 PUSH1 0x20 DUP3 DUP5 SUB SLT ISZERO PUSH2 0x2D46 JUMPI PUSH2 0x2D45 PUSH2 0x1F5B JUMP JUMPDEST JUMPDEST PUSH0 PUSH2 0x2D53 DUP5 DUP3 DUP6 ADD PUSH2 0x23E5 JUMP JUMPDEST SWAP2 POP POP SWAP3 SWAP2 POP POP JUMP JUMPDEST PUSH32 0x7A65726F20736861726500000000000000000000000000000000000000000000 PUSH0 DUP3 ADD MSTORE POP JUMP JUMPDEST PUSH0 PUSH2 0x2D90 PUSH1 0xA DUP4 PUSH2 0x26F7 JUMP JUMPDEST SWAP2 POP PUSH2 0x2D9B DUP3 PUSH2 0x2D5C JUMP JUMPDEST PUSH1 0x20 DUP3 ADD SWAP1 POP SWAP2 SWAP1 POP JUMP JUMPDEST PUSH0 PUSH1 0x20 DUP3 ADD SWAP1 POP DUP2 DUP2 SUB PUSH0 DUP4 ADD MSTORE PUSH2 0x2DBD DUP2 PUSH2 0x2D84 JUMP JUMPDEST SWAP1 POP SWAP2 SWAP1 POP JUMP JUMPDEST PUSH32 0x6669786564506F6F6C203E20706F6F6C42616C616E6365000000000000000000 PUSH0 DUP3 ADD MSTORE POP JUMP JUMPDEST PUSH0 PUSH2 0x2DF8 PUSH1 0x17 DUP4 PUSH2 0x26F7 JUMP JUMPDEST SWAP2 POP PUSH2 0x2E03 DUP3 PUSH2 0x2DC4 JUMP JUMPDEST PUSH1 0x20 DUP3 ADD SWAP1 POP SWAP2 SWAP1 POP JUMP JUMPDEST PUSH0 PUSH1 0x20 DUP3 ADD SWAP1 POP DUP2 DUP2 SUB PUSH0 DUP4 ADD MSTORE PUSH2 0x2E25 DUP2 PUSH2 0x2DEC JUMP JUMPDEST SWAP1 POP SWAP2 SWAP1 POP JUMP JUMPDEST PUSH0 PUSH1 0x40 DUP3 ADD SWAP1 POP PUSH2 0x2E3F PUSH0 DUP4 ADD DUP6 PUSH2 0x1FF2 JUMP JUMPDEST PUSH2 0x2E4C PUSH1 0x20 DUP4 ADD DUP5 PUSH2 0x2136 JUMP JUMPDEST SWAP4 SWAP3 POP POP POP JUMP JUMPDEST PUSH32 0x746F3D3000000000000000000000000000000000000000000000000000000000 PUSH0 DUP3 ADD MSTORE POP JUMP JUMPDEST PUSH0 PUSH2 0x2E87 PUSH1 0x4 DUP4 PUSH2 0x26F7 JUMP JUMPDEST SWAP2 POP PUSH2 0x2E92 DUP3 PUSH2 0x2E53 JUMP JUMPDEST PUSH1 0x20 DUP3 ADD SWAP1 POP SWAP2 SWAP1 POP JUMP JUMPDEST PUSH0 PUSH1 0x20 DUP3 ADD SWAP1 POP DUP2 DUP2 SUB PUSH0 DUP4 ADD MSTORE PUSH2 0x2EB4 DUP2 PUSH2 0x2E7B JUMP JUMPDEST SWAP1 POP SWAP2 SWAP1 POP JUMP JUMPDEST PUSH32 0x696E73756666696369656E740000000000000000000000000000000000000000 PUSH0 DUP3 ADD MSTORE POP JUMP JUMPDEST PUSH0 PUSH2 0x2EEF PUSH1 0xC DUP4 PUSH2 0x26F7 JUMP JUMPDEST SWAP2 POP PUSH2 0x2EFA DUP3 PUSH2 0x2EBB JUMP JUMPDEST PUSH1 0x20 DUP3 ADD SWAP1 POP SWAP2 SWAP1 POP JUMP JUMPDEST PUSH0 PUSH1 0x20 DUP3 ADD SWAP1 POP DUP2 DUP2 SUB PUSH0 DUP4 ADD MSTORE PUSH2 0x2F1C DUP2 PUSH2 0x2EE3 JUMP JUMPDEST SWAP1 POP SWAP2 SWAP1 POP JUMP JUMPDEST PUSH32 0x66696E616C697A65640000000000000000000000000000000000000000000000 PUSH0 DUP3 ADD MSTORE POP JUMP JUMPDEST PUSH0 PUSH2 0x2F57 PUSH1 0x9 DUP4 PUSH2 0x26F7 JUMP JUMPDEST SWAP2 POP PUSH2 0x2F62 DUP3 PUSH2 0x2F23 JUMP JUMPDEST PUSH1 0x20 DUP3 ADD SWAP1 POP SWAP2 SWAP1 POP JUMP JUMPDEST PUSH0 PUSH1 0x20 DUP3 ADD SWAP1 POP DUP2 DUP2 SUB PUSH0 DUP4 ADD MSTORE PUSH2 0x2F84 DUP2 PUSH2 0x2F4B JUMP JUMPDEST SWAP1 POP SWAP2 SWAP1 POP JUMP JUMPDEST PUSH32 0x726567697374726174696F6E20636C6F73656400000000000000000000000000 PUSH0 DUP3 ADD MSTORE POP JUMP JUMPDEST PUSH0 PUSH2 0x2FBF PUSH1 0x13 DUP4 PUSH2 0x26F7 JUMP JUMPDEST SWAP2 POP PUSH2 0x2FCA DUP3 PUSH2 0x2F8B JUMP JUMPDEST PUSH1 0x20 DUP3 ADD SWAP1 POP SWAP2 SWAP1 POP JUMP JUMPDEST PUSH0 PUSH1 0x20 DUP3 ADD SWAP1 POP DUP2 DUP2 SUB PUSH0 DUP4 ADD MSTORE PUSH2 0x2FEC DUP2 PUSH2 0x2FB3 JUMP JUMPDEST SWAP1 POP SWAP2 SWAP1 POP JUMP JUMPDEST PUSH32 0x616C726561647920726567697374657265640000000000000000000000000000 PUSH0 DUP3 ADD MSTORE POP JUMP JUMPDEST PUSH0 PUSH2 0x3027 PUSH1 0x12 DUP4 PUSH2 0x26F7 JUMP JUMPDEST SWAP2 POP PUSH2 0x3032 DUP3 PUSH2 0x2FF3 JUMP JUMPDEST PUSH1 0x20 DUP3 ADD SWAP1 POP SWAP2 SWAP1 POP JUMP JUMPDEST PUSH0 PUSH1 0x20 DUP3 ADD SWAP1 POP DUP2 DUP2 SUB PUSH0 DUP4 ADD MSTORE PUSH2 0x3054 DUP2 PUSH2 0x301B JUMP JUMPDEST SWAP1 POP SWAP2 SWAP1 POP JUMP JUMPDEST PUSH32 0x656E747279206665653D30000000000000000000000000000000000000000000 PUSH0 DUP3 ADD MSTORE POP JUMP JUMPDEST PUSH0 PUSH2 0x308F PUSH1 0xB DUP4 PUSH2 0x26F7 JUMP JUMPDEST SWAP2 POP PUSH2 0x309A DUP3 PUSH2 0x305B JUMP JUMPDEST PUSH1 0x20 DUP3 ADD SWAP1 POP SWAP2 SWAP1 POP JUMP JUMPDEST PUSH0 PUSH1 0x20 DUP3 ADD SWAP1 POP DUP2 DUP2 SUB PUSH0 DUP4 ADD MSTORE PUSH2 0x30BC DUP2 PUSH2 0x3083 JUMP JUMPDEST SWAP1 POP SWAP2 SWAP1 POP JUMP JUMPDEST PUSH32 0x746F6B656E3D3000000000000000000000000000000000000000000000000000 PUSH0 DUP3 ADD MSTORE POP JUMP JUMPDEST PUSH0 PUSH2 0x30F7 PUSH1 0x7 DUP4 PUSH2 0x26F7 JUMP JUMPDEST SWAP2 POP PUSH2 0x3102 DUP3 PUSH2 0x30C3 JUMP JUMPDEST PUSH1 0x20 DUP3 ADD SWAP1 POP SWAP2 SWAP1 POP JUMP JUMPDEST PUSH0 PUSH1 0x20 DUP3 ADD SWAP1 POP DUP2 DUP2 SUB PUSH0 DUP4 ADD MSTORE PUSH2 0x3124 DUP2 PUSH2 0x30EB JUMP JUMPDEST SWAP1 POP SWAP2 SWAP1 POP JUMP JUMPDEST PUSH32 0x6578697374730000000000000000000000000000000000000000000000000000 PUSH0 DUP3 ADD MSTORE POP JUMP JUMPDEST PUSH0 PUSH2 0x315F PUSH1 0x6 DUP4 PUSH2 0x26F7 JUMP JUMPDEST SWAP2 POP PUSH2 0x316A DUP3 PUSH2 0x312B JUMP JUMPDEST PUSH1 0x20 DUP3 ADD SWAP1 POP SWAP2 SWAP1 POP JUMP JUMPDEST PUSH0 PUSH1 0x20 DUP3 ADD SWAP1 POP DUP2 DUP2 SUB PUSH0 DUP4 ADD MSTORE PUSH2 0x318C DUP2 PUSH2 0x3153 JUMP JUMPDEST SWAP1 POP SWAP2 SWAP1 POP JUMP JUMPDEST PUSH0 PUSH1 0x60 DUP3 ADD SWAP1 POP PUSH2 0x31A6 PUSH0 DUP4 ADD DUP7 PUSH2 0x211E JUMP JUMPDEST PUSH2 0x31B3 PUSH1 0x20 DUP4 ADD DUP6 PUSH2 0x215C JUMP JUMPDEST PUSH2 0x31C0 PUSH1 0x40 DUP4 ADD DUP5 PUSH2 0x217E JUMP JUMPDEST SWAP5 SWAP4 POP POP POP POP JUMP JUMPDEST PUSH0 PUSH1 0x60 DUP3 ADD SWAP1 POP PUSH2 0x31DB PUSH0 DUP4 ADD DUP7 PUSH2 0x211E JUMP JUMPDEST PUSH2 0x31E8 PUSH1 0x20 DUP4 ADD DUP6 PUSH2 0x211E JUMP JUMPDEST PUSH2 0x31F5 PUSH1 0x40 DUP4 ADD DUP5 PUSH2 0x1FF2 JUMP JUMPDEST SWAP5 SWAP4 POP POP POP POP JUMP JUMPDEST PUSH0 DUP2 SWAP1 POP SWAP2 SWAP1 POP JUMP JUMPDEST PUSH2 0x3217 PUSH2 0x3212 DUP3 PUSH2 0x212D JUMP JUMPDEST PUSH2 0x31FD JUMP JUMPDEST DUP3 MSTORE POP POP JUMP JUMPDEST PUSH0 PUSH2 0x3228 DUP3 DUP6 PUSH2 0x3206 JUMP JUMPDEST PUSH1 0x20 DUP3 ADD SWAP2 POP PUSH2 0x3238 DUP3 DUP5 PUSH2 0x3206 JUMP JUMPDEST PUSH1 0x20 DUP3 ADD SWAP2 POP DUP2 SWAP1 POP SWAP4 SWAP3 POP POP POP JUMP JUMPDEST PUSH0 PUSH1 0x40 DUP3 ADD SWAP1 POP PUSH2 0x325B PUSH0 DUP4 ADD DUP6 PUSH2 0x211E JUMP JUMPDEST PUSH2 0x3268 PUSH1 0x20 DUP4 ADD DUP5 PUSH2 0x1FF2 JUMP JUMPDEST SWAP4 SWAP3 POP POP POP JUMP INVALID LOG2 PUSH5 0x6970667358 0x22 SLT KECCAK256 DUP8 MLOAD 0xCA 0xF6 PUSH11 0xA684B48460A96AD377286F SIGNEXTEND 0xDC TIMESTAMP AND 0x4B 0x1E DUP16 0xCB DUP10 SWAP16 BALANCE LOG3 0x22 ADDRESS 0xBE LOG1 PUSH5 0x736F6C6343 STOP ADDMOD 0x1E STOP CALLER "
				},
				"gasEstimates": {
					"creation": {
						"codeDepositCost": "2593000",
						"executionCost": "infinite",
						"totalCost": "infinite"
					},
					"external": {
						"claim(uint256,uint256,bytes32[])": "infinite",
						"claimed(uint256,address)": "3116",
						"createMatch(uint256,address,uint96,uint64)": "infinite",
						"finalize(uint256,uint32[],uint32,bytes32,uint256)": "infinite",
						"getMatchInfo(uint256)": "infinite",
						"matches(uint256)": "infinite",
						"owner()": "2603",
						"poolBalance(uint256)": "infinite",
						"quotePayoutByRank(uint256,uint256)": "infinite",
						"rankShare(uint256,uint256)": "infinite",
						"register(uint256)": "infinite",
						"registered(uint256,address)": "3137",
						"renounceOwnership()": "infinite",
						"skim(uint256,address,uint256)": "infinite",
						"sponsor(uint256,uint256)": "infinite",
						"status(uint256,address)": "infinite",
						"transferOwnership(address)": "infinite"
					},
					"internal": {
						"_verifySortedMerkleProof(bytes32[] calldata,bytes32,bytes32)": "infinite"
					}
				},
				"methodIdentifiers": {
					"claim(uint256,uint256,bytes32[])": "ae0b51df",
					"claimed(uint256,address)": "120aa877",
					"createMatch(uint256,address,uint96,uint64)": "f8d4a975",
					"finalize(uint256,uint32[],uint32,bytes32,uint256)": "b4921afd",
					"getMatchInfo(uint256)": "4b561a16",
					"matches(uint256)": "4768d4ef",
					"owner()": "8da5cb5b",
					"poolBalance(uint256)": "6a6d964e",
					"quotePayoutByRank(uint256,uint256)": "0d0a80b0",
					"rankShare(uint256,uint256)": "e23e4cab",
					"register(uint256)": "f207564e",
					"registered(uint256,address)": "8c817b6e",
					"renounceOwnership()": "715018a6",
					"skim(uint256,address,uint256)": "b756a459",
					"sponsor(uint256,uint256)": "947fdb8b",
					"status(uint256,address)": "db1698b2",
					"transferOwnership(address)": "f2fde38b"
				}
			},
			"storageLayout": {
				"storage": [
					{
						"astId": 8,
						"contract": "contracts/match.sol:TournamentDistributor",
						"label": "_owner",
						"offset": 0,
						"slot": "0",
						"type": "t_address"
					},
					{
						"astId": 855,
						"contract": "contracts/match.sol:TournamentDistributor",
						"label": "matches",
						"offset": 0,
						"slot": "1",
						"type": "t_mapping(t_uint256,t_struct(MatchInfo)850_storage)"
					},
					{
						"astId": 861,
						"contract": "contracts/match.sol:TournamentDistributor",
						"label": "rankShare",
						"offset": 0,
						"slot": "2",
						"type": "t_mapping(t_uint256,t_mapping(t_uint256,t_uint32))"
					},
					{
						"astId": 865,
						"contract": "contracts/match.sol:TournamentDistributor",
						"label": "poolBalance",
						"offset": 0,
						"slot": "3",
						"type": "t_mapping(t_uint256,t_uint256)"
					},
					{
						"astId": 871,
						"contract": "contracts/match.sol:TournamentDistributor",
						"label": "registered",
						"offset": 0,
						"slot": "4",
						"type": "t_mapping(t_uint256,t_mapping(t_address,t_bool))"
					},
					{
						"astId": 877,
						"contract": "contracts/match.sol:TournamentDistributor",
						"label": "claimed",
						"offset": 0,
						"slot": "5",
						"type": "t_mapping(t_uint256,t_mapping(t_address,t_bool))"
					}
				],
				"types": {
					"t_address": {
						"encoding": "inplace",
						"label": "address",
						"numberOfBytes": "20"
					},
					"t_bool": {
						"encoding": "inplace",
						"label": "bool",
						"numberOfBytes": "1"
					},
					"t_bytes32": {
						"encoding": "inplace",
						"label": "bytes32",
						"numberOfBytes": "32"
					},
					"t_mapping(t_address,t_bool)": {
						"encoding": "mapping",
						"key": "t_address",
						"label": "mapping(address => bool)",
						"numberOfBytes": "32",
						"value": "t_bool"
					},
					"t_mapping(t_uint256,t_mapping(t_address,t_bool))": {
						"encoding": "mapping",
						"key": "t_uint256",
						"label": "mapping(uint256 => mapping(address => bool))",
						"numberOfBytes": "32",
						"value": "t_mapping(t_address,t_bool)"
					},
					"t_mapping(t_uint256,t_mapping(t_uint256,t_uint32))": {
						"encoding": "mapping",
						"key": "t_uint256",
						"label": "mapping(uint256 => mapping(uint256 => uint32))",
						"numberOfBytes": "32",
						"value": "t_mapping(t_uint256,t_uint32)"
					},
					"t_mapping(t_uint256,t_struct(MatchInfo)850_storage)": {
						"encoding": "mapping",
						"key": "t_uint256",
						"label": "mapping(uint256 => struct TournamentDistributor.MatchInfo)",
						"numberOfBytes": "32",
						"value": "t_struct(MatchInfo)850_storage"
					},
					"t_mapping(t_uint256,t_uint256)": {
						"encoding": "mapping",
						"key": "t_uint256",
						"label": "mapping(uint256 => uint256)",
						"numberOfBytes": "32",
						"value": "t_uint256"
					},
					"t_mapping(t_uint256,t_uint32)": {
						"encoding": "mapping",
						"key": "t_uint256",
						"label": "mapping(uint256 => uint32)",
						"numberOfBytes": "32",
						"value": "t_uint32"
					},
					"t_struct(MatchInfo)850_storage": {
						"encoding": "inplace",
						"label": "struct TournamentDistributor.MatchInfo",
						"members": [
							{
								"astId": 837,
								"contract": "contracts/match.sol:TournamentDistributor",
								"label": "token",
								"offset": 0,
								"slot": "0",
								"type": "t_address"
							},
							{
								"astId": 839,
								"contract": "contracts/match.sol:TournamentDistributor",
								"label": "fixedPool",
								"offset": 0,
								"slot": "1",
								"type": "t_uint256"
							},
							{
								"astId": 841,
								"contract": "contracts/match.sol:TournamentDistributor",
								"label": "merkleRoot",
								"offset": 0,
								"slot": "2",
								"type": "t_bytes32"
							},
							{
								"astId": 843,
								"contract": "contracts/match.sol:TournamentDistributor",
								"label": "sharesSum",
								"offset": 0,
								"slot": "3",
								"type": "t_uint32"
							},
							{
								"astId": 845,
								"contract": "contracts/match.sol:TournamentDistributor",
								"label": "entryFee",
								"offset": 4,
								"slot": "3",
								"type": "t_uint96"
							},
							{
								"astId": 847,
								"contract": "contracts/match.sol:TournamentDistributor",
								"label": "registerDeadline",
								"offset": 16,
								"slot": "3",
								"type": "t_uint64"
							},
							{
								"astId": 849,
								"contract": "contracts/match.sol:TournamentDistributor",
								"label": "finalized",
								"offset": 24,
								"slot": "3",
								"type": "t_bool"
							}
						],
						"numberOfBytes": "128"
					},
					"t_uint256": {
						"encoding": "inplace",
						"label": "uint256",
						"numberOfBytes": "32"
					},
					"t_uint32": {
						"encoding": "inplace",
						"label": "uint32",
						"numberOfBytes": "4"
					},
					"t_uint64": {
						"encoding": "inplace",
						"label": "uint64",
						"numberOfBytes": "8"
					},
					"t_uint96": {
						"encoding": "inplace",
						"label": "uint96",
						"numberOfBytes": "12"
					}
				}
			},
			"userdoc": {
				"kind": "user",
				"methods": {},
				"version": 1
			}
		}
	}
}